:100000000C94BF050C94E3050C94E3050C94E305F4
:100010000C94E3050C94E3050C94E3050C94E305C0
:100020000C94E3050C94E3050C94E3050C94E305B0
:100030000C94E3050C94E3050C945B390C94E305F4
:100040000C94E3050C94E3050C94E3050C94E30590
:100050000C94AC150C94E3050C94E3050C94E305A7
:100060000C94E3050C9495380C94E3050C94E3058B
:100070000C94E3050C94E3050C94E3050C94E30560
:100080000C94E3050C94E3050C94E3050C94E30550
:100090000C94E3050C94E3050C94E3050C94E30540
:1000A0000C94E3050C94E3050C94E3050C94E30530
:1000B0000C94E3050C94E3050C94E3050C94E30520
:1000C0000C94E3050C94E3050C94E3050C94E30510
:1000D0000C94E3050C94E3050C94E3050C94E30500
:1000E0000C94E3050C94E3050C94E3050C94E305F0
:1000F0000C94E3050C94E3050C94E3050C94E305E0
:100100000C94C6140C94E3050C94DF140C94E305D2
:100110000C94E3050C94E3050C94E3050C94E305BF
:100120000C94E3050C94E3050C94E3050C94E305AF
:100130000C94E3050C94E3050C94E3050C94E3059F
:100140000C94E3050C94E3050C94E3050C94E3058F
:100150000C94E3050C94E3050C94E3050C94E3057F
:100160000C9426380C94E3050C94E3050C94E305F9
:100170000C94E3050C94E3050C94E3050C94E3055F
:100180000C947D140C94B7140C94E3050C94E305C3
:100190000C94E3050C94E3050C94E3050C94E3053F
:1001A0000C94E3050C94E3050C94E3050C94E3052F
:1001B0000C94E3050C94E3050C94E3050C94E3051F
:1001C0000C94E3050C94E3050C94E3050C94E3050F
:1001D0000C94E3050C94E3050C94E3050C943114A2
:1001E0000C94E3050C94E3050C94E3050C94E305EF
:1001F0000C94E30505279327482797277B27FF269D
:100200000227C72DCF2DE92DD92DE92DE92DE92D77
:10021000E92DE92DE92DE92DE92DE92DE92DE92D2E
:10022000E92DE92DE92DE92DE92DE92DE92DE92D1E
:10023000E92DE92DE92DE92DE92DE92DE92DC12D36
:10024000E92DE92DE92DE92DE92DE92DE92DE92DFE
:10025000B52DE92DE92DE92DE92DE92DE92DE92D22
:10026000E92DE92DE92DDF2DE42DFA31F4310032AD
:1002700000320032003200320032003200320032EE
:1002800000320032003200320032003200320032DE
:1002900000320032003200320032003200320032CE
:1002A00000320032003200320032003200320032BE
:1002B0000032003200320032003200320032F631B9
:1002C000F831FC31FE310032E4310232E631E831FE
:1002D000EA31EC31EE31F031F23105A84CCDB2D437
:1002E0004EB93836A9020C50B9918688083CA6AAA6
:1002F000AA2ABE000000803F040624060407240743
:10030000840600062006000720078006FFD0FFE0D5
:10031000FFC1FFD13FC0FF14FFD23FC0FF14FFD089
:10032000FFFE01060A00FE070136026820FFFE08F4
:10033000FE07FE0A006022176780808080800080B0
:10034000163363A0A0A00257675050F850F85050E1
:100350000257672070A07028702002576748A85085
:100360002050A89002576740A0A040A8906826138C
:100370006380808012376720408080804020123761
:1003800067804020202040800355658850F85088C1
:100390000355652020F8202011336360408005510B
:1003A00061F811336340E0400257670808102040AD
:1003B0008080025767205088888850200257672025
:1003C00060A0202020F8025767708808304080F82D
:1003D000025767F8081030088870025767103050CD
:1003E00090F81010025767F880B0C808887002575C
:1003F00067304080B0C88870025767F80810102036
:10040000404002576770888870888870025767700C
:1004100088986808106011376740E0400040E0406D
:1004200011376740E040006040801247671020406D
:1004300080402010045363F800F812476780402082
:10044000102040800257677088102020002002573B
:1004500067708898A8B0807002576720508888F825
:100460008888025767F04848704848F0025767701C
:10047000888080808870025767F04848484848F074
:10048000025767F88080F08080F8025767F8808014
:10049000F08080800257677088808098887002574B
:1004A00067888888F8888888123767E0404040402D
:1004B00040E00257673810101010906002576788AC
:1004C00090A0C0A09088025767808080808080F8CC
:1004D0000257678888D8A88888880257678888C89C
:1004E000A89888880257677088888888887002571B
:1004F00067F08888F08080800158687088888888D4
:10050000A87008025767F08888F0A09088025767A3
:1005100070888070088870025767F820202020209B
:10052000200257678888888888887002576788887B
:100530008850505020025767888888A8A8D8880219
:1005400057678888502050888802576788885020CD
:10055000202020025767F80810204080F8123767E3
:10056000E08080808080E002576780804020100813
:1005700008123767E02020202020E0065363205037
:1005800088015161F8282262804002556570087820
:1005900088780257678080B0C888C8B002556570F7
:1005A000888088700257670808689888986802559C
:1005B000657088F88070025767304840F0404040CE
:1005C000005767788888780888700257678080B0FD
:1005D000C88888881237674000C0404040E0104912
:1005E000691000301010109090600257678080886A
:1005F00090E09088123767C04040404040E002558C
:1006000065D0A8A8A888025565B0C8888888025512
:10061000657088888870005767B0C888C8B08080C7
:1006200000576768988898680808025565B0C880C0
:10063000808002556570807008F00257674040F076
:10064000404048300255658888889868025565881A
:10065000885050200255658888A8A85002556588A2
:10066000502050880057678888986808887002551D
:1006700065F8102040F8124767304020C020403015
:1006800022176780808080808080124767C020406A
:10069000304020C006536348A890FFFFFFFFFFFFD4
:1006A000FFFFFFFFFFFFFFFFFFFFFFFFFFFFFFFF5A
:1006B000FFFFFFFFFFFFFFFFFFFFFF0A00602217A2
:1006C00067800080808080800157672078A0A0A08C
:1006D0007820025767304840E04048B002556588AE
:1006E0007050708801586888885020F82020202297
:1006F0001767808080008080800158687080E0905B
:1007000048380870193161A00257677088A8C8A8D6
:1007100088701346667090B05000F00265652448FA
:10072000904824144262F010154161F0025767703E
:1007300088E8C8C88870095161F816336340A04042
:100740000256662020F82020F8154565609020406C
:10075000F0154565E0106010E028226240800156E7
:1007600066888888C8B08002576778E8E8682828D3
:100770002825116180202262408015356540C040E7
:1007800040E01346666090906000F0026565904816
:1007900024489001696940C04040E40C143C0401C5
:1007A000696940C04040E81404081C015969C02030
:1007B0004020C81828780802576720002020408869
:1007C000700258684020708888F88888025868103D
:1007D00020708888F888880258682050708888F8C7
:1007E000888802586848B0708888F88888025868F5
:1007F0005000708888F8888802586820507088886F
:10080000F888880267673C50909CF0909C0059697A
:1008100070888080808870204002586840F880800E
:10082000F08080F802586810F88080F08080F8022C
:10083000586820F88080F08080F802586850F8806E
:1008400080F08080F81238688040E040404040E00E
:100850001238682040E040404040E012386840A034
:10086000E040404040E0123868A000E04040404096
:10087000E0025767F04848E84848F00258682850B6
:1008800088C8A89888880258684020708888888816
:100890007002586810207088888888700258682014
:1008A00050708888888870025868285070888888B6
:1008B0008870025868500070888888887002556572
:1008C0008850205088025767709898A8C8C870024E
:1008D0005868402088888888887002586810208866
:1008E00088888888700258682050008888888870B6
:1008F00002586850008888888888700258681020DC
:1009000088885020202002576780F088F0808080FF
:10091000025767708890A09088B002586840200005
:1009200070087888780258681020007008788878F5
:10093000025868205000700878887802586828505B
:1009400000700878887802576750007008788878B7
:1009500002586820502070087888780265657814FD
:100960007C907C00576770888088702040025868AF
:100970004020007088F8807002586810200070884D
:10098000F880700258682050007088F88070025714
:100990006750007088F88070123868804000C0404E
:1009A0004040E0123868408000C0404040E01238CB
:1009B0006840A000C0404040E0123767A000C0403F
:1009C0004040E0025767C0307088888870025868DD
:1009D000285000B0C8888888025868402000708875
:1009E00088887002586810200070888888700258C3
:1009F00068205000708888887002586828500070FD
:100A000088888870025767500070888888700355FE
:100A1000652000F800200255657898A8C8F00258B3
:100A200068402000888888986802586810200088EC
:100A300088889868025868205000888888986802DA
:100A400057675000888888986800596910208888FE
:100A5000986808887000586880F0888888F08080DE
:100A60000059695000888898680888700102040855
:100A700001020408A0A0A0A0A8A8A8A86E616E000A
:100A8000696E660000407A10F35A00A0724E180991
:100A90000010A5D4E80000E87648170000E40B54E5
:100AA000020000CA9A3B000000E1F50500008096B4
:100AB0009800000040420F000000A08601000000E6
:100AC000102700000000E8030000000064000000A0
:100AD00000000A00000000000100000000002C7669
:100AE000D888DC674F0823DFC1DFAE59E1B1B79684
:100AF000E5E3E453C63AE651997696E8E6C28426E1
:100B0000EB898C9B62ED407C6FFCEFBC9C9F40F2BC
:100B1000BAA56FA5F490055A2AF75C936B6CF96738
:100B20006DC11BFCE0E40D47FEF520E6B500D0EDFD
:100B3000902E0300943577050080841E0800002065
:100B40004E0A000000C80C333333330F986E128303
:100B50001141EF8D2114893BE65516CFFEE6DB18D7
:100B6000D1844B381BF77C1D901DA4BBE42420329C
:100B700084725E228100C9F124ECA1E53D27112495
:100B80001FBECFEFCDBFDFE2DEBF18BE19BE1ABE5B
:100B90001BBE13E2A0E0B0E2EEE0F8E800E00BBF1D
:100BA00002C007900D92A237B107D9F71BBE29E208
:100BB000A2E7B3E201C01D92A33CB207E1F70E9495
:100BC000310E0C9405440C940000CF93DF936838E9
:100BD00023E172078105910509F458C0603127E2CD
:100BE00072078105910509F455C060322EE4720741
:100BF0008105910509F452C0613329E77207810527
:100C0000910509F44FC060342CE972078105910504
:100C100009F44CC0603523EC72078105910509F495
:100C200049C0603828E3720721E08207910509F482
:100C300045C0603A26E8720721E08207910509F471
:100C400041C0683428EE720721E082079105F1F176
:100C500060342DE0720723E082079105D9F16039F5
:100C600020ED720723E082079105C1F1603221EA8D
:100C7000720727E082079105A9F1603472448F4022
:100C80009105A1F1C0E0D0E060E033C0C7E8DFEF3C
:100C90006FE32FC0C7E8DFEF6FE12BC0C7E8DFEFDE
:100CA0006FE027C0C5E8D1EF6FE023C0C7E8DFEFF2
:100CB00067E01FC0C7E8DAEF67E01BC0C7E8DFEFF7
:100CC00063E017C0C7E8DAEF63E013C0C6E8D0EF0F
:100CD00063E00FC0C7E8DAEF61E00BC0C5E8D1EF11
:100CE00061E407C0C6E8D0EF60E003C0C2E8D0ED21
:100CF00060E04FEF8AE20E940D084FEF6D2F89E20E
:100D00000E940D084FEF6C2F88E20E940D08DF91C2
:100D1000CF9108950E9442080E94A4070E9476077E
:100D200060E970ED83E090E00E94E50543E063E058
:100D30008BE20E940D084FEF60E680E60E940D08EE
:100D400040EE60E08FE00E940D088AE290E00E9491
:100D50005D071F928F9388EC90E29F938F930E9480
:100D60003F4389E290E00E945D071F928F938BEDD5
:100D700090E29F938F930E943F4388E290E00E940D
:100D80005D071F928F9383EE90E29F938F930E9453
:100D90003F43109201278DB79EB70C968DBF9EBF23
:100DA00008951F93CF93DF93EC0161E388810E9444
:100DB0003F074FE0698185E30E940D088981882300
:100DC00069F010E066E3610FFE01E10FF11D828121
:100DD0000E943F071F5F89811817A0F381E80E94D6
:100DE000E607DF91CF911F9108951F93CF93DF9373
:100DF000EC01FC01329688E011928150E9F781E61E
:100E00000E942607888384E60E9426079881911114
:100E100001C0888385E60E9426078983882369F0BC
:100E200010E086E6810F0E942607FE01E10FF11D0A
:100E300082831F5F89811817A0F341E060E08CE294
:100E40000E940D08DF91CF911F9108950F931F937A
:100E5000CF93DF93082FC0E6D6E010E11E8383E036
:100E600090E00E942E15802F90E00E942E150E9487
:100E700039151D83DF91CF911F910F910895FF9236
:100E80000F931F93CF93DF93082FF62EC0E6D6E083
:100E900010E11E8382E090E00E942E158F2D90E0DD
:100EA0000E942E15802F90E00E942E151D83DF9149
:100EB000CF911F910F91FF9008950F931F93CF93A0
:100EC000DF93082FC0E6D6E010E11E8383E090E0B8
:100ED0000E942E15802F90E00E942E150E94391539
:100EE0001D83DF91CF911F910F910895CF9380E1E2
:100EF000E0E6F6E0868382E090E00E942E1581E62F
:100F000090E00E942E15CDE080E090E00E942E152A
:100F1000C150D1F7E0E6F6E080E18583868382E088
:100F200090E00E942E1581E790E00E942E15CDE002
:100F300080E090E00E942E15C150D1F780E1E0E6FC
:100F4000F6E08583CF910895CF9380E1E0E6F6E067
:100F5000868382E090E00E942E1581E390E00E945B
:100F60002E15CDE080E090E00E942E15C150D1F703
:100F7000E0E6F6E080E18583868382E090E00E94EF
:100F80002E1581E490E00E942E15CDE080E090E0E7
:100F90000E942E15C150D1F7E0E6F6E080E185838E
:100FA000868382E090E00E942E1581E590E00E9409
:100FB0002E15CDE080E090E00E942E15C150D1F7B3
:100FC00080E1E0E6F6E08583CF91089590E1E0E6E8
:100FD000F6E09683823871F018F4813831F018C049
:100FE000843869F0873881F013C081E890E00E946E
:100FF0002E150EC082E890E00E942E1509C084E8EC
:1010000090E00E942E1504C087E890E00E942E1503
:1010100080E1E0E6F6E085830895EF92FF920F937A
:101020001F93CF93DF93E82E062FF42EC0E6D6E071
:1010300010E11E8385E090E00E942E158E2D90E039
:101040000E942E158F2D90E00E942E15802F90E08B
:101050000E942E151D83DF91CF911F910F91FF905C
:10106000EF9008951F93CF93DF93C0E6D6E010E191
:101070001E8380EC90E00E942E151D83DF91CF919E
:101080001F9108950E9424150E94320880E008955F
:101090000F931F93CF93DF93CDB7DEB72A97CDBFC2
:1010A000DEBF09831A832B833C834D835E836F836A
:1010B000788789879A878CE090E00E94CD402AE06B
:1010C000FE013196DC0101900D922A95E1F7FC01B9
:1010D000128613862091742330917523232B79F483
:1010E0002091722330917323232B49F48093722330
:1010F0009093732380937423909375230AC0E09197
:101100007223F09173238287938780937223909345
:1011100073232A96CDBFDEBFDF91CF911F910F9130
:10112000089580917423909175230097C9F02091C0
:101130007223309173238217930749F4109272231C
:1011400010927323109274231092752307C0FC0130
:101150002285338520937423309375230E94654143
:101160000895E0917423F0917523309721F42FEFC7
:10117000FC01208308952AE0DC0101900D922A955C
:10118000E1F7089581E090E0209174233091752378
:10119000232B11F080E090E00895E0EEF6E08085EA
:1011A0008695869591E08927817090E00895E0EE1C
:1011B000F6E088E1848B94E09283848B98E09283BC
:1011C000848B90E19283848B90E29283848B90E471
:1011D0009283848B80E88283089580E8E0E2F7E0E0
:1011E0008583089580E8E0E2F7E0868308950F9311
:1011F0001F93CF93DF938C0118161906F4F4C0E007
:10120000D0E061E070E080E090E00E94E0338FE3A6
:101210009FE10197F1F700C0000060E070E080E01E
:1012200090E00E94E0338FE39FE10197F1F700C067
:1012300000002196C017D10721F7DF91CF911F91B0
:101240000F910895CF93C82F8A3019F48DE00E9432
:101250002209E1EAFAE0908195FFFDCFC093A00A50
:1012600080E090E0CF910895CF93BC01E1EAFAE0ED
:1012700080818823ECF7C091A00ACD3009F4CAE040
:101280008C2F0E9422098C2F90E0CF910895CF924D
:10129000DF92EF92FF920F931F93CF93DF93809192
:1012A00080239091812301968093802390938123C2
:1012B0009F938F938FED90E29F938F930E943F4374
:1012C000EEE7F7E2F080E180D280C380EEE8F7E25B
:1012D000C081D181128103810E94EC24CF92DF92E0
:1012E000EF92FF920F931F93DF93CF939F938F9370
:1012F000ECE7F7E281818F9380818F9387EE90E214
:101300009F938F930E943F438DB79EB742968DBFA8
:101310009EBFDF91CF911F910F91FF90EF90DF90D3
:10132000CF900895E0E5F0E08BEC828380818860C7
:101330008083818183FFFDCFE0E5F0E082EC85834F
:10134000808180618083818184FFFDCF88ED84BFAF
:1013500084E0809340000895FF920F931F93CF93F2
:10136000DF93CDB7DEB72A97CDBFDEBF80917E2752
:1013700090917F27A0918027B0918127492F5A2FE4
:101380006B2F7727F0908227F0918627E0918A27AC
:1013900008EC17E02CEF382F5F2D6F2F7E2F8091F8
:1013A00088279A850E9448082A96CDBFDEBFDF9124
:1013B000CF911F910F91FF9008958F929F92AF92BE
:1013C000BF92CF92DF92EF92FF920F931F93CF9332
:1013D000DF93CDB7DEB72A97CDBFDEBFEEE8F7E2E9
:1013E0003081832F9181A281B381892E9A2EAB2ED9
:1013F000BB246D01EE24FF246B2F772788279927C4
:1014000008EC15E02DEF482D5C2D788589859A85AF
:101410000E9448082A96CDBFDEBFDF91CF911F9171
:101420000F91FF90EF90DF90CF90BF90AF909F9083
:101430008F9008950E94AC090E94DD090895CF9312
:10144000DF93CDB7DEB76497CDBFDEBFCE010B967D
:101450000E94B1088AE0FE013B96DE0111960190E0
:101460000D928A95E1F7CE0101960E94D1060E9465
:1014700091088FE39CE90197F1F700C000006496A2
:10148000CDBFDEBFDF91CF9108950E94C208892BA6
:1014900039F402C00E941F0A0E94C208892BD1F3AE
:1014A0000E94C208019731F48091662790916727C6
:1014B0000E94F50608950E94BB310E94450A809162
:1014C0000227813321F488E290E00E94F708089512
:1014D0002F923F924F925F926F927F928F929F9244
:1014E000AF92BF92CF92DF92EF92FF920F931F9332
:1014F000CF93DF93CDB7DEB76497CDBFDEBF83E078
:1015000097E20E94802CC0907627D0907727209178
:1015100072273091732704E6029FC001039F900D4C
:101520001124B6010E94A13F882777FD8095982F4E
:101530000E94453A2AE939E949E95FE30E94323BD2
:1015400020E030E040E050E40E94A7390E94123AC7
:10155000162F2091742730917527029FC001039F99
:10156000900D1124B6010E94A13F882777FD809538
:10157000982F0E94453A2AE939E949E95FE30E9438
:10158000323B20E030E040E050E40E94A7390E9466
:10159000123AF62E0F2EF2E74F2EF7E25F2EF02DC5
:1015A0000F2EF4E08F2EF1E29F2EF02DCE0101964A
:1015B0006C010F2EF4E76F2EF7E27F2EF02D0F2E29
:1015C000F4E12F2EF1E23F2EF02D0F2EFEE7AF2E8D
:1015D000F7E2BF2EF02D62E273E083E097E20E9413
:1015E000D02A6894EE24E1F80FE02EE741E061E0B4
:1015F00083E097E20E94E82E29EF30E241E161E0CA
:1016000083E097E20E943D2AD20111968C911197B6
:101610008F938C918F939F928F92DF92CF920E94A3
:101620007E43960141E163E483E097E20E943D2A14
:101630002EE74CE161E083E097E20E94E82EF3019F
:1016400081818F9380818F939F928F92DF92CF922F
:101650000E947E4329E031E24DE261E083E097E2BF
:101660000E943D2A96014DE263E483E097E20E94E6
:101670003D2A0BE0212F43E063E083E097E20E94E4
:10168000CB2E2F2D4EE163E083E097E20E94CB2E1C
:101690001F921F921F921F923F922F92DF92CF9222
:1016A0000E947E43960146E361E083E097E20E9458
:1016B0003D2ACDBFDEBFA2E8B7E28D919C91019794
:1016C000D9F4F50183818F9382818F9381818F93E8
:1016D00080818F93A3E2B1E2BF93AF93DF92CF9269
:1016E0000E947E43960146E36EE683E097E20E9405
:1016F0003D2ACDBFDEBF20C0D50113968C91139734
:101700008F9312968C9112978F9311968C911197BB
:101710008F938C918F93A8E2B1E2BF93AF93DF9246
:10172000CF920E947E43960146E36EE683E097E205
:101730000E943D2ACDBFDEBF83E097E20E94862C47
:10174000811149CF6496CDBFDEBFDF91CF911F914C
:101750000F91FF90EF90DF90CF90BF90AF909F9050
:101760008F907F906F905F904F903F902F90089553
:10177000EF920F9383E097E20E94802C62E273E085
:1017800083E097E20E94D02A6894EE24E1F80EE309
:101790002EE741E061E083E097E20E94E82E2EE22E
:1017A00031E24AE065E083E097E20E943D2A21E4CD
:1017B00031E244E165E083E097E20E943D2A2BE4B8
:1017C00031E242E365E083E097E20E943D2A83E054
:1017D00097E20E94862C8111D1CF0F91EF9008954E
:1017E000CF92DF92EF92FF92CF93DF93EB01865A75
:1017F0009F4FBC0180E090E00E94433A22E73AE824
:101800004EE85CE30E94323B0E940F3A6B017C0180
:10181000BE0180E090E00E94433AA70196010E9439
:10182000323B0E94123A20E230E0C901861B970B3E
:10183000DF91CF91FF90EF90DF90CF900895CF92FE
:10184000DF92EF92FF92CF93DF93EB01845A9F4F89
:10185000BC0180E090E00E94433A22E73AE84EE87B
:101860005CE30E94323B0E94953B6B017C01BE0110
:1018700080E090E00E94433AA70196010E94323B2B
:101880000E94123A20E230E0C901861B970BDF91DB
:10189000CF91FF90EF90DF90CF900895CF92DF929D
:1018A000EF92FF920F931F93CF93DF9300D000D05E
:1018B000CDB7DEB7D82E192F7B0161307105D1F17C
:1018C0000FE02BE14EE16EE183E097E20E94882574
:1018D00068E170E08D2D912F0E94F00BC82E68E119
:1018E00070E08D2D912F0E941F0C00E220E2482F06
:1018F0006C2D83E097E20E94E42AEF28C1F51F9344
:10190000DF9288E591E29F938F938E010F5F1F4FC7
:101910001F930F930E947E43980141E061E083E0B2
:1019200097E20E943D2A0F900F900F900F900F901A
:101930000F901DC00FE02DE04EE16EE183E097E2D5
:101940000E9488256AE070E08D2D912F0E94F00B97
:10195000F82E6AE070E08D2D912F0E941F0C00E29E
:1019600020E2482F6F2D83E097E20E94E42A24961C
:10197000CDBFDEBFDF91CF911F910F91FF90EF9010
:10198000DF90CF90089598E090938506909381061C
:1019900084E080938606809382061092A70A4FEC1B
:1019A0004093A60A33E03093A50A28E12093A40AC5
:1019B000E3EAFAE05081506150839093A50690933A
:1019C000A1068093A6068093A2061092A70B4093CF
:1019D000A60B3093A50B2093A40BE3EAFBE08081D8
:1019E00080618083089598E0909345069093410626
:1019F00084E0809346068093420640917A27409384
:101A0000A708E8E7F7E220812093A6083BE030939F
:101A1000A50828E12093A408A3EAB8E05C915063EC
:101A20005C9390936506909361068093660680931D
:101A300062064093A70980818093A6093093A50987
:101A40002093A409E3EAF9E080818063808308950C
:101A50007F928F929F92AF92BF92CF92DF92EF923E
:101A6000FF920F931F93CF93DF930E9492098FEF02
:101A7000E0E2F7E08183E0E0F7E0818380EBE0E8FB
:101A8000F6E08183C0EED6E014E01A8388E18A8B09
:101A900098E09A838B8B90E19A838C8B20E22A8347
:101AA0008D8B9A830E94D708E0E6F6E082E082837D
:101AB000188299E1988B998B9F8B91E09A878B87FD
:101AC0002AE02093E906A0E0B6E01A969C931A97C4
:101AD0008093090611961C9386839AE1918B8287E5
:101AE00080936906148687E0E0EAF0E082837894C8
:101AF00062E083E00E94BA27782E63E083E00E94D0
:101B0000BA27982E64E083E00E94BA27B82E61E0DD
:101B100083E00E94BA27D82E60E083E00E94BA27B3
:101B2000F82E65E083E00E94BA27182F66E083E074
:101B30000E94BA27D82F66E082E00E94BA27882E3A
:101B400065E082E00E94BA27A82E64E082E00E944D
:101B5000BA27C82E63E082E00E94BA27E82E62E02E
:101B600082E00E94BA27082F61E082E00E94BA2733
:101B7000C82F60E082E00E94BA277F929F92BF92B6
:101B8000DF92FF921F93DF932C2F482F64E170E2C6
:101B900083E097E20E94422C86E090E28093BD2988
:101BA0009093BE298093BF299093C0290E948A06F2
:101BB0000E94ED360E94F30C0E94C30C8DB79EB7B5
:101BC00007968DBF9EBFDF91CF911F910F91FF9020
:101BD000EF90DF90CF90BF90AF909F908F907F90CD
:101BE00008958CE591E20E9451430E94ED088DE634
:101BF00091E20E9451430E94280D87E691E20E94E3
:101C000051438AE791E20E9451430E94C71F0E94FC
:101C10007E230E94B80B87E691E20E9451432FEF8A
:101C20008BE49DE1215080409040E1F700C000002E
:101C30008BE891E20E94514378942FEF83ED90E37B
:101C4000215080409040E1F700C0000082EA91E21C
:101C50000E9451430E94F2080E94F30C0E94B4318A
:101C60000895109284271092852710927A27109257
:101C70007B278EEC90E0809378279093792781EBF7
:101C800091E280937C2790937D2782E090E080937F
:101C90008A2790938B270E94F10D0E94EA158CE30E
:101CA00090E00E94F70842E050E06BE57AE081E0C6
:101CB0000E94551542E050E068EE73E182E00E9418
:101CC000551542E050E064EF78E383E00E9455153B
:101CD00044E050E06AE17AE084E00E94551544E176
:101CE00050E067E479E085E00E94551582E090E0DD
:101CF0000E94CD4080936627909367270E947515B8
:101D0000FDCFE1EAF9E0908195FFFDCF8093A00936
:101D10000895E1EAFBE0908195FFFDCF8093A00B51
:101D20000895CF93DF93EC018881882331F02196C9
:101D30000E94890E89918111FBCFDF91CF91089587
:101D40000F931F93CF93DF93CDB7DEB72F97CDBF00
:101D5000DEBF8C01FC018081813409F07DC081816E
:101D60008A3509F079C084818E32E9F162818381FC
:101D7000248170E06053710994E6969FA001979FBB
:101D8000500D112490E0C097BC01660F771F880F9B
:101D9000991F880F991F880F991F860F971F840F0F
:101DA000951F30E020533109820F931F80937A23CF
:101DB00090937B238285238590E0C097AC01440FEC
:101DC000551F880F991F880F991F880F991F840F1F
:101DD000951F30E020533109820F931F80937823A1
:101DE0009093792331C0F8018281238190E0C097DC
:101DF000AC01440F551F880F991F880F991F880F3A
:101E0000991F840F951F30E020533109820F931FD3
:101E100080937A2390937B238185228590E0C097DD
:101E2000AC01440F551F880F991F880F991F880F09
:101E3000991F840F951F30E020533109820F931FA3
:101E4000809378239093792380917A2390917B23B8
:101E50008093862390938723F8018081873509F04A
:101E600042C061812281438170E06053710934E690
:101E7000369FC001379F900D112430E02053310967
:101E8000B901660F771F220F331F220F331F220F56
:101E9000331F260F371F820F931F50E04053510905
:101EA000840F951F80937A2390937B23268147810B
:101EB00030E020533109B901660F771F220F331F1D
:101EC000220F331F220F331F260F371F50E04053BE
:101ED0005109240F351F2093782330937923809361
:101EE000862390938723F80180818334B9F581811B
:101EF0008233A1F5809188239091892384369105BE
:101F0000ACF4209179232F93209178232F939F93E2
:101F10008F938AED91E29F938F93CE0101969F93C9
:101F20008F930E947E43CDBFDEBF14C020917923E2
:101F30002F93209178232F939F938F9389EE91E293
:101F40009F938F93CE0101969F938F930E947E4320
:101F5000CDBFDEBFCE0101960E94910EF8018081B7
:101F6000833499F58181823381F180918823909126
:101F70008923843691059CF49F938F9387EF91E298
:101F80009F938F93CE0101969F938F930E947E43E0
:101F90000F900F900F900F900F900F9012C09F9383
:101FA0008F938FEF91E29F938F93CE0101969F9332
:101FB0008F930E947E430F900F900F900F900F9081
:101FC0000F90CE0101960E94910EF801808182341B
:101FD000D1F4809179238F93809178238F9381EE30
:101FE00091E29F938F938E010F5F1F4F1F930F936B
:101FF0000E947E43C8010E94910E0F900F900F9097
:102000000F900F900F902F96CDBFDEBFDF91CF9135
:102010001F910F910895CF92DF92EF92FF928091DE
:102020009227909193278630910509F474C08CF41F
:1020300082309105E1F12CF4009709F1019751F1FB
:10204000ABC08330910509F43FC0049709F449C03F
:10205000A3C08C30910509F492C044F488309105F6
:1020600009F466C00A9709F47DC096C082389105CC
:1020700009F444C08838910509F467C08DC086E032
:1020800092E280939427909395271092882710923C
:10209000892788C08AE092E28093942790939527BD
:1020A00081E090E080938827909389277BC08EE021
:1020B00092E2809394279093952782E090E080931A
:1020C0008827909389276EC081E192E280939427BC
:1020D0009093952783E090E08093882790938927B9
:1020E00061C086E192E2809394279093952784E0E3
:1020F00090E0809388279093892754C089E192E2E9
:10210000809394279093952785E090E0809388278B
:102110009093892747C08EE192E280939427909311
:10212000952786E090E080938827909389273AC08E
:1021300087E090E0809388279093892783E292E25A
:1021400080939427909395272DC088E090E080930A
:1021500088279093892782E292E280939427909334
:10216000952720C089E090E0809388279093892765
:1021700086E292E2809394279093952713C08AE099
:1021800090E080938827909389278AE292E2809357
:1021900094279093952706C08AED90E28093942728
:1021A0009093952720918E2730918F2740919027EB
:1021B0005091912760E873EC89EC91E00E94D73F41
:1021C000CA01B9010E94453A6B017C0120E030E070
:1021D00040E85FEB0E942E3B1816BCF520E030E093
:1021E00048E454E4C701B6010E940B3A88236CF519
:1021F00020E030E040E85FE3C701B6010E940B3AFF
:1022000088238CF4109282271092832786E490E032
:10221000A0E0B0E080937E2790937F27A093802753
:10222000B093812712C081E090E080938227909341
:102230008327C701B6010E94173A60937E277093E7
:102240007F278093802790938127FF90EF90DF90E6
:10225000CF9008953F924F925F926F927F928F92AC
:102260009F92AF92BF92CF92DF92EF92FF920F9325
:102270001F93CF93DF93CDB7DEB7CA5AD109CDBF35
:10228000DEBF83E097E20E94802CDE0111968CE88D
:10229000FD0111928A95E9F786E0E3E4F0E201900E
:1022A0000D928A95E1F78EE0FE013796DF01282F27
:1022B0001D922A95E9F796E0E7E5F0E2DE015596F2
:1022C00001900D929A95E1F7FE017B96DF011D9238
:1022D0008A95E9F78AE0EBE6F0E2DE019996019053
:1022E0000D928A95E1F7FE01F3968AE0DF011D92D7
:1022F0008A95E9F788E0EFE7F0E2DE01DD960190EC
:102300000D928A95E1F7FE01EB5BFF4F8CE0DF0158
:102310001D928A95E9F789E0E3E9F0E2DE01AF5A20
:10232000BF4F01900D928A95E1F7E1E5F0E0EC0FE7
:10233000FD1F39968BE0DF011D928A95E9F70E9417
:102340000B106894662462F8712C44244394512C39
:102350004E01B5E98B0E911C5E01EDE8AE0EB11C8D
:1023600094012A5F3F4FC156DF4F28833983CF59ED
:10237000D040C4010396CF55DF4F88839983C15A5B
:10238000D040D4011596CD55DF4FA883B983C35AE9
:10239000D040F4013296CB55DF4FE883F983C55A1C
:1023A000D04022503109C955DF4F28833983C75A9D
:1023B000D0400297C755DF4F88839983C95AD040D0
:1023C00080917E2390917F2399232CF410927E2379
:1023D00010927F2306C0059724F060927E237092AE
:1023E0007F2380917C2390917D23892B09F059C014
:1023F00062E273E083E097E20E94D02A00E42AE3DD
:1024000040E066E483E097E20E947D2E83E097E25D
:102410000E94BF2A83E097E20E94CA2AABE1B7E29A
:102420009C91ECE1F7E28081392E381A9E012F5FF2
:102430003F4F690110E0E12CF12C83E097E20E940C
:10244000BD2C80917E2390917F238E159F0579F47A
:10245000389E402D11244F5F0BE029E367E483E0B1
:1024600097E20E94CB2E83E097E20E94CE2C960149
:10247000412F68E483E097E20E943D2A80917E2309
:1024800090917F23049721F483E097E20E94BD2C72
:102490003FEFE31AF30A165F84E1C80ED11C123332
:1024A00061F60E94CD08019721F0809102278236C3
:1024B000B9F480917C2390917D23892B49F440923B
:1024C0007C2350927D230E94CD080197E1F308C040
:1024D0000E94CD080197E1F310927C2310927D2396
:1024E00080917E2390917F23009709F046C060E0A1
:1024F00070E080918823909189230E944E0C8091F6
:102500008227909183270197E1F4EEE7F7E2838138
:102510008F9382818F9381818F9380818F9383E2C8
:1025200091E29F938F93BF92AF920E947E43950159
:1025300044E362E083E097E20E943D2ACDBFDEBF24
:102540002BC1EEE7F7E283818F9382818F938181A4
:102550008F9380818F9388E291E29F938F93BF92B4
:10256000AF920E947E43950144E362E083E097E2EC
:102570000E943D2ACDBFDEBF0FC1019709F00CC1FB
:1025800062E273E083E097E20E94D02AEEE8F7E28D
:1025900083818F9382818F9381818F9380818F93A9
:1025A0008EE292E29F938F939F928F920E947E433E
:1025B00080917E2790917F27A0918027B0918127DD
:1025C000CDBFDEBF8F319105A105B10560F120912E
:1025D0008227309183272130310529F5C855DF4FF7
:1025E0003881C85AD0403F93C955DF4F8881C75AB8
:1025F000D0408F93C655DF4F9881CA5AD0409F93E1
:10260000C755DF4FA881C95AD040AF939F928F9290
:1026100082E392E29F938F93BF92AF920E947E4398
:10262000CDBFDEBF53C00497A105B10558F180911D
:10263000822790918327019729F5CC55DF4FF881A8
:10264000C45AD040FF93CD55DF4F2881C35AD040A4
:102650002F93CA55DF4F3881C65AD0403F93CB5590
:10266000DF4F8881C55AD0408F939F928F9281E42B
:1026700092E29F938F93BF92AF920E947E43CDBF11
:10268000DEBF24C0C056DF4FB881C05AD040BF93D0
:10269000C156DF4FE881CF59D040EF93CE55DF4F81
:1026A000F881C25AD040FF93CF55DF4F2881C15ADD
:1026B000D0402F939F928F9280E592E29F938F93C9
:1026C000BF92AF920E947E43CDBFDEBF2FE532E2C4
:1026D00042E062E083E097E20E943D2A95014CE0EF
:1026E00062E083E097E20E943D2A2AE632E246E178
:1026F00062E083E097E20E943D2A809182279091D8
:1027000083270197E1F4EEE7F7E283818F938281DB
:102710008F9381818F9380818F9383E291E29F9346
:102720008F93BF92AF920E947E43950146E168E28B
:1027300083E097E20E943D2ACDBFDEBF1BC0EEE7DB
:10274000F7E283818F9382818F9381818F93808140
:102750008F9388E291E29F938F93BF92AF920E94F2
:102760007E43950146E168E283E097E20E943D2ABC
:10277000CDBFDEBF20E732E240E262E083E097E2D5
:102780000E943D2A209194273091952740E268E2EB
:1027900083E097E20E943D2A83E097E20E94862C24
:1027A00081110ECEC655DF4FCDBFDEBFDF91CF9179
:1027B0001F910F91FF90EF90DF90CF90BF90AF905F
:1027C0009F908F907F906F905F904F903F90089573
:1027D0008091862790918727019791F58091822398
:1027E00090918323892B41F40E94B62481E090E0EC
:1027F0008093822390938323E0916627F09167274B
:1028000083818730A1F4848190E0982F88272581E7
:10281000822B8093722790937327868190E0982F64
:1028200088272781822B80937427909375278AEFBE
:1028300090E080937627909377270E94680A089506
:102840008091822390918323019731F40E94872401
:1028500010928223109283230E946E320E942A11CA
:1028600008951F920F920FB60F92112408B60F927F
:1028700018BE09B60F9219BE0BB60F921BBE2F934E
:102880003F934F935F936F937F938F939F93AF93F8
:10289000BF93EF93FF9380917623909177232091BC
:1028A000A00BFC01EE5AF84D208320812D3049F415
:1028B000109276231092772382E597E20E94A00E71
:1028C00005C001968093762390937723FF91EF9133
:1028D000BF91AF919F918F917F916F915F914F9138
:1028E0003F912F910F900BBE0F9009BE0F9008BE25
:1028F0000F900FBE0F901F9018951F920F920FB65A
:102900000F92112408B60F9218BE0BB60F921BBE81
:102910008F939F93EF93FF93E0EEF6E0808581FD28
:102920000AC080917E2390917F23019780937E231C
:1029300090937F2309C080917E2390917F230196FD
:1029400080937E2390937F238FE193E00197F1F7AB
:1029500000C00000FF91EF919F918F910F900BBEEF
:102960000F9008BE0F900FBE0F901F9018951F92EA
:102970000F920FB60F92112408B60F9218BE0F9047
:1029800008BE0F900FBE0F901F9018951F920F92C8
:102990000FB60F92112408B60F9218BE8F939F9313
:1029A00081E090E080938423909385239F918F9181
:1029B0000F9008BE0F900FBE0F901F9018951F929A
:1029C0000F920FB60F92112408B60F9218BE09B6D7
:1029D0000F9219BE0BB60F921BBE2F933F934F93CE
:1029E0005F936F937F938F939F93AF93BF93EF9377
:1029F000FF93E0E0F6E0808580FD0BC081E090E091
:102A00000E94A62481E090E08093862790938727F8
:102A100004C01092862710928727FF91EF91BF91F3
:102A2000AF919F918F917F916F915F914F913F9166
:102A30002F910F900BBE0F9009BE0F9008BE0F9004
:102A40000FBE0F901F901895E0E6F6E080EB8183B3
:102A500080E1858382E58093C0090895E0ECF9E088
:102A6000838382818823ECF78AE68A95F1F700C098
:102A700008958FEF0E942E15E0ECF9E08381089510
:102A8000E8E9F7E2AFE9B7E288EE97E222E01082E8
:102A90001182128213821482158216822C93389628
:102AA0001896E817F90799F70895EFE9F7E220E09B
:102AB00030E09081923091F4F901EE0FFF1FEE0F9C
:102AC000FF1FEE0FFF1FE856F84D8083618372836E
:102AD0004383548345835683178208952F5F3F4F66
:102AE00038962A30310529F70895BF92CF92DF92A8
:102AF000EF92FF920F931F93CF93DF930FE917E2AB
:102B0000C9E9D7E20F2EFFEECF2EF7E2DF2EF02D30
:102B1000BB24B3948A819B81892B71F4D8018C9159
:102B200081110AC0BC92E881F98109958C819D814F
:102B30008A839B83F8011082085F1F4F28960C152B
:102B40001D0541F7DF91CF911F910F91FF90EF90FD
:102B5000DF90CF90BF9008951F920F920FB60F9203
:102B6000112408B60F9218BE09B60F9219BE0BB603
:102B70000F921BBE2F933F938F939F93AF93BF935F
:102B8000EF93FF93AFE9B7E2EBE9F7E22BEE37E221
:102B90008C91811107C080819181009719F0019774
:102BA0008083918318963896E217F30789F7FF918F
:102BB000EF91BF91AF919F918F913F912F910F9086
:102BC0000BBE0F9009BE0F9008BE0F900FBE0F9066
:102BD0001F901895E0E4F8E010A211A28AE196E0B7
:102BE00086A397A387E0808381E086838487118210
:102BF0000E944015789408958F929F92AF92BF9251
:102C0000CF92DF92EF92FF920F931F93CF93DF93B8
:102C100000D000D0CDB7DEB7FC01009709F484C026
:102C2000423051056105710508F483C0A081B1816E
:102C300018968C9118978B3009F040C04A015B01BF
:102C4000242F392D4A2D5B2D60E070E080E090E06C
:102C500002E00E946F40A284B384C484D584E684D9
:102C6000F784008911890E94A640ED91FC91689437
:102C7000EE24E2F8F12C8E010F5F1F4F0995882397
:102C8000C1F049815A816B817C81411551056105F3
:102C9000710579F0DB01CA01805F9F4FAF4FBF40E4
:102CA0004097A105B10528F0342F252F862F972FA7
:102CB00044C030E020E080E090E03FC04A015B018A
:102CC000242F392D4A2D5B2D60E070E080E090E0EC
:102CD00001E00E946F40A284B384C484D584E6845A
:102CE000F784008911890E94A640ED91FC916894B7
:102CF000EE24E1F8F12C8E010F5F1F4F0995882318
:102D000071F089819A81AC0160E070E001978F3E9B
:102D10009F4F28F4342F252F862F972F0EC030E099
:102D200020E080E090E009C030E020E080E090E02A
:102D300004C030E020E080E090E0632F722F249602
:102D4000CDBFDEBFDF91CF911F910F91FF90EF902C
:102D5000DF90CF90BF90AF909F908F9008952F926B
:102D60003F924F925F926F927F928F929F92AF921B
:102D7000BF92CF92DF92EF92FF920F931F93CF9368
:102D8000DF93EC01009751F1423051056105710567
:102D900070F142505109610971091A012B01088D26
:102DA000198DA02EB12EC12CD12CE12CF12C00E0DC
:102DB00010E0222D332D442D552D60E070E080E091
:102DC00090E00E941640AA8CBB8CCC8CDD8CEE8CE3
:102DD000FF8C08A119A10E94A64011C020E030E09C
:102DE00040E050E060E070E080E090E008C020E06B
:102DF00030E040E050E060E070E080E090E0DF91A3
:102E0000CF911F910F91FF90EF90DF90CF90BF90E7
:102E1000AF909F908F907F906F905F904F903F907A
:102E20002F900895FC0181919AE080FB879587F9A6
:102E30002191820F9150C9F708952F923F924F929E
:102E40005F926F927F928F929F92AF92BF92CF923A
:102E5000DF92EF92FF920F931F93CF93DF93CDB743
:102E6000DEB72D97CDBFDEBF6C01422E532E642EF0
:102E7000752E362E272ED701AD90BC901197129645
:102E80008D919C911397809612968D939C93139796
:102E9000F6018081853E11F0811105C0D70114969D
:102EA0001C9281E034C14501F60183858F3009F021
:102EB00055C0D70114968C91882319F095858917F0
:102EC00011F181E3F50111928A95E9F7D6011D967A
:102ED0008C91F7018483D50199960C9399979A96D2
:102EE0001C939A979B964C929B979C965C929C976E
:102EF0009D966C929D979E967C929E979F963C92F3
:102F00009F97D0962C92F60120812F7330E02150AC
:102F100031094DE0429FC001439F900D11242DE0E7
:102F2000E7EAF0E2DE01119601900D922A95E1F7B1
:102F30008F31910508F4D3C00FC08191B601680F9D
:102F4000711DDB018C91D5018D935D01E417F507AF
:102F500019F0E217F30789F781E0D9C0F501808104
:102F6000882349F0C6010E941217D70114969C913C
:102F7000981709F485C081E3F50111928A95E9F764
:102F8000D50199960C9399979A961C939A979B962C
:102F90004C929B979C965C929C979D966C929D9769
:102FA0009E967C929E979F963C929F97D0962C924D
:102FB000F6016081603239F13196960181E090E04E
:102FC000A0E0B0E009C09F016191AC014F5F5F4F8D
:102FD0006032D1F0DC01CA018D01080D191DD80144
:102FE0006C93D6011C964C9143FF08C0D9012C91DB
:102FF00021542A3118F4605ED8016C93782F883000
:10300000910509F701C070E0F5018081853011F468
:1030100085EE8083D60118968C911897803259F1ED
:1030200021E0270F8EE2F501E70FF11D8083C60135
:10303000089618963C913032F9F0F60139967C5F8B
:1030400004C0CF0131913032B9F08401020F111D5B
:10305000D8013C93D6011C964C9144FF08C0DC017A
:103060008C9181548A3118F4305ED8013C932F5FE3
:103070002713E7CF01C0272FF501E20FF11D1082C2
:10308000F6018385D50190968C93828D938DA0E077
:10309000B0E0F50181A392A3A3A3B4A3F6014489F0
:1030A000558960E070E0BA0155274427842B952BA1
:1030B000A62BB72BF50181A392A3A3A3B4A3F6017A
:1030C000848D958DA68DB78DF50185A396A3A7A3B5
:1030D000B0A781E0D70115968C9380E018C02981B4
:1030E000F601E20FF11D2081F501E80FF91F2083A1
:1030F000FE013296DC011196AA0EBB1E9E01205ED7
:103100003F4F281B390BAE01425F5F4F22CF2D96F8
:10311000CDBFDEBFDF91CF911F910F91FF90EF9058
:10312000DF90CF90BF90AF909F908F907F906F90E7
:103130005F904F903F902F9008952F923F924F9223
:103140005F926F927F928F929F92AF92BF92CF9237
:10315000DF92EF92FF920F931F93CF93DF93CDB740
:10316000DEB7CD54D109CDBFDEBF1C01009709F4F5
:1031700025C2DC0114968D919C911597892B09F439
:1031800020C216968D919C911797892B09F41CC229
:103190008091FC239091FD23892B09F418C280E0D3
:1031A00090E050C2E981FA81ECABFDABEC80FD8090
:1031B000EEAAFFAAFB802796FFAE27970E812896DE
:1031C0000FAF28972F8138852A962EAF3FAF2A97C9
:1031D00089859A854C855D8526964EAF5FAF26978B
:1031E000CE88DF88E88CF98C0A8D1B8D2C8D3D8D67
:1031F00024960CAF1DAF2EAF3FAF24972AA13BA161
:103200004CA15DA12E962CAF3DAF4EAF5FAF2E9778
:10321000C114D104E104F10431F4009709F409C2A6
:103220006C01E12CF12C26964EAD5FAD2697411531
:10323000510551F0BA0180E090E024966CAF7DAF6B
:103240008EAF9FAF24970BC024960CAD1DAD2EAD55
:103250003FAD2497012B022B032B09F4EAC12896DA
:103260001FAD2897A12FB0E024962CAD3DAD4EADFB
:103270005FAD24970E940B40260137012EA93FA97C
:10328000421A530A61087108461A570A680A790AED
:103290002A968EAD9FAD2A97880F991F8295929599
:1032A000907F9827807F98272CA93DA9215031092C
:1032B000820F931F6CA97DA90E948D3F930182010B
:1032C000061B170B21093109C901B80127964FAD1B
:1032D0002797042F10E020E030E0A90198010E9418
:1032E000B53F29013A0155EF45165FE055066104E7
:1032F000710408F49EC165EF46166FEF560661042F
:10330000710428F486E0D10118968C9303C08BE0F9
:10331000F10180878CE2AEEFB3E21D928A95E9F766
:103320002CA93DA9890120E030E040E050E0BA013D
:103330000EA31FA328A739A74AA75BA76CA77DA741
:10334000B701A60180E090E0DC01C8AE59AF6AAFDA
:103350007BAF8CAF9DAFAEAFBFAFA02EB12EC12C57
:10336000D12CE12CF12C00E010E0242F352F462F3A
:10337000572F60E070E080E090E00E941640AEEFD2
:10338000B3E22C933093FF23409300245093012405
:103390006093022470930324809304249093052463
:1033A000EEA9FFA9AF012E2F352F40E050E060E0DD
:1033B00070E080E090E00E941640A92CB82CCEA4CA
:1033C000DFA4E8A8F9A80AA91BA90E94A6402EA775
:1033D0003FA748AB59AB6AAB7BAB8EAB98AFE6E08F
:1033E000F4E220833183428353836483758386832D
:1033F0009783C301B2016E5F7F4F8F4F9F4FD10103
:1034000018962C91263029F422E030E040E050E07C
:1034100004C024E030E040E050E00E947D3F609333
:103420000E2470930F248093102490931124ECA900
:10343000FDA9E0931224F09313242796EFAC27976D
:10344000EE9EC001EF9E900D112480931424909362
:103450001524D10118968C91863009F066C0AEA073
:10346000BFA0C12CD12CE12CF12C00E010E028965B
:103470002FAD289730E040E050E060E070E080E061
:1034800090E00E9416402696EEADFFAD26971F01F4
:10349000AE2EB32C0E941640AEA4BFA4C8A8D9A8D3
:1034A000EAA8FBA80EA918AD0E94A640422E532EF2
:1034B000642E752EB62FA72F282E392EEEE1F4E2BA
:1034C0002083318342835383648375838683978308
:1034D0002A960EAD1FAD2A974801202F392D40E0C6
:1034E00050E060E070E080E090E005E00E946F4016
:1034F000A22EB32EC42ED52EE62EF72E082F192F6E
:10350000242D352D462D572D6B2F7A2F822D932D5F
:103510000E94A640E6E1F4E2208331834283538394
:1035200064837583868397838BC0AEA0BFA0C12CB4
:10353000D12CE12CF12C00E010E028962FAD28973B
:1035400030E040E050E060E070E080E090E00E9419
:1035500016402496ECACFDAC0EAD1FAD24971701C0
:103560002801AE2CB32CC42CD52CE12CF12C00E07E
:1035700010E00E941640AEA4BFA4C8A8D9A8EAA82B
:10358000FBA80EA918AD0E94A640E6E1F4E2208354
:1035900031834283538364837583868397832E9616
:1035A0000CAD1DAD2EAD3FAD2E970093262410938C
:1035B0002724209328243093292442C080E090E0DF
:1035C00041C080E090E03EC080E090E03BC0ECEF86
:1035D000F3E282E3DF011D928A95E9F720823182CE
:1035E000F10181849284A384B484282D392D4A2D3D
:1035F0005B2D60E070E080E090E009E00E946F40A9
:10360000922E832E4EA75FA768AB79AB8AAB9BAB9C
:10361000ABE00E94AF400190F081E02D0F2EF5E26B
:10362000EF2EF12CF02D8E010F5F1F4F09958111A8
:10363000B9CD1092FC231092FD2380E090E002C0EF
:103640008CEF93E2C35BDF4FCDBFDEBFDF91CF9145
:103650001F910F91FF90EF90DF90CF90BF90AF90B0
:103660009F908F907F906F905F904F903F902F90A2
:103670000895CF93DF930097B1F061157105B1F014
:10368000FB0120A124FF15C020918A2330918B23B8
:10369000232B91F02091C3233091C423232B79F065
:1036A00080E090E025C080E090E022C080E090E0E3
:1036B0001FC080E090E01CC0CAE8D3E202C0C3ECA7
:1036C000D3E2DE01129621E3FB0101900D922A95CF
:1036D000E1F788839983FB0181A192A1A3A1B4A101
:1036E0008BAB9CABADABBEAB1FAA18AE8C2F9D2F86
:1036F000DF91CF910895009719F0FC01108211829B
:103700000895FC01009761F043A154A165A176A141
:1037100043AB54AB65AB76AB17AA10AE81E008950E
:1037200080E008952F923F924F925F926F927F9226
:103730008F929F92AF92BF92CF92DF92EF92FF92C1
:103740000F931F93CF93DF93CDB7DEB7E897CDBF2D
:10375000DEBF8DAB9EAB009709F4FBC06115710510
:1037600009F4F9C0DC010D90BC91A02DAFABB8AF4E
:103770005896ED91FC915997EFA7F8ABDC01D396E1
:103780004D905D906D907C90D697D7962D903C9003
:10379000D8972E163F0620F00E94811B80E0DEC0E5
:1037A000FE01319686E0DF011D928A95E9F781E3FB
:1037B000FB0111928A95E9F769837A8341145104D8
:1037C0006104710409F0A9C0AFA9B8ADED91FC91F5
:1037D000119780858B3039F49A964D905D906D905D
:1037E0007C909D979AC0EFA9F8AD228D338D82A170
:1037F00093A1A901481B590B4FA758AB8EC06FA4CA
:1038000078A862187308910140E050E060E070E031
:10381000CB012FA238A749A75AA76BA77CA78DA7D2
:103820009EA749A95AA96BA97CA9452B462B472BD2
:1038300009F540E050E060E070E080E090E0D20107
:103840009296AC9092979396BC9093979496CC90C6
:1038500094979596DC9095979696EC909697979678
:10386000FC90979798960C91989799961C910E9426
:10387000A64011C049A95AA96BA97CA9C2010E94FE
:10388000AF16AFA0B8A4C12CD12CE12CF12C00E0D4
:1038900010E00E94A6401B821C82D201ED91FC9197
:1038A0000280F381E02DDE0111964D010F2EFDE126
:1038B000AF2EF7E1BF2EF02D63016894EE24E5F8FA
:1038C000F12C8E01095F1F4F0995882309F445C02B
:1038D0008B819C81280E391EEFA5F8A92E163F0674
:1038E00010F149A85AA86BA87CA8B301A2018FA91E
:1038F00098AD0E94FC152B013C01611571058105F5
:10390000910549F48E81811116C08DA99EA90E944E
:10391000811B80E023C0212C312C49AA5AAA6BAA12
:103920007CAA4FA858AC8E81882309F468CF49A897
:103930005AA86BA87CA8ADA9BEA9D3964D925D925A
:103940006D927C92D697D7962D923C92D8978E8185
:1039500005C080E003C080E001C080E0E896CDBFF4
:10396000DEBFDF91CF911F910F91FF90EF90DF901D
:10397000CF90BF90AF909F908F907F906F905F900F
:103980004F903F902F9008956F927F928F929F92C9
:10399000AF92BF92CF92DF92EF92FF920F931F935D
:1039A000CF93DF935C016B01EA01009709F472C0C9
:1039B0006115710509F470C0FB018081882309F449
:1039C0006DC0209709F46CC08F3219F4FFEFCF1A45
:1039D000DF0A81E3FE0111928A95E9F780E188A36D
:1039E000F6018081882309F45DC0BE01C5010E94F3
:1039F000391B8C01009709F457C06FE270E0C601D3
:103A00000E94E942009741F0E82EEC184C01FFEFCC
:103A10008F1A9F0AF12C2CC0F60101900020E9F7C3
:103A20003197EC19FD09EE2E46018E0E911CF2CF56
:103A3000FE0101900020E9F731973F016C1A7D0AE1
:103A40006E147F04A9F4A301BE01C6010E94F442D2
:103A5000892B71F4C8010E947B1BF601E60DF71D4E
:103A60008081882319F188A184FD09C080E021C0EC
:103A7000BE01C8010E94921B8111DACF03C064010C
:103A800000E010E0C8010E947B1BF60180818111DB
:103A9000ACCF0EC080E00DC080E00BC080E009C05C
:103AA00080E007C081E005C080E003C081E001C084
:103AB00081E0DF91CF911F910F91FF90EF90DF9008
:103AC000CF90BF90AF909F908F907F906F90089510
:103AD0005F926F927F928F929F92AF92BF92CF929E
:103AE000DF92EF92FF920F931F93CF93DF93CDB7A7
:103AF000DEB76097CDBFDEBF6C015B013A014901C3
:103B0000502E009709F453C06115710509F452C095
:103B100083E080170CF451C00023F4F090E1090217
:103B2000F0011124E254FE4F9F2F990F990B6894D6
:103B3000EE24E4F8F12C8E010F5F1F4F2E2F3F2F44
:103B4000492F592F692F792F892FF601099588233D
:103B5000B9F18D818823B9F1809136248823B1F1A0
:103B600080E090E04CC08D818093362489859A85D1
:103B7000AB85BC858093372490933824A093392457
:103B8000B0933A248D859E85AF85B88980933B2478
:103B900090933C24A0933D24B0933E248EE294E283
:103BA0002EC08FEF809336248EE294E228C080E00E
:103BB00090E025C080E090E022C080E090E01FC04F
:103BC00080E090E01CC080E090E019C0EEE2F4E2FA
:103BD00081E1DF011D928A95E9F7C082D182A0922E
:103BE0003024B09231246092322470923324809237
:103BF00034249092352455200CF0B5CFD2CF609666
:103C0000CDBFDEBFDF91CF911F910F91FF90EF905D
:103C1000DF90CF90BF90AF909F908F907F906F90EC
:103C20005F900895E0ECFAE0838382818823ECF7CB
:103C300008958FEFE0ECFAE0838382818823ECF72C
:103C4000E0ECFAE083810895FF920F931F93CF93E6
:103C5000DF93C82FD42F152F062FF72E0E94191E81
:103C60008C2F80640E94121E8F2D0E94121E802FA6
:103C70000E94121E812F0E94121E8D2F0E94121E62
:103C8000CC2319F0C83029F008C085E90E94121E23
:103C90000FC087E80E94121E0BC08FEF0E94121EF9
:103CA00007C00E94191E8F3F29F4C150D1F702C0EE
:103CB000CAE0F7CFDF91CF911F910F91FF90089548
:103CC000EF92FF920F931F938091402481111EC0A9
:103CD0002091412430914224409143245091442426
:103CE0006091452470914624E12C6894FF24F1F8FA
:103CF00009E414E280914724909148240E9477219E
:103D0000882331F081E08093402403C081E001C02A
:103D100080E01F910F91FF90EF9008952F923F92B6
:103D20004F925F926F927F928F929F92AF92BF92CB
:103D3000CF92DF92EF92FF920F931F93CF93DF9377
:103D4000CDB7DEB76897CDBFDEBF29833A834B83FB
:103D50005C836D837E838F8398871701E114F10460
:103D600009F4FAC00F2EF9E48F2EF6E29F2EF02D03
:103D70000F8B188F69807A8021E07222930140E0D6
:103D800050E060E070E0CB0169863A874B875C8742
:103D90006D877E878F87988B29813A814B815C81E3
:103DA0006D817E818F819885A984BA84C12CD12CA4
:103DB000E12CF12C00E010E00E94BB40522E432E7B
:103DC000498B5A8B6B8B7C8B8D8B9E8B40E052E0AA
:103DD0004619570949875A872416350610F429864B
:103DE0003A86A0904124B0904224C0904324D090C1
:103DF0004424E0904524F0904624009147241091FB
:103E00004824252D342D49895A896B897C898D89CF
:103E10009E890E94C44009F46AC00E94601E8823E3
:103E200009F49CC050E15093860680913F2482FFA4
:103E300010C0252D342D49895A896B897C898D893B
:103E40009E8909E00E948A40642F752F422F532FCC
:103E500004C0452D542D69897A8981E10E94241E70
:103E6000882331F080E1E0E8F6E0858380E079C0E6
:103E70000E94191E8E3FE1F709E414E20E94191E08
:103E8000F80181938F01E815F905C1F7509241249B
:103E900040924224F989F09343242A8920934424B0
:103EA0003B89309345244C89409346245D89509347
:103EB00047246E8960934824B301675B7B4D498535
:103EC0005A858F89988D0E94E0428F89988DE98567
:103ED000FA858E0F9F1F8F8B988F0E94191E0E944C
:103EE000191EF0E1F09385060E94191E11C0B3015E
:103EF000675B7B4D49855A858F89988D0E94E0428A
:103F00002F89388D49855A85240F351F2F8B388F7F
:103F100069857A85261A370A5B01262F3B2D40E0FA
:103F200050E060E070E080E090E0A980BA80CB8053
:103F3000DC80ED80FE800F8118850E94A6402983D9
:103F40003A834B835C836D837E838F8398872114B0
:103F5000310409F00FCF04C081E003C080E001C04C
:103F600081E06896CDBFDEBFDF91CF911F910F91A9
:103F7000FF90EF90DF90CF90BF90AF909F908F9089
:103F80007F906F905F904F903F902F9008959F92F9
:103F9000AF92BF92CF92DF92EF92FF920F931F9357
:103FA000CF93DF93E0E8F6E080E2818380E88183CD
:103FB00080E1818390E49283858381E58093C00AC8
:103FC00010923F241AE00E94191E1150E1F780E17F
:103FD000E0E8F6E08683C0E0D2E040E050E0BA01DD
:103FE00080E00E94241E813049F021972097A9F794
:103FF00080E1E0E8F6E08583012FC2C04AEA51E0A3
:1040000060E070E088E00E94241E082F047082FDAA
:1040100019C00E94191E0E94191E0E94191E80FFBD
:10402000AFC00E94191E8A3A09F0AAC082E08093AC
:104030003F24C0E0D0E8912CA12CB12C6894CC2472
:10404000C6F812C040E050E0BA0187E30E94241E87
:1040500040E050E0BA0189E20E94241E82FDE9CFCF
:1040600081E080933F24E5CF80913F24982F937087
:10407000C9F081FD05C0D12CE12CF12C00E004C079
:10408000D92CEA2CFB2C0C2D40E050E0BA0187E340
:104090000E94241E4D2D5E2D6F2D702F89E20E94EF
:1040A000241E06C040E050E0BA0181E00E94241EB8
:1040B000082F017080FF09C021972097A9F680E1A1
:1040C000E0E8F6E08583012F5BC0C0913F24C1FF8B
:1040D0001AC040E050E0BA018AE30E94241E8823FF
:1040E00029F080E1E0E8F6E085834AC00E94191ECD
:1040F00086FF03C0C460C0933F240E94191E0E9423
:10410000191E0E94191E40E052E060E070E080E15C
:104110000E94241E882329F080E1E0E8F6E08583F0
:104120002FC080E1E0E8F6E0858380ED8093C00950
:104130008FEF809341248093422480934324809383
:10414000442480934524809346248093472480937D
:10415000482481E080934024E12C6894FF24F1F806
:1041600009E414E220E030E040E050E060E070E07C
:1041700080E090E00E948E1E01E0811101C000E00D
:10418000802FDF91CF911F910F91FF90EF90DF90E3
:10419000CF90BF90AF909F9008952F923F924F92F3
:1041A0005F926F927F928F929F92AF92BF92CF92C7
:1041B000DF92EF92FF920F931F93CF93DF93CDB7D0
:1041C000DEB76297CDBFDEBF2F87388B498B5A8B06
:1041D000562E472E382E292E09831A833601AB8698
:1041E000BC86012B09F460C0E114F10409F45EC03F
:1041F000CE14DF0408F45CC0AB2809F45BC097015F
:1042000040E050E060E070E0CB01EB823C834D8306
:104210005E836F83788789879A878D869E8647011C
:10422000DF84C888B988AA88740109811A812D2D74
:104230003C2D4B2D5A2D652D742D832D922D0E94D2
:104240008E1E8823C9F1ED84FE840D2D1C2D2B2D8F
:104250003A2D452D542D632D722D89819A81EB8540
:10426000FC850995882351F12D2D3C2D4B2D5A2D80
:10427000652D742D832D922DAB80BC80C12CD12C4B
:10428000E12CF12C00E010E00E94A640D22EC32EBB
:10429000B42EA52E562E472E382E292E68187908B2
:1042A0006814790408F60CC080E00BC080E009C0F7
:1042B00080E007C080E005C080E003C081E001C06D
:1042C00081E06296CDBFDEBFDF91CF911F910F914C
:1042D000FF90EF90DF90CF90BF90AF909F908F9026
:1042E0007F906F905F904F903F902F9008952F9206
:1042F0003F924F925F926F927F928F929F92AF9276
:10430000BF92CF92DF92EF92FF920F931F93CF93C2
:10431000DF93CDB7DEB76997CDBFDEBF29833A8380
:104320004B835C836D837E838F839887E114F104D4
:1043300009F40FC10F2EF9E48F2EF6E29F2EF02D17
:104340001701280129813A813170288F398F40E087
:1043500050E060E070E0CB0129873A874B875C87AB
:104360006D877E878F87988B29813A814B815C810D
:104370006D817E818F819885A984BA84C12CD12CCE
:10438000E12CF12C00E010E00E94BB402987398B22
:104390004A8B5B8B6C8B7D8B8E8B9F8B612C689497
:1043A000772471F8688D798D661A770A2614370498
:1043B00008F43101A0904124B0904224C0904324DD
:1043C000D0904424E0904524F09046240091472466
:1043D00010914824298539894A895B896C897D89AE
:1043E0008E899F890E94C440C1F10E94601E88236B
:1043F00009F4B1C0888D998D892B21F4611492E064
:10440000790698F4E12C6894FF24F1F809E414E2A9
:10441000298539894A895B896C897D898E899F893B
:104420000E948E1E882309F498C0E985E0934124F8
:10443000F989F09342242A89209343243B893093BD
:1044400044244C89409345245D89509346246E89C9
:10445000609347247F897093482489E4481684E256
:10446000580671F0A301B201888D998D875B9B4D31
:104470000E94E042109240242614370409F46FC0D1
:1044800090E19093860680913F2482FF10C0298599
:1044900039894A895B896C897D898E899F8909E080
:1044A0000E948A40642F752F422F532F04C04985E4
:1044B00059896A897B8988E10E94241E882331F00A
:1044C00080E1E0E8F6E0858380E04CC08EEF0E945A
:1044D000121E09E414E2F80181918F010E94121E5C
:1044E00008151905C1F78FEF0E94121E8FEF0E9469
:1044F000121E0E94191E8F3FE1F70E94191EF0E163
:10450000F0938506460C571C5301262D3B2D40E0A9
:1045100050E060E070E080E090E0A980BA80CB805D
:10452000DC80ED80FE800F8118850E94A6402983E3
:104530003A834B835C836D837E838F8398872618B1
:10454000370821E0209340242114310409F0FACEE9
:1045500008C081E007C080E005C080E003C081E0C2
:1045600001C081E06996CDBFDEBFDF91CF911F9181
:104570000F91FF90EF90DF90CF90BF90AF909F9002
:104580008F907F906F905F904F903F902F90089505
:104590002F923F924F925F926F927F928F929F9253
:1045A000AF92BF92CF92DF92EF92FF920F931F9341
:1045B000CF93DF93CDB7DEB72997CDBFDEBF288776
:1045C0003D83562E472E09831A83CB82DC82AE822E
:1045D000BF82012B09F446C0CD2809F445C047012C
:1045E000A22EB32EC42ED52E782E692E170132C0DE
:1045F0002885398582169306C8F1E884F9840981F3
:104600001A812A2D3B2D4C2D5D2D652D742D872D66
:10461000962D0E947721882359F1E884F984A70117
:104620002E2D352F40E050E060E070E080E090E01B
:10463000E52CF42C072D162D0E94A640A22EB32E99
:10464000C42ED52E562E472E782E692E8885998514
:10465000881A990A2114310431F18114910471F4FA
:1046600081E036C080E034C080E032C080E030C0FD
:1046700080E02EC081E02CC081E02AC0EE80FF8067
:104680000A2D1B2D2C2D3D2D452D542D672D762DBE
:1046900089819A81EB81FC81099588879987892B8B
:1046A00009F0A6CFE7CFEE80FF800A2D1B2D2C2D21
:1046B0003D2D452D542D672D762D89819A81EB81D5
:1046C000FC81099588879987892B09F096CFD4CFEB
:1046D0002996CDBFDEBFDF91CF911F910F91FF9043
:1046E000EF90DF90CF90BF90AF909F908F907F9092
:1046F0006F905F904F903F902F9008950F9380910F
:104700004926813009F454C00E94C71F811109C095
:1047100086E792E29F938F930E943F430F900F9002
:1047200047C081E08093492600E028EC32E247E769
:1047300051E26DEC70E28EE89EE10E94681D80936C
:104740004E2890934F28892B79F40FEF28EC32E212
:1047500047E751E26DEC70E28EE89EE10E94681D31
:1047600080934E2890934F2880914E2890914F2807
:104770000E949D188093E8279093E9274BE158E227
:1047800065E972E20E94C41C6BE178E28091E8273F
:104790009091E9270E94391B8093502890935128CB
:1047A00087E992E29F938F930E943F430F900F906F
:1047B0000F910895E9E8F8E281818F9380818F93CA
:1047C0008BEB92E29F938F930E943F43109291282C
:1047D000109292280F900F900F900F900895E9E893
:1047E000F8E281818F9380818F9385ED92E29F9390
:1047F0008F930E943F4381E090E0809391289093B3
:1048000092280F900F900F900F9008950F931F9381
:10481000CF93DF93CDB7DEB72A97CDBFDEBF09E8D0
:1048200018E2F80181818F9380818F938EEE92E25E
:104830009F938F930E943F4381E090E08093912863
:1048400090939228898392E09A83F80120812B83A8
:104850008C8301E012E031E04D815E816F817885CB
:1048600089859A850E9448088FE39CE90197F1F7B2
:1048700000C000000F900F900F900F902A96CDBFB0
:10488000DEBFDF91CF911F910F9108950F931F937A
:10489000CF93DF93CDB7DEB72A97CDBFDEBF09E850
:1048A00018E2F80181818F9380818F9385E093E2F4
:1048B0009F938F930E943F4381E0898382E08A83A4
:1048C000F80120812B838C8301E012E032E04D81DE
:1048D0005E816F81788589859A850E9448088FE37B
:1048E0009CE90197F1F700C0000081E090E080931F
:1048F0008F28909390280F900F900F900F902A96EA
:10490000CDBFDEBFDF91CF911F910F9108958091B0
:10491000892890918A281816190614F40E944624B2
:104920008091912890919228892B79F480918F28F9
:1049300090919028892B49F48091892890918A2818
:104940001816190614F40E94DA230895019749F401
:104950008BE193E20E94514384E0E0E0F6E085833E
:10496000089584E0E0E0F6E08683089581E090E039
:104970000E94A62480918D2890918E2818161906E1
:104980004CF40E94EF238091912890919228892BDA
:1049900011F504C0109291281092922880918928D4
:1049A00090918A281816190644F40E9406248091D2
:1049B000912890919228892B71F480918F28909161
:1049C0009028892B41F480E090E00E94A62489E29F
:1049D00093E20E94514308958091892890918A28FA
:1049E0000895DF92EF92FF920F931F93CF93DF937F
:1049F000EC01D62E142FF22EE0FE0DC0402F411BED
:104A0000622F6D0D0E94962C402F4D19612F6F0D56
:104A1000CE010E94962CE1FE0EC0402F411B6F2D4F
:104A20006D19CE010E94962C402F4D196F2D611BE0
:104A3000CE010E94962CE3FE0EC0402F410F6F2D39
:104A40006D0DCE010E94962C402F4D0D612F6F0DE4
:104A5000CE010E94962CE2FE0EC0402F410F6F2D1A
:104A60006D19CE010E94962C402F4D0D6F2D611BAC
:104A7000CE010E94962CDF91CF911F910F91FF9054
:104A8000EF90DF9008958F929F92AF92BF92CF9256
:104A9000DF92EF92FF920F931F93CF93DF93EC017E
:104AA000A62E942ED22E802E11E0121BB22EB1947F
:104AB000BB0CE02E042F262F4D2D60E00E94F12428
:104AC000DD20C9F00F2EF3E0CF2EF02DF12C1123B5
:104AD00024F0DA94B394B3941B0DF3941C0DE82CDA
:104AE000092D2A2D4D2D6F2DCE010E94F124C39446
:104AF000C394FD1460F3DF91CF911F910F91FF904C
:104B0000EF90DF90CF90BF90AF909F908F900895DF
:104B1000DF92EF92FF920F931F93CF93DF93EC01FD
:104B2000162FF42EE22ED02E81E0820F282F220F96
:104B3000481B681B022FCE010E94AF25882339F045
:104B40000D2D2E2D4F2D612FCE010E944325DF917B
:104B5000CF911F910F91FF90EF90DF9008950F93E9
:104B6000FC010150040F84A996A9941738F0081786
:104B700068F481E0041740F080E006C00817D0F028
:104B800081E0041708F080E08823C9F02150260F47
:104B900083A995A9961738F0281770F481E0261795
:104BA00070F080E00CC0281748F081E0261738F03C
:104BB00080E005C080E003C081E001C080E00F918B
:104BC0000895DB011496ED91FC91159720E030E0FB
:104BD00061E009950895DB011496ED91FC9115971C
:104BE00020E030E063E009950895DB011496ED9133
:104BF000FC91159720E030E040E064E009950895CD
:104C0000DB011496ED91FC91159720E030E041E036
:104C100064E009950895DB011496ED91FC911597D8
:104C200020E030E062E009950895DB011496ED91F3
:104C3000FC91159720E030E065E009950895DB01CF
:104C40001496ED91FC91159766E009950895AF9241
:104C5000BF92CF92DF92EF92FF921F93CF93DF9399
:104C60007C015B01EA01D12CFE011491D1100BC033
:104C70001F3F09F44FC0412FB501C7010E941526FF
:104C800081114EC04FC01F3F51F44FEFB501C70116
:104C90000E941526882309F447C0D12C41C01E3F2D
:104CA00009F444C0103FC8F5103E40F0412F4F704A
:104CB000B501C7010E940B26D12C32C0103D40F037
:104CC000412F4F70B501C7010E94EB25D12C28C0A0
:104CD000103CC0F0B501C7010E94F525C12ECC0CD7
:104CE000CC0CCC0CCC0CC394C394D12CC6010E9428
:104CF0001D28B501C7010E940026C6010E941D287B
:104D0000D12C0EC011235CF0812F90E00E941D2851
:104D1000D12C06C0DD24D39403C0D12C01C0D12CEA
:104D20002196A2CF80E003C080E001C081E0DF9146
:104D3000CF911F91FF90EF90DF90CF90BF90AF90F9
:104D400008951F93CF93DF93EC01162F462F4170E8
:104D500065E00E9413281695412F417066E0CE0150
:104D60000E9413281695412F417067E0CE010E94E2
:104D700013281695412F417068E0CE010E94132838
:104D80001695412F417069E0CE010E9413281695B7
:104D9000412F41706AE0CE010E9413281695412FE1
:104DA00041706BE0CE010E941328412F46956CE0C4
:104DB000CE010E94132841E064E0CE010E94132836
:104DC00040E064E0CE010E941328DF91CF911F9153
:104DD0000895DF92EF92FF920F931F93CF93DF938B
:104DE000EC01D42E7901062F10E0F8013197E7305D
:104DF000F10508F09FC0E650FF4F0C94F63F4111BB
:104E00007EC098C0411184C095C06DE00E940A2800
:104E100040E06DE0CE010E94132865E0CE010E94C3
:104E20000A2866E0CE010E940A2867E0CE010E94AF
:104E30000A2868E0CE010E940A2869E0CE010E949B
:104E40000A286AE0CE010E940A286BE0CE010E9487
:104E50000A286CE0CE010E940A2864E0CE010E947C
:104E60000A2862E0CE010E940A2863E0CE010E9477
:104E70000A2861E0CE010E940A2841E062E0CE01EA
:104E80000E94132841E063E0CE010E94132852C023
:104E900041110AC041E062E00E94132841E063E052
:104EA000CE010E94132846C081E048130BC040E0A9
:104EB00062E0CE010E94132841E063E0CE010E942F
:104EC000132838C0E2E04E130BC041E062E0CE018F
:104ED0000E94132840E063E0CE010E9413282AC0FC
:104EE00040E062E0CE010E94132840E063E0CE0182
:104EF0000E9413281FC0642F0E94A1261BC0F70127
:104F000061917F01CE010E94A126DA94C1F712C0FF
:104F1000F7016491CE010E94A126FFEFEF1AFF0A6C
:104F2000DA94B1F707C061E00E94132803C060E083
:104F30000E94132881E0DF91CF911F910F91FF9084
:104F4000EF90DF900895CF93DF9300D0CDB7DEB719
:104F500070E0660F771F680F791F42E050E0CE01C6
:104F600001960E94CC4289819A810F900F90DF9127
:104F7000CF910895880F880F880F860F0895CF93DB
:104F8000C82F682F66956695669582E093E00E942B
:104F9000A327FC014081C77021E030E0C90102C0B5
:104FA000880F991FCA95E2F7842B8083CF910895CB
:104FB000CF93DF93C82FD62F682F66956695669599
:104FC00088EF92E00E94A327FC01D11111C04FB7D6
:104FD000F8945081C77021E030E0C90102C0880F09
:104FE000991FCA95E2F78095852380834FBF0FC034
:104FF0004FB7F8945081C77021E030E0C90102C07A
:10500000880F991FCA95E2F7852B80834FBFDF91E8
:10501000CF910895860F911DFC0183A18F3F11F060
:105020000E94BF270895860F911DFC0183A18F3F29
:1050300019F0642F0E94D8270895009741F02EE3BD
:105040003FE1F9013197F1F701970097D1F7089502
:10505000BF92CF92DF92EF92FF920F931F93CF9365
:10506000DF938C01EB01B42E79018AE0481721F01F
:1050700095E14917C1F06AC04FEFC8010E94E125D0
:10508000EFE1F3E03197F1F700C000004CE053E0AE
:10509000BE01C8010E9427268FE193E00197F1F736
:1050A00000C0000053C0CA80DB8040E0C8010E94FD
:1050B0000B2642E0BE01C8010E94EB25F6014481A7
:1050C000486BBE01C8010E94152640E4BE01C8011C
:1050D0000E94152641E0BE01C8010E940B26F60180
:1050E0002681378140E4BE01C8010E941F2640E0AE
:1050F000BE01C8010E94EB2540E0BE01C8010E942C
:105100000B2641E0BE01C8010E94EB25F601448157
:10511000486BBE01C8010E94152640E4BE01C801CB
:105120000E94152641E0BE01C8010E940B26F6012F
:1051300026813781205C3F4F40E4BE01C8010E94B8
:105140001F2640E0BE01C8010E94EB2597014B2DB0
:10515000BE01C8010E94A32DDF91CF911F910F9135
:10516000FF90EF90DF90CF90BF900895FC01E60F85
:10517000F11D849190E0982F88273196E4918E0F4D
:10518000911D0895FC01849108950E94C2288823EE
:1051900011F0823011F486E0089583E0089580E0F4
:1051A0000895FC01808D8F5F089566E00E94B62807
:1051B000089568E00E94B62808950A96FC0184913B
:1051C00008950B96FC0184910895AF92BF92CF92FF
:1051D000DF92EF92FF920F931F93CF93DF937C01A7
:1051E000B62EDC011496CD91DC911597CE010E946C
:1051F000C228182FF701848195810E94C528082FA5
:10520000113019F0AA24AA9404C00F2EFFE0AF2E8B
:10521000F02DD70114968D919C9115970E94DD2851
:10522000D82EF701848195810E94E128C82ED701EC
:1052300014968D919C9115970E94D928B0E6BB15C4
:1052400048F4009739F0C80FD91F0F2EF1E6DF2E72
:10525000F02D12C0F701848195810E94D528F0E4D9
:10526000FB1548F4009739F0C80FD91F0F2EF1E451
:10527000DF2EF02D01C06196CB1490F4D70150962B
:105280001C92509753961C92539754961C92549785
:1052900051961C92519752961C9280E090E073C0F8
:1052A000CD1408F468C0202F30E08E01FE018491F7
:1052B0008F3F11F421965BC0DB1051C06E01D70106
:1052C00014968D919C9115970E94C228882311F005
:1052D000823001F5F8010491D70153960C93F60141
:1052E0003196E491D7015496EC93F6013396E4910C
:1052F000D7015096EC93F6013496E491D70151967C
:10530000EC93F6013596E491D7015296EC938C2FED
:105310009D2F39C0FE010491802F8F708250D701DC
:1053200052968C93529702950F7051960C93FE01F2
:105330003196E4918E2F8F70D70154968C935497A9
:10534000E295EF705396EC93FE013296E491E2956C
:10535000EF70D7015096EC938C2F9D2F14C0FE0157
:105360003296E491EA21CE0FD11DC20FD31FDC1477
:1053700011F0D3949ACFF701108A138A148A118AF4
:10538000128A80E090E0DF91CF911F910F91FF9002
:10539000EF90DF90CF90BF90AF9008956F927F9283
:1053A0008F929F92AF92BF92CF92DF92EF92FF9235
:1053B0000F931F93CF93DF936C01162F742E622FE0
:1053C0000E94E5287C01009709F447C0F60184811A
:1053D00095810E94C528B82EF601D389C4896188B9
:1053E000610E9289791A972C9C1A0C2F2D2F492D1A
:1053F000662DC6010E94AF25811103C0F601808988
:105400002DC0D95F8D2E869486948694CC2311F17D
:10541000EB0CF11CAA24AA94A80CB12CFFEFAF1A34
:10542000BF0A13C0FE01049120E0492D612FC6017F
:105430000E949F2C2196185F8C2F8E19881590F34F
:10544000EA0CFB1C9394971429F08820D9F3162DAD
:10545000E701E8CFF601808901C080E0DF91CF91BC
:105460001F910F91FF90EF90DF90CF90BF90AF9082
:105470009F908F907F906F900895DF92EF92FF92B0
:105480000F931F93CF93DF938C01F62ED42EE90157
:10549000DC015596ED91FC9156970995D80E28811F
:1054A000222369F02196E12C4D2D6F2DC8010E9419
:1054B000CE29F80EE80E29912111F6CF01C0E12C7A
:1054C0008E2DDF91CF911F910F91FF90EF90DF9084
:1054D0000895DC0114968D919C911597009709F41D
:1054E0004DC057962C91579721110DC0FC01359650
:1054F000E4915896EC935897FC013C968491599608
:105500008C9359971BC0213069F4FC013F96E491BC
:105510005896EC935897FC017096849159968C9309
:1055200059970CC0FC013D96E4915896EC9358971E
:10553000FC013E96849159968C93599758968C917C
:105540005897992787FD909559962C915997821BCA
:10555000910927FD93955A962C915A97203461F022
:10556000829FC00111240024880F991F001C880FFE
:10557000991F001C892F902D5B968C930895FC0138
:10558000178A0E94692A08952FEC38E2FC01258BC6
:10559000368B089521ED38E2FC01258B368B08957A
:1055A000CF93DF93EC018C819D818617970749F09B
:1055B0006C837D83CE010E94692A8FEC98E28D8BEB
:1055C0009E8BDF91CF910895AF92BF92CF92DF92E1
:1055D000EF92FF920F931F93CF93DF93EC01162F5F
:1055E000E42ED22E261718F4C62EC21A02C0C22EDE
:1055F000C61A0E1518F4AE2CA01A02C0A02EAE18B2
:10560000CA1428F08A2DAC2CC82EB12C08C08D2DC0
:10561000D02E082F812F1E2DE82EBB24B394D11637
:1056200030F48E2DE02E082F812F1D2DD82EFA2C30
:10563000F694E01610F401E001C00FEFD116A0F0CF
:10564000B11006C04E2D612FCE010E94962C05C0D0
:10565000412F6E2DCE010E94962CFC1812F4E00E04
:10566000FA0C1F5FD11660F7DF91CF911F910F9158
:10567000FF90EF90DF90CF90BF90AF9008951F9371
:10568000CF93DF93EC011C821D821E821F8219863C
:1056900081E0888782E28A871E861F86FE01B39694
:1056A00080E09FEF91938F5F8E30E1F711E018A3B8
:1056B000CE010E94C42A1F8B188E198E80E48A8F17
:1056C0001B8E8EE59FE289AB9AABDF91CF911F9144
:1056D0000895DB01ED91FC91099508950F931F93B7
:1056E000CF93DF93EC018B01E9A9FAA982E0099538
:1056F00020E030E04AE0B801CE010E94692B182F6B
:10570000E9A9FAA983E00995E9A9FAA980E0099530
:10571000812FDF91CF911F910F9108950F931F93C8
:10572000CF93DF93EC018B01E9A9FAA982E00995F7
:10573000E9A9FAA981E0099520E030E044E1B80147
:10574000CE010E94692B9E012D5C3F4F47E1B801BD
:10575000CE010E94692BE9A9FAA980E00995DF91A1
:10576000CF911F910F910895FF920F931F93CF93A5
:10577000DF93EC018B01E9A9FAA982E00995E9A977
:10578000FAA981E0099520E030E045E1B801CE01B9
:105790000E94692BF82E882341F09E012D5C3F4F1B
:1057A00047E1B801CE010E94692BE9A9FAA980E07E
:1057B00009958F2DDF91CF911F910F91FF90089543
:1057C000FC01448F258F9C01245E3F4F42E30E94E1
:1057D000692B0895CF93DF931F92CDB7DEB79E015B
:1057E0002F5F3F4F46E40E94692B89810F90DF9124
:1057F000CF910895CF93DF931F92CDB7DEB79E016F
:105800002F5F3F4F47E40E94692B89810F90DF9102
:10581000CF91089520E030E048E40E94692B08957C
:10582000CF93DF93EC016A817B810E94EA2B88830E
:105830006A817B81CE010E94FA2B89836A817B81F8
:10584000CE010E940A2C8B879E012D5C3F4F6A81FE
:105850007B8147E1CE010E94692BDF91CF910895B2
:10586000CF93DF93EC016A817B810E946E2B8823AA
:1058700029F0CE010E94102C81E001C080E0DF9170
:10588000CF9108954F925F926F927F928F92AF92D5
:10589000CF92EF92FF920F931F93CF93DF93CDB7E9
:1058A000DEB73C012B01F42E122F0E943F2BF30197
:1058B00042825382F0A611A702A7E3A6C4A6A5A61A
:1058C00086A6888987A7898987A38A8985A38B89E2
:1058D00086A38C8984A38D8980AB8E8983A3C30121
:1058E0000E94302CDF91CF911F910F91FF90EF908C
:1058F000CF90AF908F907F906F905F904F90089572
:10590000FC01628173810E948E2B0895CF93DF93F7
:10591000EC01EE85FF85309709F009956A817B815E
:10592000CE010E94B42BDF91CF910895362F242F02
:10593000FC0162817381432F0E94E02B08950F9335
:10594000FC0182819381648F458F278F068F9F0191
:10595000245E3F4F4BE3BC01CF010E94692B0F91A6
:105960000895FC018385883221F0823021F483E0A0
:1059700008958FEF089581E00895CF93DF93EC01B0
:105980008B85803321F48FEF88A389A304C0CE01D7
:105990000E94B12C88A3DF91CF910895FC0110A241
:1059A0000895FC01128280818150838314820895BE
:1059B000FC0120818281820F82839181891760F4AA
:1059C00084818F5F84838381280F291710F02FEF44
:1059D000290F238381E0089580E00895DC01169665
:1059E000ED91FC91179715968C919F01280F311D11
:1059F000C9011192E817F907E1F70895FC0191E058
:105A00008381861708F490E021E0461708F020E033
:105A1000322F392B81E05281451708F480E083232F
:105A20009223892B0895DC01FB01108212968C9140
:105A30001297818315968C911597815082831396C6
:105A40008C9183830895FB0161812381213019F0BA
:105A5000233021F006C048E0460F04C0462F6850AE
:105A600001C0462F0E94FE2C0895DC011696ED9190
:105A7000FC91179712968C91481B477081E090E03B
:105A8000DC0102C0AA0FBB1F4A95E2F7AD01E60F89
:105A9000F11D222321F08081482B408308954095F9
:105AA0008081482340830895FB014181FC012281CC
:105AB000421770F02381241758F0FB013081FC015C
:105AC0002581321728F4FB012481632F0E94352D94
:105AD0000895DF92EF92FF920F931F93CF93DF937E
