S0180000726F746F7220636F6E74726F6C6C65722E7372656372
S11300000C94BF050C94E3050C94E3050C94E305F0
S11300100C94E3050C94E3050C94E3050C94E305BC
S11300200C94E3050C94E3050C94E3050C94E305AC
S11300300C94E3050C94E3050C9465390C94E305E6
S11300400C94E3050C94E3050C94E3050C94E3058C
S11300500C9495150C94E3050C94E3050C94E305BA
S11300600C94E3050C94A5380C94E3050C94E30577
S11300700C94E3050C94E3050C94E3050C94E3055C
S11300800C94E3050C94E3050C94E3050C94E3054C
S11300900C94E3050C94E3050C94E3050C94E3053C
S11300A00C94E3050C94E3050C94E3050C94E3052C
S11300B00C94E3050C94E3050C94E3050C94E3051C
S11300C00C94E3050C94E3050C94E3050C94E3050C
S11300D00C94E3050C94E3050C94E3050C94E305FC
S11300E00C94E3050C94E3050C94E3050C94E305EC
S11300F00C94E3050C94E3050C94E3050C94E305DC
S11301000C94C8140C94E3050C94E1140C94E305CA
S11301100C94E3050C94E3050C94E3050C94E305BB
S11301200C94E3050C94E3050C94E3050C94E305AB
S11301300C94E3050C94E3050C94E3050C94E3059B
S11301400C94E3050C94E3050C94E3050C94E3058B
S11301500C94E3050C94E3050C94E3050C94E3057B
S11301600C943A380C94E3050C94E3050C94E305E1
S11301700C94E3050C94E3050C94E3050C94E3055B
S11301800C947F140C94B9140C94E3050C94E305BB
S11301900C94E3050C94E3050C94E3050C94E3053B
S11301A00C94E3050C94E3050C94E3050C94E3052B
S11301B00C94E3050C94E3050C94E3050C94E3051B
S11301C00C94E3050C94E3050C94E3050C94E3050B
S11301D00C94E3050C94E3050C94E3050C9433149C
S11301E00C94E3050C94E3050C94E3050C94E305EB
S11301F00C94E305FF268D27422791277527F926BE
S1130200FC26C12DC92DE32DD32DE32DE32DE32DA4
S1130210E32DE32DE32DE32DE32DE32DE32DE32D5A
S1130220E32DE32DE32DE32DE32DE32DE32DE32D4A
S1130230E32DE32DE32DE32DE32DE32DE32DBB2D62
S1130240E32DE32DE32DE32DE32DE32DE32DE32D2A
S1130250AF2DE32DE32DE32DE32DE32DE32DE32D4E
S1130260E32DE32DE32DD92DDE2D0332FD310932AB
S113027009320932093209320932093209320932A2
S11302800932093209320932093209320932093292
S11302900932093209320932093209320932093282
S11302A00932093209320932093209320932093272
S11302B00932093209320932093209320932FF316D
S11302C00132053207320932ED310B32EF31F131AF
S11302D0F331F531F731F931FB3105A84CCDB2D406
S11302E04EB93836A9020C50B9918688083CA6AAA2
S11302F0AA2ABE000000803F04062406040724073F
S1130300840600062006000720078006FFD0FFE0D1
S1130310FFC1FFD13FC0FF14FFD23FC0FF14FFD085
S1130320FFFE01060A00FE070136026820FFFE08F0
S1130330FE07FE0A006022176780808080800080AC
S1130340163363A0A0A00257675050F850F85050DD
S11303500257672070A07028702002576748A85081
S11303602050A89002576740A0A040A89068261388
S1130370638080801237672040808080402012375D
S113038067804020202040800355658850F85088BD
S11303900355652020F82020113363604080055107
S11303A061F811336340E0400257670808102040A9
S11303B08080025767205088888850200257672021
S11303C060A0202020F8025767708808304080F829
S11303D0025767F8081030088870025767103050C9
S11303E090F81010025767F880B0C8088870025758
S11303F067304080B0C88870025767F80810102032
S11304004040025767708888708888700257677008
S113041088986808106011376740E0400040E04069
S113042011376740E0400060408012476710204069
S113043080402010045363F800F81247678040207E
S11304401020408002576770881020200020025737
S113045067708898A8B0807002576720508888F821
S11304608888025767F04848704848F00257677018
S1130470888080808870025767F04848484848F070
S1130480025767F88080F08080F8025767F8808010
S1130490F080808002576770888080988870025747
S11304A067888888F8888888123767E04040404029
S11304B040E00257673810101010906002576788A8
S11304C090A0C0A09088025767808080808080F8C8
S11304D00257678888D8A88888880257678888C898
S11304E0A898888802576770888888888870025717
S11304F067F08888F08080800158687088888888D0
S1130500A87008025767F08888F0A090880257679F
S113051070888070088870025767F8202020202097
S11305202002576788888888888870025767888877
S11305308850505020025767888888A8A8D8880215
S113054057678888502050888802576788885020C9
S1130550202020025767F80810204080F8123767DF
S1130560E08080808080E00257678080402010080F
S113057008123767E02020202020E0065363205033
S113058088015161F828226280400255657008781C
S113059088780257678080B0C888C8B002556570F3
S11305A08880887002576708086898889868025598
S11305B0657088F88070025767304840F0404040CA
S11305C0005767788888780888700257678080B0F9
S11305D0C88888881237674000C0404040E010490E
S11305E06910003010101090906002576780808866
S11305F090E09088123767C04040404040E0025588
S113060065D0A8A8A888025565B0C888888802550E
S1130610657088888870005767B0C888C8B08080C3
S113062000576768988898680808025565B0C880BC
S1130630808002556570807008F00257674040F072
S11306404040483002556588888898680255658816
S1130650885050200255658888A8A850025565889E
S11306605020508800576788889868088870025519
S113067065F8102040F8124767304020C020403011
S113068022176780808080808080124767C0204066
S1130690304020C006536348A890FFFFFFFFFFFFD0
S11306A0FFFFFFFFFFFFFFFFFFFFFFFFFFFFFFFF56
S11306B0FFFFFFFFFFFFFFFFFFFFFF0A006022179E
S11306C067800080808080800157672078A0A0A088
S11306D07820025767304840E04048B002556588AA
S11306E07050708801586888885020F82020202293
S11306F01767808080008080800158687080E09057
S113070048380870193161A00257677088A8C8A8D2
S113071088701346667090B05000F00265652448F6
S1130720904824144262F010154161F0025767703A
S113073088E8C8C88870095161F816336340A0403E
S11307400256662020F82020F81545656090204068
S1130750F0154565E0106010E028226240800156E3
S113076066888888C8B08002576778E8E8682828CF
S11307702825116180202262408015356540C040E3
S113078040E01346666090906000F0026565904812
S113079024489001696940C04040E40C143C0401C1
S11307A0696940C04040E81404081C015969C0202C
S11307B04020C81828780802576720002020408865
S11307C0700258684020708888F888880258681039
S11307D020708888F888880258682050708888F8C3
S11307E0888802586848B0708888F88888025868F1
S11307F05000708888F8888802586820507088886B
S1130800F888880267673C50909CF0909C00596976
S113081070888080808870204002586840F880800A
S1130820F08080F802586810F88080F08080F80228
S1130830586820F88080F08080F802586850F8806A
S113084080F08080F81238688040E040404040E00A
S11308501238682040E040404040E012386840A030
S1130860E040404040E0123868A000E04040404092
S1130870E0025767F04848E84848F00258682850B2
S113088088C8A89888880258684020708888888812
S11308907002586810207088888888700258682010
S11308A050708888888870025868285070888888B2
S11308B0887002586850007088888888700255656E
S11308C08850205088025767709898A8C8C870024A
S11308D05868402088888888887002586810208862
S11308E088888888700258682050008888888870B2
S11308F002586850008888888888700258681020D8
S113090088885020202002576780F088F0808080FB
S1130910025767708890A09088B002586840200001
S113092070087888780258681020007008788878F1
S11309300258682050007008788878025868285057
S113094000700878887802576750007008788878B3
S113095002586820502070087888780265657814F9
S11309607C907C00576770888088702040025868AB
S11309704020007088F88070025868102000708849
S1130980F880700258682050007088F88070025710
S11309906750007088F88070123868804000C0404A
S11309A04040E0123868408000C0404040E01238C7
S11309B06840A000C0404040E0123767A000C0403B
S11309C04040E0025767C0307088888870025868D9
S11309D0285000B0C8888888025868402000708871
S11309E088887002586810200070888888700258BF
S11309F068205000708888887002586828500070F9
S1130A0088888870025767500070888888700355FA
S1130A10652000F800200255657898A8C8F00258AF
S1130A2068402000888888986802586810200088E8
S1130A3088889868025868205000888888986802D6
S1130A4057675000888888986800596910208888FA
S1130A50986808887000586880F0888888F08080DA
S1130A600059695000888898680888700102040851
S1130A7001020408A0A0A0A0A8A8A8A86E616E0006
S1130A80696E660000407A10F35A00A0724E18098D
S1130A900010A5D4E80000E87648170000E40B54E1
S1130AA0020000CA9A3B000000E1F50500008096B0
S1130AB09800000040420F000000A08601000000E2
S1130AC0102700000000E80300000000640000009C
S1130AD000000A00000000000100000000002C7665
S1130AE0D888DC674F0823DFC1DFAE59E1B1B79680
S1130AF0E5E3E453C63AE651997696E8E6C28426DD
S1130B00EB898C9B62ED407C6FFCEFBC9C9F40F2B8
S1130B10BAA56FA5F490055A2AF75C936B6CF96734
S1130B206DC11BFCE0E40D47FEF520E6B500D0EDF9
S1130B30902E0300943577050080841E0800002061
S1130B404E0A000000C80C333333330F986E1283FF
S1130B501141EF8D2114893BE65516CFFEE6DB18D3
S1130B60D1844B381BF77C1D901DA4BBE424203298
S1130B7084725E228100C9F124ECA1E53D27112491
S1130B801FBECFEFCDBFDFE2DEBF18BE19BE1ABE57
S1130B901BBE13E2A0E0B0E2E2E0F8E800E00BBF25
S1130BA002C007900D92AE35B107D9F71BBE29E2FA
S1130BB0AEE5B3E201C01D92AD3AB207E1F70E947F
S1130BC052120C94FF430C940000CF93DF936838C7
S1130BD023E172078105910509F458C0603127E2C9
S1130BE072078105910509F455C060322EE472073D
S1130BF08105910509F452C0613329E77207810523
S1130C00910509F44FC060342CE972078105910500
S1130C1009F44CC0603523EC72078105910509F491
S1130C2049C0603828E3720721E08207910509F47E
S1130C3045C0603A26E8720721E08207910509F46D
S1130C4041C0683428EE720721E082079105F1F172
S1130C5060342DE0720723E082079105D9F16039F1
S1130C6020ED720723E082079105C1F1603221EA89
S1130C70720727E082079105A9F1603472448F401E
S1130C809105A1F1C0E0D0E060E033C0C7E8DFEF38
S1130C906FE32FC0C7E8DFEF6FE12BC0C7E8DFEFDA
S1130CA06FE027C0C5E8D1EF6FE023C0C7E8DFEFEE
S1130CB067E01FC0C7E8DAEF67E01BC0C7E8DFEFF3
S1130CC063E017C0C7E8DAEF63E013C0C6E8D0EF0B
S1130CD063E00FC0C7E8DAEF61E00BC0C5E8D1EF0D
S1130CE061E407C0C6E8D0EF60E003C0C2E8D0ED1D
S1130CF060E04FEF8AE20E940D084FEF6D2F89E20A
S1130D000E940D084FEF6C2F88E20E940D08DF91BE
S1130D10CF9108950E9442080E94A4070E9476077A
S1130D2060E970ED83E090E00E94E50543E063E054
S1130D308BE20E940D084FEF60E680E60E940D08EA
S1130D4040EE60E08FE00E940D088AE290E00E948D
S1130D505D071F928F9384EB90E29F938F930E9481
S1130D60394389E290E00E945D071F928F9387ECDC
S1130D7090E29F938F930E94394388E290E00E940F
S1130D805D071F928F9387EF90E29F938F930E944A
S1130D9039431092EB268DB79EB70C968DBF9EBF3C
S1130DA008951F93CF93DF93EC0161E388810E9440
S1130DB03F074FE0698185E30E940D0889818823FC
S1130DC069F010E066E3610FFE01E10FF11D82811D
S1130DD00E943F071F5F89811817A0F381E80E94D2
S1130DE0E607DF91CF911F9108951F93CF93DF936F
S1130DF0EC01FC01329688E011928150E9F781E61A
S1130E000E942607888384E60E9426079881911110
S1130E1001C0888385E60E9426078983882369F0B8
S1130E2010E086E6810F0E942607FE01E10FF11D06
S1130E3082831F5F89811817A0F341E060E08CE290
S1130E400E940D08DF91CF911F9108950F931F9376
S1130E50CF93DF93082FC0E6D6E010E11E8383E032
S1130E6090E00E941715802F90E00E9417150E94B1
S1130E7022151D83DF91CF911F910F910895FF9249
S1130E800F931F93CF93DF93082FF62EC0E6D6E07F
S1130E9010E11E8382E090E00E9417158F2D90E0F0
S1130EA00E941715802F90E00E9417151D83DF9173
S1130EB0CF911F910F91FF9008950F931F93CF939C
S1130EC0DF93082FC0E6D6E010E11E8383E090E0B4
S1130ED00E941715802F90E00E9417150E9422157A
S1130EE01D83DF91CF911F910F910895CF9380E1DE
S1130EF0E0E6F6E0868382E090E00E94171581E642
S1130F0090E00E941715CDE080E090E00E94171554
S1130F10C150D1F7E0E6F6E080E18583868382E084
S1130F2090E00E94171581E790E00E941715CDE02C
S1130F3080E090E00E941715C150D1F780E1E0E60F
S1130F40F6E08583CF910895CF9380E1E0E6F6E063
S1130F50868382E090E00E94171581E390E00E946E
S1130F601715CDE080E090E00E941715C150D1F72D
S1130F70E0E6F6E080E18583868382E090E00E94EB
S1130F80171581E490E00E941715CDE080E090E011
S1130F900E941715C150D1F7E0E6F6E080E18583A1
S1130FA0868382E090E00E94171581E590E00E941C
S1130FB01715CDE080E090E00E941715C150D1F7DD
S1130FC080E1E0E6F6E08583CF91089590E1E0E6E4
S1130FD0F6E09683823871F018F4813831F018C045
S1130FE0843869F0873881F013C081E890E00E946A
S1130FF017150EC082E890E00E94171509C084E816
S113100090E00E94171504C087E890E00E9417152D
S113101080E1E0E6F6E085830895EF92FF920F9376
S11310201F93CF93DF93E82E062FF42EC0E6D6E06D
S113103010E11E8385E090E00E9417158E2D90E04C
S11310400E9417158F2D90E00E941715802F90E0B5
S11310500E9417151D83DF91CF911F910F91FF906F
S1131060EF9008951F93CF93DF93C0E6D6E010E18D
S11310701E8380EC90E00E9417151D83DF91CF91B1
S11310801F9108950E940D150E94320880E0089572
S11310900F931F93CF93DF93CDB7DEB72A97CDBFBE
S11310A0DEBF09831A832B833C834D835E836F8366
S11310B0788789879A878CE090E00E94C7402AE06D
S11310C0FE013196DC0101900D922A95E1F7FC01B5
S11310D0128613862091602330916123232B79F4A7
S11310E020915E2330915F23232B49F480935E2368
S11310F090935F2380936023909361230AC0E091CF
S11311005E23F0915F238287938780935E2390937D
S11311105F232A96CDBFDEBFDF91CF911F910F9140
S1131120089580916023909161230097C9F02091E4
S11311305E2330915F238217930749F410925E2354
S113114010925F23109260231092612307C0FC0168
S11311502285338520936023309361230E945F416D
S11311600895E0916023F0916123309721F42FEFEB
S1131170FC01208308952AE0DC0101900D922A9558
S1131180E1F7089581E090E020916023309161239C
S1131190232B11F080E090E00895E0EEF6E08085E6
S11311A08695869591E08927817090E00895E0EE18
S11311B0F6E088E1848B94E09283848B98E09283B8
S11311C0848B90E19283848B90E29283848B90E46D
S11311D09283848B80E88283089580E8E0E2F7E0DC
S11311E08583089580E8E0E2F7E0868308950F930D
S11311F01F93CF93DF938C0118161906F4F4C0E003
S1131200D0E061E070E080E090E00E94F4338FE38E
S11312109FE10197F1F700C0000060E070E080E01A
S113122090E00E94F4338FE39FE10197F1F700C04F
S113123000002196C017D10721F7DF91CF911F91AC
S11312400F910895CF93C82F8A3019F48DE00E942E
S11312502209E1EAFAE0908195FFFDCFC093A00A4C
S113126080E090E0CF910895CF93BC01E1EAFAE0E9
S113127080818823ECF7C091A00ACD3009F4CAE03C
S11312808C2F0E9422098C2F90E0CF910895CF9249
S1131290DF92EF92FF9280917C2790917D27863098
S11312A0910509F474C08CF482309105E1F12CF4B9
S11312B0009709F1019751F1ABC08330910509F40E
S11312C03FC0049709F449C0A3C08C30910509F4C8
S11312D092C044F48830910509F466C00A9709F471
S11312E07DC096C08238910509F444C088389105C0
S11312F009F467C08DC08BEC90E280937E279093B5
S11313007F27109272271092732788C08FEC90E287
S113131080937E2790937F2781E090E080937227CB
S1131320909373277BC083ED90E280937E27909304
S11313307F2782E090E080937227909373276EC09A
S113134086ED90E280937E2790937F2783E090E060
S1131350809372279093732761C08BED90E2809302
S11313607E2790937F2784E090E080937227909368
S1131370732754C08EED90E280937E2790937F274D
S113138085E090E0809372279093732747C083EEA3
S113139090E280937E2790937F2786E090E080936D
S11313A07227909373273AC087E090E08093722766
S11313B09093732788EE90E280937E2790937F2703
S11313C02DC088E090E0809372279093732787EE76
S11313D090E280937E2790937F2720C089E090E05D
S11313E080937227909373278BEE90E280937E27ED
S11313F090937F2713C08AE090E0809372279093A4
S113140073278FEE90E280937E2790937F2706C008
S113141086EC90E280937E2790937F272091782713
S11314203091792740917A2750917B2760E873ECBB
S113143089EC91E00E94D13FCA01B9010E943F3A70
S11314406B017C0120E030E040E85FEB0E94283B28
S11314501816BCF520E030E048E454E4C701B601B6
S11314600E94053A88236CF520E030E040E85FE311
S1131470C701B6010E94053A88238CF410926C27A8
S113148010926D2786E490E0A0E0B0E08093682796
S113149090936927A0936A27B0936B2712C081E0C9
S11314A090E080936C2790936D27C701B6010E944A
S11314B0113A609368277093692780936A27909301
S11314C06B27FF90EF90DF90CF900895CF92DF923B
S11314D0EF92FF920F931F93CF93DF9380916C232E
S11314E090916D23019680936C2390936D239F9329
S11314F08F9383EF90E29F938F930E943943E8E6A2
S1131500F7E2F080E180D280C380E8E7F7E2C081AF
S1131510D181128103810E94E624CF92DF92EF925F
S1131520FF920F931F93DF93CF939F938F93E6E6DE
S1131530F7E281818F9380818F938BEF90E29F9369
S11315408F930E9439438DB79EB742968DBF9EBF3D
S1131550DF91CF911F910F91FF90EF90DF90CF908B
S11315600895E0E5F0E08BEC8283808188608083DD
S1131570818183FFFDCFE0E5F0E082EC858380810B
S113158080618083818184FFFDCF88ED84BF84E006
S1131590809340000895FF920F931F93CF93DF939E
S11315A0CDB7DEB72A97CDBFDEBF80916827909173
S11315B06927A0916A27B0916B27492F5A2F6B2F67
S11315C07727F0906C27F0917027E091742708EC4E
S11315D017E02CEF382F5F2D6F2F7E2F809172270D
S11315E09A850E9448082A96CDBFDEBFDF91CF912D
S11315F01F910F91FF9008958F929F92AF92BF9287
S1131600CF92DF92EF92FF920F931F93CF93DF93CA
S1131610CDB7DEB72A97CDBFDEBFE8E7F7E230816A
S1131620832F9181A281B381892E9A2EAB2EBB2464
S11316306D01EE24FF246B2F77278827992708EC68
S113164015E02DEF482D5C2D788589859A850E94BB
S113165048082A96CDBFDEBFDF91CF911F910F912D
S1131660FF90EF90DF90CF90BF90AF909F908F90BE
S113167008950E94CB0A0E94FC0A0895CF93DF9339
S1131680CDB7DEB76497CDBFDEBFCE010B960E9407
S1131690B1088AE0FE013B96DE01119601900D929D
S11316A08A95E1F7CE0101960E94D1060E94910825
S11316B08FE39CE90197F1F700C000006496CDBF69
S11316C0DEBFDF91CF9108950E94C208892B39F4BF
S11316D002C00E943E0B0E94C208892BD1F30E94D3
S11316E0C208019731F480915027909151270E94AC
S11316F0F50608950E947E320E94640B8091EC26C8
S1131700813321F488E290E00E94F70808952F9233
S11317103F924F925F926F927F928F929F92AF927D
S1131720BF92CF92DF92EF92FF920F931F93CF93CA
S1131730DF93CDB7DEB76497CDBFDEBF8DEE96E203
S11317400E947A2CC0906027D090612720915C275A
S113175030915D2704E6029FC001039F900D112480
S1131760B6010E949B3F882777FD8095982F0E94A1
S11317703F3A2AE939E949E95FE30E942C3B20E03A
S113178030E040E050E40E94A1390E940C3A162F48
S113179020915E2730915F27029FC001039F900D27
S11317A01124B6010E949B3F882777FD8095982FCE
S11317B00E943F3A2AE939E949E95FE30E942C3B58
S11317C020E030E040E050E40E94A1390E940C3A4D
S11317D0F62E0F2EFCE54F2EF7E25F2EF02D0F2E86
S11317E0F8E18F2EF1E29F2EF02DCE0101966C01CF
S11317F00F2EFEE56F2EF7E27F2EF02D0F2EF8E26E
S11318002F2EF1E23F2EF02D0F2EF8E6AF2EF7E249
S1131810BF2EF02D62E273E08DEE96E20E94CA2A9A
S11318206894EE24E1F80FE02EE741E061E08DEEEC
S113183096E20E94E22E2DE031E241E161E08DEE7C
S113184096E20E94372AD20111968C9111978F93B8
S11318508C918F939F928F92DF92CF920E947843C4
S1131860960141E163E48DEE96E20E94372A2EE769
S11318704CE161E08DEE96E20E94E22EF30181815B
S11318808F9380818F939F928F92DF92CF920E9449
S113189078432DE131E24DE261E08DEE96E20E9463
S11318A0372A96014DE263E48DEE96E20E94372AD0
S11318B00BE0212F43E063E08DEE96E20E94C52EFB
S11318C02F2D4EE163E08DEE96E20E94C52E1F920D
S11318D01F921F921F923F922F92DF92CF920E94EB
S11318E07843960146E361E08DEE96E20E94372A42
S11318F0CDBFDEBFACE6B7E28D919C910197D9F4E0
S1131900F50183818F9382818F9381818F9380816D
S11319108F93A7E3B1E2BF93AF93DF92CF920E947C
S11319207843960146E36EE68DEE96E20E94372AEE
S1131930CDBFDEBF20C0D50113968C9113978F9332
S113194012968C9112978F9311968C9111978F9375
S11319508C918F93ACE3B1E2BF93AF93DF92CF92BC
S11319600E947843960146E36EE68DEE96E20E946D
S1131970372ACDBFDEBF8DEE96E20E94802C811106
S113198049CF6496CDBFDEBFDF91CF911F910F91F8
S1131990FF90EF90DF90CF90BF90AF909F908F908B
S11319A07F906F905F904F903F902F900895EF92AB
S11319B00F938DEE96E20E947A2C62E273E08DEE34
S11319C096E20E94CA2A6894EE24E1F80EE32EE718
S11319D041E061E08DEE96E20E94E22E22E431E2E3
S11319E04AE065E08DEE96E20E94372A25E531E271
S11319F044E165E08DEE96E20E94372A2FE531E25C
S1131A0042E365E08DEE96E20E94372A8DEE96E27F
S1131A100E94802C8111D1CF0F91EF900895CF9225
S1131A20DF92EF92FF92CF93DF93EB01865A9F4FA1
S1131A30BC0180E090E00E943D3A22E73AE84EE89B
S1131A405CE30E942C3B0E94093A6B017C01BE01BD
S1131A5080E090E00E943D3AA70196010E942C3B51
S1131A600E940C3A20E230E0C901861B970BDF91FB
S1131A70CF91FF90EF90DF90CF900895CF92DF92B7
S1131A80EF92FF92CF93DF93EB01845A9F4FBC01F7
S1131A9080E090E00E943D3A22E73AE84EE85CE3B9
S1131AA00E942C3B0E948F3B6B017C01BE0180E0B5
S1131AB090E00E943D3AA70196010E942C3B0E94AF
S1131AC00C3A20E230E0C901861B970BDF91CF91DD
S1131AD0FF90EF90DF90CF900895CF92DF92EF9236
S1131AE0FF920F931F93CF93DF9300D000D0CDB715
S1131AF0DEB7D82E192F7B0161307105D1F10FE0CB
S1131B002BE14EE16EE18DEE96E20E94822568E1C2
S1131B1070E08D2D912F0E940F0DC82E68E170E0AA
S1131B208D2D912F0E943E0D00E220E2482F6C2D56
S1131B308DEE96E20E94DE2AEF28C1F51F93DF9214
S1131B408CE691E29F938F938E010F5F1F4F1F933B
S1131B500F930E947843980141E061E08DEE96E294
S1131B600E94372A0F900F900F900F900F900F90B4
S1131B701DC00FE02DE04EE16EE18DEE96E20E9475
S1131B8082256AE070E08D2D912F0E940F0DF82EB2
S1131B906AE070E08D2D912F0E943E0D00E220E25C
S1131BA0482F6F2D8DEE96E20E94DE2A2496CDBF3B
S1131BB0DEBFDF91CF911F910F91FF90EF90DF90E7
S1131BC0CF9008953F924F925F926F927F928F923F
S1131BD09F92AF92BF92CF92DF92EF92FF920F93B8
S1131BE01F93CF93DF93CDB7DEB7CA5AD109CDBFC8
S1131BF0DEBF8DEE96E20E947A2CDE0111968CE80F
S1131C00FD0111928A95E9F786E0E3E4F0E20190A0
S1131C100D928A95E1F72EE0FE013796DF01322F0F
S1131C201D923A95E9F786E0E7E5F0E2DE01559684
S1131C3001900D928A95E1F7FE017B96DF01322F28
S1131C401D923A95E9F785E0EBE6F0E2DE0199961C
S1131C5001900D928A95E1F7FE01BE968FE0DF01B7
S1131C601D928A95E9F783E491E4AEE4B0E021960D
S1131C708CAF9DAFAEAFBFAF2197739680E1DF010C
S1131C801D928A95E9F786E0EFE7F0E2DE01AF5AAC
S1131C90BF4F01900D928A95E1F7E1E5F0E0EC0F7A
S1131CA0FD1F3696DF011D922A95E9F76894662494
S1131CB062F8712C44244394512C4E01B5E98B0EE7
S1131CC0911C5E01EDE8AE0EB11C94012A5F3F4FFA
S1131CD0C156DF4F28833983CF59D040C4010396BE
S1131CE0CF55DF4F88839983C15AD040D4011596CC
S1131CF0CD55DF4FA883B983C35AD040F40132963F
S1131D00CB55DF4FE883F983C55AD04022503109BF
S1131D10C955DF4F28833983C75AD0400297C75526
S1131D20DF4F88839983C95AD04080916A23909168
S1131D306B2399232CF410926A2310926B2306C010
S1131D40059724F060926A2370926B238091682334
S1131D5090916923892B09F059C062E273E08DEEFA
S1131D6096E20E94CA2A00E42AE340E066E48DEE8B
S1131D7096E20E94772E8DEE96E20E94B92A8DEEAD
S1131D8096E20E94C42AA5E0B7E29C91E6E0F7E25D
S1131D908081392E381A9E012F5F3F4F690110E070
S1131DA0E12CF12C8DEE96E20E94B72C80916A23EF
S1131DB090916B238E159F0579F4389E402D112444
S1131DC04F5F0BE029E367E48DEE96E20E94C52E97
S1131DD08DEE96E20E94C82C9601412F68E48DEEA8
S1131DE096E20E94372A80916A2390916B2304978C
S1131DF021F48DEE96E20E94B72C3FEFE31AF30A2A
S1131E00165F84E1C80ED11C123361F60E94CD081E
S1131E10019721F08091EC268236B9F480916823F1
S1131E2090916923892B49F4409268235092692345
S1131E300E94CD080197E1F308C00E94CD080197E4
S1131E40E1F3109268231092692380916A239091A0
S1131E506B23009709F046C060E070E08091742322
S1131E60909175230E946D0D80916C2790916D2740
S1131E700197E1F4E8E6F7E283818F9382818F93FF
S1131E8081818F9380818F9387E391E29F938F93D6
S1131E90BF92AF920E947843950144E362E08DEED5
S1131EA096E20E94372ACDBFDEBF2BC1E8E6F7E2F7
S1131EB083818F9382818F9381818F9380818F938C
S1131EC08CE391E29F938F93BF92AF920E947843E9
S1131ED0950144E362E08DEE96E20E94372ACDBF7D
S1131EE0DEBF0FC1019709F00CC162E273E08DEE11
S1131EF096E20E94CA2AE8E7F7E283818F938281FF
S1131F008F9381818F9380818F9380E791E29F9358
S1131F108F939F928F920E9478438091682790912B
S1131F206927A0916A27B0916B27CDBFDEBF8F319F
S1131F309105A105B10560F120916C2730916D27C1
S1131F402130310529F5C855DF4F3881C85AD040B2
S1131F503F93C955DF4F8881C75AD0408F93C655E8
S1131F60DF4F9881CA5AD0409F93C755DF4FA8814D
S1131F70C95AD040AF939F928F9284E791E29F9386
S1131F808F93BF92AF920E947843CDBFDEBF53C000
S1131F900497A105B10558F180916C2790916D27A4
S1131FA0019729F5CC55DF4FF881C45AD040FF93EF
S1131FB0CD55DF4F2881C35AD0402F93CA55DF4FE8
S1131FC03881C65AD0403F93CB55DF4F8881C55ADC
S1131FD0D0408F939F928F9283E891E29F938F9347
S1131FE0BF92AF920E947843CDBFDEBF24C0C056DB
S1131FF0DF4FB881C05AD040BF93C156DF4FE8814C
S1132000CF59D040EF93CE55DF4FF881C25AD0401C
S1132010FF93CF55DF4F2881C15AD0402F939F9211
S11320208F9282E991E29F938F93BF92AF920E9425
S11320307843CDBFDEBF21EA31E242E062E08DEEBB
S113204096E20E94372A95014CE062E08DEE96E21A
S11320500E94372A2CEA31E246E162E08DEE96E2F4
S11320600E94372A80916C2790916D270197E1F4A3
S1132070E8E6F7E283818F9382818F9381818F9346
S113208080818F9387E391E29F938F93BF92AF9266
S11320900E947843950146E168E28DEE96E20E9443
S11320A0372ACDBFDEBF1BC0E8E6F7E283818F93FA
S11320B082818F9381818F9380818F938CE391E2CE
S11320C09F938F93BF92AF920E947843950146E10C
S11320D068E28DEE96E20E94372ACDBFDEBF22EB86
S11320E031E240E262E08DEE96E20E94372A2091CE
S11320F07E2730917F2740E268E28DEE96E20E94CF
S1132100372A8DEE96E20E94802C81110ECEC655A0
S1132110DF4FCDBFDEBFDF91CF911F910F91FF90B5
S1132120EF90DF90CF90BF90AF909F908F907F9073
S11321306F905F904F903F90089580917027909199
S11321407127019791F580916E2390916F23892BCC
S113215041F40E94B02481E090E080936E23909338
S11321606F23E0915027F091512783818730A1F4A8
S1132170848190E0982F88272581822B80935C2787
S113218090935D27868190E0982F88272781822B62
S113219080935E2790935F278AEF90E08093602777
S11321A0909361270E94870B089580916E239091EC
S11321B06F23019731F40E94812410926E231092B0
S11321C06F230E94E20D089598E090938506909302
S11321D0810684E080938606809382061092A70A83
S11321E04FEC4093A60A33E03093A50A28E12093EC
S11321F0A40AE3EAFAE05081506150839093A50663
S11322009093A1068093A6068093A2061092A70B32
S11322104093A60B3093A50B2093A40BE3EAFBE0B9
S1132220808180618083089598E09093450690931F
S1132230410684E0809346068093420640916427D9
S11322404093A708E2E6F7E220812093A6083BE04A
S11322503093A50828E12093A408A3EAB8E05C9190
S113226050635C9390936506909361068093660631
S1132270809362064093A70980818093A6093093D6
S1132280A5092093A409E3EAF9E0808180638083AF
S113229008957F928F929F92AF92BF92CF92DF92D6
S11322A0EF92FF920F931F93CF93DF930E94B10A93
S11322B08FEFE0E2F7E08183E0E0F7E0818380EBF9
S11322C0E0E8F6E08183C0EED6E014E01A8388E10A
S11322D08A8B98E09A838B8B90E19A838C8B20E293
S11322E02A838D8B9A830E94D708E0E6F6E082E089
S11322F08283188299E1988B998B9F8B91E09A87BE
S11323008B872AE02093E906A0E0B6E01A969C9316
S11323101A978093090611961C9386839AE1918BF0
S1132320828780936906148687E0E0EAF0E082837E
S1132330789462E083E00E94B427782E63E083E01F
S11323400E94B427982E64E083E00E94B427B82E3C
S113235061E083E00E94B427D82E60E083E00E940D
S1132360B427F82E65E083E00E94B427182F66E0B6
S113237083E00E94B427D82F66E082E00E94B4274D
S1132380882E65E082E00E94B427A82E64E082E0F3
S11323900E94B427C82E63E082E00E94B427E82E8E
S11323A062E082E00E94B427082F61E082E00E948C
S11323B0B427C82F60E082E00E94B4277F929F92E6
S11323C0BF92DF92FF921F93DF932C2F482F64E17B
S11323D070E28DEE96E20E943C2C86E090E28093BF
S11323E0A7299093A8298093A9299093AA290E94A8
S11323F08A060E9401370E9414110E94E4108DB7CE
S11324009EB707968DBF9EBFDF91CF911F910F910D
S1132410FF90EF90DF90CF90BF90AF909F908F9000
S11324207F90089588EB91E20E944B430E94ED084F
S113243089EC91E20E944B430E94491183EC91E2A2
S11324400E944B4386ED91E20E944B430E94C11FC0
S11324500E9478230E94D70C83EC91E20E944B43A4
S11324602FEF8BE49DE1215080409040E1F700C0C4
S1132470000087EE91E20E944B4378942FEF83EDA6
S113248090E3215080409040E1F700C000008EEFBF
S113249091E20E944B430E94F2080E9414110E9490
S11324A0AE31089510926E2710926F271092642710
S11324B0109265278EEC90E08093622790936327B7
S11324C08DE092E2809366279093672782E090E004
S11324D080937427909375270E9412120E94E4152A
S11324E08CE390E00E94F70842E050E06AE77BE06A
S11324F082E00E943E1542E050E06DE970E183E025
S11325000E943E154FE050E064E079E384E00E94CD
S11325103E1544E050E069E37BE085E00E943E150F
S11325204AE050E066E67AE081E00E943E1544E02D
S113253050E067E479E086E00E943E1582E090E096
S11325400E94C74080935027909351270E945E15A4
S1132550FDCFE1EAF9E0908195FFFDCF8093A009DA
S11325600895E1EAFBE0908195FFFDCF8093A00BF5
S11325700895CF93DF93EC018881882331F021966D
S11325800E94B11289918111FBCFDF91CF910895FF
S11325900F931F93CF93DF93CDB7DEB72F97CDBFA4
S11325A0DEBF8C01FC018081813409F07DC0818112
S11325B08A3509F079C084818E32E9F162818381A0
S11325C0248170E06053710994E6969FA001979F5F
S11325D0500D112490E0C097BC01660F771F880F3F
S11325E0991F880F991F880F991F860F971F840FB3
S11325F0951F30E020533109820F931F8093662387
S1132600909367238285238590E0C097AC01440FA3
S1132610551F880F991F880F991F880F991F840FC2
S1132620951F30E020533109820F931F8093642358
S11326309093652331C0F8018281238190E0C09793
S1132640AC01440F551F880F991F880F991F880FDD
S1132650991F840F951F30E020533109820F931F77
S113266080936623909367238185228590E0C097A9
S1132670AC01440F551F880F991F880F991F880FAD
S1132680991F840F951F30E020533109820F931F47
S113269080936423909365238091662390916723AC
S11326A08093722390937323F8018081873509F016
S11326B042C061812281438170E06053710934E634
S11326C0369FC001379F900D112430E0205331090B
S11326D0B901660F771F220F331F220F331F220FFA
S11326E0331F260F371F820F931F50E040535109A9
S11326F0840F951F809366239093672326814781D7
S113270030E020533109B901660F771F220F331FC0
S1132710220F331F220F331F260F371F50E0405361
S11327205109240F351F209364233093652380932C
S1132730722390937323F80180818334B9F58181E6
S11327408233A1F580917423909175238436910589
S1132750ACF4209165232F93209164232F939F93AE
S11327608F9386E392E29F938F93CE0101969F937A
S11327708F930E947843CDBFDEBF14C020916523A0
S11327802F93209164232F939F938F9385E492E258
S11327909F938F93CE0101969F938F930E947843CA
S11327A0CDBFDEBFCE0101960E94B912F80180812F
S11327B0833499F58181823381F1809174239091DE
S11327C07523843691059CF49F938F9383E592E25D
S11327D09F938F93CE0101969F938F930E9478438A
S11327E00F900F900F900F900F900F9012C09F9327
S11327F08F938BE592E29F938F93CE0101969F93E3
S11328008F930E9478430F900F900F900F900F902A
S11328100F90CE0101960E94B912F8018081823492
S1132820D1F4809165238F93809164238F938DE3FA
S113283092E29F938F938E010F5F1F4F1F930F930D
S11328400E947843C8010E94B9120F900F900F9014
S11328500F900F900F902F96CDBFDEBFDF91CF91D9
S11328601F910F9108951F920F920FB60F9211248A
S113287008B60F9218BE09B60F9219BE0BB60F9286
S11328801BBE2F933F934F935F936F937F938F93CD
S11328909F93AF93BF93EF93FF93809162239091A3
S11328A063232091A00BFC01E45CF84D208320817C
S11328B02D3049F410926223109263238CE397E243
S11328C00E94C81205C001968093622390936323EB
S11328D0FF91EF91BF91AF919F918F917F916F91F4
S11328E05F914F913F912F910F900BBE0F9009BEB6
S11328F00F9008BE0F900FBE0F901F9018951F9257
S11329000F920FB60F92112408B60F9218BE0BB691
S11329100F921BBE8F939F93EF93FF93E0EEF6E02D
S1132920808581FD0AC080916A2390916B23019771
S113293080936A2390936B2309C080916A239091BA
S11329406B23019680936A2390936B238FE193E02A
S11329500197F1F700C00000FF91EF919F918F91D3
S11329600F900BBE0F9008BE0F900FBE0F901F90DC
S113297018951F920F920FB60F92112408B60F925A
S113298018BE0F9008BE0F900FBE0F901F901895A1
S11329901F920F920FB60F92112408B60F9218BE11
S11329A08F939F9381E090E08093702390937123A1
S11329B09F918F910F9008BE0F900FBE0F901F90A4
S11329C018951F920F920FB60F92112408B60F920A
S11329D018BE0BB60F921BBE8F939F93EF93FF937A
S11329E0E0E0F6E0808580FD07C081E090E0809320
S11329F070279093712704C010927027109271274A
S1132A00FF91EF919F918F910F900BBE0F9008BE95
S1132A100F900FBE0F901F901895E0E6F6E080EB44
S1132A20818380E1858382E58093C0090895E0EC89
S1132A30F9E0838382818823ECF78AE68A95F1F7AB
S1132A4000C008958FEF0E941715E0ECF9E0838130
S1132A500895E2E8F7E2A9E8B7E282ED97E222E01E
S1132A6010821182128213821482158216822C9390
S1132A7038961896E817F90799F70895E9E8F7E200
S1132A8020E030E09081923091F4F901EE0FFF1FC5
S1132A90EE0FFF1FEE0FFF1FEE57F84D808361838B
S1132AA072834383548345835683178208952F5F2B
S1132AB03F4F38962A30310529F70895BF92CF92B7
S1132AC0DF92EF92FF920F931F93CF93DF9309E866
S1132AD017E2C3E8D7E20F2EF9EDCF2EF7E2DF2E8F
S1132AE0F02DBB24B3948A819B81892B71F4D80186
S1132AF08C9181110AC0BC92E881F98109958C817D
S1132B009D818A839B83F8011082085F1F4F28965A
S1132B100C151D0541F7DF91CF911F910F91FF9087
S1132B20EF90DF90CF90BF9008951F920F920FB651
S1132B300F92112408B60F9218BE09B60F9219BE4F
S1132B400BB60F921BBE2F933F938F939F93AF931C
S1132B50BF93EF93FF93809176239091772301960F
S1132B60883821E0920729F0809376239093772385
S1132B7018C01092762310927723A9E8B7E2E5E80B
S1132B80F7E285ED97E22C91211106C02081318175
S1132B90215031092083318318963896E817F907B4
S1132BA091F7FF91EF91BF91AF919F918F913F91D9
S1132BB02F910F900BBE0F9009BE0F9008BE0F907F
S1132BC00FBE0F901F901895E0E4F8E010A211A238
S1132BD088E090E086A397A387E0808381E08683E2
S1132BE0848711820E942915789408958F929F9268
S1132BF0AF92BF92CF92DF92EF92FF920F931F9307
S1132C00CF93DF9300D000D0CDB7DEB7FC0100979F
S1132C1009F484C0423051056105710508F483C08C
S1132C20A081B18118968C9118978B3009F040C01F
S1132C304A015B01242F392D4A2D5B2D60E070E0A1
S1132C4080E090E002E00E946940A284B384C484DE
S1132C50D584E684F784008911890E94A040ED910F
S1132C60FC916894EE24E2F8F12C8E010F5F1F4F63
S1132C7009958823C1F049815A816B817C81411572
S1132C8051056105710579F0DB01CA01805F9F4F31
S1132C90AF4FBF404097A105B10528F0342F252F31
S1132CA0862F972F44C030E020E080E090E03FC0C2
S1132CB04A015B01242F392D4A2D5B2D60E070E021
S1132CC080E090E001E00E946940A284B384C4845F
S1132CD0D584E684F784008911890E94A040ED918F
S1132CE0FC916894EE24E1F8F12C8E010F5F1F4FE4
S1132CF00995882371F089819A81AC0160E070E0C4
S1132D0001978F3E9F4F28F4342F252F862F972F1E
S1132D100EC030E020E080E090E009C030E020E028
S1132D2080E090E004C030E020E080E090E0632F99
S1132D30722F2496CDBFDEBFDF91CF911F910F91EB
S1132D40FF90EF90DF90CF90BF90AF909F908F90C7
S1132D5008952F923F924F925F926F927F928F923B
S1132D609F92AF92BF92CF92DF92EF92FF920F9316
S1132D701F93CF93DF93EC01009751F1423051053B
S1132D806105710570F142505109610971091A0117
S1132D902B01088D198DA02EB12EC12CD12CE12C24
S1132DA0F12C00E010E0222D332D442D552D60E050
S1132DB070E080E090E00E941040AA8CBB8CCC8C28
S1132DC0DD8CEE8CFF8C08A119A10E94A04011C0DB
S1132DD020E030E040E050E060E070E080E090E02F
S1132DE008C020E030E040E050E060E070E080E0C7
S1132DF090E0DF91CF911F910F91FF90EF90DF90C2
S1132E00CF90BF90AF909F908F907F906F905F9086
S1132E104F903F902F900895FC0181919AE080FBA0
S1132E20879587F92191820F9150C9F708952F92C0
S1132E303F924F925F926F927F928F929F92AF9246
S1132E40BF92CF92DF92EF92FF920F931F93CF9393
S1132E50DF93CDB7DEB72D97CDBFDEBF6C01422E19
S1132E60532E642E752E362E272ED701AD90BC908E
S1132E70119712968D919C911397809612968D932B
S1132E809C931397F6018081853E11F0811105C052
S1132E90D70114961C9281E034C14501F601838563
S1132EA08F3009F055C0D70114968C91882319F0FE
S1132EB09585891711F181E3F50111928A95E9F756
S1132EC0D6011D968C91F7018483D50199960C93B4
S1132ED099979A961C939A979B964C929B979C963B
S1132EE05C929C979D966C929D979E967C929E97E1
S1132EF09F963C929F97D0962C92F60120812F7337
S1132F0030E0215031094DE0429FC001439F900DB4
S1132F1011242DE0E3E9F0E2DE01119601900D9217
S1132F202A95E1F78F31910508F4D3C00FC0819140
S1132F30B601680F711DDB018C91D5018D935D0184
S1132F40E417F50719F0E217F30789F781E0D9C010
S1132F50F5018081882349F0C6010E940C17D7012E
S1132F6014969C91981709F485C081E3F501119298
S1132F708A95E9F7D50199960C9399979A961C939B
S1132F809A979B964C929B979C965C929C979D9645
S1132F906C929D979E967C929E979F963C929F974B
S1132FA0D0962C92F6016081603239F13196960107
S1132FB081E090E0A0E0B0E009C09F016191AC0124
S1132FC04F5F5F4F6032D1F0DC01CA018D01080D03
S1132FD0191DD8016C93D6011C964C9143FF08C06F
S1132FE0D9012C9121542A3118F4605ED8016C93D4
S1132FF0782F8830910509F701C070E0F5018081D0
S1133000853011F485EE8083D60118968C9118973B
S1133010803259F121E0270F8EE2F501E70FF11D0F
S11330208083C601089618963C913032F9F0F60177
S113303039967C5F04C0CF0131913032B9F08401FC
S1133040020F111DD8013C93D6011C964C9144FFEC
S113305008C0DC018C9181548A3118F4305ED801A7
S11330603C932F5F2713E7CF01C0272FF501E20F11
S1133070F11D1082F6018385D50190968C93828D83
S1133080938DA0E0B0E0F50181A392A3A3A3B4A320
S1133090F6014489558960E070E0BA015527442758
S11330A0842B952BA62BB72BF50181A392A3A3A365
S11330B0B4A3F601848D958DA68DB78DF50185A3F6
S11330C096A3A7A3B0A781E0D70115968C9380E0BF
S11330D018C02981F601E20FF11D2081F501E80FE6
S11330E0F91F2083FE013296DC011196AA0EBB1E45
S11330F09E01205E3F4F281B390BAE01425F5F4F9C
S113310022CF2D96CDBFDEBFDF91CF911F910F91BE
S1133110FF90EF90DF90CF90BF90AF909F908F90F3
S11331207F906F905F904F903F902F9008952F92D3
S11331303F924F925F926F927F928F929F92AF9243
S1133140BF92CF92DF92EF92FF920F931F93CF9390
S1133150DF93CDB7DEB7CD54D109CDBFDEBF1C019F
S1133160009709F425C2DC0114968D919C91159762
S1133170892B09F420C216968D919C911797892B5F
S113318009F41CC28091EA239091EB23892B09F462
S113319018C280E090E050C2E981FA81ECABFDAB4B
S11331A0EC80FD80EEAAFFAAFB802796FFAE27974E
S11331B00E8128960FAF28972F8138852A962EAF37
S11331C03FAF2A9789859A854C855D8526964EAFB3
S11331D05FAF2697CE88DF88E88CF98C0A8D1B8D2B
S11331E02C8D3D8D24960CAF1DAF2EAF3FAF249791
S11331F02AA13BA14CA15DA12E962CAF3DAF4EAFB1
S11332005FAF2E97C114D104E104F10431F40097A7
S113321009F409C26C01E12CF12C26964EAD5FAD88
S113322026974115510551F0BA0180E090E02496AB
S11332306CAF7DAF8EAF9FAF24970BC024960CADBF
S11332401DAD2EAD3FAD2497012B022B032B09F4AA
S1133250EAC128961FAD2897A12FB0E024962CAD83
S11332603DAD4EAD5FAD24970E9405402601370168
S11332702EA93FA9421A530A61087108461A570A2F
S1133280680A790A2A968EAD9FAD2A97880F991FEE
S113329082959295907F9827807F98272CA93DA9A5
S11332A021503109820F931F6CA97DA90E94873F89
S11332B093018201061B170B21093109C901B801C9
S11332C027964FAD2797042F10E020E030E0A901A6
S11332D098010E94AF3F29013A0155EF45165FE07E
S11332E055066104710408F49EC165EF46166FEF3C
S11332F056066104710428F486E0D10118968C9373
S113330003C08BE0F10180878CE2ACEEB3E21D9246
S11333108A95E9F72CA93DA9890120E030E040E035
S113332050E0BA010EA31FA328A739A74AA75BA799
S11333306CA77DA7B701A60180E090E0DC01C8AED0
S113334059AF6AAF7BAF8CAF9DAFAEAFBFAFA02E0E
S1133350B12EC12CD12CE12CF12C00E010E0242F53
S1133360352F462F572F60E070E080E090E00E94F8
S11333701040ACEEB3E22C933093ED234093EE2354
S11333805093EF236093F0237093F1238093F223FF
S11333909093F323EEA9FFA9AF012E2F352F40E020
S11333A050E060E070E080E090E00E941040A92CC2
S11333B0B82CCEA4DFA4E8A8F9A80AA91BA90E94E6
S11333C0A0402EA73FA748AB59AB6AAB7BAB8EABF3
S11333D098AFE4EFF3E22083318342835383648321
S11333E0758386839783C301B2016E5F7F4F8F4FCE
S11333F09F4FD10118962C91263029F422E030E019
S113340040E050E004C024E030E040E050E00E949E
S1133410773F6093FC237093FD238093FE23909366
S1133420FF23ECA9FDA9E0930024F093012427963F
S1133430EFAC2797EE9EC001EF9E900D1124809370
S1133440022490930324D10118968C91863009F0BC
S113345066C0AEA0BFA0C12CD12CE12CF12C00E0A1
S113346010E028962FAD289730E040E050E060E06F
S113347070E080E090E00E9410402696EEADFFAD33
S113348026971F01AE2EB32C0E941040AEA4BFA4F9
S1133490C8A8D9A8EAA8FBA80EA918AD0E94A04004
S11334A0422E532E642E752EB62FA72F282E392E7A
S11334B0ECE0F4E220833183428353836483758395
S11334C0868397832A960EAD1FAD2A974801202F35
S11334D0392D40E050E060E070E080E090E005E0ED
S11334E00E946940A22EB32EC42ED52EE62EF72EAE
S11334F0082F192F242D352D462D572D6B2F7A2F5C
S1133500822D932D0E94A040E4E0F4E220833183D5
S11335104283538364837583868397838BC0AEA071
S1133520BFA0C12CD12CE12CF12C00E010E0289696
S11335302FAD289730E040E050E060E070E080E09C
S113354090E00E9410402496ECACFDAC0EAD1FAD93
S1133550249717012801AE2CB32CC42CD52CE12CB4
S1133560F12C00E010E00E941040AEA4BFA4C8A853
S1133570D9A8EAA8FBA80EA918AD0E94A040E4E0CF
S1133580F4E2208331834283538364837583868387
S113359097832E960CAD1DAD2EAD3FAD2E970093A7
S11335A0142410931524209316243093172442C016
S11335B080E090E041C080E090E03EC080E090E098
S11335C03BC0EAEEF3E282E3DF011D928A95E9F75C
S11335D020823182F10181849284A384B484282DD1
S11335E0392D4A2D5B2D60E070E080E090E009E029
S11335F00E946940922E832E4EA75FA768AB79ABD9
S11336008AAB9BABABE00E94A9400190F081E02D16
S11336100F2EF5E2EF2EF12CF02D8E010F5F1F4FD0
S113362009958111B9CD1092EA231092EB2380E021
S113363090E002C08AEE93E2C35BDF4FCDBFDEBFF2
S1133640DF91CF911F910F91FF90EF90DF90CF907A
S1133650BF90AF909F908F907F906F905F904F90AE
S11336603F902F900895CF93DF930097B1F06115A9
S11336707105B1F0FB0120A124FF15C0209178232E
S113368030917923232B91F02091B1233091B223EF
S1133690232B79F080E090E025C080E090E022C008
S11336A080E090E01FC080E090E01CC0C8E7D3E257
S11336B002C0C1EBD3E2DE01129621E3FB010190CB
S11336C00D922A95E1F788839983FB0181A192A148
S11336D0A3A1B4A18BAB9CABADABBEAB1FAA18AE80
S11336E08C2F9D2FDF91CF910895009719F0FC0145
S11336F0108211820895FC01009761F043A154A146
S113370065A176A143AB54AB65AB76AB17AA10AEFB
S113371081E0089580E008952F923F924F925F9246
S11337206F927F928F929F92AF92BF92CF92DF92CD
S1133730EF92FF920F931F93CF93DF93CDB7DEB732
S1133740E897CDBFDEBF8DAB9EAB009709F4FBC0FD
S11337506115710509F4F9C0DC010D90BC91A02D2F
S1133760AFABB8AF5896ED91FC915997EFA7F8AB72
S1133770DC01D3964D905D906D907C90D697D79652
S11337802D903C90D8972E163F0620F00E947B1B6C
S113379080E0DEC0FE01319686E0DF011D928A954D
S11337A0E9F781E3FB0111928A95E9F769837A834A
S11337B0411451046104710409F0A9C0AFA9B8AD62
S11337C0ED91FC91119780858B3039F49A964D9048
S11337D05D906D907C909D979AC0EFA9F8AD228D75
S11337E0338D82A193A1A901481B590B4FA758AB54
S11337F08EC06FA478A862187308910140E050E06D
S113380060E070E0CB012FA238A749A75AA76BA7A5
S11338107CA78DA79EA749A95AA96BA97CA9452B6A
S1133820462B472B09F540E050E060E070E080E073
S113383090E0D2019296AC9092979396BC90939715
S11338409496CC9094979596DC9095979696EC9058
S113385096979796FC90979798960C919897999627
S11338601C910E94A04011C049A95AA96BA97CA926
S1133870C2010E94A916AFA0B8A4C12CD12CE12C7E
S1133880F12C00E010E00E94A0401B821C82D201B7
S1133890ED91FC910280F381E02DDE0111964D0142
S11338A00F2EF7E1AF2EF7E1BF2EF02D63016894E0
S11338B0EE24E5F8F12C8E01095F1F4F099588234A
S11338C009F445C08B819C81280E391EEFA5F8A907
S11338D02E163F0610F149A85AA86BA87CA8B3017C
S11338E0A2018FA998AD0E94F6152B013C01611528
S11338F071058105910549F48E81811116C08DA948
S11339009EA90E947B1B80E023C0212C312C49AA54
S11339105AAA6BAA7CAA4FA858AC8E81882309F4B2
S113392068CF49A85AA86BA87CA8ADA9BEA9D3960C
S11339304D925D926D927C92D697D7962D923C9241
S1133940D8978E8105C080E003C080E001C080E08C
S1133950E896CDBFDEBFDF91CF911F910F91FF900D
S1133960EF90DF90CF90BF90AF909F908F907F901B
S11339706F905F904F903F902F9008956F927F9239
S11339808F929F92AF92BF92CF92DF92EF92FF926B
S11339900F931F93CF93DF935C016B01EA010097B0
S11339A009F472C06115710509F470C0FB018081CE
S11339B0882309F46DC0209709F46CC08F3219F480
S11339C0FFEFCF1ADF0A81E3FE0111928A95E9F72E
S11339D080E188A3F6018081882309F45DC0BE01DB
S11339E0C5010E94331B8C01009709F457C06FE294
S11339F070E0C6010E94E342009741F0E82EEC1803
S1133A004C01FFEF8F1A9F0AF12C2CC0F601019094
S1133A100020E9F73197EC19FD09EE2E46018E0ED0
S1133A20911CF2CFFE0101900020E9F731973F018C
S1133A306C1A7D0A6E147F04A9F4A301BE01C601A9
S1133A400E94EE42892B71F4C8010E94751BF60195
S1133A50E60DF71D8081882319F188A184FD09C032
S1133A6080E021C0BE01C8010E948C1B8111DACF05
S1133A7003C0640100E010E0C8010E94751BF60158
S1133A8080818111ACCF0EC080E00DC080E00BC0FE
S1133A9080E009C080E007C081E005C080E003C089
S1133AA081E001C081E0DF91CF911F910F91FF90E0
S1133AB0EF90DF90CF90BF90AF909F908F907F90CA
S1133AC06F9008955F926F927F928F929F92AF92C0
S1133AD0BF92CF92DF92EF92FF920F931F93CF93F7
S1133AE0DF93CDB7DEB76097CDBFDEBF6C015B015E
S1133AF03A014901502E009709F453C0611571052C
S1133B0009F452C083E080170CF451C00023F4F090
S1133B1090E10902F0011124E254FE4F9F2F990F06
S1133B20990B6894EE24E4F8F12C8E010F5F1F4F7B
S1133B302E2F3F2F492F592F692F792F892FF601C7
S1133B4009958823B9F18D818823B9F180912424C2
S1133B508823B1F180E090E04CC08D8180932424CF
S1133B6089859A85AB85BC858093252490932624EA
S1133B70A0932724B09328248D859E85AF85B8898A
S1133B808093292490932A24A0932B24B0932C244B
S1133B908CE194E22EC08FEF809324248CE194E294
S1133BA028C080E090E025C080E090E022C080E062
S1133BB090E01FC080E090E01CC080E090E019C05D
S1133BC0ECE1F4E281E1DF011D928A95E9F7C0821C
S1133BD0D182A0921E24B0921F246092202470925D
S1133BE02124809222249092232455200CF0B5CFD6
S1133BF0D2CF6096CDBFDEBFDF91CF911F910F91E1
S1133C00FF90EF90DF90CF90BF90AF909F908F90F8
S1133C107F906F905F900895E0ECFAE08383828157
S1133C208823ECF708958FEFE0ECFAE08383828138
S1133C308823ECF7E0ECFAE083810895FF920F9378
S1133C401F93CF93DF93C82FD42F152F062FF72E52
S1133C500E94131E8C2F80640E940C1E8F2D0E94C4
S1133C600C1E802F0E940C1E812F0E940C1E8D2F73
S1133C700E940C1ECC2319F0C83029F008C085E935
S1133C800E940C1E0FC087E80E940C1E0BC08FEF11
S1133C900E940C1E07C00E94131E8F3F29F4C150BE
S1133CA0D1F702C0CAE0F7CFDF91CF911F910F91F6
S1133CB0FF900895EF92FF920F931F9380912E240B
S1133CC081111EC020912F24309130244091312441
S1133CD0509132246091332470913424E12C6894FF
S1133CE0FF24F1F807E314E28091352490913624FF
S1133CF00E947121882331F081E080932E2403C037
S1133D0081E001C080E01F910F91FF90EF90089532
S1133D102F923F924F925F926F927F928F929F92D7
S1133D20AF92BF92CF92DF92EF92FF920F931F93C5
S1133D30CF93DF93CDB7DEB76897CDBFDEBF2983BE
S1133D403A834B835C836D837E838F8398871701CB
S1133D50E114F10409F4FAC00F2EF7E38F2EF6E212
S1133D609F2EF02D0F8B188F69807A8021E07222AC
S1133D70930140E050E060E070E0CB0169863A874F
S1133D804B875C876D877E878F87988B29813A81E3
S1133D904B815C816D817E818F819885A984BA84F1
S1133DA0C12CD12CE12CF12C00E010E00E94B54094
S1133DB0522E432E498B5A8B6B8B7C8B8D8B9E8B17
S1133DC040E052E04619570949875A8724163506B8
S1133DD010F429863A86A0902F24B0903024C09005
S1133DE03124D0903224E0903324F0903424009194
S1133DF0352410913624252D342D49895A896B890F
S1133E007C898D899E890E94BE4009F46AC00E9403
S1133E105A1E882309F49CC050E150938606809171
S1133E202D2482FF10C0252D342D49895A896B8990
S1133E307C898D899E8909E00E948440642F752FB6
S1133E40422F532F04C0452D542D69897A8981E16D
S1133E500E941E1E882331F080E1E0E8F6E08583AD
S1133E6080E079C00E94131E8E3FE1F707E314E25D
S1133E700E94131EF80181938F01E815F905C1F71B
S1133E8050922F2440923024F989F09331242A89C6
S1133E90209332243B89309333244C894093342437
S1133EA05D89509335246E8960933624B301695C2F
S1133EB07B4D49855A858F89988D0E94DA428F8976
S1133EC0988DE985FA858E0F9F1F8F8B988F0E949E
S1133ED0131E0E94131EF0E1F09385060E94131E28
S1133EE011C0B301695C7B4D49855A858F89988DD2
S1133EF00E94DA422F89388D49855A85240F351F4F
S1133F002F8B388F69857A85261A370A5B01262F0D
S1133F103B2D40E050E060E070E080E090E0A9805C
S1133F20BA80CB80DC80ED80FE800F8118850E94F2
S1133F30A04029833A834B835C836D837E838F8384
S1133F4098872114310409F00FCF04C081E003C025
S1133F5080E001C081E06896CDBFDEBFDF91CF91E4
S1133F601F910F91FF90EF90DF90CF90BF90AF9093
S1133F709F908F907F906F905F904F903F902F9085
S1133F8008959F92AF92BF92CF92DF92EF92FF92E9
S1133F900F931F93CF93DF93E0E8F6E080E28183F1
S1133FA080E8818380E1818390E49283858381E545
S1133FB08093C00A10922D241AE00E94131E1150FF
S1133FC0E1F780E1E0E8F6E08683C0E0D2E040E09B
S1133FD050E0BA0180E00E941E1E813049F0219712
S1133FE02097A9F780E1E0E8F6E08583012FC2C0BD
S1133FF04AEA51E060E070E088E00E941E1E082F4B
S1134000047082FD19C00E94131E0E94131E0E9498
S1134010131E80FFAFC00E94131E8A3A09F0AAC083
S113402082E080932D24C0E0D0E8912CA12CB12C07
S11340306894CC24C6F812C040E050E0BA0187E38B
S11340400E941E1E40E050E0BA0189E20E941E1E3A
S113405082FDE9CF81E080932D24E5CF80912D244A
S1134060982F9370C9F081FD05C0D12CE12CF12C5F
S113407000E004C0D92CEA2CFB2C0C2D40E050E0CD
S1134080BA0187E30E941E1E4D2D5E2D6F2D702FE9
S113409089E20E941E1E06C040E050E0BA0181E0A1
S11340A00E941E1E082F017080FF09C021972097CF
S11340B0A9F680E1E0E8F6E08583012F5BC0C091BA
S11340C02D24C1FF1AC040E050E0BA018AE30E94E7
S11340D01E1E882329F080E1E0E8F6E085834AC0CB
S11340E00E94131E86FF03C0C460C0932D240E9447
S11340F0131E0E94131E0E94131E40E052E060E053
S113410070E080E10E941E1E882329F080E1E0E82F
S1134110F6E085832FC080E1E0E8F6E0858380ED5A
S11341208093C0098FEF80932F2480933024809351
S113413031248093322480933324809334248093D5
S113414035248093362481E080932E24E12C6894D6
S1134150FF24F1F807E314E220E030E040E050E00F
S113416060E070E080E090E00E94881E01E0811130
S113417001C000E0802FDF91CF911F910F91FF903C
S1134180EF90DF90CF90BF90AF909F9008952F92C3
S11341903F924F925F926F927F928F929F92AF92D3
S11341A0BF92CF92DF92EF92FF920F931F93CF9320
S11341B0DF93CDB7DEB76297CDBFDEBF2F87388BD5
S11341C0498B5A8B562E472E382E292E09831A8353
S11341D03601AB86BC86012B09F460C0E114F104FE
S11341E009F45EC0CE14DF0408F45CC0AB2809F403
S11341F05BC0970140E050E060E070E0CB01EB82EF
S11342003C834D835E836F83788789879A878D8605
S11342109E864701DF84C888B988AA887401098109
S11342201A812D2D3C2D4B2D5A2D652D742D832D4A
S1134230922D0E94881E8823C9F1ED84FE840D2DE1
S11342401C2D2B2D3A2D452D542D632D722D898136
S11342509A81EB85FC850995882351F12D2D3C2D00
S11342604B2D5A2D652D742D832D922DAB80BC8042
S1134270C12CD12CE12CF12C00E010E00E94A040D4
S1134280D22EC32EB42EA52E562E472E382E292ECE
S1134290681879086814790408F60CC080E00BC02B
S11342A080E009C080E007C080E005C080E003C072
S11342B081E001C081E06296CDBFDEBFDF91CF9186
S11342C01F910F91FF90EF90DF90CF90BF90AF9030
S11342D09F908F907F906F905F904F903F902F9022
S11342E008952F923F924F925F926F927F928F9296
S11342F09F92AF92BF92CF92DF92EF92FF920F9371
S11343001F93CF93DF93CDB7DEB76997CDBFDEBFE1
S113431029833A834B835C836D837E838F83988761
S1134320E114F10409F40FC10F2EF7E38F2EF6E226
S11343309F2EF02D1701280129813A813170288F91
S1134340398F40E050E060E070E0CB0129873A8784
S11343504B875C876D877E878F87988B29813A810D
S11343604B815C816D817E818F819885A984BA841B
S1134370C12CD12CE12CF12C00E010E00E94B540BE
S11343802987398B4A8B5B8B6C8B7D8B8E8B9F8BB8
S1134390612C6894772471F8688D798D661A770A90
S11343A02614370408F43101A0902F24B09030244F
S11343B0C0903124D0903224E0903324F0903424FF
S11343C00091352410913624298539894A895B89DD
S11343D06C897D898E899F890E94BE40C1F10E94AB
S11343E05A1E882309F4B1C0888D998D892B21F434
S11343F0611492E0790698F4E12C6894FF24F1F8B2
S113440007E314E2298539894A895B896C897D89A6
S11344108E899F890E94881E882309F498C0E985A3
S1134420E0932F24F989F09330242A8920933124AE
S11344303B89309332244C89409333245D895093D3
S113444034246E89609335247F897093362487E3FE
S1134450481684E2580671F0A301B201888D998D43
S1134460895C9B4D0E94DA4210922E242614370454
S113447009F46FC090E19093860680912D2482FF09
S113448010C0298539894A895B896C897D898E891F
S11344909F8909E00E948440642F752F422F532F77
S11344A004C0498559896A897B8988E10E941E1E56
S11344B0882331F080E1E0E8F6E0858380E04CC0B9
S11344C08EEF0E940C1E07E314E2F80181918F0124
S11344D00E940C1E08151905C1F78FEF0E940C1ECF
S11344E08FEF0E940C1E0E94131E8F3FE1F70E9463
S11344F0131EF0E1F0938506460C571C5301262D3C
S11345003B2D40E050E060E070E080E090E0A98066
S1134510BA80CB80DC80ED80FE800F8118850E94FC
S1134520A04029833A834B835C836D837E838F838E
S113453098872618370821E020932E24211431046B
S113454009F0FACE08C081E007C080E005C080E031
S113455003C081E001C081E06996CDBFDEBFDF9179
S1134560CF911F910F91FF90EF90DF90CF90BF906C
S1134570AF909F908F907F906F905F904F903F90FF
S11345802F9008952F923F924F925F926F927F9255
S11345908F929F92AF92BF92CF92DF92EF92FF924F
S11345A00F931F93CF93DF93CDB7DEB72997CDBF7A
S11345B0DEBF28873D83562E472E09831A83CB827C
S11345C0DC82AE82BF82012B09F446C0CD2809F4F7
S11345D045C04701A22EB32EC42ED52E782E692EA7
S11345E0170132C02885398582169306C8F1E884FC
S11345F0F98409811A812A2D3B2D4C2D5D2D652DC1
S1134600742D872D962D0E947121882359F1E884F9
S1134610F984A7012E2D352F40E050E060E070E0D2
S113462080E090E0E52CF42C072D162D0E94A0408C
S1134630A22EB32EC42ED52E562E472E782E692E9A
S113464088859985881A990A2114310431F18114D5
S1134650910471F481E036C080E034C080E032C05F
S113466080E030C080E02EC081E02CC081E02AC010
S1134670EE80FF800A2D1B2D2C2D3D2D452D542D14
S1134680672D762D89819A81EB81FC810995888734
S11346909987892B09F0A6CFE7CFEE80FF800A2DFA
S11346A01B2D2C2D3D2D452D542D672D762D8981C7
S11346B09A81EB81FC81099588879987892B09F078
S11346C096CFD4CF2996CDBFDEBFDF91CF911F9176
S11346D00F91FF90EF90DF90CF90BF90AF909F909D
S11346E08F907F906F905F904F903F902F900895A0
S11346F00F9380913726813009F454C00E94C11F62
S1134700811109C082E692E29F938F930E943943FC
S11347100F900F9047C081E08093372600E022EC91
S113472032E241E751E267EC70E288E89EE10E94E0
S1134730621D8093382890933928892B79F40FEFE0
S113474022EC32E241E751E267EC70E288E89EE154
S11347500E94621D809338289093392880913828CC
S1134760909139280E9497188093D2279093D32749
S113477045E058E261E872E20E94BE1C65E078E21E
S11347808091D2279091D3270E94331B80933A289B
S113479090933B2883E892E29F938F930E9439433E
S11347A00F900F900F910895E3E7F8E281818F93C2
S11347B080818F9387EA92E29F938F930E9439437B
S11347C010927B2810927C280F900F900F900F90DE
S11347D00895E3E7F8E281818F9380818F9381ECE0
S11347E092E29F938F930E94394381E090E08093FB
S11347F07B2890937C280F900F900F900F90089532
S11348000F931F93CF93DF93CDB7DEB72A97CDBF16
S1134810DEBF03E718E2F80181818F9380818F93D3
S11348208AED92E29F938F930E94394381E090E056
S113483080937B2890937C28898392E09A83F80163
S113484020812B838C8301E012E031E04D815E8175
S11348506F81788589859A850E9448088FE39CE951
S11348600197F1F700C000000F900F900F900F9088
S11348702A96CDBFDEBFDF91CF911F910F9108958E
S11348800F931F93CF93DF93CDB7DEB72A97CDBF96
S1134890DEBF03E718E2F80181818F9380818F9353
S11348A081EF92E29F938F930E94394381E0898341
S11348B082E08A83F80120812B838C8301E012E05B
S11348C032E04D815E816F81788589859A850E9469
S11348D048088FE39CE90197F1F700C0000081E0EC
S11348E090E08093792890937A280F900F900F90FE
S11348F00F902A96CDBFDEBFDF91CF911F910F910C
S1134900089580917328909174281816190614F448
S11349100E94402480917B2890917C28892B79F4F3
S11349208091792890917A28892B49F48091732871
S1134930909174281816190614F40E94D42308952B
S1134940019749F487E093E20E944B4384E0E0E05E
S1134950F6E08583089584E0E0E0F6E08683089538
S113496081E090E00E94A02480917728909178289B
S1134970181619064CF40E94E92380917B28909123
S11349807C28892B11F504C010927B2810927C2876
S113499080917328909174281816190644F40E9483
S11349A0002480917B2890917C28892B71F480913C
S11349B0792890917A28892B41F480E090E00E9434
S11349C0A02485E193E20E944B43089580917328CB
S11349D0909174280895DF92EF92FF920F931F93A2
S11349E0CF93DF93EC01D62E142FF22EE0FE0DC0F0
S11349F0402F411B622F6D0D0E94902C402F4D19AA
S1134A00612F6F0DCE010E94902CE1FE0EC0402F4D
S1134A10411B6F2D6D19CE010E94902C402F4D1912
S1134A206F2D611BCE010E94902CE3FE0EC0402F1F
S1134A30410F6F2D6D0DCE010E94902C402F4D0D16
S1134A40612F6F0DCE010E94902CE2FE0EC0402F0C
S1134A50410F6F2D6D19CE010E94902C402F4D0DEA
S1134A606F2D611BCE010E94902CDF91CF911F917D
S1134A700F91FF90EF90DF9008958F929F92AF92E5
S1134A80BF92CF92DF92EF92FF920F931F93CF9337
S1134A90DF93EC01A62E942ED22E802E11E0121B51
S1134AA0B22EB194BB0CE02E042F262F4D2D60E0C6
S1134AB00E94EB24DD20C9F00F2EF3E0CF2EF02D61
S1134AC0F12C112324F0DA94B394B3941B0DF394D2
S1134AD01C0DE82C092D2A2D4D2D6F2DCE010E9481
S1134AE0EB24C394C394FD1460F3DF91CF911F9121
S1134AF00F91FF90EF90DF90CF90BF90AF909F9079
S1134B008F900895DF92EF92FF920F931F93CF93AC
S1134B10DF93EC01162FF42EE22ED02E81E0820FCB
S1134B20282F220F481B681B022FCE010E94A925A3
S1134B30882339F00D2D2E2D4F2D612FCE010E948B
S1134B403D25DF91CF911F910F91FF90EF90DF9062
S1134B5008950F93FC010150040F84A996A994179A
S1134B6038F0081768F481E0041740F080E006C0CC
S1134B700817D0F081E0041708F080E08823C9F01A
S1134B802150260F83A995A9961738F0281770F499
S1134B9081E0261770F080E00CC0281748F081E00F
S1134BA0261738F080E005C080E003C081E001C032
S1134BB080E00F910895DB011496ED91FC91159717
S1134BC020E030E061E009950895DB011496ED9151
S1134BD0FC91159720E030E063E009950895DB012E
S1134BE01496ED91FC91159720E030E040E064E0EC
S1134BF009950895DB011496ED91FC91159720E039
S1134C0030E041E064E009950895DB011496ED91EC
S1134C10FC91159720E030E062E009950895DB01EE
S1134C201496ED91FC91159720E030E065E009952C
S1134C300895DB011496ED91FC91159766E00995B2
S1134C400895AF92BF92CF92DF92EF92FF921F939B
S1134C50CF93DF937C015B01EA01D12CFE01149117
S1134C60D1100BC01F3F09F44FC0412FB501C7013C
S1134C700E940F2681114EC04FC01F3F51F44FEFC9
S1134C80B501C7010E940F26882309F447C0D12C1F
S1134C9041C01E3F09F444C0103FC8F5103E40F027
S1134CA0412F4F70B501C7010E940526D12C32C097
S1134CB0103D40F0412F4F70B501C7010E94E5251A
S1134CC0D12C28C0103CC0F0B501C7010E94EF25CB
S1134CD0C12ECC0CCC0CCC0CCC0CC394C394D12CD6
S1134CE0C6010E941728B501C7010E94FA25C60112
S1134CF00E941728D12C0EC011235CF0812F90E064
S1134D000E941728D12C06C0DD24D39403C0D12CD3
S1134D1001C0D12C2196A2CF80E003C080E001C065
S1134D2081E0DF91CF911F91FF90EF90DF90CF90C2
S1134D30BF90AF9008951F93CF93DF93EC01162F8C
S1134D40462F417065E00E940D281695412F417051
S1134D5066E0CE010E940D281695412F417067E050
S1134D60CE010E940D281695412F417068E0CE01B6
S1134D700E940D281695412F417069E0CE010E94D2
S1134D800D281695412F41706AE0CE010E940D282E
S1134D901695412F41706BE0CE010E940D28412FE2
S1134DA046956CE0CE010E940D2841E064E0CE01FE
S1134DB00E940D2840E064E0CE010E940D28DF919E
S1134DC0CF911F910895DF92EF92FF920F931F935B
S1134DD0CF93DF93EC01D42E7901062F10E0F80174
S1134DE03197E730F10508F09FC0E650FF4F0C946F
S1134DF0F03F41117EC098C0411184C095C06DE060
S1134E000E94042840E06DE0CE010E940D2865E078
S1134E10CE010E94042866E0CE010E94042867E0C7
S1134E20CE010E94042868E0CE010E94042869E0B3
S1134E30CE010E9404286AE0CE010E9404286BE09F
S1134E40CE010E9404286CE0CE010E94042864E094
S1134E50CE010E94042862E0CE010E94042863E08F
S1134E60CE010E94042861E0CE010E94042841E0A2
S1134E7062E0CE010E940D2841E063E0CE010E9471
S1134E800D2852C041110AC041E062E00E940D2881
S1134E9041E063E0CE010E940D2846C081E0481342
S1134EA00BC040E062E0CE010E940D2841E063E0C7
S1134EB0CE010E940D2838C0E2E04E130BC041E041
S1134EC062E0CE010E940D2840E063E0CE010E9422
S1134ED00D282AC040E062E0CE010E940D2840E087
S1134EE063E0CE010E940D281FC0642F0E949B2600
S1134EF01BC0F70161917F01CE010E949B26DA94C9
S1134F00C1F712C0F7016491CE010E949B26FFEF06
S1134F10EF1AFF0ADA94B1F707C061E00E940D2886
S1134F2003C060E00E940D2881E0DF91CF911F91C2
S1134F300F91FF90EF90DF900895CF93DF9300D00F
S1134F40CDB7DEB770E0660F771F680F791F42E0B8
S1134F5050E0CE0101960E94C64289819A810F9049
S1134F600F90DF91CF910895880F880F880F860FD7
S1134F700895CF93C82F682F66956695669582E04D
S1134F8093E00E949D27FC014081C77021E030E03E
S1134F90C90102C0880F991FCA95E2F7842B808348
S1134FA0CF910895CF93DF93C82FD62F682F66959E
S1134FB06695669588EF92E00E949D27FC01D111C9
S1134FC011C04FB7F8945081C77021E030E0C90197
S1134FD002C0880F991FCA95E2F7809585238083C4
S1134FE04FBF0FC04FB7F8945081C77021E030E035
S1134FF0C90102C0880F991FCA95E2F7852B8083E7
S11350004FBFDF91CF910895860F911DFC0183A1BD
S11350108F3F11F00E94B9270895860F911DFC015E
S113502083A18F3F19F0642F0E94D227089500971F
S113503041F02EE33FE1F9013197F1F70197009731
S1135040D1F70895BF92CF92DF92EF92FF920F9320
S11350501F93CF93DF938C01EB01B42E79018AE087
S1135060481721F095E14917C1F06AC04FEFC80114
S11350700E94DB25EFE1F3E03197F1F700C0000077
S11350804CE053E0BE01C8010E9421268FE193E069
S11350900197F1F700C0000053C0CA80DB8040E0F4
S11350A0C8010E94052642E0BE01C8010E94E52510
S11350B0F6014481486BBE01C8010E940F2640E4FA
S11350C0BE01C8010E940F2641E0BE01C8010E9432
S11350D00526F6012681378140E4BE01C8010E94FD
S11350E0192640E0BE01C8010E94E52540E0BE014A
S11350F0C8010E94052641E0BE01C8010E94E525C1
S1135100F6014481486BBE01C8010E940F2640E4A9
S1135110BE01C8010E940F2641E0BE01C8010E94E1
S11351200526F60126813781205C3F4F40E4BE010D
S1135130C8010E94192640E0BE01C8010E94E5256D
S113514097014B2DBE01C8010E949D2DDF91CF9187
S11351501F910F91FF90EF90DF90CF90BF90089533
S1135160FC01E60FF11D849190E0982F8827319679
S1135170E4918E0F911D0895FC01849108950E947D
S1135180BC28882311F0823011F486E0089583E06E
S1135190089580E00895FC01808D8F5F089566E096
S11351A00E94B028089568E00E94B02808950A96E5
S11351B0FC01849108950B96FC0184910895AF92AB
S11351C0BF92CF92DF92EF92FF920F931F93CF93F0
S11351D0DF937C01B62EDC011496CD91DC911597FA
S11351E0CE010E94BC28182FF701848195810E946A
S11351F0BF28082F113019F0AA24AA9404C00F2E36
S1135200FFE0AF2EF02DD70114968D919C91159748
S11352100E94D728D82EF701848195810E94DB282B
S1135220C82ED70114968D919C9115970E94D3286E
S1135230B0E6BB1548F4009739F0C80FD91F0F2EFC
S1135240F1E6DF2EF02D12C0F701848195810E94D2
S1135250CF28F0E4FB1548F4009739F0C80FD91FA4
S11352600F2EF1E4DF2EF02D01C06196CB1490F4E3
S1135270D70150961C92509753961C92539754966C
S11352801C92549751961C92519752961C9280E00E
S113529090E073C0CD1408F468C0202F30E08E0174
S11352A0FE0184918F3F11F421965BC0DB1051C045
S11352B06E01D70114968D919C9115970E94BC287C
S11352C0882311F0823001F5F8010491D701539637
S11352D00C93F6013196E491D7015496EC93F601C0
S11352E03396E491D7015096EC93F6013496E49109
S11352F0D7015196EC93F6013596E491D701529675
S1135300EC938C2F9D2F39C0FE010491802F8F7058
S11353108250D70152968C93529702950F705196F2
S11353200C93FE013196E4918E2F8F70D701549621
S11353308C935497E295EF705396EC93FE0132965A
S1135340E491E295EF70D7015096EC938C2F9D2F4A
S113535014C0FE013296E491EA21CE0FD11DC20F92
S1135360D31FDC1411F0D3949ACFF701108A138A57
S1135370148A118A128A80E090E0DF91CF911F9104
S11353800F91FF90EF90DF90CF90BF90AF90089572
S11353906F927F928F929F92AF92BF92CF92DF9241
S11353A0EF92FF920F931F93CF93DF936C01162F0D
S11353B0742E622F0E94DF287C01009709F447C0F5
S11353C0F601848195810E94BF28B82EF601D38905
S11353D0C4896188610E9289791A972C9C1A0C2FC2
S11353E02D2F492D662DC6010E94A925811103C0C8
S11353F0F60180892DC0D95F8D2E8694869486947B
S1135400CC2311F1EB0CF11CAA24AA94A80CB12C06
S1135410FFEFAF1ABF0A13C0FE01049120E0492D2B
S1135420612FC6010E94992C2196185F8C2F8E192A
S1135430881590F3EA0CFB1C9394971429F08820A8
S1135440D9F3162DE701E8CFF601808901C080E089
S1135450DF91CF911F910F91FF90EF90DF90CF904C
S1135460BF90AF909F908F907F906F900895DF9240
S1135470EF92FF920F931F93CF93DF938C01F62E3D
S1135480D42EE901DC015596ED91FC9156970995CE
S1135490D80E2881222369F02196E12C4D2D6F2D01
S11354A0C8010E94C829F80EE80E29912111F6CFEF
S11354B001C0E12C8E2DDF91CF911F910F91FF90B0
S11354C0EF90DF900895DC0114968D919C911597CF
S11354D0009709F44DC057962C91579721110DC090
S11354E0FC013596E4915896EC935897FC013C9650
S11354F0849159968C9359971BC0213069F4FC010F
S11355003F96E4915896EC935897FC0170968491D9
S113551059968C9359970CC0FC013D96E49158968A
S1135520EC935897FC013E96849159968C93599725
S113553058968C915897992787FD909559962C9158
S11355405997821B910927FD93955A962C915A9746
S1135550203461F0829FC00111240024880F991F18
S1135560001C880F991F001C892F902D5B968C932B
S11355700895FC01178A0E94632A089529EC38E2F1
S1135580FC01258B368B08952BEC38E2FC01258B2E
S1135590368B0895CF93DF93EC018C819D81861720
S11355A0970749F06C837D83CE010E94632A89ECBE
S11355B098E28D8B9E8BDF91CF910895AF92BF922D
S11355C0CF92DF92EF92FF920F931F93CF93DF93CB
S11355D0EC01162FE42ED22E261718F4C62EC21A6A
S11355E002C0C22EC61A0E1518F4AE2CA01A02C0A0
S11355F0A02EAE18CA1428F08A2DAC2CC82EB12CBB
S113560008C08D2DD02E082F812F1E2DE82EBB24EF
S1135610B394D11630F48E2DE02E082F812F1D2D3A
S1135620D82EFA2CF694E01610F401E001C00FEF26
S1135630D116A0F0B11006C04E2D612FCE010E94EC
S1135640902C05C0412F6E2DCE010E94902CFC1889
S113565012F4E00EFA0C1F5FD11660F7DF91CF91C0
S11356601F910F91FF90EF90DF90CF90BF90AF907C
S113567008951F93CF93DF93EC011C821D821E8239
S11356801F82198681E0888782E28A871E861F86A8
S1135690FE01B39680E09FEF91938F5F8E30E1F728
S11356A011E018A3CE010E94BE2A1F8B188E198EFA
S11356B080E48A8F1B8E88E59FE289AB9AABDF91E9
S11356C0CF911F910895DB01ED91FC910995089507
S11356D00F931F93CF93DF93EC018B01E9A9FAA9F0
S11356E082E0099520E030E04AE0B801CE010E9452
S11356F0632B182FE9A9FAA983E00995E9A9FAA966
S113570080E00995812FDF91CF911F910F9108952A
S11357100F931F93CF93DF93EC018B01E9A9FAA9AF
S113572082E00995E9A9FAA981E0099520E030E031
S113573044E1B801CE010E94632B9E012D5C3F4FD2
S113574047E1B801CE010E94632BE9A9FAA980E0E0
S11357500995DF91CF911F910F910895FF920F93B7
S11357601F93CF93DF93EC018B01E9A9FAA982E09F
S11357700995E9A9FAA981E0099520E030E045E11D
S1135780B801CE010E94632BF82E882341F09E01BC
S11357902D5C3F4F47E1B801CE010E94632BE9A97C
S11357A0FAA980E009958F2DDF91CF911F910F9178
S11357B0FF900895FC01448F258F9C01245E3F4F88
S11357C042E30E94632B0895CF93DF931F92CDB7DA
S11357D0DEB79E012F5F3F4F46E40E94632B898111
S11357E00F90DF91CF910895CF93DF931F92CDB7A0
S11357F0DEB79E012F5F3F4F47E40E94632B8981F0
S11358000F90DF91CF91089520E030E048E40E94AA
S1135810632B0895CF93DF93EC016A817B810E940F
S1135820E42B88836A817B81CE010E94F42B8983D7
S11358306A817B81CE010E94042C8B879E012D5CA2
S11358403F4F6A817B8147E1CE010E94632BDF9148
S1135850CF910895CF93DF93EC016A817B810E94FD
S1135860682B882329F0CE010E940A2C81E001C014
S113587080E0DF91CF9108954F925F926F927F9273
S11358808F92AF92CF92EF92FF920F931F93CF9389
S1135890DF93CDB7DEB73C012B01F42E122F0E940B
S11358A0392BF30142825382F0A611A702A7E3A683
S11358B0C4A6A5A686A6888987A7898987A38A8975
S11358C085A38B8986A38C8984A38D8980AB8E89DB
S11358D083A3C3010E942A2CDF91CF911F910F91C2
S11358E0FF90EF90CF90AF908F907F906F905F90EC
S11358F04F900895FC01628173810E94882B089562
S1135900CF93DF93EC01EE85FF85309709F009957D
S11359106A817B81CE010E94AE2BDF91CF910895E5
S1135920362F242FFC0162817381432F0E94DA2BCE
S113593008950F93FC0182819381648F458F278F93
S1135940068F9F01245E3F4F4BE3BC01CF010E94B1
S1135950632B0F910895FC018385883221F08230F6
S113596021F483E008958FEF089581E00895CF93A3
S1135970DF93EC018B85803321F48FEF88A389A317
S113598004C0CE010E94AB2C88A3DF91CF9108956F
S1135990FC0110A20895FC0112828081815083834E
S11359A014820895FC0120818281820F8283918177
S11359B0891760F484818F5F84838381280F29177A
S11359C010F02FEF290F238381E0089580E00895DC
S11359D0DC011696ED91FC91179715968C919F0119
S11359E0280F311DC9011192E817F907E1F708954D
S11359F0FC0191E08381861708F490E021E04617CA
S1135A0008F020E0322F392B81E05281451708F449
S1135A1080E083239223892B0895DC01FB0110820B
S1135A2012968C911297818315968C9115978150BB
S1135A30828313968C9183830895FB016181238172
S1135A40213019F0233021F006C048E0460F04C08D
S1135A50462F685001C0462F0E94F82C0895DC019F
S1135A601696ED91FC91179712968C91481B4770EE
S1135A7081E090E0DC0102C0AA0FBB1F4A95E2F767
S1135A80AD01E60FF11D222321F08081482B4083D4
S1135A90089540958081482340830895FB01418106
S1135AA0FC012281421770F02381241758F0FB0176
S1135AB03081FC012581321728F4FB012481632FF6
S1135AC00E942F2D0895DF92EF92FF920F931F9360
S1135AD0CF93DF938C01EB01FA808B81813041F00D
S1135AE098F0823049F0833059F0D12CE12C0FC06A
S1135AF0DD24D394E12C0BC0D12CEE24EA9407C00E
S1135B00DD24DA94E12C03C0D12CEE24E394FF20AD
S1135B1024F4BE01C8010E944E2D88818E0D888315
S1135B2089818D0D8983FF0C91F7DF91CF911F91AE
S1135B300F91FF90EF90DF9008950F931F93CF93F1
S1135B40DF93E901FB010281138150E0FA017497AC
S1135B50E433F105C0F5EF5FFE4F0C94F03FB9015B
S1135B60C8010E941D2D882381F1BE01C8010E9435
S1135B70632D81E02DC0B901C8010E944E2D81E042
S1135B8027C0C8010E94E82CC8010E94CB2C81E0E8
S1135B901FC0C8010E94D22C8823C9F0C8010E94EA
S1135BA0E82C81E015C0B901C8010E940D2D81E0E7
S1135BB00FC0F8018581888381E00AC0F8018181E2
S1135BC0888381E005C081E003C081E001C080E0FA
S1135BD0DF91CF911F910F910895AF92BF92CF9211
S1135BE0DF92EF920F931F93CF935C01C62EE42EA6
S1135BF0D22E27E02D15B8F4CD2D162F0FEF20E06F
S1135C004E2D612FC5010E94992CC850185FC830D1
S1135C10A8F78D2D877028E02C0D98EF9D0D987FA7
S1135C20C22EC90E01C08D2D882399F007E00827E4
S1135C300F5F07708FEF90E09C0102C0220F331FAB
S1135C400A95E2F7890120E04E2D6C2DC5010E94D2
S1135C50992CCF911F910F91EF90DF90CF90BF902F
S1135C60AF900895AF92BF92CF92DF92EF920F93CD
S1135C701F93CF935C01E62EC42ED22E27E02D1560
S1135C80B8F4CD2D142F0FEF21E0412F6E2DC50157
S1135C900E94992CC850185FC830A8F78D2D8770C2
S1135CA028E02C0D98EF9D0D987FC22EC90E01C0DF
S1135CB08D2D882399F007E008270F5F07708FEF79
S1135CC090E09C0102C0220F331F0A95E2F789017C
S1135CD021E04C2D6E2DC5010E94992CCF911F916E
S1135CE00F91EF90DF90CF90BF90AF900895DF9227
