:100000000C94BF050C94E3050C94E3050C94E305F4
:100010000C94E3050C94E3050C94E3050C94E305C0
:100020000C94E3050C94E3050C94E3050C94E305B0
:100030000C94E3050C94E3050C9481380C94E305CF
:100040000C94E3050C94E3050C94E3050C94E30590
:100050000C94E3050C94E3050C94E3050C94E30580
:100060000C94E3050C9422380C94E3050C94E305FE
:100070000C94E3050C94E3050C94E3050C94E30560
:100080000C94E3050C94E3050C94E3050C94E30550
:100090000C94E3050C94E3050C94E3050C94E30540
:1000A0000C94E3050C94E3050C94E3050C94E30530
:1000B0000C94E3050C94E3050C94E3050C94E30520
:1000C0000C94E3050C94E3050C94E3050C94E30510
:1000D0000C94E3050C94E3050C94E3050C94E30500
:1000E0000C94E3050C94E3050C94E3050C94E305F0
:1000F0000C94E3050C94E3050C94E3050C94E305E0
:100100000C9428150C94E3050C9441150C94E3050C
:100110000C94E3050C94E3050C94E3050C94E305BF
:100120000C94E3050C94E3050C94E3050C94E305AF
:100130000C94E3050C94E3050C94E3050C94E3059F
:100140000C94E3050C94E3050C94E3050C94E3058F
:100150000C94E3050C94E3050C94E3050C94E3057F
:100160000C94B7370C94E3050C94E3050C94E30569
:100170000C94E3050C94E3050C94E3050C94E3055F
:100180000C94DF140C9419150C94E3050C94E305FE
:100190000C94E3050C94E3050C94E3050C94E3053F
:1001A0000C94E3050C94E3050C94E3050C94E3052F
:1001B0000C94E3050C94E3050C94E3050C94E3051F
:1001C0000C94E3050C94E3050C94E3050C94E3050F
:1001D0000C94E3050C94E3050C94E3050C94931440
:1001E0000C94E3050C94E3050C94E3050C94E305EF
:1001F0000C94E3057A260827BD260C27F0267426E2
:1002000077263C2D442D5E2D4E2D5E2D5E2D5E2DD0
:100210005E2D5E2D5E2D5E2D5E2D5E2D5E2D5E2D86
:100220005E2D5E2D5E2D5E2D5E2D5E2D5E2D5E2D76
:100230005E2D5E2D5E2D5E2D5E2D5E2D5E2D362D8E
:100240005E2D5E2D5E2D5E2D5E2D5E2D5E2D5E2D56
:100250002A2D5E2D5E2D5E2D5E2D5E2D5E2D5E2D7A
:100260005E2D5E2D5E2D542D592D7E3178318431D9
:1002700084318431843184318431843184318431D6
:1002800084318431843184318431843184318431C6
:1002900084318431843184318431843184318431B6
:1002A00084318431843184318431843184318431A6
:1002B00084318431843184318431843184317A31A0
:1002C0007C31803182318431683186316A316C31E0
:1002D0006E31703172317431763105A84CCDB2D4A3
:1002E0004EB93836A9020C50B9918688083CA6AAA6
:1002F000AA2ABE000000803F040624060407240743
:10030000840600062006000720078006FFD0FFE0D5
:10031000FFC1FFD13FC0FF14FFD23FC0FF14FFD089
:10032000FFFE01060A00FE070136026820FFFE08F4
:10033000FE07FE0A006022176780808080800080B0
:10034000163363A0A0A00257675050F850F85050E1
:100350000257672070A07028702002576748A85085
:100360002050A89002576740A0A040A8906826138C
:100370006380808012376720408080804020123761
:1003800067804020202040800355658850F85088C1
:100390000355652020F8202011336360408005510B
:1003A00061F811336340E0400257670808102040AD
:1003B0008080025767205088888850200257672025
:1003C00060A0202020F8025767708808304080F82D
:1003D000025767F8081030088870025767103050CD
:1003E00090F81010025767F880B0C808887002575C
:1003F00067304080B0C88870025767F80810102036
:10040000404002576770888870888870025767700C
:1004100088986808106011376740E0400040E0406D
:1004200011376740E040006040801247671020406D
:1004300080402010045363F800F812476780402082
:10044000102040800257677088102020002002573B
:1004500067708898A8B0807002576720508888F825
:100460008888025767F04848704848F0025767701C
:10047000888080808870025767F04848484848F074
:10048000025767F88080F08080F8025767F8808014
:10049000F08080800257677088808098887002574B
:1004A00067888888F8888888123767E0404040402D
:1004B00040E00257673810101010906002576788AC
:1004C00090A0C0A09088025767808080808080F8CC
:1004D0000257678888D8A88888880257678888C89C
:1004E000A89888880257677088888888887002571B
:1004F00067F08888F08080800158687088888888D4
:10050000A87008025767F08888F0A09088025767A3
:1005100070888070088870025767F820202020209B
:10052000200257678888888888887002576788887B
:100530008850505020025767888888A8A8D8880219
:1005400057678888502050888802576788885020CD
:10055000202020025767F80810204080F8123767E3
:10056000E08080808080E002576780804020100813
:1005700008123767E02020202020E0065363205037
:1005800088015161F8282262804002556570087820
:1005900088780257678080B0C888C8B002556570F7
:1005A000888088700257670808689888986802559C
:1005B000657088F88070025767304840F0404040CE
:1005C000005767788888780888700257678080B0FD
:1005D000C88888881237674000C0404040E0104912
:1005E000691000301010109090600257678080886A
:1005F00090E09088123767C04040404040E002558C
:1006000065D0A8A8A888025565B0C8888888025512
:10061000657088888870005767B0C888C8B08080C7
:1006200000576768988898680808025565B0C880C0
:10063000808002556570807008F00257674040F076
:10064000404048300255658888889868025565881A
:10065000885050200255658888A8A85002556588A2
:10066000502050880057678888986808887002551D
:1006700065F8102040F8124767304020C020403015
:1006800022176780808080808080124767C020406A
:10069000304020C006536348A890FFFFFFFFFFFFD4
:1006A000FFFFFFFFFFFFFFFFFFFFFFFFFFFFFFFF5A
:1006B000FFFFFFFFFFFFFFFFFFFFFF0A00602217A2
:1006C00067800080808080800157672078A0A0A08C
:1006D0007820025767304840E04048B002556588AE
:1006E0007050708801586888885020F82020202297
:1006F0001767808080008080800158687080E0905B
:1007000048380870193161A00257677088A8C8A8D6
:1007100088701346667090B05000F00265652448FA
:10072000904824144262F010154161F0025767703E
:1007300088E8C8C88870095161F816336340A04042
:100740000256662020F82020F8154565609020406C
:10075000F0154565E0106010E028226240800156E7
:1007600066888888C8B08002576778E8E8682828D3
:100770002825116180202262408015356540C040E7
:1007800040E01346666090906000F0026565904816
:1007900024489001696940C04040E40C143C0401C5
:1007A000696940C04040E81404081C015969C02030
:1007B0004020C81828780802576720002020408869
:1007C000700258684020708888F88888025868103D
:1007D00020708888F888880258682050708888F8C7
:1007E000888802586848B0708888F88888025868F5
:1007F0005000708888F8888802586820507088886F
:10080000F888880267673C50909CF0909C0059697A
:1008100070888080808870204002586840F880800E
:10082000F08080F802586810F88080F08080F8022C
:10083000586820F88080F08080F802586850F8806E
:1008400080F08080F81238688040E040404040E00E
:100850001238682040E040404040E012386840A034
:10086000E040404040E0123868A000E04040404096
:10087000E0025767F04848E84848F00258682850B6
:1008800088C8A89888880258684020708888888816
:100890007002586810207088888888700258682014
:1008A00050708888888870025868285070888888B6
:1008B0008870025868500070888888887002556572
:1008C0008850205088025767709898A8C8C870024E
:1008D0005868402088888888887002586810208866
:1008E00088888888700258682050008888888870B6
:1008F00002586850008888888888700258681020DC
:1009000088885020202002576780F088F0808080FF
:10091000025767708890A09088B002586840200005
:1009200070087888780258681020007008788878F5
:10093000025868205000700878887802586828505B
:1009400000700878887802576750007008788878B7
:1009500002586820502070087888780265657814FD
:100960007C907C00576770888088702040025868AF
:100970004020007088F8807002586810200070884D
:10098000F880700258682050007088F88070025714
:100990006750007088F88070123868804000C0404E
:1009A0004040E0123868408000C0404040E01238CB
:1009B0006840A000C0404040E0123767A000C0403F
:1009C0004040E0025767C0307088888870025868DD
:1009D000285000B0C8888888025868402000708875
:1009E00088887002586810200070888888700258C3
:1009F00068205000708888887002586828500070FD
:100A000088888870025767500070888888700355FE
:100A1000652000F800200255657898A8C8F00258B3
:100A200068402000888888986802586810200088EC
:100A300088889868025868205000888888986802DA
:100A400057675000888888986800596910208888FE
:100A5000986808887000586880F0888888F08080DE
:100A60000059695000888898680888700102040855
:100A700001020408A0A0A0A0A8A8A8A86E616E000A
:100A8000696E660000407A10F35A00A0724E180991
:100A90000010A5D4E80000E87648170000E40B54E5
:100AA000020000CA9A3B000000E1F50500008096B4
:100AB0009800000040420F000000A08601000000E6
:100AC000102700000000E8030000000064000000A0
:100AD00000000A00000000000100000000002C7669
:100AE000D888DC674F0823DFC1DFAE59E1B1B79684
:100AF000E5E3E453C63AE651997696E8E6C28426E1
:100B0000EB898C9B62ED407C6FFCEFBC9C9F40F2BC
:100B1000BAA56FA5F490055A2AF75C936B6CF96738
:100B20006DC11BFCE0E40D47FEF520E6B500D0EDFD
:100B3000902E0300943577050080841E0800002065
:100B40004E0A000000C80C333333330F986E128303
:100B50001141EF8D2114893BE65516CFFEE6DB18D7
:100B6000D1844B381BF77C1D901DA4BBE42420329C
:100B700084725E228100C9F124ECA1E53D27112495
:100B80001FBECFEFCDBFDFE2DEBF18BE19BE1ABE5B
:100B90001BBE13E2A0E0B0E2E6E0F7E800E00BBF26
:100BA00002C007900D92A438B107D9F71BBE29E205
:100BB000A4E8B3E201C01D92A93CB207E1F70E948C
:100BC000AC130C9481430C940000CF93DF936838EE
:100BD00023E172078105910509F458C0603127E2CD
:100BE00072078105910509F455C060322EE4720741
:100BF0008105910509F452C0613329E77207810527
:100C0000910509F44FC060342CE972078105910504
:100C100009F44CC0603523EC72078105910509F495
:100C200049C0603828E3720721E08207910509F482
:100C300045C0603A26E8720721E08207910509F471
:100C400041C0683428EE720721E082079105F1F176
:100C500060342DE0720723E082079105D9F16039F5
:100C600020ED720723E082079105C1F1603221EA8D
:100C7000720727E082079105A9F1603472448F4022
:100C80009105A1F1C0E0D0E060E033C0C7E8DFEF3C
:100C90006FE32FC0C7E8DFEF6FE12BC0C7E8DFEFDE
:100CA0006FE027C0C5E8D1EF6FE023C0C7E8DFEFF2
:100CB00067E01FC0C7E8DAEF67E01BC0C7E8DFEFF7
:100CC00063E017C0C7E8DAEF63E013C0C6E8D0EF0F
:100CD00063E00FC0C7E8DAEF61E00BC0C5E8D1EF11
:100CE00061E407C0C6E8D0EF60E003C0C2E8D0ED21
:100CF00060E04FEF8AE20E940D084FEF6D2F89E20E
:100D00000E940D084FEF6C2F88E20E940D08DF91C2
:100D1000CF9108950E9442080E94A4070E9476077E
:100D200060E970ED83E090E00E94E50543E063E058
:100D30008BE20E940D084FEF60E680E60E940D08EE
:100D400040EE60E08FE00E940D088AE290E00E9491
:100D50005D071F928F9384EB90E29F938F930E9485
:100D6000B54289E290E00E945D071F928F9387EC65
:100D700090E29F938F930E94B54288E290E00E9498
:100D80005D071F928F938BEC90E29F938F930E944D
:100D9000B542109209278DB79EB70C968DBF9EBFA6
:100DA00008951F93CF93DF93EC0161E388810E9444
:100DB0003F074FE0698185E30E940D088981882300
:100DC00069F010E066E3610FFE01E10FF11D828121
:100DD0000E943F071F5F89811817A0F381E80E94D6
:100DE000E607DF91CF911F9108951F93CF93DF9373
:100DF000EC01FC01329688E011928150E9F781E61E
:100E00000E942607888384E60E9426079881911114
:100E100001C0888385E60E9426078983882369F0BC
:100E200010E086E6810F0E942607FE01E10FF11D0A
:100E300082831F5F89811817A0F341E060E08CE294
:100E40000E940D08DF91CF911F9108950F931F937A
:100E5000CF93DF93082FC0E6D6E010E11E8383E036
:100E600090E00E947715802F90E00E9477150E94F5
:100E700082151D83DF91CF911F910F910895FF92ED
:100E80000F931F93CF93DF93082FF62EC0E6D6E083
:100E900010E11E8382E090E00E9477158F2D90E094
:100EA0000E947715802F90E00E9477151D83DF91B7
:100EB000CF911F910F91FF9008950F931F93CF93A0
:100EC000DF93082FC0E6D6E010E11E8383E090E0B8
:100ED0000E947715802F90E00E9477150E9482155E
:100EE0001D83DF91CF911F910F910895CF9380E1E2
:100EF000E0E6F6E0868382E090E00E94771581E6E6
:100F000090E00E947715CDE080E090E00E94771598
:100F1000C150D1F7E0E6F6E080E18583868382E088
:100F200090E00E94771581E790E00E947715CDE070
:100F300080E090E00E947715C150D1F780E1E0E6B3
:100F4000F6E08583CF910895CF9380E1E0E6F6E067
:100F5000868382E090E00E94771581E390E00E9412
:100F60007715CDE080E090E00E947715C150D1F771
:100F7000E0E6F6E080E18583868382E090E00E94EF
:100F8000771581E490E00E947715CDE080E090E055
:100F90000E947715C150D1F7E0E6F6E080E1858345
:100FA000868382E090E00E94771581E590E00E94C0
:100FB0007715CDE080E090E00E947715C150D1F721
:100FC00080E1E0E6F6E08583CF91089590E1E0E6E8
:100FD000F6E09683823871F018F4813831F018C049
:100FE000843869F0873881F013C081E890E00E946E
:100FF00077150EC082E890E00E94771509C084E85A
:1010000090E00E94771504C087E890E00E94771571
:1010100080E1E0E6F6E085830895EF92FF920F937A
:101020001F93CF93DF93E82E062FF42EC0E6D6E071
:1010300010E11E8385E090E00E9477158E2D90E0F0
:101040000E9477158F2D90E00E947715802F90E0F9
:101050000E9477151D83DF91CF911F910F91FF9013
:10106000EF9008951F93CF93DF93C0E6D6E010E191
:101070001E8380EC90E00E9477151D83DF91CF9155
:101080001F9108950E946D150E94320880E0089516
:101090000F931F93CF93DF93CDB7DEB72A97CDBFC2
:1010A000DEBF09831A832B833C834D835E836F836A
:1010B000788789879A878CE090E00E9443402AE0F5
:1010C000FE013196DC0101900D922A95E1F7FC01B9
:1010D000128613862091862330918723232B79F45F
:1010E0002091842330918523232B49F480938423FA
:1010F0009093852380938623909387230AC0E09161
:101100008423F0918523828793878093842390930F
:1011100085232A96CDBFDEBFDF91CF911F910F911E
:10112000089580918623909187230097C9F020919C
:101130008423309185238217930749F410928423E6
:1011400010928523109286231092872307C0FC01FA
:101150002285338520938623309387230E94DB40AA
:101160000895E0918623F0918723309721F42FEFA3
:10117000FC01208308952AE0DC0101900D922A955C
:10118000E1F7089581E090E0209186233091872354
:10119000232B11F080E090E00895E0EEF6E08085EA
:1011A000992787FD909580959095892F881F88278E
:1011B000881F90E00895E0EEF6E08085869586959C
:1011C00091E08927817090E00895E0EEF6E0808557
:1011D00086958695869591E08927817090E008959F
:1011E000E0EEF6E0808582958F7091E0892781702E
:1011F00090E00895E0EEF6E0808582958695877010
:1012000091E08927817090E00895E0EEF6E0808516
:10121000992787FD909580959095892F881F88271D
:10122000881F90E00895E0EEF6E088E1848B94E07A
:101230009283848B98E09283848B90E19283848B59
:1012400090E29283848B90E49283848B80E8828303
:1012500008950E940509019741F48FEC90E29F9355
:101260008F930E94B5420F900F900E94FA08019749
:1012700061F48BED90E29F938F930E94B5428AE0D8
:1012800090E00E94C7420F900F900E94F0080197D3
:1012900061F487EE90E29F938F930E94B5428AE0BB
:1012A00090E00E94C7420F900F900E94E5080197BE
:1012B00061F484EF90E29F938F930E94B5428AE09D
:1012C00090E00E94C7420F900F900E94DB080197A8
:1012D00061F48FEF90E29F938F930E94B5428AE072
:1012E00090E00E94C7420F900F900E94CD08019796
:1012F00061F48AE091E29F938F930E94B5428AE065
:1013000090E00E94C7420F900F90089580E8E0E2BD
:10131000F7E08583089580E8E0E2F7E086830895AA
:101320000F931F93CF93DF938C0118161906F4F4D3
:10133000C0E0D0E061E070E080E090E00E947133B6
:101340008FE39FE10197F1F700C0000060E070E0DB
:1013500080E090E00E9471338FE39FE10197F1F705
:1013600000C000002196C017D10721F7DF91CF916F
:101370001F910F910895CF93DF93C0918E23D09149
:101380008F23809111279091122780938E23909321
:101390008F23893621E092072CF010928E23109231
:1013A0008F2308C0992334F488E691E080938E233C
:1013B00090938F2383E197E20E94F52B62E273E022
:1013C00083E197E20E94452A80911127909112278C
:1013D0000E94B70C83E197E20E94FB2B8111EECFB4
:1013E000C0938E23D0938F23DF91CF910895CF9315
:1013F000C82F8A3019F48DE00E94F709E1EAFAE07B
:10140000908195FFFDCFC093A00A80E090E0CF913E
:101410000895CF93BC01E1EAFAE080818823ECF7DC
:10142000C091A00ACD3009F4CAE08C2F0E94F709C0
:101430008C2F90E0CF910895E0E5F0E08BEC828373
:10144000808188608083818183FFFDCFE0E5F0E0CB
:1014500082EC8583808180618083818184FFFDCFE0
:1014600088ED84BF84E0809340000895FF920F933D
:101470001F93CF93DF93CDB7DEB72A97CDBFDEBFE3
:101480008091BA279091BB27A091BC27B091BD272E
:10149000492F5A2F6B2F7727F090BE27F091C22744
:1014A000E091C62708EC17E02CEF382F5F2D6F2F47
:1014B0007E2F8091C4279A850E9448082A96CDBF26
:1014C000DEBFDF91CF911F910F91FF9008958F9212
:1014D0009F92AF92BF92CF92DF92EF92FF920F93C3
:1014E0001F93CF93DF93CDB7DEB72A97CDBFDEBF73
:1014F000EAECF7E23081832F9181A281B381892EBA
:101500009A2EAB2EBB246D01EE24FF246B2F772780
:101510008827992708EC15E02DEF482D5C2D78855C
:1015200089859A850E9448082A96CDBFDEBFDF9143
:10153000CF911F910F91FF90EF90DF90CF90BF90D0
:10154000AF909F908F900895CF93DF93CDB7DEB784
:101550006497CDBFDEBF0E94C208892B99F4CE01EB
:101560000B960E94B1088AE0FE013B96DE011196BF
:1015700001900D928A95E1F7CE0101960E94D10665
:101580000E9491082FEF89EF90E021508040904019
:10159000E1F700C000006496CDBFDEBFDF91CF91C0
:1015A00008952F923F924F925F926F927F928F9207
:1015B0009F92AF92BF92CF92DF92EF92FF920F93E2
:1015C0001F93CF93DF93CDB7DEB76497CDBFDEBF58
:1015D00083E197E20E94F52BC090B227D090B32709
:1015E0002091AE273091AF2704E6029FC001039FF0
:1015F000900D1124B6010E94173F882777FD809532
:10160000982F0E94BB392AE939E949E95FE30E9432
:10161000A83A20E030E040E050E40E941D390E94EA
:101620008839162F2091B0273091B127029FC00131
:10163000039F900D1124B6010E94173F882777FD64
:101640008095982F0E94BB392AE939E949E95FE37F
:101650000E94A83A20E030E040E050E40E941D39AA
:101660000E948839F62E0F2EFEEA4F2EF7E25F2EEB
:10167000F02D0F2EF3E28F2EF1E29F2EF02DCE01F2
:1016800001966C010F2EF0EB6F2EF7E27F2EF02DFE
:101690000F2EF3E32F2EF1E23F2EF02D0F2EFAEB5B
:1016A000AF2EF7E2BF2EF02D62E273E083E197E206
:1016B0000E94452A6894EE24E1F80FE02EE741E00D
:1016C00061E083E197E20E945D2E28E131E241E191
:1016D00061E083E197E20E94B229D20111968C91D8
:1016E00011978F938C918F939F928F92DF92CF92CD
:1016F0000E94FA42960141E163E483E197E20E948D
:10170000B2292EE74CE161E083E197E20E945D2E71
:10171000F30181818F9380818F939F928F92DF92CB
:10172000CF920E94FA4228E231E24DE261E083E189
:1017300097E20E94B22996014DE263E483E197E2C9
:101740000E94B2290BE0212F43E063E083E197E29E
:101750000E94402E2F2D4EE163E083E197E20E942C
:10176000402E1F921F921F921F923F922F92DF9244
:10177000CF920E94FA42960146E361E083E197E24C
:101780000E94B229CDBFDEBFAEEBB7E28D919C9136
:101790000197D9F4F50183818F9382818F938181A1
:1017A0008F9380818F93A2E4B1E2BF93AF93DF92D6
:1017B000CF920E94FA42960146E36EE683E197E2F9
:1017C0000E94B229CDBFDEBF20C0D50113968C91F7
:1017D00013978F9312968C9112978F9311968C91E9
:1017E00011978F938C918F93A6E4B1E2BF93AF933F
:1017F000DF92CF920E94FA42960146E36EE683E1C1
:1018000097E20E94B229CDBFDEBF83E197E20E943A
:10181000FB2B811149CF6496CDBFDEBFDF91CF9105
:101820001F910F91FF90EF90DF90CF90BF90AF90FE
:101830009F908F907F906F905F904F903F902F90F0
:101840000895EF920F9383E197E20E94F52B62E2F5
:1018500073E083E197E20E94452A6894EE24E1F860
:101860000EE32EE741E061E083E197E20E945D2E06
:101870002BE431E24AE065E083E197E20E94B2297D
:101880002EE531E244E165E083E197E20E94B2296E
:1018900028E631E242E365E083E197E20E94B22963
:1018A00083E197E20E94FB2B8111D1CF0F91EF9042
:1018B0000895CF92DF92EF92FF92CF93DF93EB01E7
:1018C000865A9F4FBC0180E090E00E94B93922E720
:1018D0003AE84EE85CE30E94A83A0E9485396B0121
:1018E0007C01BE0180E090E00E94B939A701960119
:1018F0000E94A83A0E94883920E230E0C901861B84
:10190000970BDF91CF91FF90EF90DF90CF900895EC
:10191000CF92DF92EF92FF92CF93DF93EB01845A45
:101920009F4FBC0180E090E00E94B93922E73AE87D
:101930004EE85CE30E94A83A0E940B3B6B017C01DD
:10194000BE0180E090E00E94B939A70196010E9493
:10195000A83A0E94883920E230E0C901861B970B23
:10196000DF91CF91FF90EF90DF90CF900895CF92CD
:10197000DF92EF92FF920F931F93CF93DF9300D0EC
:1019800000D0CDB7DEB7D82E192F7B01613071059D
:10199000D1F10FE02BE14EE16EE183E197E20E948D
:1019A000FD2468E170E08D2D912F0E94590CC82E06
:1019B00068E170E08D2D912F0E94880C00E220E2FA
:1019C000482F6C2D83E197E20E94592AEF28C1F538
:1019D0001F93DF9285E791E29F938F938E010F5FB4
:1019E0001F4F1F930F930E94FA42980141E061E05C
:1019F00083E197E20E94B2290F900F900F900F9011
:101A00000F900F901DC00FE02DE04EE16EE183E1DD
:101A100097E20E94FD246AE070E08D2D912F0E94D4
:101A2000590CF82E6AE070E08D2D912F0E94880CE1
:101A300000E220E2482F6F2D83E197E20E94592AAD
:101A40002496CDBFDEBFDF91CF911F910F91FF9004
:101A5000EF90DF90CF90089598E090938506909353
:101A6000810684E080938606809382061092A70AFE
:101A70004FEC4093A60A33E03093A50A28E1209367
:101A8000A40AE3EAFAE05081506150839093A506DE
:101A90009093A1068093A6068093A2061092A70BAE
:101AA0004093A60B3093A50B2093A40BE3EAFBE035
:101AB000808180618083089598E09093450690939B
:101AC000410684E080934606809342064091B62703
:101AD0004093A708E4EBF7E220812093A6083BE0BF
:101AE0003093A50828E12093A408A3EAB8E05C910C
:101AF00050635C93909365069093610680936606AD
:101B0000809362064093A70980818093A609309351
:101B1000A5092093A409E3EAF9E08081806380832A
:101B200008957F928F929F92AF92BF92CF92DF9251
:101B3000EF92FF920F931F93CF93DF93CFEFC0935A
:101B4000E527C093E6270E941C0AE0E2F7E0C18384
:101B5000E0E0F7E0C18380EBE0E8F6E08183C0EEEF
:101B6000D6E084E08A8388E18A8B98E09A838B8B25
:101B700090E19A838C8B20E22A838D8B9A8300E0FC
:101B800016E0F801958B0E941309188289E1888B71
:101B9000898B8F8B81E08A8782E08B879AE0909394
:101BA000E90690E8F801928780930906E0E6F6E0FE
:101BB00086839AE1918B828780936906148687E0F9
:101BC000E0EAF0E08283789462E083E00E942F27CD
:101BD000782E63E083E00E942F27982E64E083E054
:101BE0000E942F27B82E61E083E00E942F27D82E75
:101BF00060E083E00E942F27F82E65E083E00E94DA
:101C00002F27182F66E083E00E942F27D82F66E049
:101C100082E00E942F27882E65E082E00E942F2715
:101C2000A82E64E082E00E942F27C82E63E082E0A5
:101C30000E942F27E82E62E082E00E942F27082FC3
:101C400061E082E00E942F27C82F60E082E00E94BE
:101C50002F277F929F92BF92DF92FF921F93DF9375
:101C60002C2F482F64E170E283E197E20E94B72BAA
:101C700086E090E28093C3299093C4298093C5297C
:101C80009093C6290E948A060E947E360E945C0DAF
:101C90000E942C0D8DB79EB707968DBF9EBFDF911A
:101CA000CF911F910F91FF90EF90DF90CF90BF9059
:101CB000AF909F908F907F900895E1EAF9E0908136
:101CC00095FFFDCF8093A0090895E1EAFBE09081A4
:101CD00095FFFDCF8093A00B0895CF93DF93EC0188
:101CE0008881882331F021960E94650E89918111A7
:101CF000FBCFDF91CF9108950F931F93CF93DF9385
:101D0000CDB7DEB72F97CDBFDEBF8C01FC01808140
:101D1000813409F07DC081818A3509F079C08481E0
:101D20008E32E9F162818381248170E06053710910
:101D300094E6969FA001979F500D112490E0C097C4
:101D4000BC01660F771F880F991F880F991F880F96
:101D5000991F860F971F840F951F30E0205331097C
:101D6000820F931F80938C2390938D2382852385EC
:101D700090E0C097AC01440F551F880F991F880F42
:101D8000991F880F991F840F951F30E02053310948
:101D9000820F931F80938A2390938B2331C0F80185
:101DA0008281238190E0C097AC01440F551F880FBA
:101DB000991F880F991F880F991F840F951F30E076
:101DC00020533109820F931F80938C2390938D238E
:101DD0008185228590E0C097AC01440F551F880F84
:101DE000991F880F991F880F991F840F951F30E046
:101DF00020533109820F931F80938A2390938B2362
:101E000080918C2390918D238093922390939323A0
:101E1000F8018081873509F042C0618122814381C8
:101E200070E06053710934E6369FC001379F900D12
:101E3000112430E020533109B901660F771F220FBA
:101E4000331F220F331F220F331F260F371F820F1E
:101E5000931F50E040535109840F951F80938C23AA
:101E600090938D232681478130E020533109B901B9
:101E7000660F771F220F331F220F331F220F331FCE
:101E8000260F371F50E040535109240F351F209370
:101E90008A2330938B238093922390939323F8018A
:101EA00080818334B9F581818233A1F580919423B7
:101EB0009091952384369105ACF420918B232F9338
:101EC00020918A232F939F938F9386E991E29F938A
:101ED0008F93CE0101969F938F930E94FA42CDBFBC
:101EE000DEBF14C020918B232F9320918A232F9340
:101EF0009F938F9385EA91E29F938F93CE010196F2
:101F00009F938F930E94FA42CDBFDEBFCE01019610
:101F10000E946D0EF8018081833499F581818233AE
:101F200081F18091942390919523843691059CF4BE
:101F30009F938F9383EB91E29F938F93CE010196B2
:101F40009F938F930E94FA420F900F900F900F90E3
:101F50000F900F9012C09F938F938BEB91E29F9302
:101F60008F93CE0101969F938F930E94FA420F9018
:101F70000F900F900F900F900F90CE0101960E943E
:101F80006D0EF80180818234D1F480918B238F9380
:101F900080918A238F938DE991E29F938F938E0195
:101FA0000F5F1F4F1F930F930E94FA42C8010E94B8
:101FB0006D0E0F900F900F900F900F900F902F9627
:101FC000CDBFDEBFDF91CF911F910F910895CF92CA
:101FD000DF92EF92FF928091CE279091CF278630AB
:101FE000910509F474C08CF482309105E1F12CF470
:101FF000009709F1019751F1ABC08330910509F4C5
:102000003FC0049709F449C0A3C08C30910509F47E
:1020100092C044F48830910509F466C00A9709F427
:102020007DC096C08238910509F444C08838910576
:1020300009F467C08DC082EC91E28093D027909321
:10204000D1271092C4271092C52788C086EC91E250
:102050008093D0279093D12781E090E08093C4278C
:102060009093C5277BC08AEC91E28093D027909310
:10207000D12782E090E08093C4279093C5276EC05B
:102080008DEC91E28093D0279093D12783E090E06C
:102090008093C4279093C52761C082ED91E280931D
:1020A000D0279093D12784E090E08093C427909329
:1020B000C52754C085ED91E28093D0279093D12716
:1020C00085E090E08093C4279093C52747C08AEDB0
:1020D00091E28093D0279093D12786E090E080937F
:1020E000C4279093C5273AC087E090E08093C42727
:1020F0009093C5278FED91E28093D0279093D127BD
:102100002DC088E090E08093C4279093C5278EED82
:1021100091E28093D0279093D12720C089E090E06E
:102120008093C4279093C52782EE91E28093D027B5
:102130009093D12713C08AE090E08093C4279093B6
:10214000C52786EE91E28093D0279093D12706C0D1
:1021500086EC90E28093D0279093D1272091CA27D4
:102160003091CB274091CC275091CD2760E873EC7C
:1021700089EC91E00E944D3FCA01B9010E94BB3930
:102180006B017C0120E030E040E85FEB0E94A43A64
:102190001816BCF520E030E048E454E4C701B6016D
:1021A0000E94813988236CF520E030E040E85FE34D
:1021B000C701B6010E94813988238CF41092BE2792
:1021C0001092BF2786E490E0A0E0B0E08093BA27A9
:1021D0009093BB27A093BC27B093BD2712C081E08A
:1021E00090E08093BE279093BF27C701B6010E945D
:1021F0008D396093BA277093BB278093BC27909347
:10220000BD2780E090E0FF90EF90DF90CF900895A1
:102210003F924F925F926F927F928F929F92AF9276
:10222000BF92CF92DF92EF92FF920F931F93CF93C3
:10223000DF93CDB7DEB7CA5AD109CDBFDEBF83E188
:1022400097E20E94F52BDE0111968CE8FD011192B8
:102250008A95E9F786E0E3E4F0E201900D928A9531
:10226000E1F72EE0FE013796DF01322F1D923A95FD
:10227000E9F786E0E7E5F0E2DE01559601900D9280
:102280008A95E1F7FE017B96DF01322F1D923A9588
:10229000E9F785E0EBE6F0E2DE01999601900D9218
:1022A0008A95E1F7FE01BE968FE0DF011D928A95C7
:1022B000E9F783E491E4AEE4B0E021968CAF9DAF02
:1022C000AEAFBFAF2197739680E1DF011D928A9573
:1022D000E9F786E0EFE7F0E2DE01AF5ABF4F019089
:1022E0000D928A95E1F7E1E5F0E0EC0FFD1F3696DF
:1022F000DF011D922A95E9F70F2EFBE28F2EF7E200
:102300009F2EF02D0F2EFCE24F2EF7E25F2EF02DC8
:102310003E01B5E96B0E711C5E01EDE8AE0EB11C1D
:1023200093012A5F3F4FC156DF4F28833983CF592E
:10233000D040C3010396CF55DF4F88839983C15A9C
:10234000D040D3011596CD55DF4FA883B983C35A2A
:10235000D040F3013296CB55DF4FE883F983C55A5D
:10236000D04022503109C955DF4F28833983C75ADD
:10237000D0400297C755DF4F88839983C95AD04010
:1023800062E273E083E197E20E94452A00E42AE3D7
:1023900040E066E483E197E20E94F22D83E197E258
:1023A0000E94342A83E197E20E943F2A0E94E70FAD
:1023B0000E942909D4019C91F2018081392E381A9A
:1023C00080918E2390918F2399232CF410928E2349
:1023D00010928F23A4C105970CF4A1C124E030E032
:1023E00020938E2330938F239AC183E197E20E943A
:1023F000322C80918E2390918F238E159F0579F436
:10240000389E402D11244F5F0BE029E367E483E100
:1024100097E20E94402E83E197E20E94432C9601AE
:10242000412F68E483E197E20E94B22980918E23D4
:1024300090918F23049721F483E197E20E94322C3C
:102440003FEFE31AF30A165F84E1C80ED11C123382
:1024500061F680918E2390918F23009709F046C0FA
:1024600060E070E080919423909195230E94B70CD6
:102470008091BE279091BF270197E1F4EAEBF7E244
:1024800083818F9382818F9381818F9380818F93BA
:1024900082E491E29F938F93BF92AF920E94FA429F
:1024A000950144E362E083E197E20E94B229CDBF47
:1024B000DEBF2EC1EAEBF7E283818F9382818F9397
:1024C00081818F9380818F9386E491E29F938F9394
:1024D000BF92AF920E94FA42950144E362E083E129
:1024E00097E20E94B229CDBFDEBF12C1019709F069
:1024F0000FC162E273E083E197E20E94452A809176
:10250000CD278F938091CC278F938091CB278F936A
:10251000AAECB7E28C918F938AEE91E29F938F930E
:102520007F926F920E94FA428091BA279091BB27C6
:10253000A091BC27B091BD27CDBFDEBF8F319105E3
:10254000A105B10560F12091BE273091BF27213050
:10255000310529F5C855DF4FF881C85AD040FF939F
:10256000C955DF4F2881C75AD0402F93C655DF4F3A
:102570003881CA5AD0403F93C755DF4F8881C95A26
:10258000D0408F937F926F928EEE91E29F938F93C4
:10259000BF92AF920E94FA42CDBFDEBF53C00497F4
:1025A000A105B10558F18091BE279091BF270197F1
:1025B00029F5CC55DF4FB881C45AD040BF93CD55D3
:1025C000DF4FE881C35AD040EF93CA55DF4FF881FF
:1025D000C65AD040FF93CB55DF4F2881C55AD04013
:1025E0002F937F926F928DEF91E29F938F93BF9283
:1025F000AF920E94FA42CDBFDEBF24C0C056DF4F6B
:102600009881C05AD0409F93C156DF4FA881CF59BF
:10261000D040AF93CE55DF4FB881C25AD040BF9360
:10262000CF55DF4FE881C15AD040EF937F926F9230
:102630008CE092E29F938F93BF92AF920E94FA42F6
:10264000CDBFDEBF2BE132E242E062E083E197E200
:102650000E94B22995014CE062E083E197E20E947A
:10266000B22926E232E246E162E083E197E20E948B
:10267000B2298091BE279091BF270197E1F4EAEB40
:10268000F7E283818F9382818F9381818F93808101
:102690008F9382E491E29F938F93BF92AF920E94B7
:1026A000FA42950146E168E283E197E20E94B2298D
:1026B000CDBFDEBF1BC0EAEBF7E283818F9382813F
:1026C0008F9381818F9380818F9386E491E29F9392
:1026D0008F93BF92AF920E94FA42950146E168E261
:1026E00083E197E20E94B229CDBFDEBF2CE232E245
:1026F00040E262E083E197E20E94B2292091D02774
:102700003091D12740E268E283E197E20E94B2294A
:1027100083E197E20E94FB2B811132CE07C0FE01BC
:1027200031966F0110E0E12CF12C5FCEC655DF4FE2
:10273000CDBFDEBFDF91CF911F910F91FF90EF9042
:10274000DF90CF90BF90AF909F908F907F906F90D1
:102750005F904F903F900895CF93DF93CDB7DEB752
:102760002A97CDBFDEBF1092C0271092C1271092CA
:10277000B6271092B7278EEC90E08093B427909301
:10278000B52782E392E28093B8279093B92782E03D
:1027900090E08093C6279093C7278FE392E20E9430
:1027A000CD420E94860980E592E20E94CD420E94BD
:1027B000910D8AE492E20E94CD428DE592E20E9460
:1027C000CD420E94541F0E940B230E94210C8AE4D8
:1027D00092E20E94CD422FEF83ED90E321508040A2
:1027E0009040E1F700C000008EE692E20E94CD42E8
:1027F0007894EFEFF3ED20E3E150F0402040E1F773
:1028000000C0000085E892E20E94CD420E948B0940
:102810000E945C0D0E942931812C912C00E010E077
:102820000F2EF2ECEF2EF7E2FF2EF02D0F2EF2EB33
:10283000AF2EF7E2BF2EF02D0F2EFAEFCF2ED12CB8
:10284000F02D0F2EFEEA6F2EF7E27F2EF02D0F2EC9
:10285000F0EB4F2EF7E25F2EF02DCE0101960E9495
:10286000F5060E94FB3180910A27813321F488E22A
:1028700090E00E949009F70180819181019741F0D9
:102880000E94CD08019721F080910A278A3231F504
:102890000115110541F482E090E00E9461240E943C
:1028A000D32301E010E08C81873091F48D8190E09A
:1028B000982F88272E81822BF301808391838F812B
:1028C00090E0982F88272885822BF20180839183BE
:1028D000F501C082D1820E94D10ABFCF013011051B
:1028E00021F40E94422400E010E00E94C2080197F7
:1028F000B9F480910A27823319F40E94BB0902C0FF
:102900000E940811FBE08F16910434F00E94360AF1
:102910000E94670A812C912C2FEF821A920A9DCF78
:102920000E94A40A9ACF1F920F920FB60F92112401
:1029300008B60F9218BE09B60F9219BE0BB60F92C9
:102940001BBE2F933F934F935F936F937F938F9310
:102950009F93AF93BF93EF93FF93809188239091C0
:1029600089232091A00BFC01EE59F84D2083208192
:102970002D3049F4109288231092892382E697E241
:102980000E947C0E05C00196809388239093892332
:10299000FF91EF91BF91AF919F918F917F916F9137
:1029A0005F914F913F912F910F900BBE0F9009BEF9
:1029B0000F9008BE0F900FBE0F901F9018951F929A
:1029C0000F920FB60F92112408B60F9218BE0BB6D5
:1029D0000F921BBE8F939F93EF93FF93E0EEF6E071
:1029E000808581FD0AC080918E2390918F2301976D
:1029F00080938E2390938F2309C080918E23909192
:102A00008F23019680938E2390938F238FE193E001
:102A10000197F1F700C00000FF91EF919F918F9116
:102A20000F900BBE0F9008BE0F900FBE0F901F901F
:102A300018951F920F920FB60F92112408B60F929D
:102A400018BE0F9008BE0F900FBE0F901F901895E4
:102A50001F920F920FB60F92112408B60F9218BE54
:102A60008F939F9381E090E08093902390939123A4
:102A70009F918F910F9008BE0F900FBE0F901F90E7
:102A800018951F920F920FB60F92112408B60F924D
:102A900018BE0BB60F921BBE8F939F93EF93FF93BD
:102AA000E0E0F6E0808588233CF081E090E08093D0
:102AB000C2279093C32704C01092C2271092C32745
:102AC000FF91EF919F918F910F900BBE0F9008BED9
:102AD0000F900FBE0F901F901895E0E6F6E080EB88
:102AE000818380E1858382E58093C0090895E0ECCD
:102AF000F9E0838382818823ECF78AE68A95F1F7EF
:102B000000C008958FEF0E947715E0ECF9E0838113
:102B100008958F929F92AF92BF92CF92DF92EF92E1
:102B2000FF920F931F93CF93DF9300D000D0CDB7C8
:102B3000DEB7FC01009709F484C0423051056105FD
:102B4000710508F483C0A081B18118968C91189703
:102B50008B3009F040C04A015B01242F392D4A2DEA
:102B60005B2D60E070E080E090E002E00E94E53FD5
:102B7000A284B384C484D584E684F784008911894F
:102B80000E941C40ED91FC916894EE24E2F8F12C37
:102B90008E010F5F1F4F09958823C1F049815A812B
:102BA0006B817C81411551056105710579F0DB016F
:102BB000CA01805F9F4FAF4FBF404097A105B1054D
:102BC00028F0342F252F862F972F44C030E020E0A7
:102BD00080E090E03FC04A015B01242F392D4A2D4F
:102BE0005B2D60E070E080E090E001E00E94E53F56
:102BF000A284B384C484D584E684F78400891189CF
:102C00000E941C40ED91FC916894EE24E1F8F12CB7
:102C10008E010F5F1F4F0995882371F089819A817A
:102C2000AC0160E070E001978F3E9F4F28F4342F95
:102C3000252F862F972F0EC030E020E080E090E017
:102C400009C030E020E080E090E004C030E020E007
:102C500080E090E0632F722F2496CDBFDEBFDF911E
:102C6000CF911F910F91FF90EF90DF90CF90BF9089
:102C7000AF909F908F9008952F923F924F925F92C6
:102C80006F927F928F929F92AF92BF92CF92DF927C
:102C9000EF92FF920F931F93CF93DF93EC01009776
:102CA00051F1423051056105710570F142505109F1
:102CB000610971091A012B01088D198DA02EB12E01
:102CC000C12CD12CE12CF12C00E010E0222D332D71
:102CD000442D552D60E070E080E090E00E948C3F34
:102CE000AA8CBB8CCC8CDD8CEE8CFF8C08A119A13E
:102CF0000E941C4011C020E030E040E050E060E065
:102D000070E080E090E008C020E030E040E050E07B
:102D100060E070E080E090E0DF91CF911F910F9133
:102D2000FF90EF90DF90CF90BF90AF909F908F90EB
:102D30007F906F905F904F903F902F900895FC018F
:102D400081919AE080FB879587F92191820F9150BC
:102D5000C9F708952F923F924F925F926F927F92A0
:102D60008F929F92AF92BF92CF92DF92EF92FF929B
:102D70000F931F93CF93DF93CDB7DEB72D97CDBFC2
:102D8000DEBF6C01422E532E642E752E362E272E5A
:102D9000D701AD90BC90119712968D919C9113978D
:102DA000809612968D939C931397F6018081853EB1
:102DB00011F0811105C0D70114961C9281E034C135
:102DC0004501F60183858F3009F055C0D70114966F
:102DD0008C91882319F09585891711F181E3F5010C
:102DE00011928A95E9F7D6011D968C91F70184839B
:102DF000D50199960C9399979A961C939A979B96BE
:102E00004C929B979C965C929C979D966C929D97FA
:102E10009E967C929E979F963C929F97D0962C92DE
:102E2000F60120812F7330E0215031094DE0429F9F
:102E3000C001439F900D11242DE0E3E9F0E2DE0193
:102E4000119601900D922A95E1F78F31910508F4C2
:102E5000D3C00FC08191B601680F711DDB018C9149
:102E6000D5018D935D01E417F50719F0E217F3071B
:102E700089F781E0D9C0F5018081882349F0C60136
:102E80000E949F16D70114969C91981709F485C04B
:102E900081E3F50111928A95E9F7D50199960C9392
:102EA00099979A961C939A979B964C929B979C966F
:102EB0005C929C979D966C929D979E967C929E9715
:102EC0009F963C929F97D0962C92F601608160323B
:102ED00039F13196960181E090E0A0E0B0E009C0C0
:102EE0009F016191AC014F5F5F4F6032D1F0DC0117
:102EF000CA018D01080D191DD8016C93D6011C96CD
:102F00004C9143FF08C0D9012C9121542A3118F467
:102F1000605ED8016C93782F8830910509F701C065
:102F200070E0F5018081853011F485EE8083D60153
:102F300018968C911897803259F121E0270F8EE274
:102F4000F501E70FF11D8083C601089618963C91A4
:102F50003032F9F0F60139967C5F04C0CF0131912F
:102F60003032B9F08401020F111DD8013C93D60113
:102F70001C964C9144FF08C0DC018C9181548A312D
:102F800018F4305ED8013C932F5F2713E7CF01C0C0
:102F9000272FF501E20FF11D1082F6018385D5017F
:102FA00090968C93828D938DA0E0B0E0F50181A383
:102FB00092A3A3A3B4A3F6014489558960E070E00D
:102FC000BA0155274427842B952BA62BB72BF50147
:102FD00081A392A3A3A3B4A3F601848D958DA68D9E
:102FE000B78DF50185A396A3A7A3B0A781E0D7016C
:102FF00015968C9380E018C02981F601E20FF11D2F
:103000002081F501E80FF91F2083FE013296DC01D3
:103010001196AA0EBB1E9E01205E3F4F281B390B46
:10302000AE01425F5F4F22CF2D96CDBFDEBFDF9155
:10303000CF911F910F91FF90EF90DF90CF90BF90B5
:10304000AF909F908F907F906F905F904F903F9048
:103050002F9008952F923F924F925F926F927F929E
:103060008F929F92AF92BF92CF92DF92EF92FF9298
:103070000F931F93CF93DF93CDB7DEB7CD54D10914
:10308000CDBFDEBF1C01009709F425C2DC011496F8
:103090008D919C911597892B09F420C216968D91DC
:1030A0009C911797892B09F41CC280910824909158
:1030B0000924892B09F418C280E090E050C2E9810C
:1030C000FA81ECABFDABEC80FD80EEAAFFAAFB80A1
:1030D0002796FFAE27970E8128960FAF28972F814E
:1030E00038852A962EAF3FAF2A9789859A854C85D9
:1030F0005D8526964EAF5FAF2697CE88DF88E88C39
:10310000F98C0A8D1B8D2C8D3D8D24960CAF1DAF37
:103110002EAF3FAF24972AA13BA14CA15DA12E96D3
:103120002CAF3DAF4EAF5FAF2E97C114D104E10479
:10313000F10431F4009709F409C26C01E12CF12C7F
:1031400026964EAD5FAD26974115510551F0BA0157
:1031500080E090E024966CAF7DAF8EAF9FAF249758
:103160000BC024960CAD1DAD2EAD3FAD2497012BA9
:10317000022B032B09F4EAC128961FAD2897A12F33
:10318000B0E024962CAD3DAD4EAD5FAD24970E94CE
:10319000813F260137012EA93FA9421A530A61082F
:1031A0007108461A570A680A790A2A968EAD9FADA9
:1031B0002A97880F991F82959295907F9827807FF4
:1031C00098272CA93DA921503109820F931F6CA982
:1031D0007DA90E94033F93018201061B170B210961
:1031E0003109C901B80127964FAD2797042F10E088
:1031F00020E030E0A90198010E942B3F29013A010B
:1032000055EF45165FE055066104710408F49EC150
:1032100065EF46166FEF56066104710428F486E0E8
:10322000D10118968C9303C08BE0F10180878CE26A
:10323000AAE0B4E21D928A95E9F72CA93DA989017B
:1032400020E030E040E050E0BA010EA31FA328A721
:1032500039A74AA75BA76CA77DA7B701A60180E0A5
:1032600090E0DC01C8AE59AF6AAF7BAF8CAF9DAFC9
:10327000AEAFBFAFA02EB12EC12CD12CE12CF12CC2
:1032800000E010E0242F352F462F572F60E070E02C
:1032900080E090E00E948C3FAAE0B4E22C9330934F
:1032A0000B2440930C2450930D2460930E247093B0
:1032B0000F248093102490931124EEA9FFA9AF014D
:1032C0002E2F352F40E050E060E070E080E090E08D
:1032D0000E948C3FA92CB82CCEA4DFA4E8A8F9A8A2
:1032E0000AA91BA90E941C402EA73FA748AB59ABB7
:1032F0006AAB7BAB8EAB98AFE2E1F4E22083318323
:10330000428353836483758386839783C301B201A9
:103310006E5F7F4F8F4F9F4FD10118962C912630B3
:1033200029F422E030E040E050E004C024E030E046
:1033300040E050E00E94F33E60931A2470931B24F7
:1033400080931C2490931D24ECA9FDA9E0931E24D6
:10335000F0931F242796EFAC2797EE9EC001EF9EB7
:10336000900D11248093202490932124D10118964C
:103370008C91863009F066C0AEA0BFA0C12CD12CC4
:10338000E12CF12C00E010E028962FAD289730E0DA
:1033900040E050E060E070E080E090E00E948C3F10
:1033A0002696EEADFFAD26971F01AE2EB32C0E94E0
:1033B0008C3FAEA4BFA4C8A8D9A8EAA8FBA80EA9B0
:1033C00018AD0E941C40422E532E642E752EB62F2F
:1033D000A72F282E392EEAE2F4E22083318342839C
:1033E000538364837583868397832A960EAD1FADBE
:1033F0002A974801202F392D40E050E060E070E02E
:1034000080E090E005E00E94E53FA22EB32EC42E9E
:10341000D52EE62EF72E082F192F242D352D462DCB
:10342000572D6B2F7A2F822D932D0E941C40E2E2A4
:10343000F4E22083318342835383648375838683DC
:1034400097838BC0AEA0BFA0C12CD12CE12CF12C56
:1034500000E010E028962FAD289730E040E050E0E3
:1034600060E070E080E090E00E948C3F2496ECAC3D
:10347000FDAC0EAD1FAD249717012801AE2CB32C67
:10348000C42CD52CE12CF12C00E010E00E948C3FE4
:10349000AEA4BFA4C8A8D9A8EAA8FBA80EA918ADD5
:1034A0000E941C40E2E2F4E2208331834283538392
:1034B00064837583868397832E960CAD1DAD2EADE8
:1034C0003FAD2E970093322410933324209334245D
:1034D0003093352442C080E090E041C080E090E02D
:1034E0003EC080E090E03BC0E8E0F4E282E3DF0130
:1034F0001D928A95E9F720823182F10181849284BC
:10350000A384B484282D392D4A2D5B2D60E070E012
:1035100080E090E009E00E94E53F922E832E4EA7C6
:103520005FA768AB79AB8AAB9BABABE00E94254051
:103530000190F081E02D0F2EF5E2EF2EF12CF02D11
:103540008E010F5F1F4F09958111B9CD109208248C
:103550001092092480E090E002C088E094E2C35B0E
:10356000DF4FCDBFDEBFDF91CF911F910F91FF9055
:10357000EF90DF90CF90BF90AF909F908F907F9013
:103580006F905F904F903F902F900895CF93DF936F
:103590000097B1F061157105B1F0FB0120A124FF86
:1035A00015C02091962330919723232B91F02091E1
:1035B000CF233091D023232B79F080E090E025C0F9
:1035C00080E090E022C080E090E01FC080E090E0CA
:1035D0001CC0C6E9D3E202C0CFECD3E2DE011296F2
:1035E00021E3FB0101900D922A95E1F788839983ED
:1035F000FB0181A192A1A3A1B4A18BAB9CABADAB0C
:10360000BEAB1FAA18AE8C2F9D2FDF91CF910895CE
:10361000009719F0FC01108211820895FC010097B7
:1036200061F043A154A165A176A143AB54AB65AB56
:1036300076AB17AA10AE81E0089580E008952F922E
:103640003F924F925F926F927F928F929F92AF9232
:10365000BF92CF92DF92EF92FF920F931F93CF937F
:10366000DF93CDB7DEB7E897CDBFDEBF8DAB9EABA6
:10367000009709F4FBC06115710509F4F9C0DC017C
:103680000D90BC91A02DAFABB8AF5896ED91FC91C9
:103690005997EFA7F8ABDC01D3964D905D906D90F4
:1036A0007C90D697D7962D903C90D8972E163F06B3
:1036B00020F00E940E1B80E0DEC0FE01319686E005
:1036C000DF011D928A95E9F781E3FB0111928A954A
:1036D000E9F769837A83411451046104710409F0A4
:1036E000A9C0AFA9B8ADED91FC91119780858B3041
:1036F00039F49A964D905D906D907C909D979AC00C
:10370000EFA9F8AD228D338D82A193A1A901481BA9
:10371000590B4FA758AB8EC06FA478A862187308D6
:10372000910140E050E060E070E0CB012FA238A7AB
:1037300049A75AA76BA77CA78DA79EA749A95AA9F5
:103740006BA97CA9452B462B472B09F540E050E09F
:1037500060E070E080E090E0D2019296AC909297A9
:103760009396BC9093979496CC9094979596DC9072
:1037700095979696EC9096979796FC909797989633
:103780000C91989799961C910E941C4011C049A9D0
:103790005AA96BA97CA9C2010E943C16AFA0B8A48B
:1037A000C12CD12CE12CF12C00E010E00E941C4037
:1037B0001B821C82D201ED91FC910280F381E02DED
:1037C000DE0111964D010F2EFAEAAF2EF6E1BF2E63
:1037D000F02D63016894EE24E5F8F12C8E01095F69
:1037E0001F4F0995882309F445C08B819C81280EC1
:1037F000391EEFA5F8A92E163F0610F149A85AA8C0
:103800006BA87CA8B301A2018FA998AD0E9489156D
:103810002B013C01611571058105910549F48E81EB
:10382000811116C08DA99EA90E940E1B80E023C0A5
:10383000212C312C49AA5AAA6BAA7CAA4FA858ACB1
:103840008E81882309F468CF49A85AA86BA87CA860
:10385000ADA9BEA9D3964D925D926D927C92D697FA
:10386000D7962D923C92D8978E8105C080E003C0F8
:1038700080E001C080E0E896CDBFDEBFDF91CF9150
:103880001F910F91FF90EF90DF90CF90BF90AF907E
:103890009F908F907F906F905F904F903F902F9070
:1038A00008956F927F928F929F92AF92BF92CF9224
:1038B000DF92EF92FF920F931F93CF93DF935C0100
:1038C0006B01EA01009709F472C06115710509F4F2
:1038D00070C0FB018081882309F46DC0209709F432
:1038E0006CC08F3219F4FFEFCF1ADF0A81E3FE01BB
:1038F00011928A95E9F780E188A3F60180818823F7
:1039000009F45DC0BE01C5010E94C61A8C01009772
:1039100009F457C06FE270E0C6010E945F42009751
:1039200041F0E82EEC184C01FFEF8F1A9F0AF12CA2
:103930002CC0F60101900020E9F73197EC19FD0940
:10394000EE2E46018E0E911CF2CFFE01019000205A
:10395000E9F731973F016C1A7D0A6E147F04A9F4D0
:10396000A301BE01C6010E946A42892B71F4C801FD
:103970000E94081BF601E60DF71D8081882319F1CE
:1039800088A184FD09C080E021C0BE01C8010E9459
:103990001F1B8111DACF03C0640100E010E0C801F1
:1039A0000E94081BF60180818111ACCF0EC080E01F
:1039B0000DC080E00BC080E009C080E007C081E05E
:1039C00005C080E003C081E001C081E0DF91CF91BC
:1039D0001F910F91FF90EF90DF90CF90BF90AF902D
:1039E0009F908F907F906F9008955F926F927F92DB
:1039F0008F929F92AF92BF92CF92DF92EF92FF92FF
:103A00000F931F93CF93DF93CDB7DEB76097CDBFF2
:103A1000DEBF6C015B013A014901502E009709F4A9
:103A200053C06115710509F452C083E080170CF48E
:103A300051C00023F4F090E10902F0011124E25496
:103A4000FE4F9F2F990F990B6894EE24E4F8F12C08
:103A50008E010F5F1F4F2E2F3F2F492F592F692F98
:103A6000792F892FF60109958823B9F18D81882353
:103A7000B9F1809142248823B1F180E090E04CC0FC
:103A80008D818093422489859A85AB85BC858093FE
:103A9000432490934424A0934524B09346248D85D9
:103AA0009E85AF85B8898093472490934824A0933E
:103AB0004924B0934A248AE394E22EC08FEF809386
:103AC00042248AE394E228C080E090E025C080E0B0
:103AD00090E022C080E090E01FC080E090E01CC039
:103AE00080E090E019C0EAE3F4E281E1DF011D9299
:103AF0008A95E9F7C082D182A0923C24B0923D24FD
:103B000060923E2470923F248092402490924124FF
:103B100055200CF0B5CFD2CF6096CDBFDEBFDF9180
:103B2000CF911F910F91FF90EF90DF90CF90BF90BA
:103B3000AF909F908F907F906F905F900895E0EC92
:103B4000FAE0838382818823ECF708958FEFE0EC1D
:103B5000FAE0838382818823ECF7E0ECFAE083814A
:103B60000895FF920F931F93CF93DF93C82FD42F05
:103B7000152F062FF72E0E94A61D8C2F80640E9401
:103B80009F1D8F2D0E949F1D802F0E949F1D812FA2
:103B90000E949F1D8D2F0E949F1DCC2319F0C830BD
:103BA00029F008C085E90E949F1D0FC087E80E9488
:103BB0009F1D0BC08FEF0E949F1D07C00E94A61D76
:103BC0008F3F29F4C150D1F702C0CAE0F7CFDF918F
:103BD000CF911F910F91FF900895EF92FF920F9355
:103BE0001F9380914C2481111EC020914D2430914F
:103BF0004E2440914F245091502460915124709153
:103C00005224E12C6894FF24F1F805E514E2809138
:103C10005324909154240E940421882331F081E0A0
:103C200080934C2403C081E001C080E01F910F917C
:103C3000FF90EF9008952F923F924F925F926F9274
:103C40007F928F929F92AF92BF92CF92DF92EF922C
:103C5000FF920F931F93CF93DF93CDB7DEB7689793
:103C6000CDBFDEBF29833A834B835C836D837E8324
:103C70008F8398871701E114F10409F4FAC00F2E1D
:103C8000F5E58F2EF6E29F2EF02D0F8B188F6980B1
:103C90007A8021E07222930140E050E060E070E021
:103CA000CB0169863A874B875C876D877E878F87D4
:103CB000988B29813A814B815C816D817E818F81D6
:103CC0009885A984BA84C12CD12CE12CF12C00E078
:103CD00010E00E943140522E432E498B5A8B6B8B41
:103CE0007C8B8D8B9E8B40E052E0461957094987AB
:103CF0005A872416350610F429863A86A0904D245A
:103D0000B0904E24C0904F24D0905024E090512485
:103D1000F09052240091532410915424252D342DD9
:103D200049895A896B897C898D899E890E943A408C
:103D300009F46AC00E94ED1D882309F49CC050E17B
:103D40005093860680914B2482FF10C0252D342D80
:103D500049895A896B897C898D899E8909E00E94ED
:103D60000040642F752F422F532F04C0452D542D32
:103D700069897A8981E10E94B11D882331F080E14F
:103D8000E0E8F6E0858380E079C00E94A61D8E3FC2
:103D9000E1F705E514E20E94A61DF80181938F0169
:103DA000E815F905C1F750924D2440924E24F98947
:103DB000F0934F242A89209350243B893093512437
:103DC0004C89409352245D89509353246E896093AB
:103DD0005424B3016B5A7B4D49855A858F89988D40
:103DE0000E9456428F89988DE985FA858E0F9F1F14
:103DF0008F8B988F0E94A61D0E94A61DF0E1F09364
:103E000085060E94A61D11C0B3016B5A7B4D4985E2
:103E10005A858F89988D0E9456422F89388D498501
:103E20005A85240F351F2F8B388F69857A85261A7E
:103E3000370A5B01262F3B2D40E050E060E070E048
:103E400080E090E0A980BA80CB80DC80ED80FE80AD
:103E50000F8118850E941C4029833A834B835C8321
:103E60006D837E838F8398872114310409F00FCFEF
:103E700004C081E003C080E001C081E06896CDBF4E
:103E8000DEBFDF91CF911F910F91FF90EF90DF90F8
:103E9000CF90BF90AF909F908F907F906F905F90EA
:103EA0004F903F902F9008959F92AF92BF92CF92E4
:103EB000DF92EF92FF920F931F93CF93DF93E0E88F
:103EC000F6E080E2818380E8818380E1818390E471
:103ED0009283858381E58093C00A10924B241AE077
:103EE0000E94A61D1150E1F780E1E0E8F6E086832C
:103EF000C0E0D2E040E050E0BA0180E00E94B11D95
:103F0000813049F021972097A9F780E1E0E8F6E0B9
:103F10008583012FC2C04AEA51E060E070E088E08A
:103F20000E94B11D082F047082FD19C00E94A61DB9
:103F30000E94A61D0E94A61D80FFAFC00E94A61D64
:103F40008A3A09F0AAC082E080934B24C0E0D0E80E
:103F5000912CA12CB12C6894CC24C6F812C040E05E
:103F600050E0BA0187E30E94B11D40E050E0BA0181
:103F700089E20E94B11D82FDE9CF81E080934B244C
:103F8000E5CF80914B24982F9370C9F081FD05C037
:103F9000D12CE12CF12C00E004C0D92CEA2CFB2C14
:103FA0000C2D40E050E0BA0187E30E94B11D4D2D79
:103FB0005E2D6F2D702F89E20E94B11D06C040E07A
:103FC00050E0BA0181E00E94B11D082F017080FF0E
:103FD00009C021972097A9F680E1E0E8F6E0858303
:103FE000012F5BC0C0914B24C1FF1AC040E050E0DC
:103FF000BA018AE30E94B11D882329F080E1E0E83C
:10400000F6E085834AC00E94A61D86FF03C0C460F7
:10401000C0934B240E94A61D0E94A61D0E94A61DAF
:1040200040E052E060E070E080E10E94B11D882332
:1040300029F080E1E0E8F6E085832FC080E1E0E848
:10404000F6E0858380ED8093C0098FEF80934D2447
:1040500080934E2480934F24809350248093512446
:1040600080935224809353248093542481E080933E
:104070004C24E12C6894FF24F1F805E514E220E0DB
:1040800030E040E050E060E070E080E090E00E94CE
:104090001B1E01E0811101C000E0802FDF91CF9154
:1040A0001F910F91FF90EF90DF90CF90BF90AF9056
:1040B0009F9008952F923F924F925F926F927F92BE
:1040C0008F929F92AF92BF92CF92DF92EF92FF9228
:1040D0000F931F93CF93DF93CDB7DEB76297CDBF1A
:1040E000DEBF2F87388B498B5A8B562E472E382EA2
:1040F000292E09831A833601AB86BC86012B09F46D
:1041000060C0E114F10409F45EC0CE14DF0408F4C9
:104110005CC0AB2809F45BC0970140E050E060E070
:1041200070E0CB01EB823C834D835E836F837887A5
:1041300089879A878D869E864701DF84C888B988DB
:10414000AA88740109811A812D2D3C2D4B2D5A2DE1
:10415000652D742D832D922D0E941B1E8823C9F17D
:10416000ED84FE840D2D1C2D2B2D3A2D452D542D27
:10417000632D722D89819A81EB85FC8509958823B1
:1041800051F12D2D3C2D4B2D5A2D652D742D832D48
:10419000922DAB80BC80C12CD12CE12CF12C00E005
:1041A00010E00E941C40D22EC32EB42EA52E562EF7
:1041B000472E382E292E681879086814790408F6D5
:1041C0000CC080E00BC080E009C080E007C080E048
:1041D00005C080E003C081E001C081E06296CDBFF0
:1041E000DEBFDF91CF911F910F91FF90EF90DF9095
:1041F000CF90BF90AF909F908F907F906F905F9087
:104200004F903F902F9008952F923F924F925F9240
:104210006F927F928F929F92AF92BF92CF92DF92D6
:10422000EF92FF920F931F93CF93DF93CDB7DEB73B
:104230006997CDBFDEBF29833A834B835C836D834F
:104240007E838F839887E114F10409F40FC10F2E48
:10425000F5E58F2EF6E29F2EF02D1701280129811A
:104260003A813170288F398F40E050E060E070E093
:10427000CB0129873A874B875C876D877E878F873D
:10428000988B29813A814B815C816D817E818F8100
:104290009885A984BA84C12CD12CE12CF12C00E0A2
:1042A00010E00E9431402987398B4A8B5B8B6C8BE5
:1042B0007D8B8E8B9F8B612C6894772471F8688D31
:1042C000798D661A770A2614370408F43101A09014
:1042D0004D24B0904E24C0904F24D0905024E090B4
:1042E0005124F09052240091532410915424298594
:1042F00039894A895B896C897D898E899F890E9469
:104300003A40C1F10E94ED1D882309F4B1C0888DA7
:10431000998D892B21F4611492E0790698F4E12CAF
:104320006894FF24F1F805E514E2298539894A8962
:104330005B896C897D898E899F890E941B1E8823D9
:1043400009F498C0E985E0934D24F989F0934E244F
:104350002A8920934F243B89309350244C894093E1
:1043600051245D89509352246E89609353247F8930
:104370007093542485E5481684E2580671F0A30131
:10438000B201888D998D8B5A9B4D0E945642109296
:104390004C242614370409F46FC090E190938606EC
:1043A00080914B2482FF10C0298539894A895B8915
:1043B0006C897D898E899F8909E00E940040642F65
:1043C000752F422F532F04C0498559896A897B89EB
:1043D00088E10E94B11D882331F080E1E0E8F6E039
:1043E000858380E04CC08EEF0E949F1D05E514E29E
:1043F000F80181918F010E949F1D08151905C1F7D1
:104400008FEF0E949F1D8FEF0E949F1D0E94A61D8F
:104410008F3FE1F70E94A61DF0E1F0938506460C60
:10442000571C5301262D3B2D40E050E060E070E02A
:1044300080E090E0A980BA80CB80DC80ED80FE80B7
:104440000F8118850E941C4029833A834B835C832B
:104450006D837E838F8398872618370821E0209309
:104460004C242114310409F0FACE08C081E007C0C1
:1044700080E005C080E003C081E001C081E0699672
:10448000CDBFDEBFDF91CF911F910F91FF90EF90D5
:10449000DF90CF90BF90AF909F908F907F906F9064
:1044A0005F904F903F902F9008952F923F924F92A0
:1044B0005F926F927F928F929F92AF92BF92CF92B4
:1044C000DF92EF92FF920F931F93CF93DF93CDB7BD
:1044D000DEB72997CDBFDEBF28873D83562E472EF6
:1044E00009831A83CB82DC82AE82BF82012B09F45E
:1044F00046C0CD2809F445C04701A22EB32EC42ED4
:10450000D52E782E692E170132C02885398582165E
:104510009306C8F1E884F98409811A812A2D3B2D7C
:104520004C2D5D2D652D742D872D962D0E94042117
:10453000882359F1E884F984A7012E2D352F40E016
:1045400050E060E070E080E090E0E52CF42C072D76
:10455000162D0E941C40A22EB32EC42ED52E562EF0
:10456000472E782E692E88859985881A990A2114F4
:10457000310431F18114910471F481E036C080E09E
:1045800034C080E032C080E030C080E02EC081E0E6
:104590002CC081E02AC0EE80FF800A2D1B2D2C2D1F
:1045A0003D2D452D542D672D762D89819A81EB81E6
:1045B000FC81099588879987892B09F0A6CFE7CFD9
:1045C000EE80FF800A2D1B2D2C2D3D2D452D542DC9
:1045D000672D762D89819A81EB81FC8109958887E9
:1045E0009987892B09F096CFD4CF2996CDBFDEBF0E
:1045F000DF91CF911F910F91FF90EF90DF90CF90BF
:10460000BF90AF909F908F907F906F905F904F90F2
:104610003F902F9008950F9380915526813009F493
:1046200054C00E94541F811109C084E992E29F93F3
:104630008F930E94B5420F900F9047C081E0809306
:10464000552600E025E532E244E051E26AE570E2F9
:104650008BE19EE10E94F51C80935428909355288D
:10466000892B79F40FEF25E532E244E051E26AE567
:1046700070E28BE19EE10E94F51C80935428909398
:10468000552880915428909155280E942A1880938B
:10469000EE279093EF2741E258E263EB72E20E942B
:1046A000511C61E278E28091EE279091EF270E9401
:1046B000C61A809356289093572885EB92E29F93D1
:1046C0008F930E94B5420F900F900F910895EFE8DD
:1046D000F8E281818F9380818F9387EE92E29F939E
:1046E0008F930E94B54210929728109298280F90AD
:1046F0000F900F900F900895EFE8F8E281818F936B
:1047000080818F9381E093E29F938F930E94B542C3
:1047100081E090E080939728909398280F900F90D5
:104720000F900F9008950F931F93CF93DF93CDB702
:10473000DEB72A97CDBFDEBF0FE818E2F80181810E
:104740008F9380818F938AE193E29F938F930E944E
:10475000B54281E090E080939728909398288983D0
:1047600092E09A83F80120812B838C8301E012E090
:1047700031E04D815E816F81788589859A850E94BF
:1047800048088FE39CE90197F1F700C000000F9003
:104790000F900F900F902A96CDBFDEBFDF91CF9183
:1047A0001F910F9108958091932890919428181645
:1047B00019064CF40E947C238091972890919828A8
:1047C000892BF1F404C010929728109298288091B8
:1047D0008F28909190281816190644F40E9493236C
:1047E0008091972890919828892B51F48091952851
:1047F00090919628892B21F480E1E0EEF6E0868303
:1048000008950F931F93CF93DF93CDB7DEB72A9709
:10481000CDBFDEBF0FE818E2F80181818F93808160
:104820008F9381E393E29F938F930E94B54281E03F
:10483000898382E08A83F80120812B838C8301E0C5
:1048400012E032E04D815E816F81788589859A859D
:104850000E9448088FE39CE90197F1F700C000002F
:1048600081E090E080939528909396280F900F9088
:104870000F900F902A96CDBFDEBFDF91CF911F9191
:104880000F91089580918F289091902818161906FD
:1048900014F40E9401248091972890919828892BE4
:1048A00079F48091952890919628892B49F48091EC
:1048B0008F28909190281816190614F40E946723E7
:1048C000089580938F28909390280895DF92EF9217
:1048D000FF920F931F93CF93DF93EC01D62E142FEB
:1048E000F22EE0FE0DC0402F411B622F6D0D0E9485
:1048F0000B2C402F4D19612F6F0DCE010E940B2CF8
:10490000E1FE0EC0402F411B6F2D6D19CE010E949C
:104910000B2C402F4D196F2D611BCE010E940B2CCB
:10492000E3FE0EC0402F410F6F2D6D0DCE010E9492
:104930000B2C402F4D0D612F6F0DCE010E940B2CC3
:10494000E2FE0EC0402F410F6F2D6D19CE010E9467
:104950000B2C402F4D0D6F2D611BCE010E940B2C97
:10496000DF91CF911F910F91FF90EF90DF9008950D
:104970008F929F92AF92BF92CF92DF92EF92FF926F
:104980000F931F93CF93DF93EC01A62E942ED22E7C
:10499000802E11E0121BB22EB194BB0CE02E042F1E
:1049A000262F4D2D60E00E946624DD20C9F00F2ED9
:1049B000F3E0CF2EF02DF12C112324F0DA94B394F0
:1049C000B3941B0DF3941C0DE82C092D2A2D4D2DAD
:1049D0006F2DCE010E946624C394C394FD1460F32E
:1049E000DF91CF911F910F91FF90EF90DF90CF90CB
:1049F000BF90AF909F908F900895DF92EF92FF92BB
:104A00000F931F93CF93DF93EC01162FF42EE22E1A
:104A1000D02E81E0820F282F220F481B681B022F07
:104A2000CE010E942425882339F00D2D2E2D4F2DE7
:104A3000612FCE010E94B824DF91CF911F910F9179
:104A4000FF90EF90DF9008950F93FC010150040F49
:104A500084A996A9941738F0081768F481E0041720
:104A600040F080E006C00817D0F081E0041708F09D
:104A700080E08823C9F02150260F83A995A99617B5
:104A800038F0281770F481E0261770F080E00CC031
:104A9000281748F081E0261738F080E005C080E054
:104AA00003C081E001C080E00F910895DB011496FE
:104AB000ED91FC91159720E030E061E009950895B3
:104AC000DB011496ED91FC91159720E030E063E056
:104AD00009950895DB011496ED91FC91159720E05E
:104AE00030E040E064E009950895DB011496ED9113
:104AF000FC91159720E030E041E064E009950895CD
:104B0000DB011496ED91FC91159720E030E062E016
:104B100009950895DB011496ED91FC91159720E01D
:104B200030E065E009950895DB011496ED91FC9164
:104B3000159766E009950895AF92BF92CF92DF92E4
:104B4000EF92FF921F93CF93DF937C015B01EA0109
:104B5000D12CFE011491D1100BC01F3F09F44FC09E
:104B6000412FB501C7010E948A2581114EC04FC057
:104B70001F3F51F44FEFB501C7010E948A258823DA
:104B800009F447C0D12C41C01E3F09F444C0103F76
:104B9000C8F5103E40F0412F4F70B501C7010E948B
:104BA0008025D12C32C0103D40F0412F4F70B5010F
:104BB000C7010E946025D12C28C0103CC0F0B5016F
:104BC000C7010E946A25C12ECC0CCC0CCC0CCC0C9D
:104BD000C394C394D12CC6010E949227B501C7018A
:104BE0000E947525C6010E949227D12C0EC0112368
:104BF0005CF0812F90E00E949227D12C06C0DD242A
:104C0000D39403C0D12C01C0D12C2196A2CF80E037
:104C100003C080E001C081E0DF91CF911F91FF9040
:104C2000EF90DF90CF90BF90AF9008951F93CF93F8
:104C3000DF93EC01162F462F417065E00E94882714
:104C40001695412F417066E0CE010E948827169587
:104C5000412F417067E0CE010E9488271695412FB1
:104C6000417068E0CE010E9488271695412F41705F
:104C700069E0CE010E9488271695412F41706AE0B5
:104C8000CE010E9488271695412F41706BE0CE011E
:104C90000E948827412F46956CE0CE010E9488270C
:104CA00041E064E0CE010E94882740E064E0CE014C
:104CB0000E948827DF91CF911F910895DF92EF9294
:104CC000FF920F931F93CF93DF93EC01D42E7901C2
:104CD000062F10E0F8013197E730F10508F09FC08A
:104CE000E650FF4F0C946C3F41117EC098C04111BB
:104CF00084C095C06DE00E947F2740E06DE0CE014A
:104D00000E94882765E0CE010E947F2766E0CE01E1
:104D10000E947F2767E0CE010E947F2768E0CE01D6
:104D20000E947F2769E0CE010E947F276AE0CE01C2
:104D30000E947F276BE0CE010E947F276CE0CE01AE
:104D40000E947F2764E0CE010E947F2762E0CE01AF
:104D50000E947F2763E0CE010E947F2761E0CE01A1
:104D60000E947F2741E062E0CE010E94882741E057
:104D700063E0CE010E94882752C041110AC041E081
:104D800062E00E94882741E063E0CE010E9488270C
:104D900046C081E048130BC040E062E0CE010E94B3
:104DA000882741E063E0CE010E94882738C0E2E016
:104DB0004E130BC041E062E0CE010E94882740E024
:104DC00063E0CE010E9488272AC040E062E0CE0165
:104DD0000E94882740E063E0CE010E9488271FC020
:104DE000642F0E9416261BC0F70161917F01CE013E
:104DF0000E941626DA94C1F712C0F7016491CE0121
:104E00000E941626FFEFEF1AFF0ADA94B1F707C0E7
:104E100061E00E94882703C060E00E94882781E04B
:104E2000DF91CF911F910F91FF90EF90DF90089548
:104E3000CF93DF9300D0CDB7DEB770E0660F771F5A
:104E4000680F791F42E050E0CE0101960E94424275
:104E500089819A810F900F90DF91CF910895880FEB
:104E6000880F880F860F0895CF93C82F682F6695F7
:104E70006695669582E093E00E941827FC014081C8
:104E8000C77021E030E0C90102C0880F991FCA95A0
:104E9000E2F7842B8083CF910895CF93DF93C82FBF
:104EA000D62F682F66956695669588EF92E00E94EA
:104EB0001827FC01D11111C04FB7F8945081C77069
:104EC00021E030E0C90102C0880F991FCA95E2F7BE
:104ED0008095852380834FBF0FC04FB7F8945081D2
:104EE000C77021E030E0C90102C0880F991FCA9540
:104EF000E2F7852B80834FBFDF91CF910895860F16
:104F0000911DFC0183A18F3F11F00E943427089569
:104F1000860F911DFC0183A18F3F19F0642F0E9421
:104F20004D270895009741F02EE33FE1F9013197B5
:104F3000F1F701970097D1F70895BF92CF92DF92D2
:104F4000EF92FF920F931F93CF93DF938C01EB01AE
:104F5000B42E79018AE0481721F095E14917C1F094
:104F60006AC04FEFC8010E945625EFE1F3E0319788
:104F7000F1F700C000004CE053E0BE01C8010E9400
:104F80009C258FE193E00197F1F700C0000053C02A
:104F9000CA80DB8040E0C8010E94802542E0BE015B
:104FA000C8010E946025F6014481486BBE01C8011A
:104FB0000E948A2540E4BE01C8010E948A2541E082
:104FC000BE01C8010E948025F6012681378140E498
:104FD000BE01C8010E94942540E0BE01C8010E94A4
:104FE000602540E0BE01C8010E94802541E0BE016D
:104FF000C8010E946025F6014481486BBE01C801CA
:105000000E948A2540E4BE01C8010E948A2541E031
:10501000BE01C8010E948025F60126813781205CEF
:105020003F4F40E4BE01C8010E94942540E0BE010C
:10503000C8010E94602597014B2DBE01C8010E9446
:10504000182DDF91CF911F910F91FF90EF90DF907E
:10505000CF90BF900895FC01E60FF11D849190E080
:10506000982F88273196E4918E0F911D0895FC01A9
:10507000849108950E943728882311F0823011F41A
:1050800086E0089583E0089580E00895FC01808D16
:105090008F5F089566E00E942B28089568E00E94C3
:1050A0002B2808950A96FC01849108950B96FC0123
:1050B00084910895AF92BF92CF92DF92EF92FF92C8
:1050C0000F931F93CF93DF937C01B62EDC011496D0
:1050D000CD91DC911597CE010E943728182FF7014A
:1050E000848195810E943A28082F113019F0AA2452
:1050F000AA9404C00F2EFFE0AF2EF02DD701149616
:105100008D919C9115970E945228D82EF701848189
:1051100095810E945628C82ED70114968D919C9196
:1051200015970E944E28B0E6BB1548F4009739F059
:10513000C80FD91F0F2EF1E6DF2EF02D12C0F70198
:10514000848195810E944A28F0E4FB1548F4009779
:1051500039F0C80FD91F0F2EF1E4DF2EF02D01C05A
:105160006196CB1490F4D70150961C9250975396A9
:105170001C92539754961C92549751961C92519797
:1051800052961C9280E090E073C0CD1408F468C081
:10519000202F30E08E01FE0184918F3F11F4219683
:1051A0005BC0DB1051C06E01D70114968D919C91AC
:1051B00015970E943728882311F0823001F5F801F5
:1051C0000491D70153960C93F6013196E491D701DF
:1051D0005496EC93F6013396E491D7015096EC93F4
:1051E000F6013496E491D7015196EC93F601359689
:1051F000E491D7015296EC938C2F9D2F39C0FE017C
:105200000491802F8F708250D70152968C935297C1
:1052100002950F7051960C93FE013196E4918E2FFA
:105220008F70D70154968C935497E295EF705396F4
:10523000EC93FE013296E491E295EF70D70150961F
:10524000EC938C2F9D2F14C0FE013296E491EA213D
:10525000CE0FD11DC20FD31FDC1411F0D3949ACFFF
:10526000F701108A138A148A118A128A80E090E06A
:10527000DF91CF911F910F91FF90EF90DF90CF9032
:10528000BF90AF9008956F927F928F929F92AF924E
:10529000BF92CF92DF92EF92FF920F931F93CF9323
:1052A000DF936C01162F742E622F0E945A287C0106
:1052B000009709F447C0F601848195810E943A283D
:1052C000B82EF601D389C4896188610E9289791A52
:1052D000972C9C1A0C2F2D2F492D662DC6010E944C
:1052E0002425811103C0F60180892DC0D95F8D2E40
:1052F000869486948694CC2311F1EB0CF11CAA249D
:10530000AA94A80CB12CFFEFAF1ABF0A13C0FE017C
:10531000049120E0492D612FC6010E94142C219692
:10532000185F8C2F8E19881590F3EA0CFB1C939450
:10533000971429F08820D9F3162DE701E8CFF6015C
:10534000808901C080E0DF91CF911F910F91FF9084
:10535000EF90DF90CF90BF90AF909F908F907F9015
:105360006F900895DF92EF92FF920F931F93CF9368
:10537000DF938C01F62ED42EE901DC015596ED91D8
:10538000FC9156970995D80E2881222369F0219621
:10539000E12C4D2D6F2DC8010E944329F80EE80E17
:1053A00029912111F6CF01C0E12C8E2DDF91CF91F3
:1053B0001F910F91FF90EF90DF900895DC011496FC
:1053C0008D919C911597009709F44DC057962C919B
:1053D000579721110DC0FC013596E4915896EC9336
:1053E0005897FC013C96849159968C9359971BC011
:1053F000213069F4FC013F96E4915896EC9358975C
:10540000FC017096849159968C9359970CC0FC01BD
:105410003D96E4915896EC935897FC013E96849102
:1054200059968C93599758968C915897992787FD40
:10543000909559962C915997821B910927FD939528
:105440005A962C915A97203461F0829FC001112402
:105450000024880F991F001C880F991F001C892F9A
:10546000902D5B968C930895FC01178A0E94DE298B
:10547000089524E438E2FC01258B368B089526E458
:1054800038E2FC01258B368B0895CF93DF93EC0136
:105490008C819D818617970749F06C837D83CE01AF
:1054A0000E94DE2984E498E28D8B9E8BDF91CF9160
:1054B0000895AF92BF92CF92DF92EF92FF920F9337
:1054C0001F93CF93DF93EC01162FE42ED22E2617D5
:1054D00018F4C62EC21A02C0C22EC61A0E1518F42F
:1054E000AE2CA01A02C0A02EAE18CA1428F08A2D25
:1054F000AC2CC82EB12C08C08D2DD02E082F812F9A
:105500001E2DE82EBB24B394D11630F48E2DE02E40
:10551000082F812F1D2DD82EFA2CF694E01610F4AA
:1055200001E001C00FEFD116A0F0B11006C04E2D62
:10553000612FCE010E940B2C05C0412F6E2DCE0194
:105540000E940B2CFC1812F4E00EFA0C1F5FD1160F
:1055500060F7DF91CF911F910F91FF90EF90DF9057
:10556000CF90BF90AF9008951F93CF93DF93EC013E
:105570001C821D821E821F82198681E0888782E23A
:105580008A871E861F86FE01B39680E09FEF919367
:105590008F5F8E30E1F711E018A3CE010E94392A07
:1055A0001F8B188E198E80E48A8F1B8E83ED9EE2EE
:1055B00089AB9AABDF91CF911F910895DB01ED91FB
:1055C000FC91099508950F931F93CF93DF93EC01FE
:1055D0008B01E9A9FAA982E0099520E030E04AE0D0
:1055E000B801CE010E94DE2A182FE9A9FAA983E0AA
:1055F0000995E9A9FAA980E00995812FDF91CF915A
:105600001F910F9108950F931F93CF93DF93EC0198
:105610008B01E9A9FAA982E00995E9A9FAA981E033
:10562000099520E030E044E1B801CE010E94DE2A75
:105630009E012D5C3F4F47E1B801CE010E94DE2A5A
:10564000E9A9FAA980E00995DF91CF911F910F9107
:105650000895FF920F931F93CF93DF93EC018B017B
:10566000E9A9FAA982E00995E9A9FAA981E00995D1
:1056700020E030E045E1B801CE010E94DE2AF82E9C
:10568000882341F09E012D5C3F4F47E1B801CE01D8
:105690000E94DE2AE9A9FAA980E009958F2DDF9101
:1056A000CF911F910F91FF900895FC01448F258F9A
:1056B0009C01245E3F4F42E30E94DE2A0895CF936F
:1056C000DF931F92CDB7DEB79E012F5F3F4F46E4B9
:1056D0000E94DE2A89810F90DF91CF910895CF93A8
:1056E000DF931F92CDB7DEB79E012F5F3F4F47E498
:1056F0000E94DE2A89810F90DF91CF91089520E0EA
:1057000030E048E40E94DE2A0895CF93DF93EC0155
:105710006A817B810E945F2B88836A817B81CE01B5
:105720000E946F2B89836A817B81CE010E947F2B2F
:105730008B879E012D5C3F4F6A817B8147E1CE01C3
:105740000E94DE2ADF91CF910895CF93DF93EC0181
:105750006A817B810E94E32A882329F0CE010E947E
:10576000852B81E001C080E0DF91CF9108954F92B9
:105770005F926F927F928F92AF92CF92EF92FF9251
:105780000F931F93CF93DF93CDB7DEB73C012B016F
:10579000F42E122F0E94B42AF30142825382F0A603
:1057A00011A702A7E3A6C4A6A5A686A6888987A7EF
:1057B000898987A38A8985A38B8986A38C8984A3F9
:1057C0008D8980AB8E8983A3C3010E94A52BDF91B5
:1057D000CF911F910F91FF90EF90CF90AF908F904E
:1057E0007F906F905F904F900895FC01628173816C
:1057F0000E94032B0895CF93DF93EC01EE85FF8584
:10580000309709F009956A817B81CE010E94292B8E
:10581000DF91CF910895362F242FFC01628173818F
:10582000432F0E94552B08950F93FC018281938191
:10583000648F458F278F068F9F01245E3F4F4BE378
:10584000BC01CF010E94DE2A0F910895FC018385DF
:10585000883221F0823021F483E008958FEF08959B
:1058600081E00895CF93DF93EC018B85803321F4A1
:105870008FEF88A389A304C0CE010E94262C88A3A1
:10588000DF91CF910895FC0110A20895FC011282CE
:1058900080818150838314820895FC01208182815C
:1058A000820F82839181891760F484818F5F848362
:1058B0008381280F291710F02FEF290F238381E010
:1058C000089580E00895DC011696ED91FC911797FC
:1058D00015968C919F01280F311DC9011192E8176F
:1058E000F907E1F70895FC0191E08381861708F438
:1058F00090E021E0461708F020E0322F392B81E0BC
:105900005281451708F480E083239223892B089560
:10591000DC01FB01108212968C91129781831596FF
:105920008C9115978150828313968C91838308956F
:10593000FB0161812381213019F0233021F006C061
:1059400048E0460F04C0462F685001C0462F0E9411
:10595000732C0895DC011696ED91FC911797129621
:105960008C91481B477081E090E0DC0102C0AA0FD7
:10597000BB1F4A95E2F7AD01E60FF11D222321F08E
:105980008081482B4083089540958081482340833F
:105990000895FB014181FC012281421770F02381AF
:1059A000241758F0FB013081FC012581321728F4BF
:1059B000FB012481632F0E94AA2C0895DF92EF92AD
:1059C000FF920F931F93CF93DF938C01EB01FA802B
:1059D0008B81813041F098F0823049F0833059F06A
:1059E000D12CE12C0FC0DD24D394E12C0BC0D12CA1
:1059F000EE24EA9407C0DD24DA94E12C03C0D12C14
:105A0000EE24E394FF2024F4BE01C8010E94C92CB7
:105A100088818E0D888389818D0D8983FF0C91F794
:105A2000DF91CF911F910F91FF90EF90DF9008953C
:105A30000F931F93CF93DF93E901FB010281138141
:105A400050E0FA017497E433F105C0F5EF5FFE4FC3
:105A50000C946C3FB901C8010E94982C882381F1F5
:105A6000BE01C8010E94DE2C81E02DC0B901C80131
:105A70000E94C92C81E027C0C8010E94632CC80184
:105A80000E94462C81E01FC0C8010E944D2C882333
:105A9000C9F0C8010E94632C81E015C0B901C8019A
:105AA0000E94882C81E00FC0F8018581888381E005
:105AB0000AC0F8018181888381E005C081E003C0CC
:105AC00081E001C080E0DF91CF911F910F91089597
:105AD000AF92BF92CF92DF92EF920F931F93CF932B
