:100000000C947F050C94A3050C94A3050C94A305F4
:100010000C94A3050C94A3050C94A3050C94A305C0
:100020000C94A3050C94A3050C94A3050C94A305B0
:100030000C94A3050C94A3050C94232E0C94A305F7
:100040000C94A3050C94A3050C94A3050C94A30590
:100050000C94A3050C94A3050C94A3050C94A30580
:100060000C94A3050C94CC2D0C94A3050C94A3051F
:100070000C94A3050C94A3050C94A3050C94A30560
:100080000C94A3050C94A3050C94A3050C94A30550
:100090000C94A3050C94A3050C94A3050C94A30540
:1000A0000C94A3050C94A3050C94A3050C94A30530
:1000B0000C94A3050C94A3050C94A3050C94A30520
:1000C0000C94A3050C94A3050C94A3050C94A30510
:1000D0000C94A3050C94A3050C94A3050C94A30500
:1000E0000C94A3050C94A3050C94A3050C94A305F0
:1000F0000C94A3050C94A3050C94A3050C94A305E0
:100100000C947F130C94A3050C9498130C94A305E2
:100110000C94A3050C94A3050C94A3050C94A305BF
:100120000C94A3050C94A3050C94A3050C94A305AF
:100130000C94A3050C94A3050C94A3050C94A3059F
:100140000C94A3050C94A3050C94A3050C94A3058F
:100150000C94A3050C94A3050C94A3050C94A3057F
:100160000C94652D0C94A3050C94A3050C94A30585
:100170000C94A3050C94A3050C94A3050C94A3055F
:100180000C9436130C9470130C94A3050C94A305D3
:100190000C94A3050C94A3050C94A3050C94A3053F
:1001A0000C94A3050C94A3050C94A3050C94A3052F
:1001B0000C94A3050C94A3050C94A3050C94A3051F
:1001C0000C94A3050C94A3050C94A3050C94A3050F
:1001D0000C94A3050C94A3050C94A3050C94EA12AB
:1001E0000C94A3050C94A3050C94A3050C94A305EF
:1001F0000C94A305D2236024152464244824CC2322
:10020000CF23942A9C2AB62AA62AB62AB62AB62A28
:10021000B62AB62AB62AB62AB62AB62AB62AB62ADE
:10022000B62AB62AB62AB62AB62AB62AB62AB62ACE
:10023000B62AB62AB62AB62AB62AB62AB62A8E2AE6
:10024000B62AB62AB62AB62AB62AB62AB62AB62AAE
:10025000822AB62AB62AB62AB62AB62AB62AB62AD2
:10026000B62AB62AB62AAC2AB12A05A84CCDB2D4F1
:100270004EB93836A9020C50B9918688083CA6AA16
:10028000AA2ABE000000803F0406240604072407B3
:10029000840600062006000720078006FFD0FFE046
:1002A000FFC1FFD13FC0FF14FFD23FC0FF14FFD0FA
:1002B000FFFE01060A00FE070136026820FFFE0865
:1002C000FE07FE0A00602217678080808080008021
:1002D000163363A0A0A00257675050F850F8505052
:1002E0000257672070A07028702002576748A850F6
:1002F0002050A89002576740A0A040A890682613FD
:1003000063808080123767204080808040201237D1
:1003100067804020202040800355658850F8508831
:100320000355652020F8202011336360408005517B
:1003300061F811336340E04002576708081020401D
:100340008080025767205088888850200257672095
:1003500060A0202020F8025767708808304080F89D
:10036000025767F80810300888700257671030503D
:1003700090F81010025767F880B0C80888700257CC
:1003800067304080B0C88870025767F808101020A6
:10039000404002576770888870888870025767707D
:1003A00088986808106011376740E0400040E040DE
:1003B00011376740E04000604080124767102040DE
:1003C00080402010045363F800F8124767804020F3
:1003D00010204080025767708810202000200257AC
:1003E00067708898A8B0807002576720508888F896
:1003F0008888025767F04848704848F0025767708D
:10040000888080808870025767F04848484848F0E4
:10041000025767F88080F08080F8025767F8808084
:10042000F0808080025767708880809888700257BB
:1004300067888888F8888888123767E0404040409D
:1004400040E002576738101010109060025767881C
:1004500090A0C0A09088025767808080808080F83C
:100460000257678888D8A88888880257678888C80C
:10047000A89888880257677088888888887002578B
:1004800067F08888F0808080015868708888888844
:10049000A87008025767F08888F0A0908802576714
:1004A00070888070088870025767F820202020200C
:1004B00020025767888888888888700257678888EC
:1004C0008850505020025767888888A8A8D888028A
:1004D000576788885020508888025767888850203E
:1004E000202020025767F80810204080F812376754
:1004F000E08080808080E002576780804020100884
:1005000008123767E02020202020E00653632050A7
:1005100088015161F8282262804002556570087890
:1005200088780257678080B0C888C8B00255657067
:10053000888088700257670808689888986802550C
:10054000657088F88070025767304840F04040403E
:10055000005767788888780888700257678080B06D
:10056000C88888881237674000C0404040E0104982
:1005700069100030101010909060025767808088DA
:1005800090E09088123767C04040404040E00255FC
:1005900065D0A8A8A888025565B0C8888888025583
:1005A000657088888870005767B0C888C8B0808038
:1005B00000576768988898680808025565B0C88031
:1005C000808002556570807008F00257674040F0E7
:1005D000404048300255658888889868025565888B
:1005E000885050200255658888A8A8500255658813
:1005F000502050880057678888986808887002558E
:1006000065F8102040F8124767304020C020403085
:1006100022176780808080808080124767C02040DA
:10062000304020C006536348A890FFFFFFFFFFFF44
:10063000FFFFFFFFFFFFFFFFFFFFFFFFFFFFFFFFCA
:10064000FFFFFFFFFFFFFFFFFFFFFF0A0060221712
:1006500067800080808080800157672078A0A0A0FC
:100660007820025767304840E04048B0025565881E
:100670007050708801586888885020F82020202207
:100680001767808080008080800158687080E090CB
:1006900048380870193161A00257677088A8C8A847
:1006A00088701346667090B05000F002656524486B
:1006B000904824144262F010154161F002576770AF
:1006C00088E8C8C88870095161F816336340A040B3
:1006D0000256662020F82020F815456560902040DD
:1006E000F0154565E0106010E02822624080015658
:1006F00066888888C8B08002576778E8E868282844
:100700002825116180202262408015356540C04057
:1007100040E01346666090906000F0026565904886
:1007200024489001696940C04040E40C143C040135
:10073000696940C04040E81404081C015969C020A0
:100740004020C818287808025767200020204088D9
:10075000700258684020708888F8888802586810AD
:1007600020708888F888880258682050708888F837
:10077000888802586848B0708888F8888802586865
:100780005000708888F888880258682050708888DF
:10079000F888880267673C50909CF0909C005969EB
:1007A00070888080808870204002586840F880807F
:1007B000F08080F802586810F88080F08080F8029D
:1007C000586820F88080F08080F802586850F880DF
:1007D00080F08080F81238688040E040404040E07F
:1007E0001238682040E040404040E012386840A0A5
:1007F000E040404040E0123868A000E04040404007
:10080000E0025767F04848E84848F0025868285026
:1008100088C8A89888880258684020708888888886
:100820007002586810207088888888700258682084
:100830005070888888887002586828507088888826
:1008400088700258685000708888888870025565E2
:100850008850205088025767709898A8C8C87002BE
:1008600058684020888888888870025868102088D6
:100870008888888870025868205000888888887026
:10088000025868500088888888887002586810204C
:1008900088885020202002576780F088F080808070
:1008A000025767708890A09088B002586840200076
:1008B0007008788878025868102000700878887866
:1008C00002586820500070087888780258682850CC
:1008D0000070087888780257675000700878887828
:1008E000025868205020700878887802656578146E
:1008F0007C907C0057677088808870204002586820
:100900004020007088F880700258681020007088BD
:10091000F880700258682050007088F88070025784
:100920006750007088F88070123868804000C040BE
:100930004040E0123868408000C0404040E012383B
:100940006840A000C0404040E0123767A000C040AF
:100950004040E0025767C03070888888700258684D
:10096000285000B0C88888880258684020007088E5
:100970008888700258681020007088888870025833
:10098000682050007088888870025868285000706D
:10099000888888700257675000708888887003556F
:1009A000652000F800200255657898A8C8F0025824
:1009B000684020008888889868025868102000885D
:1009C000888898680258682050008888889868024B
:1009D000576750008888889868005969102088886F
:1009E000986808887000586880F0888888F080804F
:1009F0000059695000888898680888706E616E0098
:100A0000696E660000407A10F35A00A0724E180911
:100A10000010A5D4E80000E87648170000E40B5465
:100A2000020000CA9A3B000000E1F5050000809634
:100A30009800000040420F000000A0860100000066
:100A4000102700000000E803000000006400000020
:100A500000000A00000000000100000000002C76E9
:100A6000D888DC674F0823DFC1DFAE59E1B1B79604
:100A7000E5E3E453C63AE651997696E8E6C2842661
:100A8000EB898C9B62ED407C6FFCEFBC9C9F40F23D
:100A9000BAA56FA5F490055A2AF75C936B6CF967B9
:100AA0006DC11BFCE0E40D47FEF520E6B500D0ED7E
:100AB000902E0300943577050080841E08000020E6
:100AC0004E0A000000C80C333333330F986E128384
:100AD0001141EF8D2114893BE65516CFFEE6DB1858
:100AE000D1844B381BF77C1D901DA4BBE42420321D
:100AF00084725E228100C9F124ECA1E53D27112416
:100B00001FBECFEFCDBFDFE2DEBF18BE19BE1ABEDB
:100B10001BBE12E2A0E0B0E2EAE3F2E700E00BBFA6
:100B200002C007900D92A037B107D9F71BBE27E28C
:100B3000A0E7B2E201C01D92A735B207E1F70E941B
:100B400010120C941B390C940000CF93DF9368387B
:100B500023E172078105910509F458C0603127E24D
:100B600072078105910509F455C060322EE47207C1
:100B70008105910509F452C0613329E772078105A7
:100B8000910509F44FC060342CE972078105910585
:100B900009F44CC0603523EC72078105910509F416
:100BA00049C0603828E3720721E08207910509F403
:100BB00045C0603A26E8720721E08207910509F4F2
:100BC00041C0683428EE720721E082079105F1F1F7
:100BD00060342DE0720723E082079105D9F1603976
:100BE00020ED720723E082079105C1F1603221EA0E
:100BF000720727E082079105A9F1603472448F40A3
:100C00009105A1F1C0E0D0E060E033C0C7E8DFEFBC
:100C10006FE32FC0C7E8DFEF6FE12BC0C7E8DFEF5E
:100C20006FE027C0C5E8D1EF6FE023C0C7E8DFEF72
:100C300067E01FC0C7E8DAEF67E01BC0C7E8DFEF77
:100C400063E017C0C7E8DAEF63E013C0C6E8D0EF8F
:100C500063E00FC0C7E8DAEF61E00BC0C5E8D1EF91
:100C600061E407C0C6E8D0EF60E003C0C2E8D0EDA1
:100C700060E04FEF8AE20E94CD074FEF6D2F89E2CF
:100C80000E94CD074FEF6C2F88E20E94CD07DF91C5
:100C9000CF9108950E9402080E9464070E943607BF
:100CA00060E970ED83E090E00E94A50543E063E019
:100CB0008BE20E94CD074FEF60E680E60E94CD07F1
:100CC00040EE60E08FE00E94CD078AE290E00E9453
:100CD0001D071F928F9383E990E29F938F930E9449
:100CE000553889E290E00E941D071F928F9386EA93
:100CF00090E29F938F930E94553888E290E00E9483
:100D00001D071F928F938AEA90E29F938F930E9410
:100D100055381092D2258DB79EB70C968DBF9EBFC9
:100D200008951F93CF93DF93EC0161E388810E94C4
:100D3000FF064FE0698185E30E94CD078981882302
:100D400069F010E066E3610FFE01E10FF11D8281A1
:100D50000E94FF061F5F89811817A0F381E80E9497
:100D6000A607DF91CF911F9108951F93CF93DF9333
:100D7000EC01FC01329688E011928150E9F781E69E
:100D80000E94E606888384E60E94E6069881911117
:100D900001C0888385E60E94E6068983882369F07E
:100DA00010E086E6810F0E94E606FE01E10FF11DCC
:100DB00082831F5F89811817A0F341E060E08CE215
:100DC0000E94CD07DF91CF911F9108950F931F933C
:100DD000CF93DF93082FC0E6D6E010E11E8383E0B7
:100DE00090E00E94CE13802F90E00E94CE130E94CC
:100DF000D9131D83DF91CF911F910F910895FF9219
:100E00000F931F93CF93DF93082FF62EC0E6D6E003
:100E100010E11E8382E090E00E94CE138F2D90E0BF
:100E20000E94CE13802F90E00E94CE131D83DF918D
:100E3000CF911F910F91FF9008950F931F93CF9320
:100E4000DF93082FC0E6D6E010E11E8383E090E038
:100E50000E94CE13802F90E00E94CE130E94D913DF
:100E60001D83DF91CF911F910F910895CF9380E162
:100E7000E0E6F6E0868382E090E00E94CE1381E611
:100E800090E00E94CE13CDE080E090E00E94CE136F
:100E9000C150D1F7E0E6F6E080E18583868382E009
:100EA00090E00E94CE1381E790E00E94CE13CDE047
:100EB00080E090E00E94CE13C150D1F780E1E0E6DF
:100EC000F6E08583CF910895CF9380E1E0E6F6E0E8
:100ED000868382E090E00E94CE1381E390E00E943E
:100EE000CE13CDE080E090E00E94CE13C150D1F748
:100EF000E0E6F6E080E18583868382E090E00E9470
:100F0000CE1381E490E00E94CE13CDE080E090E02B
:100F10000E94CE13C150D1F7E0E6F6E080E1858370
:100F2000868382E090E00E94CE1381E590E00E94EB
:100F3000CE13CDE080E090E00E94CE13C150D1F7F7
:100F400080E1E0E6F6E08583CF91089590E1E0E668
:100F5000F6E09683823871F018F4813831F018C0C9
:100F6000843869F0873881F013C081E890E00E94EE
:100F7000CE130EC082E890E00E94CE1309C084E830
:100F800090E00E94CE1304C087E890E00E94CE1348
:100F900080E1E0E6F6E085830895EF92FF920F93FB
:100FA0001F93CF93DF93E82E062FF42EC0E6D6E0F2
:100FB00010E11E8385E090E00E94CE138E2D90E01C
:100FC0000E94CE138F2D90E00E94CE13802F90E0D0
:100FD0000E94CE131D83DF91CF911F910F91FF903F
:100FE000EF9008951F93CF93DF93C0E6D6E010E112
:100FF0001E8380EC90E00E94CE131D83DF91CF9181
:101000001F9108950E94C4130E94F20780E0089582
:101010000F931F93CF93DF93CDB7DEB72A97CDBF42
:10102000DEBF09831A832B833C834D835E836F83EA
:10103000788789879A878CE090E00E94E3352AE0E0
:10104000FE013196DC0101900D922A95E1F7FC0139
:10105000128613862091722230917322232B79F409
:101060002091702230917122232B49F480937022B9
:101070009093712280937222909373220AC0E09120
:101080007022F091712282879387809370229093CF
:1010900071222A96CDBFDEBFDF91CF911F910F91B4
:1010A000089580917222909173220097C9F0209147
:1010B0007022309171228217930749F410927022A6
:1010C00010927122109272221092732207C0FC01BA
:1010D0002285338520937222309373220E947B36BF
:1010E0000895E0917222F0917322309721F42FEF4E
:1010F000FC01208308952AE0DC0101900D922A95DD
:10110000E1F7089581E090E02091722230917322FE
:10111000232B11F080E090E00895CF93C82F8A3000
:1011200019F48DE00E948D08E1EAFAE0908195FFC4
:10113000FDCFC093A00A80E090E0CF910895CF93B7
:10114000BC01E1EAFAE080818823ECF7C091A00AB3
:10115000CD3009F4CAE08C2F0E948D088C2F90E0CE
:10116000CF910895E0E5F0E08BEC82838081886088
:101170008083818183FFFDCFE0E5F0E082EC858311
:10118000808180618083818184FFFDCF88ED84BF71
:1011900084E08093400008950F931F93CF93DF93D3
:1011A000CDB7DEB72A97CDBFDEBFE8E7F6E23081E4
:1011B000418150917A2660917E267091822608ECBA
:1011C00017E02CEF809180269A850E9408082A96C5
:1011D000CDBFDEBFDF91CF911F910F9108958F9208
:1011E0009F92AF92BF92CF92DF92EF92FF920F93B6
:1011F0001F93CF93DF93CDB7DEB72A97CDBFDEBF66
:10120000E6E8F6E23081832F9181A281B381892EB5
:101210009A2EAB2EBB246D01EE24FF246B2F772773
:101220008827992708EC15E02DEF482D5C2D78854F
:1012300089859A850E9408082A96CDBFDEBFDF9176
:10124000CF911F910F91FF90EF90DF90CF90BF90C3
:10125000AF909F908F900895CF93DF93CDB7DEB777
:101260006497CDBFDEBF0E948208892B99F4CE011E
:101270000B960E9471088AE0FE013B96DE011196F2
:1012800001900D928A95E1F7CE0101960E94910698
:101290000E9451082FEF89EF90E02150804090404C
:1012A000E1F700C000006496CDBFDEBFDF91CF91B3
:1012B0000895CF93DF93CDB7DEB72A97CDBFDEBFBA
:1012C00091E0998322E02A838B839C83CE0101964F
:1012D0000E9491068FE39CE90197F1F700C000009E
:1012E0002A96CDBFDEBFDF91CF9108950F931F9354
:1012F000CF93DF93CDB7DEB72A97CDBFDEBF91E0A6
:10130000998392E09A838B839C8301E012E0282FDB
:1013100032E04D815E816F81788589859A850E9452
:1013200008088FE39CE90197F1F700C000002A96B6
:10133000CDBFDEBFDF91CF911F910F9108954F92E6
:101340005F926F927F928F929F92AF92BF92CF9255
:10135000DF92EF92FF920F931F93CF93DF93CDB75E
:10136000DEB76497CDBFDEBF83ED95E20E944D29C5
:10137000C0907026D090712620916C2630916D26F9
:1013800004E6029FC001039F900D1124B6010E9444
:10139000B734882777FD8095982F0E945B2F2AE924
:1013A00039E949E95FE30E94483020E030E040E05D
:1013B00050E40E94BD2E0E94282F162F20916E26E9
:1013C00030916F26029FC001039F900D1124B6013A
:1013D0000E94B734882777FD8095982F0E945B2F55
:1013E0002AE939E949E95FE30E94483020E030E02A
:1013F00040E050E40E94BD2E0E94282FF62E0F2EB2
:10140000FCE64F2EF6E25F2EF02D0F2EF9EBAF2EFD
:10141000F0E2BF2EF02D9E012F5F3F4F69010F2E8E
:10142000FEE66F2EF6E27F2EF02D0F2EF9EC8F2EBA
:10143000F0E29F2EF02D62EB72E083ED95E20E94C8
:101440009D276894EE24E1F80FE02EE741E061E08B
:1014500083ED95E20E94B52B2EEA30E241E161E096
:1014600083ED95E20E940A27F20181818F938081AA
:101470008F93BF92AF92DF92CF920E9494389601E1
:1014800041E163E483ED95E20E940A272EE74CE1F7
:1014900061E083ED95E20E94B52BF30181818F938A
:1014A00080818F93BF92AF92DF92CF920E94943847
:1014B0002EEB30E24DE261E083ED95E20E940A27D7
:1014C00096014DE263E483ED95E20E940A270BE06A
:1014D000212F43E063E083ED95E20E94982B2F2DAE
:1014E0004EE163E083ED95E20E94982B1F921F92DC
:1014F0001F921F929F928F92DF92CF920E949438F8
:10150000960146E361E083ED95E20E940A2783EDB0
:1015100095E20E945329CDBFDEBF81118CCF649626
:10152000CDBFDEBFDF91CF911F910F91FF90EF9064
:10153000DF90CF90BF90AF909F908F907F906F90F3
:101540005F904F900895EF920F9383ED95E20E9484
:101550004D2962EB72E083ED95E20E949D2768942D
:10156000EE24E1F80EE32EE741E061E083ED95E241
:101570000E94B52B28ED30E24AE065E083ED95E26C
:101580000E940A272BEE30E244E165E083ED95E20C
:101590000E940A2725EF30E242E365E083ED95E201
:1015A0000E940A2783ED95E20E9453298111D1CF31
:1015B0000F91EF900895E0EEF6E08085992787FD82
:1015C000909580959095892F881F8827881F90E097
:1015D0000895CF92DF92EF92FF92CF93DF93EB01CA
:1015E000865A9F4FBC0180E090E00E94592F22E76D
:1015F0003AE84EE85CE30E9448300E94252F6B01D8
:101600007C01BE0180E090E00E94592FA701960165
:101610000E9448300E94282F20E230E0C901861B3A
:10162000970BDF91CF91FF90EF90DF90CF900895CF
:10163000CF92DF92EF92FF92CF93DF93EB01845A28
:101640009F4FBC0180E090E00E94592F22E73AE8CA
:101650004EE85CE30E9448300E94AB306B017C0195
:10166000BE0180E090E00E94592FA70196010E94E0
:1016700048300E94282F20E230E0C901861B970BDA
:10168000DF91CF91FF90EF90DF90CF900895CF92B0
:10169000DF92EF92FF920F931F93CF93DF9300D0CF
:1016A00000D0CDB7DEB7D82E192F7B016130710580
:1016B000D1F10FE02BE14EE16EE183ED95E20E9466
:1016C000552268E170E08D2D912F0E94E90AC82E05
:1016D00068E170E08D2D912F0E94180B00E220E24E
:1016E000482F6C2D83ED95E20E94B127EF28C1F5BC
:1016F0001F93DF9282E091E29F938F938E010F5FA1
:101700001F4F1F930F930E949438980141E061E0AE
:1017100083ED95E20E940A270F900F900F900F9093
:101720000F900F901DC00FE02DE04EE16EE183EDB4
:1017300095E20E9455226AE070E08D2D912F0E9463
:10174000E90AF82E6AE070E08D2D912F0E94180BA7
:1017500000E220E2482F6F2D83ED95E20E94B12731
:101760002496CDBFDEBFDF91CF911F910F91FF90E7
:10177000EF90DF90CF90089598E090938506909336
:10178000810684E080938606809382061092A70AE1
:101790004FEC4093A60A33E03093A50A28E120934A
:1017A000A40AE3EAFAE05081506150839093A506C1
:1017B0009093A1068093A6068093A2061092A70B91
:1017C0004093A60B3093A50B2093A40BE3EAFBE018
:1017D000808180618083089598E09093450690937E
:1017E000410684E080934606809342064091742629
:1017F0004093A708E2E7F6E220812093A60833E0B1
:101800003093A50828E12093A408A3EAB8E05C91EE
:1018100050635C939093650690936106809366068F
:10182000809362064093A70980818093A609309334
:10183000A5092093A409E3EAF9E08081806380830D
:1018400008957F928F929F92AF92BF92CF92DF9234
:10185000EF92FF920F931F93CF93DF93CFEFC0933D
:101860009F26C093A0260E94B208E0E2F7E0C18361
:10187000E0E0F7E0C18380EBE0E8F6E08183E0EEB2
:10188000F6E084E0828388E1828B98E09283838B08
:1018900090E19283848B20E22283858BA0E0B6E0E6
:1018A00055969C935597108289E1808B818B878B0D
:1018B00081E0828782E083879AE09093E90690E84E
:1018C0001A969C9380930906E0E6F6E086839AE1F7
:1018D000918B828780936906148687E0E0EAF0E0C6
:1018E0008283789462E083E00E948724782E63E00C
:1018F00083E00E948724982E64E083E00E9487247E
:10190000B82E61E083E00E948724D82E60E083E057
:101910000E948724F82E65E083E00E948724182F18
:1019200066E083E00E948724D82F66E082E00E9470
:101930008724882E65E082E00E948724A82E64E038
:1019400082E00E948724C82E63E082E00E94872400
:10195000E82E62E082E00E948724082F61E082E0A6
:101960000E948724C82F60E082E00E9487247F9233
:101970009F92BF92DF92FF921F93DF932C2F482FED
:1019800064E170E283ED95E20E940F2986E090E227
:1019900080935127909352278093532790935427F5
:1019A0000E944A060E942C2C0E94EC0B0E94BC0B49
:1019B0008DB79EB707968DBF9EBFDF91CF911F91C8
:1019C0000F91FF90EF90DF90CF90BF90AF909F90DE
:1019D0008F907F900895E1EAF9E0908195FFFDCF27
:1019E0008093A0090895E1EAFBE0908195FFFDCF87
:1019F0008093A00B0895CF93DF93EC018881882317
:101A000031F021960E94F30C89918111FBCFDF9177
:101A1000CF9108950F931F93CF93DF93CDB7DEB788
:101A20002F97CDBFDEBF8C01FC018081813409F08E
:101A30007DC081818A3509F079C084818E32E9F1D7
:101A400062818381248170E06053710994E6969FDE
:101A5000A001979F500D112490E0C097BC01660F24
:101A6000771F880F991F880F991F880F991F860F5E
:101A7000971F840F951F30E020533109820F931F69
:101A800080937822909379228285238590E0C09775
:101A9000AC01440F551F880F991F880F991F880F9D
:101AA000991F840F951F30E020533109820F931F37
:101AB000809376229093772231C0F801828123812E
:101AC00090E0C097AC01440F551F880F991F880FF5
:101AD000991F880F991F840F951F30E020533109FB
:101AE000820F931F8093782290937922818522859B
:101AF00090E0C097AC01440F551F880F991F880FC5
:101B0000991F880F991F840F951F30E020533109CA
:101B1000820F931F80937622909377228091782270
:101B20009091792280937E2290937F22F801808188
:101B3000873509F042C061812281438170E06053A2
:101B4000710934E6369FC001379F900D112430E0B3
:101B500020533109B901660F771F220F331F220F5F
:101B6000331F220F331F260F371F820F931F50E0A2
:101B700040535109840F951F8093782290937922C6
:101B80002681478130E020533109B901660F771F64
:101B9000220F331F220F331F220F331F260F371F31
:101BA00050E040535109240F351F20937622309383
:101BB000772280937E2290937F22F8018081833464
:101BC000B9F581818233A1F58091802290918122A3
:101BD00084369105ACF4209177222F9320917622C0
:101BE0002F939F938F9383E291E29F938F93CE01E4
:101BF00001969F938F930E949438CDBFDEBF14C08F
:101C0000209177222F93209176222F939F938F9369
:101C100082E391E29F938F93CE0101969F938F93DE
:101C20000E949438CDBFDEBFCE0101960E94FB0C0E
:101C3000F8018081833499F58181823381F180912B
:101C4000802290918122843691059CF49F938F93FA
:101C500080E491E29F938F93CE0101969F938F939F
:101C60000E9494380F900F900F900F900F900F904C
:101C700012C09F938F9388E491E29F938F93CE013C
:101C800001969F938F930E9494380F900F900F901E
:101C90000F900F900F90CE0101960E94FB0CF8015F
:101CA00080818234D1F4809177228F938091762243
:101CB0008F938AE291E29F938F938E010F5F1F4F64
:101CC0001F930F930E949438C8010E94FB0C0F9041
:101CD0000F900F900F900F900F902F96CDBFDEBFFB
:101CE000DF91CF911F910F910895CF92DF92EF92E4
:101CF000FF9280918A2690918B268630910509F477
:101D000074C08CF482309105E1F12CF4009709F154
:101D1000019751F1ABC08330910509F43FC004979E
:101D200009F449C0A3C08C30910509F492C044F471
:101D30008830910509F466C00A9709F47DC096C001
:101D40008238910509F444C08838910509F467C0C8
:101D50008DC08FE491E280938C2690938D26109213
:101D600080261092812688C083E591E280938C269C
:101D700090938D2681E090E0809380269093812639
:101D80007BC087E591E280938C2690938D2682E03C
:101D900090E080938026909381266EC08AE591E240
:101DA00080938C2690938D2683E090E0809380260C
:101DB0009093812661C08FE591E280938C26909369
:101DC0008D2684E090E0809380269093812654C0F5
:101DD00082E691E280938C2690938D2685E090E0B8
:101DE000809380269093812647C087E691E2809376
:101DF0008C2690938D2686E090E0809380269093A9
:101E000081263AC087E090E08093802690938126D7
:101E10008CE691E280938C2690938D262DC088E0ED
:101E200090E080938026909381268BE691E28093C8
:101E30008C2690938D2620C089E090E080938026A8
:101E4000909381268FE691E280938C2690938D2645
:101E500013C08AE090E0809380269093812683E7E8
:101E600091E280938C2690938D2606C085EA90E2BD
:101E700080938C2690938D262091862630918726FC
:101E8000409188265091892660E873EC89EC91E0B6
:101E90000E94ED34CA01B9010E945B2F6B017C01E5
:101EA00020E030E040E85FEB0E94443018166CF50B
:101EB00020E030E048E454E4C701B6010E94212F3D
:101EC00088231CF520E030E040E85FE3C701B6015D
:101ED0000E94212F88235CF410927A2610927B2690
:101EE00086E490E080937826909379260EC081E076
:101EF00090E080937A2690937B26C701B6010E94DA
:101F0000282F609378267093792680E090E0FF90E8
:101F1000EF90DF90CF9008953F924F925F926F9233
:101F20007F928F929F92AF92BF92CF92DF92EF9269
:101F3000FF920F931F93CF93DF93CDB7DEB7CA5AAB
:101F4000D109CDBFDEBF83ED95E20E944D29DE01B0
:101F500011968CE8FD0111928A95E9F786E0E2E29C
:101F6000F0E201900D928A95E1F72EE0FE0137969E
:101F7000DF01322F1D923A95E9F786E0E6E3F0E2C1
:101F8000DE01559601900D928A95E1F7FE017B9650
:101F9000DF01322F1D923A95E9F785E0EAE4F0E29D
:101FA000DE01999601900D928A95E1F7FE01BE96A9
:101FB0008FE0DF011D928A95E9F783E491E4AEE4B6
:101FC000B0E021968CAF9DAFAEAFBFAF21977396B7
:101FD00080E1DF011D928A95E9F786E0EEE5F0E207
:101FE000DE01AF5ABF4F01900D928A95E1F7E1E50E
:101FF000F0E0EC0FFD1F3696DF011D922A95E9F700
:102000000F2EFBEE8F2EF5E29F2EF02D0F2EFCEE05
:102010004F2EF5E25F2EF02D3E01B5E96B0E711CDF
:102020005E01EDE8AE0EB11C93012A5F3F4FC15631
:10203000DF4F28833983CF59D040C3010396CF5552
:10204000DF4F88839983C15AD040D3011596CD556F
:10205000DF4FA883B983C35AD040F3013296CB55E2
:10206000DF4FE883F983C55AD04022503109C95562
:10207000DF4F28833983C75AD0400297C755DF4FB7
:1020800088839983C95AD04062EB72E083ED95E270
:102090000E949D2700E42AE340E066E483ED95E298
:1020A0000E944A2B83ED95E20E948C2783ED95E2F6
:1020B0000E9497270E94750ED4019C91F2018081A5
:1020C000392E381A9E012F5F3F4F690110E0E12C35
:1020D000F12C83ED95E20E948A2980917A229091D9
:1020E0007B228E159F0579F4389E402D11244F5F79
:1020F0000BE029E367E483ED95E20E94982B83EDE2
:1021000095E20E949B299601412F68E483ED95E2B8
:102110000E940A2780917A2290917B22049721F4D1
:1021200083ED95E20E948A293FEFE31AF30A165FD6
:1021300084E1C80ED11C123361F680917A2290910D
:102140007B22009709F046C060E070E08091802219
:10215000909181220E94470B80917A2690917B2654
:102160000197E1F4E8E7F6E281818F9380818F9314
:1021700087E791E29F938F93BF92AF920E9494382A
:10218000950144E362E083ED95E20E940A270F90F7
:102190000F900F900F900F900F9026C1E8E7F6E296
:1021A00081818F9380818F938BE791E29F938F93AF
:1021B000BF92AF920E949438950144E362E083EDB0
:1021C00095E20E940A270F900F900F900F900F90AA
:1021D0000F900AC1019709F007C162EB72E083ED2D
:1021E00095E20E949D27809189268F938091882671
:1021F0008F93809187268F93A6E8B6E28C918F9378
:10220000A0E8B1E2BF93AF937F926F920E9494389F
:102210008091782690917926CDBFDEBF8F319105D0
:1022200064F120917A2630917B262130310529F501
:10223000C855DF4F3881C85AD0403F93C955DF4F4A
:102240008881C75AD0408F93C655DF4F9881CA5AAC
:10225000D0409F93C755DF4FA881C95AD040AF9354
:102260007F926F9284E891E29F938F93BF92AF9297
:102270000E949438CDBFDEBF51C004975CF18091BD
:102280007A2690917B26019729F5CC55DF4FF8816E
:10229000C45AD040FF93CD55DF4F2881C35AD04058
:1022A0002F93CA55DF4F3881C65AD0403F93CB5544
:1022B000DF4F8881C55AD0408F937F926F9283E918
:1022C00091E29F938F93BF92AF920E949438CDBFBB
:1022D000DEBF24C0C056DF4FB881C05AD040BF9384
:1022E000C156DF4FE881CF59D040EF93CE55DF4F35
:1022F000F881C25AD040FF93CF55DF4F2881C15A91
:10230000D0402F937F926F9282EA91E29F938F93B6
:10231000BF92AF920E949438CDBFDEBF21EB31E275
:1023200042E062E083ED95E20E940A2795014CE0CD
:1023300062E083ED95E20E940A272CEB31E246E150
:1023400062E083ED95E20E940A2780917A269091BF
:102350007B260197E1F4E8E7F6E281818F938081A3
:102360008F9387E791E29F938F93BF92AF920E94E2
:102370009438950146E168E283ED95E20E940A27D0
:102380000F900F900F900F900F900F901BC0E8E7E9
:10239000F6E281818F9380818F938BE791E29F9307
:1023A0008F93BF92AF920E949438950146E168E204
:1023B00083ED95E20E940A270F900F900F900F90E7
:1023C0000F900F9022EC31E240E262E083ED95E263
:1023D0000E940A2720918C2630918D2640E268E2E7
:1023E00083ED95E20E940A2783ED95E20E9453292E
:1023F00081114ACEC655DF4FCDBFDEBFDF91CF91F1
:102400001F910F91FF90EF90DF90CF90BF90AF9012
:102410009F908F907F906F905F904F903F90089526
:10242000CF93DF93CDB7DEB72A97CDBFDEBF109233
:102430007C2610927D2610927426109275268EECC2
:1024400090E0809372269093732688EC91E28093BB
:1024500076269093772682E090E080938226909370
:10246000832685ED91E20E94673880E8E0E2F7E09C
:10247000858386EE91E20E9467380E94210C80EEEF
:1024800091E20E94673883EF91E20E9467380E94D0
:10249000AB1D0E9462210E94A30A80EE91E20E947D
:1024A00067382FEF83ED90E3215080409040E1F7B3
:1024B00000C0000084E092E20E9467387894EFEF59
:1024C000F3ED20E3E150F0402040E1F700C00000D0
:1024D0008BE192E20E94673880E8E0E2F7E08683D1
:1024E0000E94EC0B812C912C00E010E00F2EFEE7F7
:1024F000EF2EF6E2FF2EF02D0F2EF2E86F2EF6E211
:102500007F2EF02D6894CC24C1F8D12C0F2EF0E74B
:102510004F2EF6E25F2EF02D0F2EFAEFAF2EB12CDC
:10252000F02D0F2EFCE62F2EF6E23F2EF02DCE01E1
:1025300001960E94B506F70180819181019721F0F3
:102540000E94DB0A019739F5F301C082D18201159F
:10255000110529F4C6010E94590901E010E08C819F
:10256000873099F48D8190E0982F88272E81822BD7
:10257000F101808391838F8190E0982F88272885AF
:10258000822BEEE6F6E280839183F201A082B18293
:102590000E949F09CCCF0130110529F4C6010E9489
:1025A000760900E010E00E948208019781F40E9401
:1025B0008C0FFBE08F16910434F00E94CC080E942F
:1025C000EF08812C912C2FEF821A920AB0CF0E9433
:1025D0002C09ADCF1F920F920FB60F92112408B69F
:1025E0000F9218BE09B60F9219BE0BB60F921BBE02
:1025F0002F933F934F935F936F937F938F939F930B
:10260000AF93BF93EF93FF938091742290917522C3
:102610002091A00BFC01EE5DF94D208320812D302F
:1026200049F4109274221092752282E296E20E947E
:102630000A0D05C001968093742290937522FF9134
:10264000EF91BF91AF919F918F917F916F915F912A
:102650004F913F912F910F900BBE0F9009BE0F909D
:1026600008BE0F900FBE0F901F9018951F920F92EB
:102670000FB60F92112408B60F9218BE0BB60F9228
:102680001BBE8F939F93EF93FF93E0EEF6E0808560
:1026900081FD0AC080917A2290917B2201978093DC
:1026A0007A2290937B2209C080917A2290917B229A
:1026B000019680937A2290937B228FE193E0019799
:1026C000F1F700C00000FF91EF919F918F910F9063
:1026D0000BBE0F9008BE0F900FBE0F901F90189565
:1026E0001F920F920FB60F92112408B60F9218BEC8
:1026F0000F9008BE0F900FBE0F901F9018951F925D
:102700000F920FB60F92112408B60F9218BE8F9336
:102710009F9381E090E080937C2290937D229F9113
:102720008F910F9008BE0F900FBE0F901F901895BD
:102730001F920F920FB60F92112408B60F9218BE77
:102740000BB60F921BBE8F939F93EF93FF93E0E026
:10275000F6E0808588233CF081E090E080937E263F
:1027600090937F2604C010927E2610927F26FF91C0
:10277000EF919F918F910F900BBE0F9008BE0F901D
:102780000FBE0F901F901895E0E6F6E080EB818376
:1027900080E1858383E58093C0090895E0ECF9E04A
:1027A000838382818823ECF78AE68A95F1F700C05B
:1027B00008958FEF0E94CE13E0ECF9E08381089535
:1027C0008F929F92AF92BF92CF92DF92EF92FF9241
:1027D0000F931F93CF93DF9300D000D0CDB7DEB718
:1027E000FC01009709F484C0423051056105710570
:1027F00008F483C0A081B18118968C9118978B3012
:1028000009F040C04A015B01242F392D4A2D5B2D70
:1028100060E070E080E090E002E00E948535A284F4
:10282000B384C484D584E684F784008911890E9426
:10283000BC35ED91FC916894EE24E2F8F12C8E0108
:102840000F5F1F4F09958823C1F049815A816B8121
:102850007C81411551056105710579F0DB01CA01E3
:10286000805F9F4FAF4FBF404097A105B10528F053
:10287000342F252F862F972F44C030E020E080E0B2
:1028800090E03FC04A015B01242F392D4A2D5B2D7A
:1028900060E070E080E090E001E00E948535A28475
:1028A000B384C484D584E684F784008911890E94A6
:1028B000BC35ED91FC916894EE24E1F8F12C8E0189
:1028C0000F5F1F4F0995882371F089819A81AC01B0
:1028D00060E070E001978F3E9F4F28F4342F252F42
:1028E000862F972F0EC030E020E080E090E009C0F6
:1028F00030E020E080E090E004C030E020E080E0C4
:1029000090E0632F722F2496CDBFDEBFDF91CF9171
:102910001F910F91FF90EF90DF90CF90BF90AF90FD
:102920009F908F9008952F923F924F925F926F9257
:102930007F928F929F92AF92BF92CF92DF92EF924F
:10294000FF920F931F93CF93DF93EC01009751F108
:10295000423051056105710570F14250510961091C
:1029600071091A012B01088D198DA02EB12EC12CD1
:10297000D12CE12CF12C00E010E0222D332D442D40
:10298000552D60E070E080E090E00E942C35AA8C2C
:10299000BB8CCC8CDD8CEE8CFF8C08A119A10E9425
:1029A000BC3511C020E030E040E050E060E070E075
:1029B00080E090E008C020E030E040E050E060E0DF
:1029C00070E080E090E0DF91CF911F910F91FF9038
:1029D000EF90DF90CF90BF90AF909F908F907F90BF
:1029E0006F905F904F903F902F900895FC018191E0
:1029F0009AE080FB879587F92191820F9150C9F762
:102A000008952F923F924F925F926F927F928F9292
:102A10009F92AF92BF92CF92DF92EF92FF920F936D
:102A20001F93CF93DF93CDB7DEB72D97CDBFDEBF1A
:102A30006C01422E532E642E752E362E272ED70172
:102A4000AD90BC90119712968D919C9113978096A2
:102A500012968D939C931397F6018081853E11F019
:102A6000811105C0D70114961C9281E034C1450143
:102A7000F60183858F3009F055C0D70114968C91EB
:102A8000882319F09585891711F181E3F5011192D9
:102A90008A95E9F7D6011D968C91F7018483D501BB
:102AA00099960C9399979A961C939A979B964C9209
:102AB0009B979C965C929C979D966C929D979E96F8
:102AC0007C929E979F963C929F97D0962C92F6016F
:102AD00020812F7330E0215031094DE0429FC00129
:102AE000439F900D11242DE0E2E7F0E2DE01119604
:102AF00001900D922A95E1F78F31910508F4D3C02A
:102B00000FC08191B601680F711DDB018C91D50159
:102B10008D935D01E417F50719F0E217F30789F7C4
:102B200081E0D9C0F5018081882349F0C6010E9467
:102B3000F614D70114969C91981709F485C081E387
:102B4000F50111928A95E9F7D50199960C93999719
:102B50009A961C939A979B964C929B979C965C9204
:102B60009C979D966C929D979E967C929E979F9621
:102B70003C929F97D0962C92F6016081603239F199
:102B80003196960181E090E0A0E0B0E009C09F019D
:102B90006191AC014F5F5F4F6032D1F0DC01CA013F
:102BA0008D01080D191DD8016C93D6011C964C910E
:102BB00043FF08C0D9012C9121542A3118F4605EDA
:102BC000D8016C93782F8830910509F701C070E027
:102BD000F5018081853011F485EE8083D601189649
:102BE0008C911897803259F121E0270F8EE2F50180
:102BF000E70FF11D8083C601089618963C9130328C
:102C0000F9F0F60139967C5F04C0CF013191303282
:102C1000B9F08401020F111DD8013C93D6011C9616
:102C20004C9144FF08C0DC018C9181548A3118F426
:102C3000305ED8013C932F5F2713E7CF01C0272FC9
:102C4000F501E20FF11D1082F6018385D501909602
:102C50008C93828D938DA0E0B0E0F50181A392A3C7
:102C6000A3A3B4A3F6014489558960E070E0BA01DA
:102C700055274427842B952BA62BB72BF50181A331
:102C800092A3A3A3B4A3F601848D958DA68DB78DD1
:102C9000F50185A396A3A7A3B0A781E0D701159658
:102CA0008C9380E018C02981F601E20FF11D20818C
:102CB000F501E80FF91F2083FE013296DC01119621
:102CC000AA0EBB1E9E01205E3F4F281B390BAE0192
:102CD000425F5F4F22CF2D96CDBFDEBFDF91CF91F8
:102CE0001F910F91FF90EF90DF90CF90BF90AF902A
:102CF0009F908F907F906F905F904F903F902F901C
:102D000008952F923F924F925F926F927F928F928F
:102D10009F92AF92BF92CF92DF92EF92FF920F936A
:102D20001F93CF93DF93CDB7DEB7CD54D109CDBF7D
:102D3000DEBF1C01009709F425C2DC0114968D91B9
:102D40009C911597892B09F420C216968D919C9120
:102D50001797892B09F41CC28091F4229091F522D7
:102D6000892B09F418C280E090E050C2E981FA8111
:102D7000ECABFDABEC80FD80EEAAFFAAFB802796B2
:102D8000FFAE27970E8128960FAF28972F813885A1
:102D90002A962EAF3FAF2A9789859A854C855D8507
:102DA00026964EAF5FAF2697CE88DF88E88CF98CE9
:102DB0000A8D1B8D2C8D3D8D24960CAF1DAF2EAF33
:102DC0003FAF24972AA13BA14CA15DA12E962CAF29
:102DD0003DAF4EAF5FAF2E97C114D104E104F104B3
:102DE00031F4009709F409C26C01E12CF12C26960C
:102DF0004EAD5FAD26974115510551F0BA0180E007
:102E000090E024966CAF7DAF8EAF9FAF24970BC040
:102E100024960CAD1DAD2EAD3FAD2497012B022B9A
:102E2000032B09F4EAC128961FAD2897A12FB0E023
:102E300024962CAD3DAD4EAD5FAD24970E9421355B
:102E4000260137012EA93FA9421A530A61087108C9
:102E5000461A570A680A790A2A968EAD9FAD2A97B4
:102E6000880F991F82959295907F9827807F982749
:102E70002CA93DA921503109820F931F6CA97DA96E
:102E80000E94A33493018201061B170B210931090B
:102E9000C901B80127964FAD2797042F10E020E015
:102EA00030E0A90198010E94CB3429013A0155EF85
:102EB00045165FE055066104710408F49EC165EF94
:102EC00046166FEF56066104710428F486E0D101BE
:102ED00018968C9303C08BE0F10180878CE2A6EFFB
:102EE000B2E21D928A95E9F72CA93DA9890120E05B
:102EF00030E040E050E0BA010EA31FA328A739A795
:102F00004AA75BA76CA77DA7B701A60180E090E068
:102F1000DC01C8AE59AF6AAF7BAF8CAF9DAFAEAF2F
:102F2000BFAFA02EB12EC12CD12CE12CF12C00E092
:102F300010E0242F352F462F572F60E070E080E0FF
:102F400090E00E942C35A6EFB2E22C933093F7224A
:102F50004093F8225093F9226093FA227093FB2257
:102F60008093FC229093FD22EEA9FFA9AF012E2FA2
:102F7000352F40E050E060E070E080E090E00E949B
:102F80002C35A92CB82CCEA4DFA4E8A8F9A80AA94E
:102F90001BA90E94BC352EA73FA748AB59AB6AAB13
:102FA0007BAB8EAB98AFEEEFF2E2208331834283AE
:102FB00053836483758386839783C301B2016E5FF5
:102FC0007F4F8F4F9F4FD10118962C91263029F4B7
:102FD00022E030E040E050E004C024E030E040E097
:102FE00050E00E94933460930623709307238093EC
:102FF000082390930923ECA9FDA9E0930A23F093F9
:103000000B232796EFAC2797EE9EC001EF9E900D05
:10301000112480930C2390930D23D10118968C9149
:10302000863009F066C0AEA0BFA0C12CD12CE12C27
:10303000F12C00E010E028962FAD289730E040E01A
:1030400050E060E070E080E090E00E942C35269631
:10305000EEADFFAD26971F01AE2EB32C0E942C358E
:10306000AEA4BFA4C8A8D9A8EAA8FBA80EA918AD09
:103070000E94BC35422E532E642E752EB62FA72FDC
:10308000282E392EE6E1F3E22083318342835383F5
:1030900064837583868397832A960EAD1FAD2A9726
:1030A0004801202F392D40E050E060E070E080E0E2
:1030B00090E005E00E948535A22EB32EC42ED52EB9
:1030C000E62EF72E082F192F242D352D462D572D9E
:1030D0006B2F7A2F822D932D0E94BC35EEE0F3E208
:1030E00020833183428353836483758386839783EC
:1030F0008BC0AEA0BFA0C12CD12CE12CF12C00E0E4
:1031000010E028962FAD289730E040E050E060E0D6
:1031100070E080E090E00E942C352496ECACFDAC91
:103120000EAD1FAD249717012801AE2CB32CC42C73
:10313000D52CE12CF12C00E010E00E942C35AEA43F
:10314000BFA4C8A8D9A8EAA8FBA80EA918AD0E94D8
:10315000BC35EEE0F3E22083318342835383648302
:103160007583868397832E960CAD1DAD2EAD3FAD36
:103170002E9700931E2310931F2320932023309318
:10318000212342C080E090E041C080E090E03EC05A
:1031900080E090E03BC0E4EFF2E282E3DF011D92C9
:1031A0008A95E9F720823182F10181849284A38497
:1031B000B484282D392D4A2D5B2D60E070E080E02D
:1031C00090E009E00E948535922E832E4EA75FA7DE
:1031D00068AB79AB8AAB9BABABE00E94C535019085
:1031E000F081E02D0F2EF5E2EF2EF12CF02D8E0167
:1031F0000F5F1F4F09958111B9CD1092F4221092E3
:10320000F52280E090E002C084EF92E2C35BDF4FE2
:10321000CDBFDEBFDF91CF911F910F91FF90EF9057
:10322000DF90CF90BF90AF909F908F907F906F90E6
:103230005F904F903F902F900895CF93DF9300972A
:10324000B1F061157105B1F0FB0120A124FF15C09B
:103250002091822230918322232B91F02091BB2256
:103260003091BC22232B79F080E090E025C080E0F3
:1032700090E022C080E090E01FC080E090E01CC0A1
:10328000C2E8D2E202C0CBEBD2E2DE01129621E329
:10329000FB0101900D922A95E1F788839983FB0148
:1032A00081A192A1A3A1B4A18BAB9CABADABBEABF2
:1032B0001FAA18AE8C2F9D2FDF91CF9108950097F4
:1032C00019F0FC01108211820895FC01009761F051
:1032D00043A154A165A176A143AB54AB65AB76ABDA
:1032E00017AA10AE81E0089580E008952F923F92D2
:1032F0004F925F926F927F928F929F92AF92BF9206
:10330000CF92DF92EF92FF920F931F93CF93DF93B1
:10331000CDB7DEB7E897CDBFDEBF8DAB9EAB0097D4
:1033200009F4FBC06115710509F4F9C0DC010D90C9
:10333000BC91A02DAFABB8AF5896ED91FC915997C9
:10334000EFA7F8ABDC01D3964D905D906D907C902B
:10335000D697D7962D903C90D8972E163F0620F002
:103360000E94651980E0DEC0FE01319686E0DF0133
:103370001D928A95E9F781E3FB0111928A95E9F79D
:1033800069837A83411451046104710409F0A9C06E
:10339000AFA9B8ADED91FC91119780858B3039F4D0
:1033A0009A964D905D906D907C909D979AC0EFA9F4
:1033B000F8AD228D338D82A193A1A901481B590B31
:1033C0004FA758AB8EC06FA478A8621873089101FC
:1033D00040E050E060E070E0CB012FA238A749A7A1
:1033E0005AA76BA77CA78DA79EA749A95AA96BA925
:1033F0007CA9452B462B472B09F540E050E060E0C7
:1034000070E080E090E0D2019296AC909297939613
:10341000BC9093979496CC9094979596DC909597C2
:103420009696EC9096979796FC90979798960C9115
:10343000989799961C910E94BC3511C049A95AA928
:103440006BA97CA9C2010E949314AFA0B8A4C12C9F
:10345000D12CE12CF12C00E010E00E94BC351B8245
:103460001C82D201ED91FC910280F381E02DDE01FE
:1034700011964D010F2EF1E0AF2EF5E1BF2EF02D8C
:1034800063016894EE24E5F8F12C8E01095F1F4F6B
:103490000995882309F445C08B819C81280E391E2B
:1034A000EFA5F8A92E163F0610F149A85AA86BA857
:1034B0007CA8B301A2018FA998AD0E94E0132B0153
:1034C0003C01611571058105910549F48E818111D9
:1034D00016C08DA99EA90E94651980E023C0212CE9
:1034E000312C49AA5AAA6BAA7CAA4FA858AC8E8143
:1034F000882309F468CF49A85AA86BA87CA8ADA96D
:10350000BEA9D3964D925D926D927C92D697D79636
:103510002D923C92D8978E8105C080E003C080E058
:1035200001C080E0E896CDBFDEBFDF91CF911F9153
:103530000F91FF90EF90DF90CF90BF90AF909F9052
:103540008F907F906F905F904F903F902F90089555
:103550006F927F928F929F92AF92BF92CF92DF92A3
:10356000EF92FF920F931F93CF93DF935C016B0158
:10357000EA01009709F472C06115710509F470C081
:10358000FB018081882309F46DC0209709F46CC089
:103590008F3219F4FFEFCF1ADF0A81E3FE01119297
:1035A0008A95E9F780E188A3F6018081882309F4F0
:1035B0005DC0BE01C5010E941D198C01009709F470
:1035C00057C06FE270E0C6010E94FF37009741F0DC
:1035D000E82EEC184C01FFEF8F1A9F0AF12C2CC03B
:1035E000F60101900020E9F73197EC19FD09EE2E64
:1035F00046018E0E911CF2CFFE0101900020E9F7EA
:1036000031973F016C1A7D0A6E147F04A9F4A3015F
:10361000BE01C6010E940A38892B71F4C8010E94BC
:103620005F19F601E60DF71D8081882319F188A145
:1036300084FD09C080E021C0BE01C8010E94761946
:103640008111DACF03C0640100E010E0C8010E94DC
:103650005F19F60180818111ACCF0EC080E00DC0F2
:1036600080E00BC080E009C080E007C081E005C0B9
:1036700080E003C081E001C081E0DF91CF911F9124
:103680000F91FF90EF90DF90CF90BF90AF909F9001
:103690008F907F906F9008955F926F927F928F923C
:1036A0009F92AF92BF92CF92DF92EF92FF920F93D1
:1036B0001F93CF93DF93CDB7DEB76097CDBFDEBF4B
:1036C0006C015B013A014901502E009709F453C087
:1036D0006115710509F452C083E080170CF451C0E4
:1036E0000023F4F090E10902F0011124E254FE4FAE
:1036F0009F2F990F990B6894EE24E4F8F12C8E011A
:103700000F5F1F4F2E2F3F2F492F592F692F792FD2
:10371000892FF60109958823B9F18D818823B9F1A4
:1037200080912E238823B1F180E090E04CC08D8100
:1037300080932E2389859A85AB85BC8580932F2322
:1037400090933023A0933123B09332238D859E85AF
:10375000AF85B8898093332390933423A093352386
:10376000B093362386E293E22EC08FEF80932E2310
:1037700086E293E228C080E090E025C080E090E0FF
:1037800022C080E090E01FC080E090E01CC080E09C
:1037900090E019C0E6E2F3E281E1DF011D928A9533
:1037A000E9F7C082D182A0922823B09229236092A7
:1037B0002A2370922B2380922C2390922D23552024
:1037C0000CF0B5CFD2CF6096CDBFDEBFDF91CF91E9
:1037D0001F910F91FF90EF90DF90CF90BF90AF902F
:1037E0009F908F907F906F905F900895E0ECFAE04B
:1037F000838382818823ECF708958FEFE0ECFAE071
:10380000838382818823ECF7E0ECFAE083810895DA
:10381000FF920F931F93CF93DF93C82FD42F152FB1
:10382000062FF72E0E94FD1B8C2F80640E94F61B32
:103830008F2D0E94F61B802F0E94F61B812F0E9465
:10384000F61B8D2F0E94F61BCC2319F0C83029F0EF
:1038500008C085E90E94F61B0FC087E80E94F61B8E
:103860000BC08FEF0E94F61B07C00E94FD1B8F3F0D
:1038700029F4C150D1F702C0CAE0F7CFDF91CF9150
:103880001F910F91FF900895EF92FF920F931F9356
:103890008091382381111EC02091392330913A2321
:1038A00040913B2350913C2360913D2370913E23F6
:1038B000E12C6894FF24F1F801E413E280913F23A6
:1038C000909140230E945B1F882331F081E0809318
:1038D000382303C081E001C080E01F910F91FF9069
:1038E000EF9008952F923F924F925F926F927F9246
:1038F0008F929F92AF92BF92CF92DF92EF92FF9200
:103900000F931F93CF93DF93CDB7DEB76897CDBFEB
:10391000DEBF29833A834B835C836D837E838F83F1
:1039200098871701E114F10409F4FAC00F2EF1E4AD
:103930008F2EF5E29F2EF02D0F8B188F69807A80E5
:1039400021E07222930140E050E060E070E0CB01A2
:1039500069863A874B875C876D877E878F87988BD0
:1039600029813A814B815C816D817E818F8198852F
:10397000A984BA84C12CD12CE12CF12C00E010E0F8
:103980000E94D135522E432E498B5A8B6B8B7C8BE8
:103990008D8B9E8B40E052E04619570949875A8724
:1039A0002416350610F429863A86A0903923B09063
:1039B0003A23C0903B23D0903C23E0903D23F090ED
:1039C0003E2300913F2310914023252D342D49891A
:1039D0005A896B897C898D899E890E94DA3509F420
:1039E0006AC00E94441C882309F49CC050E1509393
:1039F00086068091372382FF10C0252D342D4989FA
:103A00005A896B897C898D899E8909E00E94A0353D
:103A1000642F752F422F532F04C0452D542D6989D3
:103A20007A8981E10E94081C882331F080E1E0E876
:103A3000F6E0858380E079C00E94FD1B8E3FE1F7B0
:103A400001E413E20E94FD1BF80181938F01E81548
:103A5000F905C1F75092392340923A23F989F0933E
:103A60003B232A8920933C233B8930933D234C8977
:103A700040933E235D8950933F236E89609340239A
:103A8000B3016F5B7C4D49855A858F89988D0E9463
:103A9000F6378F89988DE985FA858E0F9F1F8F8B5A
:103AA000988F0E94FD1B0E94FD1BF0E1F09385069C
:103AB0000E94FD1B11C0B3016F5B7C4D49855A8587
:103AC0008F89988D0E94F6372F89388D49855A85C0
:103AD000240F351F2F8B388F69857A85261A370A70
:103AE0005B01262F3B2D40E050E060E070E080E07D
:103AF00090E0A980BA80CB80DC80ED80FE800F81D1
:103B000018850E94BC3529833A834B835C836D837F
:103B10007E838F8398872114310409F00FCF04C06E
:103B200081E003C080E001C081E06896CDBFDEBFC8
:103B3000DF91CF911F910F91FF90EF90DF90CF9089
:103B4000BF90AF909F908F907F906F905F904F90BD
:103B50003F902F9008959F92AF92BF92CF92DF92A5
:103B6000EF92FF920F931F93CF93DF93E0E8F6E07D
:103B700080E2818380E8818380E1818390E4928385
:103B8000858381E58093C00A109237231AE00E9452
:103B9000FD1B1150E1F780E1E0E8F6E08683C0E02C
:103BA000D2E040E050E0BA0180E00E94081C813081
:103BB00049F021972097A9F780E1E0E8F6E08583B6
:103BC000012FC2C04AEA51E060E070E088E00E9444
:103BD000081C082F047082FD19C00E94FD1B0E9462
:103BE000FD1B0E94FD1B80FFAFC00E94FD1B8A3A97
:103BF00009F0AAC082E080933723C0E0D0E8912C7E
:103C0000A12CB12C6894CC24C6F812C040E050E03E
:103C1000BA0187E30E94081C40E050E0BA0189E243
:103C20000E94081C82FDE9CF81E080933723E5CF15
:103C300080913723982F9370C9F081FD05C0D12C56
:103C4000E12CF12C00E004C0D92CEA2CFB2C0C2D2B
:103C500040E050E0BA0187E30E94081C4D2D5E2D24
:103C60006F2D702F89E20E94081C06C040E050E0D2
:103C7000BA0181E00E94081C082F017080FF09C072
:103C800021972097A9F680E1E0E8F6E08583012FEF
:103C90005BC0C0913723C1FF1AC040E050E0BA01B9
:103CA0008AE30E94081C882329F080E1E0E8F6E01E
:103CB00085834AC00E94FD1B86FF03C0C460C09379
:103CC00037230E94FD1B0E94FD1B0E94FD1B40E04C
:103CD00052E060E070E080E10E94081C882329F037
:103CE00080E1E0E8F6E085832FC080E1E0E8F6E0DF
:103CF000858380ED8093C0098FEF80933923809373
:103D00003A2380933B2380933C2380933D238093ED
:103D10003E2380933F238093402381E08093382388
:103D2000E12C6894FF24F1F801E413E220E030E094
:103D300040E050E060E070E080E090E00E94721CA3
:103D400001E0811101C000E0802FDF91CF911F9130
:103D50000F91FF90EF90DF90CF90BF90AF909F902A
:103D600008952F923F924F925F926F927F928F921F
:103D70009F92AF92BF92CF92DF92EF92FF920F93FA
:103D80001F93CF93DF93CDB7DEB76297CDBFDEBF72
:103D90002F87388B498B5A8B562E472E382E292E3B
:103DA00009831A833601AB86BC86012B09F460C0F7
:103DB000E114F10409F45EC0CE14DF0408F45CC021
:103DC000AB2809F45BC0970140E050E060E070E090
:103DD000CB01EB823C834D835E836F837887898739
:103DE0009A878D869E864701DF84C888B988AA880D
:103DF000740109811A812D2D3C2D4B2D5A2D652DD5
:103E0000742D832D922D0E94721C8823C9F1ED849C
:103E1000FE840D2D1C2D2B2D3A2D452D542D632D5B
:103E2000722D89819A81EB85FC850995882351F152
:103E30002D2D3C2D4B2D5A2D652D742D832D922D1E
:103E4000AB80BC80C12CD12CE12CF12C00E010E027
:103E50000E94BC35D22EC32EB42EA52E562E472E30
:103E6000382E292E681879086814790408F60CC0D1
:103E700080E00BC080E009C080E007C080E005C0A2
:103E800080E003C081E001C081E06296CDBFDEBF6B
:103E9000DF91CF911F910F91FF90EF90DF90CF9026
:103EA000BF90AF909F908F907F906F905F904F905A
:103EB0003F902F9008952F923F924F925F926F9272
:103EC0007F928F929F92AF92BF92CF92DF92EF92AA
:103ED000FF920F931F93CF93DF93CDB7DEB7699710
:103EE000CDBFDEBF29833A834B835C836D837E83A2
:103EF0008F839887E114F10409F40FC10F2EF1E4C8
:103F00008F2EF5E29F2EF02D1701280129813A818D
:103F10003170288F398F40E050E060E070E0CB01D5
:103F200029873A874B875C876D877E878F87988B39
:103F300029813A814B815C816D817E818F81988559
:103F4000A984BA84C12CD12CE12CF12C00E010E022
:103F50000E94D1352987398B4A8B5B8B6C8B7D8B8B
:103F60008E8B9F8B612C6894772471F8688D798D86
:103F7000661A770A2614370408F43101A090392311
:103F8000B0903A23C0903B23D0903C23E0903D2357
:103F9000F0903E2300913F231091402329853989D9
:103FA0004A895B896C897D898E899F890E94DA356F
:103FB000C1F10E94441C882309F4B1C0888D998DF9
:103FC000892B21F4611492E0790698F4E12C68942D
:103FD000FF24F1F801E413E2298539894A895B89D4
:103FE0006C897D898E899F890E94721C882309F4BF
:103FF00098C0E985E0933923F989F0933A232A8917
:1040000020933B233B8930933C234C8940933D23B1
:104010005D8950933E236E8960933F237F8970931F
:10402000402381E4481683E2580671F0A301B201EF
:10403000888D998D8F5B9C4D0E94F63710923823A6
:104040002614370409F46FC090E19093860680919E
:10405000372382FF10C0298539894A895B896C8999
:104060007D898E899F8909E00E94A035642F752F74
:10407000422F532F04C0498559896A897B8988E179
:104080000E94081C882331F080E1E0E8F6E0858397
:1040900080E04CC08EEF0E94F61B01E413E2F801B1
:1040A00081918F010E94F61B08151905C1F78FEF4A
:1040B0000E94F61B8FEF0E94F61B0E94FD1B8F3F94
:1040C000E1F70E94FD1BF0E1F0938506460C571CBA
:1040D0005301262D3B2D40E050E060E070E080E091
:1040E00090E0A980BA80CB80DC80ED80FE800F81DB
:1040F00018850E94BC3529833A834B835C836D838A
:104100007E838F8398872618370821E020933823F1
:104110002114310409F0FACE08C081E007C080E024
:1041200005C080E003C081E001C081E06996CDBF99
:10413000DEBFDF91CF911F910F91FF90EF90DF9045
:10414000CF90BF90AF909F908F907F906F905F9037
:104150004F903F902F9008952F923F924F925F92F1
:104160006F927F928F929F92AF92BF92CF92DF9287
:10417000EF92FF920F931F93CF93DF93CDB7DEB7EC
:104180002997CDBFDEBF28873D83562E472E098352
:104190001A83CB82DC82AE82BF82012B09F446C037
:1041A000CD2809F445C04701A22EB32EC42ED52E2A
:1041B000782E692E170132C028853985821693061C
:1041C000C8F1E884F98409811A812A2D3B2D4C2DF0
:1041D0005D2D652D742D872D962D0E945B1F8823E4
:1041E00059F1E884F984A7012E2D352F40E050E0E5
:1041F00060E070E080E090E0E52CF42C072D162DB7
:104200000E94BC35A22EB32EC42ED52E562E472E7C
:10421000782E692E88859985881A990A2114310487
:1042200031F18114910471F481E036C080E034C032
:1042300080E032C080E030C080E02EC081E02CC041
:1042400081E02AC0EE80FF800A2D1B2D2C2D3D2DF4
:10425000452D542D672D762D89819A81EB81FC8126
:10426000099588879987892B09F0A6CFE7CFEE803B
:10427000FF800A2D1B2D2C2D3D2D452D542D672DF6
:10428000762D89819A81EB81FC81099588879987B0
:10429000892B09F096CFD4CF2996CDBFDEBFDF9111
:1042A000CF911F910F91FF90EF90DF90CF90BF9033
:1042B000AF909F908F907F906F905F904F903F90C6
:1042C0002F9008950F9380914125813009F454C0B7
:1042D0000E94AB1D811109C08AE292E29F938F93E5
:1042E0000E9455380F900F9047C081E08093412580
:1042F00000E02CEA30E24BE55FE161EB7EE182E732
:104300009CE10E944C1B80930E2790930F27892BD2
:1043100079F40FEF2CEA30E24BE55FE161EB7EE1EF
:1043200082E79CE10E944C1B80930E2790930F27FD
:1043300080910E2790910F270E9481168093A826C6
:104340009093A9264BED56E269E472E20E94A81A06
:104350006BED76E28091A8269091A9260E941D1906
:1043600080931027909311278BE492E29F938F9371
:104370000E9455380F900F900F910895DF92EF92A1
:10438000FF920F931F93CF93DF93EC01D62E142F40
:10439000F22EE0FE0DC0402F411B622F6D0D0E94DA
:1043A0006329402F4D19612F6F0DCE010E946329A3
:1043B000E1FE0EC0402F411B6F2D6D19CE010E94F2
:1043C0006329402F4D196F2D611BCE010E94632977
:1043D000E3FE0EC0402F410F6F2D6D0DCE010E94E8
:1043E0006329402F4D0D612F6F0DCE010E9463296F
:1043F000E2FE0EC0402F410F6F2D6D19CE010E94BD
:104400006329402F4D0D6F2D611BCE010E94632942
:10441000DF91CF911F910F91FF90EF90DF90089562
:104420008F929F92AF92BF92CF92DF92EF92FF92C4
:104430000F931F93CF93DF93EC01A62E942ED22ED1
:10444000802E11E0121BB22EB194BB0CE02E042F73
:10445000262F4D2D60E00E94BE21DD20C9F00F2ED9
:10446000F3E0CF2EF02DF12C112324F0DA94B39445
:10447000B3941B0DF3941C0DE82C092D2A2D4D2D02
:104480006F2DCE010E94BE21C394C394FD1460F32E
:10449000DF91CF911F910F91FF90EF90DF90CF9020
:1044A000BF90AF909F908F900895DF92EF92FF9210
:1044B0000F931F93CF93DF93EC01162FF42EE22E70
:1044C000D02E81E0820F282F220F481B681B022F5D
:1044D000CE010E947C22882339F00D2D2E2D4F2DE8
:1044E000612FCE010E941022DF91CF911F910F9179
:1044F000FF90EF90DF9008950F93FC010150040F9F
:1045000084A996A9941738F0081768F481E0041775
:1045100040F080E006C00817D0F081E0041708F0F2
:1045200080E08823C9F02150260F83A995A996170A
:1045300038F0281770F481E0261770F080E00CC086
:10454000281748F081E0261738F080E005C080E0A9
:1045500003C081E001C080E00F910895DB01149653
:10456000ED91FC91159720E030E061E00995089508
:10457000DB011496ED91FC91159720E030E063E0AB
:1045800009950895DB011496ED91FC91159720E0B3
:1045900030E040E064E009950895DB011496ED9168
:1045A000FC91159720E030E041E064E00995089522
:1045B000DB011496ED91FC91159720E030E062E06C
:1045C00009950895DB011496ED91FC91159720E073
:1045D00030E065E009950895DB011496ED91FC91BA
:1045E000159766E009950895AF92BF92CF92DF923A
:1045F000EF92FF921F93CF93DF937C015B01EA015F
:10460000D12CFE011491D1100BC01F3F09F44FC0F3
:10461000412FB501C7010E94E22281114EC04FC057
:104620001F3F51F44FEFB501C7010E94E2228823DA
:1046300009F447C0D12C41C01E3F09F444C0103FCB
:10464000C8F5103E40F0412F4F70B501C7010E94E0
:10465000D822D12C32C0103D40F0412F4F70B5010F
:10466000C7010E94B822D12C28C0103CC0F0B5016F
:10467000C7010E94C222C12ECC0CCC0CCC0CCC0C9D
:10468000C394C394D12CC6010E94EA24B501C7018A
:104690000E94CD22C6010E94EA24D12C0EC0112313
:1046A0005CF0812F90E00E94EA24D12C06C0DD242A
:1046B000D39403C0D12C01C0D12C2196A2CF80E08D
:1046C00003C080E001C081E0DF91CF911F91FF9096
:1046D000EF90DF90CF90BF90AF9008951F93CF934E
:1046E000DF93EC01162F462F417065E00E94E02415
:1046F0001695412F417066E0CE010E94E024169588
:10470000412F417067E0CE010E94E0241695412FB1
:10471000417068E0CE010E94E0241695412F41705F
:1047200069E0CE010E94E0241695412F41706AE0B5
:10473000CE010E94E0241695412F41706BE0CE011E
:104740000E94E024412F46956CE0CE010E94E024B7
:1047500041E064E0CE010E94E02440E064E0CE014C
:104760000E94E024DF91CF911F910895DF92EF9294
:10477000FF920F931F93CF93DF93EC01D42E790117
:10478000062F10E0F8013197E730F10508F09FC0DF
:10479000E650FF4F0C940C3541117EC098C041117A
:1047A00084C095C06DE00E94D72440E06DE0CE014A
:1047B0000E94E02465E0CE010E94D72466E0CE018D
:1047C0000E94D72467E0CE010E94D72468E0CE0182
:1047D0000E94D72469E0CE010E94D7246AE0CE016E
:1047E0000E94D7246BE0CE010E94D7246CE0CE015A
:1047F0000E94D72464E0CE010E94D72462E0CE015B
:104800000E94D72463E0CE010E94D72461E0CE014C
:104810000E94D72441E062E0CE010E94E02441E002
:1048200063E0CE010E94E02452C041110AC041E081
:1048300062E00E94E02441E063E0CE010E94E024B7
:1048400046C081E048130BC040E062E0CE010E9408
:10485000E02441E063E0CE010E94E02438C0E2E0C1
:104860004E130BC041E062E0CE010E94E02440E024
:1048700063E0CE010E94E0242AC040E062E0CE0165
:104880000E94E02440E063E0CE010E94E0241FC0CB
:10489000642F0E946E231BC0F70161917F01CE013E
:1048A0000E946E23DA94C1F712C0F7016491CE0121
:1048B0000E946E23FFEFEF1AFF0ADA94B1F707C0E8
:1048C00061E00E94E02403C060E00E94E02481E0F7
:1048D000DF91CF911F910F91FF90EF90DF9008959E
:1048E000CF93DF9300D0CDB7DEB770E0660F771FB0
:1048F000680F791F42E050E0CE0101960E94E23736
:1049000089819A810F900F90DF91CF910895880F40
:10491000880F880F860F0895CF93C82F682F66954C
:104920006695669582E992E00E947024FC014081C0
:10493000C77021E030E0C90102C0880F991FCA95F5
:10494000E2F7842B8083CF910895CF93DF93C82F14
:10495000D62F682F66956695669588E892E00E9446
:104960007024FC01D11111C04FB7F8945081C77069
:1049700021E030E0C90102C0880F991FCA95E2F713
:104980008095852380834FBF0FC04FB7F894508127
:10499000C77021E030E0C90102C0880F991FCA9595
:1049A000E2F7852B80834FBFDF91CF910895860F6B
:1049B000911DFC0183A18F3F11F00E948C2408956A
:1049C000860F911DFC0183A18F3F19F0642F0E9477
:1049D000A5240895009741F02EE33FE1F9013197B6
:1049E000F1F701970097D1F70895BF92CF92DF9228
:1049F000EF92FF920F931F93CF93DF938C01EB0104
:104A0000B42E79018AE0481721F095E14917C1F0E9
:104A10006AC04FEFC8010E94AE22EFE1F3E0319788
:104A2000F1F700C000004CE952E0BE01C8010E944D
:104A3000F4228FE193E00197F1F700C0000053C02A
:104A4000CA80DB8040E0C8010E94D82242E0BE015B
:104A5000C8010E94B822F6014481486BBE01C8011A
:104A60000E94E22240E4BE01C8010E94E22241E02D
:104A7000BE01C8010E94D822F6012681378140E498
:104A8000BE01C8010E94EC2240E0BE01C8010E94A4
:104A9000B82240E0BE01C8010E94D82241E0BE0118
:104AA000C8010E94B822F6014481486BBE01C801CA
:104AB0000E94E22240E4BE01C8010E94E22241E0DD
:104AC000BE01C8010E94D822F60126813781205CF0
:104AD0003F4F40E4BE01C8010E94EC2240E0BE010D
:104AE000C8010E94B82297014B2DBE01C8010E9447
:104AF000702ADF91CF911F910F91FF90EF90DF907F
:104B0000CF90BF900895FC01E60FF11D849190E0D5
:104B1000982F88273196E4918E0F911D0895FC01FE
:104B2000849108950E948F25882311F0823011F41A
:104B300086E0089583E0089580E00895FC01808D6B
:104B40008F5F089566E00E948325089568E00E94C3
:104B5000832508950A96FC01849108950B96FC0123
:104B600084910895AF92BF92CF92DF92EF92FF921D
:104B70000F931F93CF93DF937C01B62EDC01149625
:104B8000CD91DC911597CE010E948F25182FF7014A
:104B9000848195810E949225082F113019F0AA2452
:104BA000AA9404C00F2EFFE0AF2EF02DD70114966B
:104BB0008D919C9115970E94AA25D82EF70184818A
:104BC00095810E94AE25C82ED70114968D919C9197
:104BD00015970E94A625B0E6BB1548F4009739F05A
:104BE000C80FD91F0F2EF1E6DF2EF02D12C0F701EE
:104BF000848195810E94A225F0E4FB1548F400977A
:104C000039F0C80FD91F0F2EF1E4DF2EF02D01C0AF
:104C10006196CB1490F4D70150961C9250975396FE
:104C20001C92539754961C92549751961C925197EC
:104C300052961C9280E090E073C0CD1408F468C0D6
:104C4000202F30E08E01FE0184918F3F11F42196D8
:104C50005BC0DB1051C06E01D70114968D919C9101
:104C600015970E948F25882311F0823001F5F801F5
:104C70000491D70153960C93F6013196E491D70134
:104C80005496EC93F6013396E491D7015096EC9349
:104C9000F6013496E491D7015196EC93F6013596DE
:104CA000E491D7015296EC938C2F9D2F39C0FE01D1
:104CB0000491802F8F708250D70152968C93529717
:104CC00002950F7051960C93FE013196E4918E2F50
:104CD0008F70D70154968C935497E295EF7053964A
:104CE000EC93FE013296E491E295EF70D701509675
:104CF000EC938C2F9D2F14C0FE013296E491EA2193
:104D0000CE0FD11DC20FD31FDC1411F0D3949ACF54
:104D1000F701108A138A148A118A128A80E090E0BF
:104D2000DF91CF911F910F91FF90EF90DF90CF9087
:104D3000BF90AF9008956F927F928F929F92AF92A3
:104D4000BF92CF92DF92EF92FF920F931F93CF9378
:104D5000DF936C01162F742E622F0E94B2257C0106
:104D6000009709F447C0F601848195810E9492253D
:104D7000B82EF601D389C4896188610E9289791AA7
:104D8000972C9C1A0C2F2D2F492D662DC6010E94A1
:104D90007C22811103C0F60180892DC0D95F8D2E40
:104DA000869486948694CC2311F1EB0CF11CAA24F2
:104DB000AA94A80CB12CFFEFAF1ABF0A13C0FE01D2
:104DC000049120E0492D612FC6010E946C29219693
:104DD000185F8C2F8E19881590F3EA0CFB1C9394A6
:104DE000971429F08820D9F3162DE701E8CFF601B2
:104DF000808901C080E0DF91CF911F910F91FF90DA
:104E0000EF90DF90CF90BF90AF909F908F907F906A
:104E10006F900895DF92EF92FF920F931F93CF93BD
:104E2000DF938C01F62ED42EE901DC015596ED912D
:104E3000FC9156970995D80E2881222369F0219676
:104E4000E12C4D2D6F2DC8010E949B26F80EE80E17
:104E500029912111F6CF01C0E12C8E2DDF91CF9148
:104E60001F910F91FF90EF90DF900895DC01149651
:104E70008D919C911597009709F44DC057962C91F0
:104E8000579721110DC0FC013596E4915896EC938B
:104E90005897FC013C96849159968C9359971BC066
:104EA000213069F4FC013F96E4915896EC935897B1
:104EB000FC017096849159968C9359970CC0FC0113
:104EC0003D96E4915896EC935897FC013E96849158
:104ED00059968C93599758968C915897992787FD96
:104EE000909559962C915997821B910927FD93957E
:104EF0005A962C915A97203461F0829FC001112458
:104F00000024880F991F001C880F991F001C892FEF
:104F1000902D5B968C930895FC01178A0E9436278A
:104F200008952CE935E2FC01258B368B08952EE996
:104F300035E2FC01258B368B0895CF93DF93EC018E
:104F40008C819D818617970749F06C837D83CE0104
:104F50000E9436278CE995E28D8B9E8BDF91CF9155
:104F60000895AF92BF92CF92DF92EF92FF920F938C
:104F70001F93CF93DF93EC01162FE42ED22E26172A
:104F800018F4C62EC21A02C0C22EC61A0E1518F484
:104F9000AE2CA01A02C0A02EAE18CA1428F08A2D7A
:104FA000AC2CC82EB12C08C08D2DD02E082F812FEF
:104FB0001E2DE82EBB24B394D11630F48E2DE02E96
:104FC000082F812F1D2DD82EFA2CF694E01610F400
:104FD00001E001C00FEFD116A0F0B11006C04E2DB8
:104FE000612FCE010E94632905C0412F6E2DCE0195
:104FF0000E946329FC1812F4E00EFA0C1F5FD11610
:1050000060F7DF91CF911F910F91FF90EF90DF90AC
:10501000CF90BF90AF9008951F93CF93DF93EC0193
:105020001C821D821E821F82198681E0888782E28F
:105030008A871E861F86FE01B39680E09FEF9193BC
:105040008F5F8E30E1F711E018A3CE010E94912707
:105050001F8B188E198E80E48A8F1B8E8BE29CE248
:1050600089AB9AABDF91CF911F910895DB01ED9150
:10507000FC91099508950F931F93CF93DF93EC0153
:105080008B01E9A9FAA982E0099520E030E04AE025
:10509000B801CE010E943628182FE9A9FAA983E0A9
:1050A0000995E9A9FAA980E00995812FDF91CF91AF
:1050B0001F910F9108950F931F93CF93DF93EC01EE
:1050C0008B01E9A9FAA982E00995E9A9FAA981E089
:1050D000099520E030E044E1B801CE010E94362875
:1050E0009E012D5C3F4F47E1B801CE010E9436285A
:1050F000E9A9FAA980E00995DF91CF911F910F915D
:105100000895FF920F931F93CF93DF93EC018B01D0
:10511000E9A9FAA982E00995E9A9FAA981E0099526
:1051200020E030E045E1B801CE010E943628F82E9B
:10513000882341F09E012D5C3F4F47E1B801CE012D
:105140000E943628E9A9FAA980E009958F2DDF9100
:10515000CF911F910F91FF900895FC01448F258FEF
:105160009C01245E3F4F42E30E9436280895CF936E
:10517000DF931F92CDB7DEB79E012F5F3F4F46E40E
:105180000E94362889810F90DF91CF910895CF93A7
:10519000DF931F92CDB7DEB79E012F5F3F4F47E4ED
:1051A0000E94362889810F90DF91CF91089520E0E9
:1051B00030E048E40E9436280895CF93DF93EC0155
:1051C0006A817B810E94B72888836A817B81CE01B6
:1051D0000E94C72889836A817B81CE010E94D728DB
:1051E0008B879E012D5C3F4F6A817B8147E1CE0119
:1051F0000E943628DF91CF910895CF93DF93EC0181
:105200006A817B810E943B28882329F0CE010E947D
:10521000DD2881E001C080E0DF91CF9108954F92B9
:105220005F926F927F928F92AF92CF92EF92FF92A6
:105230000F931F93CF93DF93CDB7DEB73C012B01C4
:10524000F42E122F0E940C28F30142825382F0A602
:1052500011A702A7E3A6C4A6A5A686A6888987A744
:10526000898987A38A8985A38B8986A38C8984A34E
:105270008D8980AB8E8983A3C3010E94FD28DF91B5
:10528000CF911F910F91FF90EF90CF90AF908F90A3
:105290007F906F905F904F900895FC0162817381C1
:1052A0000E945B280895CF93DF93EC01EE85FF8584
:1052B000309709F009956A817B81CE010E9481288F
:1052C000DF91CF910895362F242FFC0162817381E5
:1052D000432F0E94AD2808950F93FC018281938192
:1052E000648F458F278F068F9F01245E3F4F4BE3CE
:1052F000BC01CF010E9436280F910895FC018385DF
:10530000883221F0823021F483E008958FEF0895F0
:1053100081E00895CF93DF93EC018B85803321F4F6
:105320008FEF88A389A304C0CE010E947E2988A3A1
:10533000DF91CF910895FC0110A20895FC01128223
:1053400080818150838314820895FC0120818281B1
:10535000820F82839181891760F484818F5F8483B7
:105360008381280F291710F02FEF290F238381E065
:10537000089580E00895DC011696ED91FC91179751
:1053800015968C919F01280F311DC9011192E817C4
:10539000F907E1F70895FC0191E08381861708F48D
:1053A00090E021E0461708F020E0322F392B81E011
:1053B0005281451708F480E083239223892B0895B6
:1053C000DC01FB01108212968C9112978183159655
:1053D0008C9115978150828313968C9183830895C5
:1053E000FB0161812381213019F0233021F006C0B7
:1053F00048E0460F04C0462F685001C0462F0E9467
:10540000CB290895DC011696ED91FC911797129621
:105410008C91481B477081E090E0DC0102C0AA0F2C
:10542000BB1F4A95E2F7AD01E60FF11D222321F0E3
:105430008081482B40830895409580814823408394
:105440000895FB014181FC012281421770F0238104
:10545000241758F0FB013081FC012581321728F414
:10546000FB012481632F0E94022A0895DF92EF92AC
:10547000FF920F931F93CF93DF938C01EB01FA8080
:105480008B81813041F098F0823049F0833059F0BF
:10549000D12CE12C0FC0DD24D394E12C0BC0D12CF6
:1054A000EE24EA9407C0DD24DA94E12C03C0D12C69
:1054B000EE24E394FF2024F4BE01C8010E94212AB7
:1054C00088818E0D888389818D0D8983FF0C91F7EA
:1054D000DF91CF911F910F91FF90EF90DF90089592
:1054E0000F931F93CF93DF93E901FB010281138197
:1054F00050E0FA017497E433F105C0F5EF5FFE4F19
:105500000C940C35B901C8010E94F029882381F15F
:10551000BE01C8010E94362A81E02DC0B901C80130
:105520000E94212A81E027C0C8010E94BB29C8012E
:105530000E949E2981E01FC0C8010E94A5298823DE
:10554000C9F0C8010E94BB2981E015C0B901C8019A
:105550000E94E02981E00FC0F8018581888381E005
:105560000AC0F8018181888381E005C081E003C021
:1055700081E001C080E0DF91CF911F910F910895EC
:10558000AF92BF92CF92DF92EF920F931F93CF9380
:105590005C01C62EE42ED22E27E02D15B8F4CD2DB9
:1055A000162F0FEF20E04E2D612FC5010E946C29B0
:1055B000C850185FC830A8F78D2D877028E02C0DD3
:1055C00098EF9D0D987FC22EC90E01C08D2D8823A6
:1055D00099F007E008270F5F07708FEF90E09C01BC
:1055E00002C0220F331F0A95E2F7890120E04E2DF9
:1055F0006C2DC5010E946C29CF911F910F91EF90E6
:10560000DF90CF90BF90AF900895AF92BF92CF92AE
:10561000DF92EF920F931F93CF935C01E62EC42E7F
:10562000D22E27E02D15B8F4CD2D142F0FEF21E049
:10563000412F6E2DC5010E946C29C850185FC830DB
:10564000A8F78D2D877028E02C0D98EF9D0D987F81
:10565000C22EC90E01C08D2D882399F007E00827BE
:105660000F5F07708FEF90E09C0102C0220F331F85
:105670000A95E2F7890121E04C2D6E2DC5010E94AB
:105680006C29CF911F910F91EF90DF90CF90BF9039
:10569000AF900895DF92EF92FF920F931F93CF93F5
:1056A000DF93EC01162FF42EE22ED02E0E947C22E6
:1056B0008823E1F02E2D4F2D612FCE010E94C02AAC
:1056C0002D2D4F2D612FCE010E94052B6FEF6E0DFA
:1056D000610F2D2D4F2DCE010E94052BDA944D2DFB
:1056E0004F0D2E2D612FCE010E94C02ADF91CF9148
:1056F0001F910F91FF90EF90DF900895EF92FF922E
:105700000F931F93CF93DF93EC01E62E142FF22E0D
:105710002F2D412F6E2DCE010E94C02A1F5F0150F8
:10572000B9F7DF91CF911F910F91FF90EF900895FE
:10573000DF92EF92FF920F931F93CF93DF93EC01D1
:10574000162FF42EE22E0E947C22882331F02E2D7B
:105750004F2D612FCE010E947E2BDF91CF911F91A3
:105760000F91FF90EF90DF9008957F928F929F921C
:10577000AF92BF92CF92DF92EF92FF920F931F935F
:10578000CF93DF93EC01162FF42ED22EC02E0E9461
:105790007C22882309F451C0A12EAE0CBF2CBE0C74
:1057A0008E2C80948D0C810E9C2C9E1877247A94DC
:1057B000790C7F0C02E02E2D4B2D6A2DCE010E941C
:1057C000102201E02E2D4B2D682DCE010E941022BB
:1057D00004E02E2D472D6A2DCE010E94102208E0F4
:1057E0002E2D472D682DCE010E9410228E2D880F60
:1057F0008D2C881A8A948A949A949A949E18A394C9
:10580000B394282D4F2D6A2DCE010E94C02ACA9430
:105810004C2D4F0D282D6A2DCE010E94C02A292D16
:105820004B2D612FCE010E94052BDA946D2D610F57
:10583000292D4B2DCE010E94052BDF91CF911F9179
:105840000F91FF90EF90DF90CF90BF90AF909F901F
:105850008F907F9008950895E0E0F8E010A211A2E3
:1058600088E293E286A397A387E0808381E0868322
:105870008487118208950F931F93CF93DF93CDB741
:10588000DEB72597CDBFDEBF85E0EFE7F0E2DE01B2
:10589000119601900D928A95E1F700E010E0053035
:1058A00011055CF4E1E0F0E0EC0FFD1FE00FF11FEB
:1058B000808190E00E94EB0C04C08FEF90E00E948A
:1058C000EB0C0F5F1F4F0830110549F781E090E0A6
:1058D0008093CA259093CB252596CDBFDEBFDF915F
:1058E000CF911F910F9108950F931F93CF93DF9343
:1058F000CDB7DEB72597CDBFDEBF85E0E4E8F0E2A7
:10590000DE01119601900D928A95E1F700E010E01A
:105910000530110554F4E1E0F0E0EC0FFD1FE00F5D
:10592000F11F808190E00E94EB0C0F5F1F4F083049
:10593000110571F781E090E08093CA259093CB2503
:105940002596CDBFDEBFDF91CF911F910F910895B6
:105950000F931F93CF93DF93CDB7DEB72597CDBFBE
:10596000DEBF85E0E9E8F0E2DE01119601900D92DC
:105970008A95E1F700E010E00530110554F4E1E00C
:10598000F0E0EC0FFD1FE00FF11F808190E00E941E
:10599000EB0C0F5F1F4F0830110571F781E090E0AD
:1059A0008093CA259093CB252596CDBFDEBFDF918E
:1059B000CF911F910F910895AF92BF92CF92DF9236
:1059C000EF92FF920F931F93CF93DF935C01DB0164
:1059D000EB01BB230CF42196D595C7951C161D062B
:1059E0000CF042C0F50195012C0F3D1F60E070E006
:1059F000CB01AB01BC01440F551F661F771F6A0125
:105A00007B01CC0CDD1CEE1CFF1CCC0CDD1CEE1C49
:105A1000FF1C4C0D5D1D6E1D7F1D1191F12EF69426
:105A2000F694F694F6944F0D511D611D711D440FAF
:105A3000551F661F771F6A017B01CC0CDD1CEE1C15
:105A4000FF1CCC0CDD1CEE1CFF1C4C0D5D1D6E1DE7
:105A50007F1D1F70CB01BA01610F711D811D911D4A
:105A6000E217F30731F603C060E070E0CB01A0FF5E
:105A700021C0AB01BC01440F551F661F771F6A018F
:105A80007B01CC0CDD1CEE1CFF1CCC0CDD1CEE1CC9
:105A9000FF1C4C0D5D1D6E1D7F1DCA0DDB1D888119
:105AA00082958F708A019B01080F111D211D311DE8
:105AB000C901B801DF91CF911F910F91FF90EF9035
:105AC000DF90CF90BF90AF9008951F920F920FB6C6
:105AD0000F92112408B60F9218BE09B60F9219BE84
