S0180000726F746F7220636F6E74726F6C6C65722E7372656372
S11300000C947F050C94A3050C94A3050C94A305F0
S11300100C94A3050C94A3050C94A3050C94A305BC
S11300200C94A3050C94A3050C94A3050C94A305AC
S11300300C94A3050C94A3050C944F2E0C94A305C7
S11300400C94A3050C94A3050C94A3050C94A3058C
S11300500C94A3050C94A3050C94A3050C94A3057C
S11300600C94A3050C94F02D0C94A3050C94A305F7
S11300700C94A3050C94A3050C94A3050C94A3055C
S11300800C94A3050C94A3050C94A3050C94A3054C
S11300900C94A3050C94A3050C94A3050C94A3053C
S11300A00C94A3050C94A3050C94A3050C94A3052C
S11300B00C94A3050C94A3050C94A3050C94A3051C
S11300C00C94A3050C94A3050C94A3050C94A3050C
S11300D00C94A3050C94A3050C94A3050C94A305FC
S11300E00C94A3050C94A3050C94A3050C94A305EC
S11300F00C94A3050C94A3050C94A3050C94A305DC
S11301000C949F130C94A3050C94B8130C94A3059E
S11301100C94A3050C94A3050C94A3050C94A305BB
S11301200C94A3050C94A3050C94A3050C94A305AB
S11301300C94A3050C94A3050C94A3050C94A3059B
S11301400C94A3050C94A3050C94A3050C94A3058B
S11301500C94A3050C94A3050C94A3050C94A3057B
S11301600C94852D0C94A3050C94A3050C94A30561
S11301700C94A3050C94A3050C94A3050C94A3055B
S11301800C9456130C9490130C94A3050C94A3058F
S11301900C94A3050C94A3050C94A3050C94A3053B
S11301A00C94A3050C94A3050C94A3050C94A3052B
S11301B00C94A3050C94A3050C94A3050C94A3051B
S11301C00C94A3050C94A3050C94A3050C94A3050B
S11301D00C94A3050C94A3050C94A3050C940A1386
S11301E00C94A3050C94A3050C94A3050C94A305EB
S11301F00C94A305F2238024352484246824EC235E
S1130200EF23B42ABC2AD62AC62AD62AD62AD62A24
S1130210D62AD62AD62AD62AD62AD62AD62AD62ADA
S1130220D62AD62AD62AD62AD62AD62AD62AD62ACA
S1130230D62AD62AD62AD62AD62AD62AD62AAE2AE2
S1130240D62AD62AD62AD62AD62AD62AD62AD62AAA
S1130250A22AD62AD62AD62AD62AD62AD62AD62ACE
S1130260D62AD62AD62ACC2AD12A05A84CCDB2D44D
S11302704EB93836A9020C50B9918688083CA6AA12
S1130280AA2ABE000000803F0406240604072407AF
S1130290840600062006000720078006FFD0FFE042
S11302A0FFC1FFD13FC0FF14FFD23FC0FF14FFD0F6
S11302B0FFFE01060A00FE070136026820FFFE0861
S11302C0FE07FE0A0060221767808080808000801D
S11302D0163363A0A0A00257675050F850F850504E
S11302E00257672070A07028702002576748A850F2
S11302F02050A89002576740A0A040A890682613F9
S113030063808080123767204080808040201237CD
S113031067804020202040800355658850F850882D
S11303200355652020F82020113363604080055177
S113033061F811336340E040025767080810204019
S11303408080025767205088888850200257672091
S113035060A0202020F8025767708808304080F899
S1130360025767F808103008887002576710305039
S113037090F81010025767F880B0C80888700257C8
S113038067304080B0C88870025767F808101020A2
S11303904040025767708888708888700257677079
S11303A088986808106011376740E0400040E040DA
S11303B011376740E04000604080124767102040DA
S11303C080402010045363F800F8124767804020EF
S11303D010204080025767708810202000200257A8
S11303E067708898A8B0807002576720508888F892
S11303F08888025767F04848704848F00257677089
S1130400888080808870025767F04848484848F0E0
S1130410025767F88080F08080F8025767F8808080
S1130420F0808080025767708880809888700257B7
S113043067888888F8888888123767E04040404099
S113044040E0025767381010101090600257678818
S113045090A0C0A09088025767808080808080F838
S11304600257678888D8A88888880257678888C808
S1130470A898888802576770888888888870025787
S113048067F08888F0808080015868708888888840
S1130490A87008025767F08888F0A0908802576710
S11304A070888070088870025767F8202020202008
S11304B020025767888888888888700257678888E8
S11304C08850505020025767888888A8A8D8880286
S11304D0576788885020508888025767888850203A
S11304E0202020025767F80810204080F812376750
S11304F0E08080808080E002576780804020100880
S113050008123767E02020202020E00653632050A3
S113051088015161F828226280400255657008788C
S113052088780257678080B0C888C8B00255657063
S11305308880887002576708086898889868025508
S1130540657088F88070025767304840F04040403A
S1130550005767788888780888700257678080B069
S1130560C88888881237674000C0404040E010497E
S113057069100030101010909060025767808088D6
S113058090E09088123767C04040404040E00255F8
S113059065D0A8A8A888025565B0C888888802557F
S11305A0657088888870005767B0C888C8B0808034
S11305B000576768988898680808025565B0C8802D
S11305C0808002556570807008F00257674040F0E3
S11305D04040483002556588888898680255658887
S11305E0885050200255658888A8A850025565880F
S11305F0502050880057678888986808887002558A
S113060065F8102040F8124767304020C020403081
S113061022176780808080808080124767C02040D6
S1130620304020C006536348A890FFFFFFFFFFFF40
S1130630FFFFFFFFFFFFFFFFFFFFFFFFFFFFFFFFC6
S1130640FFFFFFFFFFFFFFFFFFFFFF0A006022170E
S113065067800080808080800157672078A0A0A0F8
S11306607820025767304840E04048B0025565881A
S11306707050708801586888885020F82020202203
S11306801767808080008080800158687080E090C7
S113069048380870193161A00257677088A8C8A843
S11306A088701346667090B05000F0026565244867
S11306B0904824144262F010154161F002576770AB
S11306C088E8C8C88870095161F816336340A040AF
S11306D00256662020F82020F815456560902040D9
S11306E0F0154565E0106010E02822624080015654
S11306F066888888C8B08002576778E8E868282840
S11307002825116180202262408015356540C04053
S113071040E01346666090906000F0026565904882
S113072024489001696940C04040E40C143C040131
S1130730696940C04040E81404081C015969C0209C
S11307404020C818287808025767200020204088D5
S1130750700258684020708888F8888802586810A9
S113076020708888F888880258682050708888F833
S1130770888802586848B0708888F8888802586861
S11307805000708888F888880258682050708888DB
S1130790F888880267673C50909CF0909C005969E7
S11307A070888080808870204002586840F880807B
S11307B0F08080F802586810F88080F08080F80299
S11307C0586820F88080F08080F802586850F880DB
S11307D080F08080F81238688040E040404040E07B
S11307E01238682040E040404040E012386840A0A1
S11307F0E040404040E0123868A000E04040404003
S1130800E0025767F04848E84848F0025868285022
S113081088C8A89888880258684020708888888882
S11308207002586810207088888888700258682080
S11308305070888888887002586828507088888822
S113084088700258685000708888888870025565DE
S11308508850205088025767709898A8C8C87002BA
S113086058684020888888888870025868102088D2
S11308708888888870025868205000888888887022
S11308800258685000888888888870025868102048
S113089088885020202002576780F088F08080806C
S11308A0025767708890A09088B002586840200072
S11308B07008788878025868102000700878887862
S11308C002586820500070087888780258682850C8
S11308D00070087888780257675000700878887824
S11308E0025868205020700878887802656578146A
S11308F07C907C005767708880887020400258681C
S11309004020007088F880700258681020007088B9
S1130910F880700258682050007088F88070025780
S11309206750007088F88070123868804000C040BA
S11309304040E0123868408000C0404040E0123837
S11309406840A000C0404040E0123767A000C040AB
S11309504040E0025767C030708888887002586849
S1130960285000B0C88888880258684020007088E1
S1130970888870025868102000708888887002582F
S11309806820500070888888700258682850007069
S1130990888888700257675000708888887003556B
S11309A0652000F800200255657898A8C8F0025820
S11309B06840200088888898680258681020008859
S11309C08888986802586820500088888898680247
S11309D0576750008888889868005969102088886B
S11309E0986808887000586880F0888888F080804B
S11309F00059695000888898680888706E616E0094
S1130A00696E660000407A10F35A00A0724E18090D
S1130A100010A5D4E80000E87648170000E40B5461
S1130A20020000CA9A3B000000E1F5050000809630
S1130A309800000040420F000000A0860100000062
S1130A40102700000000E80300000000640000001C
S1130A5000000A00000000000100000000002C76E5
S1130A60D888DC674F0823DFC1DFAE59E1B1B79600
S1130A70E5E3E453C63AE651997696E8E6C284265D
S1130A80EB898C9B62ED407C6FFCEFBC9C9F40F239
S1130A90BAA56FA5F490055A2AF75C936B6CF967B5
S1130AA06DC11BFCE0E40D47FEF520E6B500D0ED7A
S1130AB0902E0300943577050080841E08000020E2
S1130AC04E0A000000C80C333333330F986E128380
S1130AD01141EF8D2114893BE65516CFFEE6DB1854
S1130AE0D1844B381BF77C1D901DA4BBE424203219
S1130AF084725E228100C9F124ECA1E53D27112412
S1130B001FBECFEFCDBFDFE2DEBF18BE19BE1ABED7
S1130B101BBE12E2A0E0B0E2E2E9F2E700E00BBFA4
S1130B2002C007900D92A037B107D9F71BBE27E288
S1130B30A0E7B2E201C01D92AD35B207E1F70E9411
S1130B4030120C9447390C940000CF93DF9368382B
S1130B5023E172078105910509F458C0603127E249
S1130B6072078105910509F455C060322EE47207BD
S1130B708105910509F452C0613329E772078105A3
S1130B80910509F44FC060342CE972078105910581
S1130B9009F44CC0603523EC72078105910509F412
S1130BA049C0603828E3720721E08207910509F4FF
S1130BB045C0603A26E8720721E08207910509F4EE
S1130BC041C0683428EE720721E082079105F1F1F3
S1130BD060342DE0720723E082079105D9F1603972
S1130BE020ED720723E082079105C1F1603221EA0A
S1130BF0720727E082079105A9F1603472448F409F
S1130C009105A1F1C0E0D0E060E033C0C7E8DFEFB8
S1130C106FE32FC0C7E8DFEF6FE12BC0C7E8DFEF5A
S1130C206FE027C0C5E8D1EF6FE023C0C7E8DFEF6E
S1130C3067E01FC0C7E8DAEF67E01BC0C7E8DFEF73
S1130C4063E017C0C7E8DAEF63E013C0C6E8D0EF8B
S1130C5063E00FC0C7E8DAEF61E00BC0C5E8D1EF8D
S1130C6061E407C0C6E8D0EF60E003C0C2E8D0ED9D
S1130C7060E04FEF8AE20E94CD074FEF6D2F89E2CB
S1130C800E94CD074FEF6C2F88E20E94CD07DF91C1
S1130C90CF9108950E9402080E9464070E943607BB
S1130CA060E970ED83E090E00E94A50543E063E015
S1130CB08BE20E94CD074FEF60E680E60E94CD07ED
S1130CC040EE60E08FE00E94CD078AE290E00E944F
S1130CD01D071F928F9383E990E29F938F930E9445
S1130CE0813889E290E00E941D071F928F9386EA63
S1130CF090E29F938F930E94813888E290E00E9453
S1130D001D071F928F938AEA90E29F938F930E940C
S1130D1081381092D4258DB79EB70C968DBF9EBF97
S1130D2008951F93CF93DF93EC0161E388810E94C0
S1130D30FF064FE0698185E30E94CD0789818823FE
S1130D4069F010E066E3610FFE01E10FF11D82819D
S1130D500E94FF061F5F89811817A0F381E80E9493
S1130D60A607DF91CF911F9108951F93CF93DF932F
S1130D70EC01FC01329688E011928150E9F781E69A
S1130D800E94E606888384E60E94E6069881911113
S1130D9001C0888385E60E94E6068983882369F07A
S1130DA010E086E6810F0E94E606FE01E10FF11DC8
S1130DB082831F5F89811817A0F341E060E08CE211
S1130DC00E94CD07DF91CF911F9108950F931F9338
S1130DD0CF93DF93082FC0E6D6E010E11E8383E0B3
S1130DE090E00E94EE13802F90E00E94EE130E9488
S1130DF0F9131D83DF91CF911F910F910895FF92F5
S1130E000F931F93CF93DF93082FF62EC0E6D6E0FF
S1130E1010E11E8382E090E00E94EE138F2D90E09B
S1130E200E94EE13802F90E00E94EE131D83DF9149
S1130E30CF911F910F91FF9008950F931F93CF931C
S1130E40DF93082FC0E6D6E010E11E8383E090E034
S1130E500E94EE13802F90E00E94EE130E94F9137B
S1130E601D83DF91CF911F910F910895CF9380E15E
S1130E70E0E6F6E0868382E090E00E94EE1381E6ED
S1130E8090E00E94EE13CDE080E090E00E94EE132B
S1130E90C150D1F7E0E6F6E080E18583868382E005
S1130EA090E00E94EE1381E790E00E94EE13CDE003
S1130EB080E090E00E94EE13C150D1F780E1E0E6BB
S1130EC0F6E08583CF910895CF9380E1E0E6F6E0E4
S1130ED0868382E090E00E94EE1381E390E00E941A
S1130EE0EE13CDE080E090E00E94EE13C150D1F704
S1130EF0E0E6F6E080E18583868382E090E00E946C
S1130F00EE1381E490E00E94EE13CDE080E090E0E7
S1130F100E94EE13C150D1F7E0E6F6E080E185834C
S1130F20868382E090E00E94EE1381E590E00E94C7
S1130F30EE13CDE080E090E00E94EE13C150D1F7B3
S1130F4080E1E0E6F6E08583CF91089590E1E0E664
S1130F50F6E09683823871F018F4813831F018C0C5
S1130F60843869F0873881F013C081E890E00E94EA
S1130F70EE130EC082E890E00E94EE1309C084E8EC
S1130F8090E00E94EE1304C087E890E00E94EE1304
S1130F9080E1E0E6F6E085830895EF92FF920F93F7
S1130FA01F93CF93DF93E82E062FF42EC0E6D6E0EE
S1130FB010E11E8385E090E00E94EE138E2D90E0F8
S1130FC00E94EE138F2D90E00E94EE13802F90E08C
S1130FD00E94EE131D83DF91CF911F910F91FF901B
S1130FE0EF9008951F93CF93DF93C0E6D6E010E10E
S1130FF01E8380EC90E00E94EE131D83DF91CF915D
S11310001F9108950E94E4130E94F20780E008955E
S11310100F931F93CF93DF93CDB7DEB72A97CDBF3E
S1131020DEBF09831A832B833C834D835E836F83E6
S1131030788789879A878CE090E00E940F362AE0AF
S1131040FE013196DC0101900D922A95E1F7FC0135
S1131050128613862091722230917322232B79F405
S11310602091702230917122232B49F480937022B5
S11310709093712280937222909373220AC0E0911C
S11310807022F091712282879387809370229093CB
S113109071222A96CDBFDEBFDF91CF911F910F91B0
S11310A0089580917222909173220097C9F0209143
S11310B07022309171228217930749F410927022A2
S11310C010927122109272221092732207C0FC01B6
S11310D02285338520937222309373220E94A7368F
S11310E00895E0917222F0917322309721F42FEF4A
S11310F0FC01208308952AE0DC0101900D922A95D9
S1131100E1F7089581E090E02091722230917322FA
S1131110232B11F080E090E00895CF93C82F8A30FC
S113112019F48DE00E948D08E1EAFAE0908195FFC0
S1131130FDCFC093A00A80E090E0CF910895CF93B3
S1131140BC01E1EAFAE080818823ECF7C091A00AAF
S1131150CD3009F4CAE08C2F0E948D088C2F90E0CA
S1131160CF910895E0E5F0E08BEC82838081886084
S11311708083818183FFFDCFE0E5F0E082EC85830D
S1131180808180618083818184FFFDCF88ED84BF6D
S113119084E0809340000895FF920F931F93CF93B0
S11311A0DF93CDB7DEB72A97CDBFDEBF80917C2613
S11311B090917D26A0917E26B0917F26492F5A2FAB
S11311C06B2F7727F0908026F0918426E091882673
S11311D008EC17E02CEF382F5F2D6F2F7E2F8091B6
S11311E086269A850E9408082A96CDBFDEBFDF9125
S11311F0CF911F910F91FF9008958F929F92AF927C
S1131200BF92CF92DF92EF92FF920F931F93CF93EF
S1131210DF93CDB7DEB72A97CDBFDEBFECE8F6E2A9
S11312203081832F9181A281B381892E9A2EAB2E96
S1131230BB246D01EE24FF246B2F77278827992781
S113124008EC15E02DEF482D5C2D788589859A856D
S11312500E9408082A96CDBFDEBFDF91CF911F916F
S11312600F91FF90EF90DF90CF90BF90AF909F9041
S11312708F900895CF93DF93CDB7DEB76497CDBF3A
S1131280DEBF0E948208892B99F4CE010B960E943E
S113129071088AE0FE013B96DE01119601900D92E1
S11312A08A95E1F7CE0101960E9491060E945108A9
S11312B02FEF89EF90E0215080409040E1F700C08B
S11312C000006496CDBFDEBFDF91CF910895CF9328
S11312D0DF93CDB7DEB72A97CDBFDEBF91E0998308
S11312E022E02A838B839C83CE0101960E9491067F
S11312F08FE39CE90197F1F700C000002A96CDBF67
S1131300DEBFDF91CF9108950F931F93CF93DF93A7
S1131310CDB7DEB72A97CDBFDEBF91E0998392E0C7
S11313209A838B839C8301E012E0282F32E04D8165
S11313305E816F81788589859A850E9408088FE38C
S11313409CE90197F1F700C000002A96CDBFDEBFEB
S1131350DF91CF911F910F9108954F925F926F92F9
S11313607F928F929F92AF92BF92CF92DF92EF9231
S1131370FF920F931F93CF93DF93CDB7DEB764979C
S1131380CDBFDEBF85ED95E20E946D29C090742625
S1131390D0907526209170263091712604E6029F24
S11313A0C001039F900D1124B6010E94E3348827E5
S11313B077FD8095982F0E94872F2AE939E949E91A
S11313C05FE30E94743020E030E040E050E40E948B
S11313D0E92E0E94542F162F2091722630917326E5
S11313E0029FC001039F900D1124B6010E94E334B3
S11313F0882777FD8095982F0E94872F2AE939E95D
S113140049E95FE30E94743020E030E040E050E4BA
S11314100E94E92E0E94542FF62E0F2EF0E74F2E35
S1131420F6E25F2EF02D0F2EF9EBAF2EF0E2BF2E79
S1131430F02D9E012F5F3F4F69010F2EF2E76F2EB3
S1131440F6E27F2EF02D0F2EF9EC8F2EF0E29F2E78
S1131450F02D62EB72E085ED95E20E94BD27689461
S1131460EE24E1F80FE02EE741E061E085ED95E23E
S11314700E94D52B2EEA30E241E161E085ED95E250
S11314800E942A27F20181818F9380818F93BF92DA
S1131490AF92DF92CF920E94C038960141E163E49B
S11314A085ED95E20E942A272EE74CE161E085ED67
S11314B095E20E94D52BF30181818F9380818F93D4
S11314C0BF92AF92DF92CF920E94C0382EEB30E2EF
S11314D04DE261E085ED95E20E942A2796014DE2F6
S11314E063E485ED95E20E942A270BE0212F43E077
S11314F063E085ED95E20E94B82B2F2D4EE163E069
S113150085ED95E20E94B82B1F921F921F921F92A5
S11315109F928F92DF92CF920E94C038960146E349
S113152061E085ED95E20E942A2785ED95E20E940F
S11315307329CDBFDEBF81118CCF6496CDBFDEBFD2
S1131540DF91CF911F910F91FF90EF90DF90CF909B
S1131550BF90AF909F908F907F906F905F904F90CF
S11315600895EF920F9385ED95E20E946D2962EB49
S113157072E085ED95E20E94BD276894EE24E1F8BF
S11315800EE32EE741E061E085ED95E20E94D52B64
S113159028ED30E24AE065E085ED95E20E942A27D5
S11315A02BEE30E244E165E085ED95E20E942A27C6
S11315B025EF30E242E365E085ED95E20E942A27BB
S11315C085ED95E20E9473298111D1CF0F91EF909F
S11315D00895E0EEF6E08085992787FD9095809543
S11315E09095892F881F8827881F90E00895CF92AF
S11315F0DF92EF92FF92CF93DF93EB01865A9F4FD6
S1131600BC0180E090E00E94852F22E73AE84EE892
S11316105CE30E9474300E94512F6B017C01BE0177
S113162080E090E00E94852FA70196010E9474300B
S11316300E94542F20E230E0C901861B970BDF91F2
S1131640CF91FF90EF90DF90CF900895CF92DF92EB
S1131650EF92FF92CF93DF93EB01845A9F4FBC012B
S113166080E090E00E94852F22E73AE84EE85CE3B0
S11316700E9474300E94D7306B017C01BE0180E06F
S113168090E00E94852FA70196010E9474300E9469
S1131690542F20E230E0C901861B970BDF91CF91D4
S11316A0FF90EF90DF90CF900895CF92DF92EF926A
S11316B0FF920F931F93CF93DF9300D000D0CDB749
S11316C0DEB7D82E192F7B0161307105D1F10FE0FF
S11316D02BE14EE16EE185ED95E20E94752268E111
S11316E070E08D2D912F0E94F70AC82E68E170E0FA
S11316F08D2D912F0E94260B00E220E2482F6C2DA5
S113170085ED95E20E94D127EF28C1F51F93DF9262
S113171082E091E29F938F938E010F5F1F4F1F937F
S11317200F930E94C038980141E061E085ED95E295
S11317300E942A270F900F900F900F900F900F90F8
S11317401DC00FE02DE04EE16EE185ED95E20E94B3
S113175075226AE070E08D2D912F0E94F70AF82E11
S11317606AE070E08D2D912F0E94260B00E220E2AA
S1131770482F6F2D85ED95E20E94D1272496CDBF89
S1131780DEBFDF91CF911F910F91FF90EF90DF901B
S1131790CF90089598E0909385069093810684E015
S11317A080938606809382061092A70A4FEC40939A
S11317B0A60A33E03093A50A28E12093A40AE3EAB9
S11317C0FAE05081506150839093A5069093A1064E
S11317D08093A6068093A2061092A70B4093A60BB3
S11317E03093A50B2093A40BE3EAFBE08081806196
S11317F08083089598E0909345069093410684E091
S11318008093460680934206409178264093A70829
S1131810E6E7F6E220812093A6083BE03093A50892
S113182028E12093A408A3EAB8E05C9150635C9398
S11318309093650690936106809366068093620692
S11318404093A70980818093A6093093A50920932A
S1131850A409E3EAF9E080818063808308957F929C
S11318608F929F92AF92BF92CF92DF92EF92FF92AC
S11318700F931F93CF93DF93CFEFC093A526C0930D
S1131880A6260E94B208E0E2F7E0C183E0E0F7E0B8
S1131890C18380EBE0E8F6E08183E0EEF6E084E0EB
S11318A0828388E1828B98E09283838B90E1928398
S11318B0848B20E22283858BA0E0B6E055969C932E
S11318C05597108289E1808B818B878B81E0828799
S11318D082E083879AE09093E90690E81A969C93B5
S11318E080930906E0E6F6E086839AE1918B82878D
S11318F080936906148687E0E0EAF0E082837894B6
S113190062E083E00E94A724782E63E083E00E94D3
S1131910A724982E64E083E00E94A724B82E61E0F7
S113192083E00E94A724D82E60E083E00E94A724CD
S1131930F82E65E083E00E94A724182F66E083E078
S11319400E94A724D82F66E082E00E94A724882E54
S113195065E082E00E94A724A82E64E082E00E9451
S1131960A724C82E63E082E00E94A724E82E62E048
S113197082E00E94A724082F61E082E00E94A7244D
S1131980C82F60E082E00E94A7247F929F92BF92BA
S1131990DF92FF921F93DF932C2F482F64E170E2B4
S11319A085ED95E20E942F2986E090E280935727E7
S11319B0909358278093592790935A270E944A0658
S11319C00E944C2C0E94FA0B0E94CA0B8DB79EB742
S11319D007968DBF9EBFDF91CF911F910F91FF900E
S11319E0EF90DF90CF90BF90AF909F908F907F90BB
S11319F00895E1EAF9E0908195FFFDCF8093A00975
S1131A000895E1EAFBE0908195FFFDCF8093A00B60
S1131A100895CF93DF93EC018881882331F02196D8
S1131A200E94010D89918111FBCFDF91CF9108951F
S1131A300F931F93CF93DF93CDB7DEB72F97CDBF0F
S1131A40DEBF8C01FC018081813409F07DC081817D
S1131A508A3509F079C084818E32E9F1628183810B
S1131A60248170E06053710994E6969FA001979FCA
S1131A70500D112490E0C097BC01660F771F880FAA
S1131A80991F880F991F880F991F860F971F840F1E
S1131A90951F30E020533109820F931F80937822E1
S1131AA0909379228285238590E0C097AC01440FFE
S1131AB0551F880F991F880F991F880F991F840F2E
S1131AC0951F30E020533109820F931F80937622B3
S1131AD09093772231C0F8018281238190E0C097EE
S1131AE0AC01440F551F880F991F880F991F880F49
S1131AF0991F840F951F30E020533109820F931FE3
S1131B0080937822909379228185228590E0C097F2
S1131B10AC01440F551F880F991F880F991F880F18
S1131B20991F840F951F30E020533109820F931FB2
S1131B3080937622909377228091782290917922D3
S1131B4080937E2290937F22F8018081873509F06B
S1131B5042C061812281438170E06053710934E69F
S1131B60369FC001379F900D112430E02053310976
S1131B70B901660F771F220F331F220F331F220F65
S1131B80331F260F371F820F931F50E04053510914
S1131B90840F951F80937822909379222681478120
S1131BA030E020533109B901660F771F220F331F2C
S1131BB0220F331F220F331F260F371F50E04053CD
S1131BC05109240F351F2093762230937722809376
S1131BD07E2290937F22F80180818334B9F581813C
S1131BE08233A1F5809180229091812284369105DF
S1131BF0ACF4209177222F93209176222F939F93F8
S1131C008F9383E291E29F938F93CE0101969F93EA
S1131C108F930E94C038CDBFDEBF14C020917722BD
S1131C202F93209176222F939F938F9382E391E2B7
S1131C309F938F93CE0101969F938F930E94C038F8
S1131C40CDBFDEBFCE0101960E94090DF80180814F
S1131C50833499F58181823381F18091802290913E
S1131C608122843691059CF49F938F9380E491E2C2
S1131C709F938F93CE0101969F938F930E94C038B8
S1131C800F900F900F900F900F900F9012C09F9392
S1131C908F9388E491E29F938F93CE0101969F9353
S1131CA08F930E94C0380F900F900F900F900F9059
S1131CB00F90CE0101960E94090DF80180818234B3
S1131CC0D1F4809177228F93809176228F938AE248
S1131CD091E29F938F938E010F5F1F4F1F930F937A
S1131CE00E94C038C8010E94090D0F900F900F90F8
S1131CF00F900F900F902F96CDBFDEBFDF91CF9145
S1131D001F910F910895CF92DF92EF92FF928091ED
S1131D109026909191268630910509F474C08CF434
S1131D2082309105E1F12CF4009709F1019751F10A
S1131D30ABC08330910509F43FC0049709F449C04E
S1131D40A3C08C30910509F492C044F48830910505
S1131D5009F466C00A9709F47DC096C082389105DB
S1131D6009F444C08838910509F467C08DC08FE434
S1131D7091E2809392269093932610928626109255
S1131D80872688C083E591E28093922690939326D8
S1131D9081E090E080938626909387267BC087E538
S1131DA091E2809392269093932682E090E0809330
S1131DB08626909387266EC08AE591E280939226C8
S1131DC09093932683E090E08093862690938726D1
S1131DD061C08FE591E2809392269093932684E0EC
S1131DE090E0809386269093872654C082E691E201
S1131DF0809392269093932685E090E080938626A4
S1131E009093872647C087E691E280939226909329
S1131E10932686E090E080938626909387263AC0A6
S1131E2087E090E080938626909387268CE691E263
S1131E3080939226909393262DC088E090E080931F
S1131E408626909387268BE691E280939226909340
S1131E50932620C089E090E080938626909387267D
S1131E608FE691E2809392269093932613C08AE0A2
S1131E7090E0809386269093872683E791E280936F
S1131E8092269093932606C085EA90E28093922648
S1131E909093932620918C2630918D2640918E2606
S1131EA050918F2660E873EC89EC91E00E9419351B
S1131EB0CA01B9010E94872F6B017C0120E030E048
S1131EC040E85FEB0E9470301816BCF520E030E06B
S1131ED048E454E4C701B6010E944D2F88236CF5F1
S1131EE020E030E040E85FE3C701B6010E944D2FD7
S1131EF088238CF4109280261092812686E490E048
S1131F00A0E0B0E080937C2690937D26A0937E266B
S1131F10B0937F2612C081E090E080938026909356
S1131F208126C701B6010E94592F60937C267093C5
S1131F307D2680937E2690937F2680E090E0FF901C
S1131F40EF90DF90CF9008953F924F925F926F92FF
S1131F507F928F929F92AF92BF92CF92DF92EF9235
S1131F60FF920F931F93CF93DF93CDB7DEB7CA5A77
S1131F70D109CDBFDEBF85ED95E20E946D29DE015A
S1131F8011968CE8FD0111928A95E9F786E0E2E268
S1131F90F0E201900D928A95E1F72EE0FE0137966A
S1131FA0DF01322F1D923A95E9F786E0E6E3F0E28D
S1131FB0DE01559601900D928A95E1F7FE017B961C
S1131FC0DF01322F1D923A95E9F785E0EAE4F0E269
S1131FD0DE01999601900D928A95E1F7FE01BE9675
S1131FE08FE0DF011D928A95E9F783E491E4AEE482
S1131FF0B0E021968CAF9DAFAEAFBFAF2197739683
S113200080E1DF011D928A95E9F786E0EEE5F0E2D2
S1132010DE01AF5ABF4F01900D928A95E1F7E1E5D9
S1132020F0E0EC0FFD1F3696DF011D922A95E9F7CB
S11320300F2EFDEE8F2EF5E29F2EF02D0F2EFEEECD
S11320404F2EF5E25F2EF02D3E01B5E96B0E711CAB
S11320505E01EDE8AE0EB11C93012A5F3F4FC156FD
S1132060DF4F28833983CF59D040C3010396CF551E
S1132070DF4F88839983C15AD040D3011596CD553B
S1132080DF4FA883B983C35AD040F3013296CB55AE
S1132090DF4FE883F983C55AD04022503109C9552E
S11320A0DF4F28833983C75AD0400297C755DF4F83
S11320B088839983C95AD04062EB72E085ED95E23A
S11320C00E94BD2700E42AE340E066E485ED95E242
S11320D00E946A2B85ED95E20E94AC2785ED95E27E
S11320E00E94B7270E94830ED4019C91F201808143
S11320F0392E381A9E012F5F3F4F690110E0E12C01
S1132100F12C85ED95E20E94AA2980917A22909182
S11321107B228E159F0579F4389E402D11244F5F44
S11321200BE029E367E485ED95E20E94B82B85ED89
S113213095E20E94BB299601412F68E485ED95E262
S11321400E942A2780917A2290917B22049721F47D
S113215085ED95E20E94AA293FEFE31AF30A165F80
S113216084E1C80ED11C123361F680917A229091D9
S11321707B22009709F046C060E070E080918022E5
S1132180909181220E94550B809180269091812606
S11321900197E1F4ECE7F6E283818F9382818F93D8
S11321A081818F9380818F9387E791E29F938F93AF
S11321B0BF92AF920E94C038950144E362E085ED7E
S11321C095E20E942A27CDBFDEBF2EC1ECE7F6E2DE
S11321D083818F9382818F9381818F9380818F9369
S11321E08BE791E29F938F93BF92AF920E94C03886
S11321F0950144E362E085ED95E20E942A27CDBF74
S1132200DEBF12C1019709F00FC162EB72E085EDE8
S113221095E20E94BD2780918F268F9380918E2610
S11322208F9380918D268F93ACE8B6E28C918F9337
S1132230A0E8B1E2BF93AF937F926F920E94C0383F
S113224080917C2690917D26A0917E26B0917F2658
S1132250CDBFDEBF8F319105A105B10560F120919D
S11322608026309181262130310529F5C855DF4F6C
S11322703881C85AD0403F93C955DF4F8881C75A27
S1132280D0408F93C655DF4F9881CA5AD0409F9350
S1132290C755DF4FA881C95AD040AF937F926F9240
S11322A084E891E29F938F93BF92AF920E94C038CB
S11322B0CDBFDEBF53C00497A105B10558F180918D
S11322C0802690918126019729F5CC55DF4FF8811E
S11322D0C45AD040FF93CD55DF4F2881C35AD04014
S11322E02F93CA55DF4F3881C65AD0403F93CB5500
S11322F0DF4F8881C55AD0408F937F926F9283E9D4
S113230091E29F938F93BF92AF920E94C038CDBF4A
S1132310DEBF24C0C056DF4FB881C05AD040BF933F
S1132320C156DF4FE881CF59D040EF93CE55DF4FF0
S1132330F881C25AD040FF93CF55DF4F2881C15A4C
S1132340D0402F937F926F9282EA91E29F938F9372
S1132350BF92AF920E94C038CDBFDEBF21EB31E205
S113236042E062E085ED95E20E942A2795014CE067
S113237062E085ED95E20E942A272CEB31E246E1EA
S113238062E085ED95E20E942A2780918026909153
S113239081260197E1F4ECE7F6E283818F93828151
S11323A08F9381818F9380818F9387E791E29F93AD
S11323B08F93BF92AF920E94C038950146E168E2C4
S11323C085ED95E20E942A27CDBFDEBF1BC0ECE756
S11323D0F6E283818F9382818F9381818F938081B1
S11323E08F938BE791E29F938F93BF92AF920E945A
S11323F0C038950146E168E285ED95E20E942A27FE
S1132400CDBFDEBF22EC31E240E262E085ED95E231
S11324100E942A27209192263091932640E268E276
S113242085ED95E20E942A2785ED95E20E947329A5
S1132430811142CEC655DF4FCDBFDEBFDF91CF91B4
S11324401F910F91FF90EF90DF90CF90BF90AF90CE
S11324509F908F907F906F905F904F903F900895E2
S1132460CF93DF93CDB7DEB72A97CDBFDEBF1092EF
S113247082261092832610927826109279268EEC6A
S113248090E0809376269093772688EC91E280936F
S11324907A2690937B2682E090E08093882690931E
S11324A0892685ED91E20E94933880E8E0E2F7E026
S11324B0858386EE91E20E9493380E942F0C80EE71
S11324C091E20E94933883EF91E20E9493380E9434
S11324D0CB1D0E9482210E94B10A80EE91E20E94EB
S11324E093382FEF83ED90E3215080409040E1F743
S11324F000C0000084E092E20E9493387894EFEFE9
S1132500F3ED20E3E150F0402040E1F700C000008B
S11325108BE192E20E94933880E8E0E2F7E0868360
S11325200E94FA0B812C912C00E010E00F2EF4E8AD
S1132530EF2EF6E2FF2EF02D0F2EF8E86F2EF6E2C6
S11325407F2EF02D6894CC24C1F8D12C0F2EF4E703
S11325504F2EF6E25F2EF02D0F2EFAEFAF2EB12C98
S1132560F02D0F2EF0E72F2EF6E23F2EF02DCE01A8
S113257001960E94B506F70180819181019721F0AF
S11325800E94E90A019739F5F301C082D18201154D
S1132590110529F4C6010E94670901E010E08C814D
S11325A0873099F48D8190E0982F88272E81822B93
S11325B0F101808391838F8190E0982F882728856B
S11325C0822BE2E7F6E280839183F201A082B1825A
S11325D00E94AD09CCCF0130110529F4C6010E9437
S11325E0840900E010E00E948208019781F40E94AF
S11325F0A40FFBE08F16910434F00E94CC080E94D3
S1132600FD08812C912C2FEF821A920AB0CF0E94E0
S11326103A09ADCF1F920F920FB60F92112408B64C
S11326200F9218BE09B60F9219BE0BB60F921BBEBD
S11326302F933F934F935F936F937F938F939F93C6
S1132640AF93BF93EF93FF9380917422909175227F
S11326502091A00BFC01EC5DF94D208320812D30ED
S113266049F4109274221092752284E296E20E9438
S1132670180D05C001968093742290937522FF91E2
S1132680EF91BF91AF919F918F917F916F915F91E6
S11326904F913F912F910F900BBE0F9009BE0F9059
S11326A008BE0F900FBE0F901F9018951F920F92A7
S11326B00FB60F92112408B60F9218BE0BB60F92E4
S11326C01BBE8F939F93EF93FF93E0EEF6E080851C
S11326D081FD0AC080917A2290917B220197809398
S11326E07A2290937B2209C080917A2290917B2256
S11326F0019680937A2290937B228FE193E0019755
S1132700F1F700C00000FF91EF919F918F910F901E
S11327100BBE0F9008BE0F900FBE0F901F90189520
S11327201F920F920FB60F92112408B60F9218BE83
S11327300F9008BE0F900FBE0F901F9018951F9218
S11327400F920FB60F92112408B60F9218BE8F93F2
S11327509F9381E090E080937C2290937D229F91CF
S11327608F910F9008BE0F900FBE0F901F90189579
S11327701F920F920FB60F92112408B60F9218BE33
S11327800BB60F921BBE8F939F93EF93FF93E0E0E2
S1132790F6E0808588233CF081E090E080938426F5
S11327A09093852604C01092842610928526FF916A
S11327B0EF919F918F910F900BBE0F9008BE0F90D9
S11327C00FBE0F901F901895E0E6F6E080EB818332
S11327D080E1858383E58093C0090895E0ECF9E006
S11327E0838382818823ECF78AE68A95F1F700C017
S11327F008958FEF0E94EE13E0ECF9E083810895D1
S11328008F929F92AF92BF92CF92DF92EF92FF92FC
S11328100F931F93CF93DF9300D000D0CDB7DEB7D3
S1132820FC01009709F484C042305105610571052B
S113283008F483C0A081B18118968C9118978B30CD
S113284009F040C04A015B01242F392D4A2D5B2D2C
S113285060E070E080E090E002E00E94B135A28484
S1132860B384C484D584E684F784008911890E94E2
S1132870E835ED91FC916894EE24E2F8F12C8E0198
S11328800F5F1F4F09958823C1F049815A816B81DD
S11328907C81411551056105710579F0DB01CA019F
S11328A0805F9F4FAF4FBF404097A105B10528F00F
S11328B0342F252F862F972F44C030E020E080E06E
S11328C090E03FC04A015B01242F392D4A2D5B2D36
S11328D060E070E080E090E001E00E94B135A28405
S11328E0B384C484D584E684F784008911890E9462
S11328F0E835ED91FC916894EE24E1F8F12C8E0119
S11329000F5F1F4F0995882371F089819A81AC016B
S113291060E070E001978F3E9F4F28F4342F252FFD
S1132920862F972F0EC030E020E080E090E009C0B1
S113293030E020E080E090E004C030E020E080E07F
S113294090E0632F722F2496CDBFDEBFDF91CF912D
S11329501F910F91FF90EF90DF90CF90BF90AF90B9
S11329609F908F9008952F923F924F925F926F9213
S11329707F928F929F92AF92BF92CF92DF92EF920B
S1132980FF920F931F93CF93DF93EC01009751F1C4
S1132990423051056105710570F1425051096109D8
S11329A071091A012B01088D198DA02EB12EC12C8D
S11329B0D12CE12CF12C00E010E0222D332D442DFC
S11329C0552D60E070E080E090E00E945835AA8CBC
S11329D0BB8CCC8CDD8CEE8CFF8C08A119A10E94E1
S11329E0E83511C020E030E040E050E060E070E005
S11329F080E090E008C020E030E040E050E060E09B
S1132A0070E080E090E0DF91CF911F910F91FF90F3
S1132A10EF90DF90CF90BF90AF909F908F907F907A
S1132A206F905F904F903F902F900895FC0181919B
S1132A309AE080FB879587F92191820F9150C9F71D
S1132A4008952F923F924F925F926F927F928F924E
S1132A509F92AF92BF92CF92DF92EF92FF920F9329
S1132A601F93CF93DF93CDB7DEB72D97CDBFDEBFD6
S1132A706C01422E532E642E752E362E272ED7012E
S1132A80AD90BC90119712968D919C91139780965E
S1132A9012968D939C931397F6018081853E11F0D5
S1132AA0811105C0D70114961C9281E034C14501FF
S1132AB0F60183858F3009F055C0D70114968C91A7
S1132AC0882319F09585891711F181E3F501119295
S1132AD08A95E9F7D6011D968C91F7018483D50177
S1132AE099960C9399979A961C939A979B964C92C5
S1132AF09B979C965C929C979D966C929D979E96B4
S1132B007C929E979F963C929F97D0962C92F6012A
S1132B1020812F7330E0215031094DE0429FC001E4
S1132B20439F900D11242DE0E2E7F0E2DE011196BF
S1132B3001900D922A95E1F78F31910508F4D3C0E5
S1132B400FC08191B601680F711DDB018C91D50115
S1132B508D935D01E417F50719F0E217F30789F780
S1132B6081E0D9C0F5018081882349F0C6010E9423
S1132B701615D70114969C91981709F485C081E322
S1132B80F50111928A95E9F7D50199960C939997D5
S1132B909A961C939A979B964C929B979C965C92C0
S1132BA09C979D966C929D979E967C929E979F96DD
S1132BB03C929F97D0962C92F6016081603239F155
S1132BC03196960181E090E0A0E0B0E009C09F0159
S1132BD06191AC014F5F5F4F6032D1F0DC01CA01FB
S1132BE08D01080D191DD8016C93D6011C964C91CA
S1132BF043FF08C0D9012C9121542A3118F4605E96
S1132C00D8016C93782F8830910509F701C070E0E2
S1132C10F5018081853011F485EE8083D601189604
S1132C208C911897803259F121E0270F8EE2F5013B
S1132C30E70FF11D8083C601089618963C91303247
S1132C40F9F0F60139967C5F04C0CF01319130323E
S1132C50B9F08401020F111DD8013C93D6011C96D2
S1132C604C9144FF08C0DC018C9181548A3118F4E2
S1132C70305ED8013C932F5F2713E7CF01C0272F85
S1132C80F501E20FF11D1082F6018385D5019096BE
S1132C908C93828D938DA0E0B0E0F50181A392A383
S1132CA0A3A3B4A3F6014489558960E070E0BA0196
S1132CB055274427842B952BA62BB72BF50181A3ED
S1132CC092A3A3A3B4A3F601848D958DA68DB78D8D
S1132CD0F50185A396A3A7A3B0A781E0D701159614
S1132CE08C9380E018C02981F601E20FF11D208148
S1132CF0F501E80FF91F2083FE013296DC011196DD
S1132D00AA0EBB1E9E01205E3F4F281B390BAE014D
S1132D10425F5F4F22CF2D96CDBFDEBFDF91CF91B3
S1132D201F910F91FF90EF90DF90CF90BF90AF90E5
S1132D309F908F907F906F905F904F903F902F90D7
S1132D4008952F923F924F925F926F927F928F924B
S1132D509F92AF92BF92CF92DF92EF92FF920F9326
S1132D601F93CF93DF93CDB7DEB7CD54D109CDBF39
S1132D70DEBF1C01009709F425C2DC0114968D9175
S1132D809C911597892B09F420C216968D919C91DC
S1132D901797892B09F41CC28091F4229091F52293
S1132DA0892B09F418C280E090E050C2E981FA81CD
S1132DB0ECABFDABEC80FD80EEAAFFAAFB8027966E
S1132DC0FFAE27970E8128960FAF28972F8138855D
S1132DD02A962EAF3FAF2A9789859A854C855D85C3
S1132DE026964EAF5FAF2697CE88DF88E88CF98CA5
S1132DF00A8D1B8D2C8D3D8D24960CAF1DAF2EAFEF
S1132E003FAF24972AA13BA14CA15DA12E962CAFE4
S1132E103DAF4EAF5FAF2E97C114D104E104F1046E
S1132E2031F4009709F409C26C01E12CF12C2696C7
S1132E304EAD5FAD26974115510551F0BA0180E0C2
S1132E4090E024966CAF7DAF8EAF9FAF24970BC0FC
S1132E5024960CAD1DAD2EAD3FAD2497012B022B56
S1132E60032B09F4EAC128961FAD2897A12FB0E0DF
S1132E7024962CAD3DAD4EAD5FAD24970E944D35EB
S1132E80260137012EA93FA9421A530A6108710885
S1132E90461A570A680A790A2A968EAD9FAD2A9770
S1132EA0880F991F82959295907F9827807F982705
S1132EB02CA93DA921503109820F931F6CA97DA92A
S1132EC00E94CF3493018201061B170B210931099B
S1132ED0C901B80127964FAD2797042F10E020E0D1
S1132EE030E0A90198010E94F73429013A0155EF15
S1132EF045165FE055066104710408F49EC165EF50
S1132F0046166FEF56066104710428F486E0D10179
S1132F1018968C9303C08BE0F10180878CE2A6EFB6
S1132F20B2E21D928A95E9F72CA93DA9890120E016
S1132F3030E040E050E0BA010EA31FA328A739A750
S1132F404AA75BA76CA77DA7B701A60180E090E024
S1132F50DC01C8AE59AF6AAF7BAF8CAF9DAFAEAFEB
S1132F60BFAFA02EB12EC12CD12CE12CF12C00E04E
S1132F7010E0242F352F462F572F60E070E080E0BB
S1132F8090E00E945835A6EFB2E22C933093F722DA
S1132F904093F8225093F9226093FA227093FB2213
S1132FA08093FC229093FD22EEA9FFA9AF012E2F5E
S1132FB0352F40E050E060E070E080E090E00E9457
S1132FC05835A92CB82CCEA4DFA4E8A8F9A80AA9DE
S1132FD01BA90E94E8352EA73FA748AB59AB6AABA3
S1132FE07BAB8EAB98AFEEEFF2E22083318342836A
S1132FF053836483758386839783C301B2016E5FB1
S11330007F4F8F4F9F4FD10118962C91263029F472
S113301022E030E040E050E004C024E030E040E052
S113302050E00E94BF34609306237093072380937B
S1133030082390930923ECA9FDA9E0930A23F093B4
S11330400B232796EFAC2797EE9EC001EF9E900DC1
S1133050112480930C2390930D23D10118968C9105
S1133060863009F066C0AEA0BFA0C12CD12CE12CE3
S1133070F12C00E010E028962FAD289730E040E0D6
S113308050E060E070E080E090E00E9458352696C1
S1133090EEADFFAD26971F01AE2EB32C0E9458351E
S11330A0AEA4BFA4C8A8D9A8EAA8FBA80EA918ADC5
S11330B00E94E835422E532E642E752EB62FA72F6C
S11330C0282E392EE6E1F3E22083318342835383B1
S11330D064837583868397832A960EAD1FAD2A97E2
S11330E04801202F392D40E050E060E070E080E09E
S11330F090E005E00E94B135A22EB32EC42ED52E49
S1133100E62EF72E082F192F242D352D462D572D59
S11331106B2F7A2F822D932D0E94E835EEE0F3E297
S113312020833183428353836483758386839783A7
S11331308BC0AEA0BFA0C12CD12CE12CF12C00E09F
S113314010E028962FAD289730E040E050E060E092
S113315070E080E090E00E9458352496ECACFDAC21
S11331600EAD1FAD249717012801AE2CB32CC42C2F
S1133170D52CE12CF12C00E010E00E945835AEA4CF
S1133180BFA4C8A8D9A8EAA8FBA80EA918AD0E9494
S1133190E835EEE0F3E22083318342835383648392
S11331A07583868397832E960CAD1DAD2EAD3FADF2
S11331B02E9700931E2310931F23209320233093D4
S11331C0212342C080E090E041C080E090E03EC016
S11331D080E090E03BC0E4EFF2E282E3DF011D9285
S11331E08A95E9F720823182F10181849284A38453
S11331F0B484282D392D4A2D5B2D60E070E080E0E9
S113320090E009E00E94B135922E832E4EA75FA76D
S113321068AB79AB8AAB9BABABE00E94F135019014
S1133220F081E02D0F2EF5E2EF2EF12CF02D8E0122
S11332300F5F1F4F09958111B9CD1092F42210929E
S1133240F52280E090E002C084EF92E2C35BDF4F9E
S1133250CDBFDEBFDF91CF911F910F91FF90EF9013
S1133260DF90CF90BF90AF909F908F907F906F90A2
S11332705F904F903F902F900895CF93DF930097E6
S1133280B1F061157105B1F0FB0120A124FF15C057
S11332902091822230918322232B91F02091BB2212
S11332A03091BC22232B79F080E090E025C080E0AF
S11332B090E022C080E090E01FC080E090E01CC05D
S11332C0C2E8D2E202C0CBEBD2E2DE01129621E3E5
S11332D0FB0101900D922A95E1F788839983FB0104
S11332E081A192A1A3A1B4A18BAB9CABADABBEABAE
S11332F01FAA18AE8C2F9D2FDF91CF9108950097B0
S113330019F0FC01108211820895FC01009761F00C
S113331043A154A165A176A143AB54AB65AB76AB95
S113332017AA10AE81E0089580E008952F923F928D
S11333304F925F926F927F928F929F92AF92BF92C1
S1133340CF92DF92EF92FF920F931F93CF93DF936D
S1133350CDB7DEB7E897CDBFDEBF8DAB9EAB009790
S113336009F4FBC06115710509F4F9C0DC010D9085
S1133370BC91A02DAFABB8AF5896ED91FC91599785
S1133380EFA7F8ABDC01D3964D905D906D907C90E7
S1133390D697D7962D903C90D8972E163F0620F0BE
S11333A00E94851980E0DEC0FE01319686E0DF01CF
S11333B01D928A95E9F781E3FB0111928A95E9F759
S11333C069837A83411451046104710409F0A9C02A
S11333D0AFA9B8ADED91FC91119780858B3039F48C
S11333E09A964D905D906D907C909D979AC0EFA9B0
S11333F0F8AD228D338D82A193A1A901481B590BED
S11334004FA758AB8EC06FA478A8621873089101B7
S113341040E050E060E070E0CB012FA238A749A75C
S11334205AA76BA77CA78DA79EA749A95AA96BA9E0
S11334307CA9452B462B472B09F540E050E060E082
S113344070E080E090E0D2019296AC9092979396CF
S1133450BC9093979496CC9094979596DC9095977E
S11334609696EC9096979796FC90979798960C91D1
S1133470989799961C910E94E83511C049A95AA9B8
S11334806BA97CA9C2010E94B314AFA0B8A4C12C3B
S1133490D12CE12CF12C00E010E00E94E8351B82D5
S11334A01C82D201ED91FC910280F381E02DDE01BA
S11334B011964D010F2EF1E2AF2EF5E1BF2EF02D46
S11334C063016894EE24E5F8F12C8E01095F1F4F27
S11334D00995882309F445C08B819C81280E391EE7
S11334E0EFA5F8A92E163F0610F149A85AA86BA813
S11334F07CA8B301A2018FA998AD0E9400142B01EE
S11335003C01611571058105910549F48E81811194
S113351016C08DA99EA90E94851980E023C0212C84
S1133520312C49AA5AAA6BAA7CAA4FA858AC8E81FE
S1133530882309F468CF49A85AA86BA87CA8ADA928
S1133540BEA9D3964D925D926D927C92D697D796F2
S11335502D923C92D8978E8105C080E003C080E014
S113356001C080E0E896CDBFDEBFDF91CF911F910F
S11335700F91FF90EF90DF90CF90BF90AF909F900E
S11335808F907F906F905F904F903F902F90089511
S11335906F927F928F929F92AF92BF92CF92DF925F
S11335A0EF92FF920F931F93CF93DF935C016B0114
S11335B0EA01009709F472C06115710509F470C03D
S11335C0FB018081882309F46DC0209709F46CC045
S11335D08F3219F4FFEFCF1ADF0A81E3FE01119253
S11335E08A95E9F780E188A3F6018081882309F4AC
S11335F05DC0BE01C5010E943D198C01009709F40C
S113360057C06FE270E0C6010E942B38009741F06A
S1133610E82EEC184C01FFEF8F1A9F0AF12C2CC0F6
S1133620F60101900020E9F73197EC19FD09EE2E1F
S113363046018E0E911CF2CFFE0101900020E9F7A5
S113364031973F016C1A7D0A6E147F04A9F4A3011B
S1133650BE01C6010E943638892B71F4C8010E944C
S11336607F19F601E60DF71D8081882319F188A1E1
S113367084FD09C080E021C0BE01C8010E949619E2
S11336808111DACF03C0640100E010E0C8010E9498
S11336907F19F60180818111ACCF0EC080E00DC08E
S11336A080E00BC080E009C080E007C081E005C075
S11336B080E003C081E001C081E0DF91CF911F91E0
S11336C00F91FF90EF90DF90CF90BF90AF909F90BD
S11336D08F907F906F9008955F926F927F928F92F8
S11336E09F92AF92BF92CF92DF92EF92FF920F938D
S11336F01F93CF93DF93CDB7DEB76097CDBFDEBF07
S11337006C015B013A014901502E009709F453C042
S11337106115710509F452C083E080170CF451C09F
S11337200023F4F090E10902F0011124E254FE4F69
S11337309F2F990F990B6894EE24E4F8F12C8E01D5
S11337400F5F1F4F2E2F3F2F492F592F692F792F8E
S1133750892FF60109958823B9F18D818823B9F160
S113376080912E238823B1F180E090E04CC08D81BC
S113377080932E2389859A85AB85BC8580932F23DE
S113378090933023A0933123B09332238D859E856B
S1133790AF85B8898093332390933423A093352342
S11337A0B093362386E293E22EC08FEF80932E23CC
S11337B086E293E228C080E090E025C080E090E0BB
S11337C022C080E090E01FC080E090E01CC080E058
S11337D090E019C0E6E2F3E281E1DF011D928A95EF
S11337E0E9F7C082D182A0922823B0922923609263
S11337F02A2370922B2380922C2390922D235520E0
S11338000CF0B5CFD2CF6096CDBFDEBFDF91CF91A4
S11338101F910F91FF90EF90DF90CF90BF90AF90EA
S11338209F908F907F906F905F900895E0ECFAE006
S1133830838382818823ECF708958FEFE0ECFAE02C
S1133840838382818823ECF7E0ECFAE08381089596
S1133850FF920F931F93CF93DF93C82FD42F152F6D
S1133860062FF72E0E941D1C8C2F80640E94161CAC
S11338708F2D0E94161C802F0E94161C812F0E94DF
S1133880161C8D2F0E94161CCC2319F0C83029F069
S113389008C085E90E94161C0FC087E80E94161C08
S11338A00BC08FEF0E94161C07C00E941D1C8F3F87
S11338B029F4C150D1F702C0CAE0F7CFDF91CF910C
S11338C01F910F91FF900895EF92FF920F931F9312
S11338D08091382381111EC02091392330913A23DD
S11338E040913B2350913C2360913D2370913E23B2
S11338F0E12C6894FF24F1F801E413E280913F2362
S1133900909140230E947B1F882331F081E08093B3
S1133910382303C081E001C080E01F910F91FF9024
S1133920EF9008952F923F924F925F926F927F9201
S11339308F929F92AF92BF92CF92DF92EF92FF92BB
S11339400F931F93CF93DF93CDB7DEB76897CDBFA7
S1133950DEBF29833A834B835C836D837E838F83AD
S113396098871701E114F10409F4FAC00F2EF1E469
S11339708F2EF5E29F2EF02D0F8B188F69807A80A1
S113398021E07222930140E050E060E070E0CB015E
S113399069863A874B875C876D877E878F87988B8C
S11339A029813A814B815C816D817E818F819885EB
S11339B0A984BA84C12CD12CE12CF12C00E010E0B4
S11339C00E94FD35522E432E498B5A8B6B8B7C8B78
S11339D08D8B9E8B40E052E04619570949875A87E0
S11339E02416350610F429863A86A0903923B0901F
S11339F03A23C0903B23D0903C23E0903D23F090A9
S1133A003E2300913F2310914023252D342D4989D5
S1133A105A896B897C898D899E890E94063609F4AE
S1133A206AC00E94641C882309F49CC050E150932E
S1133A3086068091372382FF10C0252D342D4989B5
S1133A405A896B897C898D899E8909E00E94CC35CD
S1133A50642F752F422F532F04C0452D542D69898F
S1133A607A8981E10E94281C882331F080E1E0E812
S1133A70F6E0858380E079C00E941D1C8E3FE1F74B
S1133A8001E413E20E941D1CF80181938F01E815E3
S1133A90F905C1F75092392340923A23F989F093FA
S1133AA03B232A8920933C233B8930933D234C8933
S1133AB040933E235D8950933F236E896093402356
S1133AC0B3016F5B7C4D49855A858F89988D0E941F
S1133AD022388F89988DE985FA858E0F9F1F8F8BE9
S1133AE0988F0E941D1C0E941D1CF0E1F093850616
S1133AF00E941D1C11C0B3016F5B7C4D49855A8522
S1133B008F89988D0E9422382F89388D49855A854E
S1133B10240F351F2F8B388F69857A85261A370A2B
S1133B205B01262F3B2D40E050E060E070E080E038
S1133B3090E0A980BA80CB80DC80ED80FE800F818C
S1133B4018850E94E83529833A834B835C836D830F
S1133B507E838F8398872114310409F00FCF04C02A
S1133B6081E003C080E001C081E06896CDBFDEBF84
S1133B70DF91CF911F910F91FF90EF90DF90CF9045
S1133B80BF90AF909F908F907F906F905F904F9079
S1133B903F902F9008959F92AF92BF92CF92DF9261
S1133BA0EF92FF920F931F93CF93DF93E0E8F6E039
S1133BB080E2818380E8818380E1818390E4928341
S1133BC0858381E58093C00A109237231AE00E940E
S1133BD01D1C1150E1F780E1E0E8F6E08683C0E0C7
S1133BE0D2E040E050E0BA0180E00E94281C81301D
S1133BF049F021972097A9F780E1E0E8F6E0858372
S1133C00012FC2C04AEA51E060E070E088E00E94FF
S1133C10281C082F047082FD19C00E941D1C0E94DC
S1133C201D1C0E941D1C80FFAFC00E941D1C8A3AEF
S1133C3009F0AAC082E080933723C0E0D0E8912C39
S1133C40A12CB12C6894CC24C6F812C040E050E0FA
S1133C50BA0187E30E94281C40E050E0BA0189E2DF
S1133C600E94281C82FDE9CF81E080933723E5CFB1
S1133C7080913723982F9370C9F081FD05C0D12C12
S1133C80E12CF12C00E004C0D92CEA2CFB2C0C2DE7
S1133C9040E050E0BA0187E30E94281C4D2D5E2DC0
S1133CA06F2D702F89E20E94281C06C040E050E06E
S1133CB0BA0181E00E94281C082F017080FF09C00E
S1133CC021972097A9F680E1E0E8F6E08583012FAB
S1133CD05BC0C0913723C1FF1AC040E050E0BA0175
S1133CE08AE30E94281C882329F080E1E0E8F6E0BA
S1133CF085834AC00E941D1C86FF03C0C460C09314
S1133D0037230E941D1C0E941D1C0E941D1C40E0A4
S1133D1052E060E070E080E10E94281C882329F0D2
S1133D2080E1E0E8F6E085832FC080E1E0E8F6E09A
S1133D30858380ED8093C0098FEF8093392380932E
S1133D403A2380933B2380933C2380933D238093A9
S1133D503E2380933F238093402381E08093382344
S1133D60E12C6894FF24F1F801E413E220E030E050
S1133D7040E050E060E070E080E090E00E94921C3F
S1133D8001E0811101C000E0802FDF91CF911F91EC
S1133D900F91FF90EF90DF90CF90BF90AF909F90E6
S1133DA008952F923F924F925F926F927F928F92DB
S1133DB09F92AF92BF92CF92DF92EF92FF920F93B6
S1133DC01F93CF93DF93CDB7DEB76297CDBFDEBF2E
S1133DD02F87388B498B5A8B562E472E382E292EF7
S1133DE009831A833601AB86BC86012B09F460C0B3
S1133DF0E114F10409F45EC0CE14DF0408F45CC0DD
S1133E00AB2809F45BC0970140E050E060E070E04B
S1133E10CB01EB823C834D835E836F8378878987F4
S1133E209A878D869E864701DF84C888B988AA88C8
S1133E30740109811A812D2D3C2D4B2D5A2D652D90
S1133E40742D832D922D0E94921C8823C9F1ED8438
S1133E50FE840D2D1C2D2B2D3A2D452D542D632D17
S1133E60722D89819A81EB85FC850995882351F10E
S1133E702D2D3C2D4B2D5A2D652D742D832D922DDA
S1133E80AB80BC80C12CD12CE12CF12C00E010E0E3
S1133E900E94E835D22EC32EB42EA52E562E472EC0
S1133EA0382E292E681879086814790408F60CC08D
S1133EB080E00BC080E009C080E007C080E005C05E
S1133EC080E003C081E001C081E06296CDBFDEBF27
S1133ED0DF91CF911F910F91FF90EF90DF90CF90E2
S1133EE0BF90AF909F908F907F906F905F904F9016
S1133EF03F902F9008952F923F924F925F926F922E
S1133F007F928F929F92AF92BF92CF92DF92EF9265
S1133F10FF920F931F93CF93DF93CDB7DEB76997CB
S1133F20CDBFDEBF29833A834B835C836D837E835D
S1133F308F839887E114F10409F40FC10F2EF1E483
S1133F408F2EF5E29F2EF02D1701280129813A8149
S1133F503170288F398F40E050E060E070E0CB0191
S1133F6029873A874B875C876D877E878F87988BF5
S1133F7029813A814B815C816D817E818F81988515
S1133F80A984BA84C12CD12CE12CF12C00E010E0DE
S1133F900E94FD352987398B4A8B5B8B6C8B7D8B1B
S1133FA08E8B9F8B612C6894772471F8688D798D42
S1133FB0661A770A2614370408F43101A0903923CD
S1133FC0B0903A23C0903B23D0903C23E0903D2313
S1133FD0F0903E2300913F23109140232985398995
S1133FE04A895B896C897D898E899F890E940636FE
S1133FF0C1F10E94641C882309F4B1C0888D998D95
S1134000892B21F4611492E0790698F4E12C6894E8
S1134010FF24F1F801E413E2298539894A895B898F
S11340206C897D898E899F890E94921C882309F45A
S113403098C0E985E0933923F989F0933A232A89D2
S113404020933B233B8930933C234C8940933D236D
S11340505D8950933E236E8960933F237F897093DB
S1134060402381E4481683E2580671F0A301B201AB
S1134070888D998D8F5B9C4D0E9422381092382335
S11340802614370409F46FC090E19093860680915A
S1134090372382FF10C0298539894A895B896C8955
S11340A07D898E899F8909E00E94CC35642F752F04
S11340B0422F532F04C0498559896A897B8988E135
S11340C00E94281C882331F080E1E0E8F6E0858333
S11340D080E04CC08EEF0E94161C01E413E2F8014C
S11340E081918F010E94161C08151905C1F78FEFE5
S11340F00E94161C8FEF0E94161C0E941D1C8F3FED
S1134100E1F70E941D1CF0E1F0938506460C571C54
S11341105301262D3B2D40E050E060E070E080E04C
S113412090E0A980BA80CB80DC80ED80FE800F8196
S113413018850E94E83529833A834B835C836D8319
S11341407E838F8398872618370821E020933823AD
S11341502114310409F0FACE08C081E007C080E0E0
S113416005C080E003C081E001C081E06996CDBF55
S1134170DEBFDF91CF911F910F91FF90EF90DF9001
S1134180CF90BF90AF909F908F907F906F905F90F3
S11341904F903F902F9008952F923F924F925F92AD
S11341A06F927F928F929F92AF92BF92CF92DF9243
S11341B0EF92FF920F931F93CF93DF93CDB7DEB7A8
S11341C02997CDBFDEBF28873D83562E472E09830E
S11341D01A83CB82DC82AE82BF82012B09F446C0F3
S11341E0CD2809F445C04701A22EB32EC42ED52EE6
S11341F0782E692E170132C02885398582169306D8
S1134200C8F1E884F98409811A812A2D3B2D4C2DAB
S11342105D2D652D742D872D962D0E947B1F88237F
S113422059F1E884F984A7012E2D352F40E050E0A0
S113423060E070E080E090E0E52CF42C072D162D72
S11342400E94E835A22EB32EC42ED52E562E472E0C
S1134250782E692E88859985881A990A2114310443
S113426031F18114910471F481E036C080E034C0EE
S113427080E032C080E030C080E02EC081E02CC0FD
S113428081E02AC0EE80FF800A2D1B2D2C2D3D2DB0
S1134290452D542D672D762D89819A81EB81FC81E2
S11342A0099588879987892B09F0A6CFE7CFEE80F7
S11342B0FF800A2D1B2D2C2D3D2D452D542D672DB2
S11342C0762D89819A81EB81FC810995888799876C
S11342D0892B09F096CFD4CF2996CDBFDEBFDF91CD
S11342E0CF911F910F91FF90EF90DF90CF90BF90EF
S11342F0AF909F908F907F906F905F904F903F9082
S11343002F9008950F9380914125813009F454C072
S11343100E94CB1D811109C08AE292E29F938F9380
S11343200E9481380F900F9047C081E0809341250F
S113433000E02CEC30E24BE75FE161ED7EE182E9E5
S11343409CE10E946C1B8093142790931527892B62
S113435079F40FEF2CEC30E24BE75FE161ED7EE1A5
S113436082E99CE10E946C1B80931427909315278B
S113437080911427909115270E94A1168093AE2650
S11343809093AF2641EE56E269E472E20E94C81AA5
S113439061EE76E28091AE269091AF260E943D199F
S11343A080931627909317278BE492E29F938F9321
S11343B00E9481380F900F900F910895DF92EF9231
S11343C0FF920F931F93CF93DF93EC01D62E142FFC
S11343D0F22EE0FE0DC0402F411B622F6D0D0E9496
S11343E08329402F4D19612F6F0DCE010E9483291F
S11343F0E1FE0EC0402F411B6F2D6D19CE010E94AE
S11344008329402F4D196F2D611BCE010E948329F2
S1134410E3FE0EC0402F410F6F2D6D0DCE010E94A3
S11344208329402F4D0D612F6F0DCE010E948329EA
S1134430E2FE0EC0402F410F6F2D6D19CE010E9478
S11344408329402F4D0D6F2D611BCE010E948329BE
S1134450DF91CF911F910F91FF90EF90DF9008951E
S11344608F929F92AF92BF92CF92DF92EF92FF9280
S11344700F931F93CF93DF93EC01A62E942ED22E8D
S1134480802E11E0121BB22EB194BB0CE02E042F2F
S1134490262F4D2D60E00E94DE21DD20C9F00F2E75
S11344A0F3E0CF2EF02DF12C112324F0DA94B39401
S11344B0B3941B0DF3941C0DE82C092D2A2D4D2DBE
S11344C06F2DCE010E94DE21C394C394FD1460F3CA
S11344D0DF91CF911F910F91FF90EF90DF90CF90DC
S11344E0BF90AF909F908F900895DF92EF92FF92CC
S11344F00F931F93CF93DF93EC01162FF42EE22E2C
S1134500D02E81E0820F282F220F481B681B022F18
S1134510CE010E949C22882339F00D2D2E2D4F2D83
S1134520612FCE010E943022DF91CF911F910F9114
S1134530FF90EF90DF9008950F93FC010150040F5A
S113454084A996A9941738F0081768F481E0041731
S113455040F080E006C00817D0F081E0041708F0AE
S113456080E08823C9F02150260F83A995A99617C6
S113457038F0281770F481E0261770F080E00CC042
S1134580281748F081E0261738F080E005C080E065
S113459003C081E001C080E00F910895DB0114960F
S11345A0ED91FC91159720E030E061E009950895C4
S11345B0DB011496ED91FC91159720E030E063E067
S11345C009950895DB011496ED91FC91159720E06F
S11345D030E040E064E009950895DB011496ED9124
S11345E0FC91159720E030E041E064E009950895DE
S11345F0DB011496ED91FC91159720E030E062E028
S113460009950895DB011496ED91FC91159720E02E
S113461030E065E009950895DB011496ED91FC9175
S1134620159766E009950895AF92BF92CF92DF92F5
S1134630EF92FF921F93CF93DF937C015B01EA011A
S1134640D12CFE011491D1100BC01F3F09F44FC0AF
S1134650412FB501C7010E94022381114EC04FC0F2
S11346601F3F51F44FEFB501C7010E940223882375
S113467009F447C0D12C41C01E3F09F444C0103F87
S1134680C8F5103E40F0412F4F70B501C7010E949C
S1134690F822D12C32C0103D40F0412F4F70B501AB
S11346A0C7010E94D822D12C28C0103CC0F0B5010B
S11346B0C7010E94E222C12ECC0CCC0CCC0CCC0C39
S11346C0C394C394D12CC6010E940A25B501C70125
S11346D00E94ED22C6010E940A25D12C0EC011238E
S11346E05CF0812F90E00E940A25D12C06C0DD24C5
S11346F0D39403C0D12C01C0D12C2196A2CF80E049
S113470003C080E001C081E0DF91CF911F91FF9051
S1134710EF90DF90CF90BF90AF9008951F93CF9309
S1134720DF93EC01162F462F417065E00E940025AF
S11347301695412F417066E0CE010E940025169522
S1134740412F417067E0CE010E9400251695412F4C
S1134750417068E0CE010E9400251695412F4170FA
S113476069E0CE010E9400251695412F41706AE050
S1134770CE010E9400251695412F41706BE0CE01B9
S11347800E940025412F46956CE0CE010E94002531
S113479041E064E0CE010E94002540E064E0CE01E7
S11347A00E940025DF91CF911F910895DF92EF922F
S11347B0FF920F931F93CF93DF93EC01D42E7901D3
S11347C0062F10E0F8013197E730F10508F09FC09B
S11347D0E650FF4F0C94383541117EC098C041110A
S11347E084C095C06DE00E94F72440E06DE0CE01E6
S11347F00E94002565E0CE010E94F72466E0CE0108
S11348000E94F72467E0CE010E94F72468E0CE01FD
S11348100E94F72469E0CE010E94F7246AE0CE01E9
S11348200E94F7246BE0CE010E94F7246CE0CE01D5
S11348300E94F72464E0CE010E94F72462E0CE01D6
S11348400E94F72463E0CE010E94F72461E0CE01C8
S11348500E94F72441E062E0CE010E94002541E07D
S113486063E0CE010E94002552C041110AC041E01C
S113487062E00E94002541E063E0CE010E94002531
S113488046C081E048130BC040E062E0CE010E94C4
S1134890002541E063E0CE010E94002538C0E2E03B
S11348A04E130BC041E062E0CE010E94002540E0BF
S11348B063E0CE010E9400252AC040E062E0CE0100
S11348C00E94002540E063E0CE010E9400251FC045
S11348D0642F0E948E231BC0F70161917F01CE01DA
S11348E00E948E23DA94C1F712C0F7016491CE01BD
S11348F00E948E23FFEFEF1AFF0ADA94B1F707C084
S113490061E00E94002503C060E00E94002581E070
S1134910DF91CF911F910F91FF90EF90DF90089559
S1134920CF93DF9300D0CDB7DEB770E0660F771F6B
S1134930680F791F42E050E0CE0101960E940E38C4
S113494089819A810F900F90DF91CF910895880FFC
S1134950880F880F860F0895CF93C82F682F669508
S11349606695669582E992E00E949024FC0140815C
S1134970C77021E030E0C90102C0880F991FCA95B1
S1134980E2F7842B8083CF910895CF93DF93C82FD0
S1134990D62F682F66956695669588E892E00E9402
S11349A09024FC01D11111C04FB7F8945081C77005
S11349B021E030E0C90102C0880F991FCA95E2F7CF
S11349C08095852380834FBF0FC04FB7F8945081E3
S11349D0C77021E030E0C90102C0880F991FCA9551
S11349E0E2F7852B80834FBFDF91CF910895860F27
S11349F0911DFC0183A18F3F11F00E94AC24089506
S1134A00860F911DFC0183A18F3F19F0642F0E9432
S1134A10C5240895009741F02EE33FE1F901319751
S1134A20F1F701970097D1F70895BF92CF92DF92E3
S1134A30EF92FF920F931F93CF93DF938C01EB01BF
S1134A40B42E79018AE0481721F095E14917C1F0A5
S1134A506AC04FEFC8010E94CE22EFE1F3E0319724
S1134A60F1F700C000004CE952E0BE01C8010E9409
S1134A7014238FE193E00197F1F700C0000053C0C5
S1134A80CA80DB8040E0C8010E94F82242E0BE01F7
S1134A90C8010E94D822F6014481486BBE01C801B6
S1134AA00E94022340E4BE01C8010E94022341E0A7
S1134AB0BE01C8010E94F822F6012681378140E434
S1134AC0BE01C8010E940C2340E0BE01C8010E943F
S1134AD0D82240E0BE01C8010E94F82241E0BE0194
S1134AE0C8010E94D822F6014481486BBE01C80166
S1134AF00E94022340E4BE01C8010E94022341E057
S1134B00BE01C8010E94F822F60126813781205C8B
S1134B103F4F40E4BE01C8010E940C2340E0BE01A7
S1134B20C8010E94D82297014B2DBE01C8010E94E2
S1134B30902ADF91CF911F910F91FF90EF90DF901A
S1134B40CF90BF900895FC01E60FF11D849190E091
S1134B50982F88273196E4918E0F911D0895FC01BA
S1134B60849108950E94AF25882311F0823011F4B6
S1134B7086E0089583E0089580E00895FC01808D27
S1134B808F5F089566E00E94A325089568E00E945F
S1134B90A32508950A96FC01849108950B96FC01BF
S1134BA084910895AF92BF92CF92DF92EF92FF92D9
S1134BB00F931F93CF93DF937C01B62EDC011496E1
S1134BC0CD91DC911597CE010E94AF25182FF701E6
S1134BD0848195810E94B225082F113019F0AA24EE
S1134BE0AA9404C00F2EFFE0AF2EF02DD701149627
S1134BF08D919C9115970E94CA25D82EF701848126
S1134C0095810E94CE25C82ED70114968D919C9132
S1134C1015970E94C625B0E6BB1548F4009739F0F5
S1134C20C80FD91F0F2EF1E6DF2EF02D12C0F701A9
S1134C30848195810E94C225F0E4FB1548F4009715
S1134C4039F0C80FD91F0F2EF1E4DF2EF02D01C06B
S1134C506196CB1490F4D70150961C9250975396BA
S1134C601C92539754961C92549751961C925197A8
S1134C7052961C9280E090E073C0CD1408F468C092
S1134C80202F30E08E01FE0184918F3F11F4219694
S1134C905BC0DB1051C06E01D70114968D919C91BD
S1134CA015970E94AF25882311F0823001F5F80191
S1134CB00491D70153960C93F6013196E491D701F0
S1134CC05496EC93F6013396E491D7015096EC9305
S1134CD0F6013496E491D7015196EC93F60135969A
S1134CE0E491D7015296EC938C2F9D2F39C0FE018D
S1134CF00491802F8F708250D70152968C935297D3
S1134D0002950F7051960C93FE013196E4918E2F0B
S1134D108F70D70154968C935497E295EF70539605
S1134D20EC93FE013296E491E295EF70D701509630
S1134D30EC938C2F9D2F14C0FE013296E491EA214E
S1134D40CE0FD11DC20FD31FDC1411F0D3949ACF10
S1134D50F701108A138A148A118A128A80E090E07B
S1134D60DF91CF911F910F91FF90EF90DF90CF9043
S1134D70BF90AF9008956F927F928F929F92AF925F
S1134D80BF92CF92DF92EF92FF920F931F93CF9334
S1134D90DF936C01162F742E622F0E94D2257C01A2
S1134DA0009709F447C0F601848195810E94B225D9
S1134DB0B82EF601D389C4896188610E9289791A63
S1134DC0972C9C1A0C2F2D2F492D662DC6010E945D
S1134DD09C22811103C0F60180892DC0D95F8D2EDC
S1134DE0869486948694CC2311F1EB0CF11CAA24AE
S1134DF0AA94A80CB12CFFEFAF1ABF0A13C0FE018E
S1134E00049120E0492D612FC6010E948C2921962E
S1134E10185F8C2F8E19881590F3EA0CFB1C939461
S1134E20971429F08820D9F3162DE701E8CFF6016D
S1134E30808901C080E0DF91CF911F910F91FF9095
S1134E40EF90DF90CF90BF90AF909F908F907F9026
S1134E506F900895DF92EF92FF920F931F93CF9379
S1134E60DF938C01F62ED42EE901DC015596ED91E9
S1134E70FC9156970995D80E2881222369F0219632
S1134E80E12C4D2D6F2DC8010E94BB26F80EE80EB3
S1134E9029912111F6CF01C0E12C8E2DDF91CF9104
S1134EA01F910F91FF90EF90DF900895DC0114960D
S1134EB08D919C911597009709F44DC057962C91AC
S1134EC0579721110DC0FC013596E4915896EC9347
S1134ED05897FC013C96849159968C9359971BC022
S1134EE0213069F4FC013F96E4915896EC9358976D
S1134EF0FC017096849159968C9359970CC0FC01CF
S1134F003D96E4915896EC935897FC013E96849113
S1134F1059968C93599758968C915897992787FD51
S1134F20909559962C915997821B910927FD939539
S1134F305A962C915A97203461F0829FC001112413
S1134F400024880F991F001C880F991F001C892FAB
S1134F50902D5B968C930895FC01178A0E94562726
S1134F6008952CEB35E2FC01258B368B08952EEB4E
S1134F7035E2FC01258B368B0895CF93DF93EC014A
S1134F808C819D818617970749F06C837D83CE01C0
S1134F900E9456278CEB95E28D8B9E8BDF91CF91EF
S1134FA00895AF92BF92CF92DF92EF92FF920F9348
S1134FB01F93CF93DF93EC01162FE42ED22E2617E6
S1134FC018F4C62EC21A02C0C22EC61A0E1518F440
S1134FD0AE2CA01A02C0A02EAE18CA1428F08A2D36
S1134FE0AC2CC82EB12C08C08D2DD02E082F812FAB
S1134FF01E2DE82EBB24B394D11630F48E2DE02E52
S1135000082F812F1D2DD82EFA2CF694E01610F4BB
S113501001E001C00FEFD116A0F0B11006C04E2D73
S1135020612FCE010E94832905C0412F6E2DCE0130
S11350300E948329FC1812F4E00EFA0C1F5FD116AB
S113504060F7DF91CF911F910F91FF90EF90DF9068
S1135050CF90BF90AF9008951F93CF93DF93EC014F
S11350601C821D821E821F82198681E0888782E24B
S11350708A871E861F86FE01B39680E09FEF919378
S11350808F5F8E30E1F711E018A3CE010E94B127A3
S11350901F8B188E198E80E48A8F1B8E8BE49CE202
S11350A089AB9AABDF91CF911F910895DB01ED910C
S11350B0FC91099508950F931F93CF93DF93EC010F
S11350C08B01E9A9FAA982E0099520E030E04AE0E1
S11350D0B801CE010E945628182FE9A9FAA983E045
S11350E00995E9A9FAA980E00995812FDF91CF916B
S11350F01F910F9108950F931F93CF93DF93EC01AA
S11351008B01E9A9FAA982E00995E9A9FAA981E044
S1135110099520E030E044E1B801CE010E94562810
S11351209E012D5C3F4F47E1B801CE010E945628F5
S1135130E9A9FAA980E00995DF91CF911F910F9118
S11351400895FF920F931F93CF93DF93EC018B018C
S1135150E9A9FAA982E00995E9A9FAA981E00995E2
S113516020E030E045E1B801CE010E945628F82E37
S1135170882341F09E012D5C3F4F47E1B801CE01E9
S11351800E945628E9A9FAA980E009958F2DDF919C
S1135190CF911F910F91FF900895FC01448F258FAB
S11351A09C01245E3F4F42E30E9456280895CF930A
S11351B0DF931F92CDB7DEB79E012F5F3F4F46E4CA
S11351C00E94562889810F90DF91CF910895CF9343
S11351D0DF931F92CDB7DEB79E012F5F3F4F47E4A9
S11351E00E94562889810F90DF91CF91089520E085
S11351F030E048E40E9456280895CF93DF93EC01F1
S11352006A817B810E94D72888836A817B81CE0151
S11352100E94E72889836A817B81CE010E94F72856
S11352208B879E012D5C3F4F6A817B8147E1CE01D4
S11352300E945628DF91CF910895CF93DF93EC011C
S11352406A817B810E945B28882329F0CE010E9419
S1135250FD2881E001C080E0DF91CF9108954F9255
S11352605F926F927F928F92AF92CF92EF92FF9262
S11352700F931F93CF93DF93CDB7DEB73C012B0180
S1135280F42E122F0E942C28F30142825382F0A69E
S113529011A702A7E3A6C4A6A5A686A6888987A700
S11352A0898987A38A8985A38B8986A38C8984A30A
S11352B08D8980AB8E8983A3C3010E941D29DF9150
S11352C0CF911F910F91FF90EF90CF90AF908F905F
S11352D07F906F905F904F900895FC01628173817D
S11352E00E947B280895CF93DF93EC01EE85FF8520
S11352F0309709F009956A817B81CE010E94A1282B
S1135300DF91CF910895362F242FFC0162817381A0
S1135310432F0E94CD2808950F93FC01828193812D
S1135320648F458F278F068F9F01245E3F4F4BE389
S1135330BC01CF010E9456280F910895FC0183857A
S1135340883221F0823021F483E008958FEF0895AC
S113535081E00895CF93DF93EC018B85803321F4B2
S11353608FEF88A389A304C0CE010E949E2988A33D
S1135370DF91CF910895FC0110A20895FC011282DF
S113538080818150838314820895FC01208182816D
S1135390820F82839181891760F484818F5F848373
S11353A08381280F291710F02FEF290F238381E021
S11353B0089580E00895DC011696ED91FC9117970D
S11353C015968C919F01280F311DC9011192E81780
S11353D0F907E1F70895FC0191E08381861708F449
S11353E090E021E0461708F020E0322F392B81E0CD
S11353F05281451708F480E083239223892B089572
S1135400DC01FB01108212968C9112978183159610
S11354108C9115978150828313968C918383089580
S1135420FB0161812381213019F0233021F006C072
S113543048E0460F04C0462F685001C0462F0E9422
S1135440EB290895DC011696ED91FC9117971296BD
S11354508C91481B477081E090E0DC0102C0AA0FE8
S1135460BB1F4A95E2F7AD01E60FF11D222321F09F
S11354708081482B40830895409580814823408350
S11354800895FB014181FC012281421770F02381C0
S1135490241758F0FB013081FC012581321728F4D0
S11354A0FB012481632F0E94222A0895DF92EF9248
S11354B0FF920F931F93CF93DF938C01EB01FA803C
S11354C08B81813041F098F0823049F0833059F07B
S11354D0D12CE12C0FC0DD24D394E12C0BC0D12CB2
S11354E0EE24EA9407C0DD24DA94E12C03C0D12C25
S11354F0EE24E394FF2024F4BE01C8010E94412A53
S113550088818E0D888389818D0D8983FF0C91F7A5
S1135510DF91CF911F910F91FF90EF90DF9008954D
S11355200F931F93CF93DF93E901FB010281138152
S113553050E0FA017497E433F105C0F5EF5FFE4FD4
S11355400C943835B901C8010E94102A882381F1CE
S1135550BE01C8010E94562A81E02DC0B901C801CC
S11355600E94412A81E027C0C8010E94DB29C801AA
S11355700E94BE2981E01FC0C8010E94C52988235A
S1135580C9F0C8010E94DB2981E015C0B901C80136
S11355900E94002A81E00FC0F8018581888381E0A0
S11355A00AC0F8018181888381E005C081E003C0DD
S11355B081E001C080E0DF91CF911F910F910895A8
S11355C0AF92BF92CF92DF92EF920F931F93CF933C
S11355D05C01C62EE42ED22E27E02D15B8F4CD2D75
S11355E0162F0FEF20E04E2D612FC5010E948C294C
S11355F0C850185FC830A8F78D2D877028E02C0D8F
S113560098EF9D0D987FC22EC90E01C08D2D882361
S113561099F007E008270F5F07708FEF90E09C0177
S113562002C0220F331F0A95E2F7890120E04E2DB4
S11356306C2DC5010E948C29CF911F910F91EF9081
S1135640DF90CF90BF90AF900895AF92BF92CF926A
S1135650DF92EF920F931F93CF935C01E62EC42E3B
S1135660D22E27E02D15B8F4CD2D142F0FEF21E005
S1135670412F6E2DC5010E948C29C850185FC83077
S1135680A8F78D2D877028E02C0D98EF9D0D987F3D
S1135690C22EC90E01C08D2D882399F007E008277A
S11356A00F5F07708FEF90E09C0102C0220F331F41
S11356B00A95E2F7890121E04C2D6E2DC5010E9467
S11356C08C29CF911F910F91EF90DF90CF90BF90D5
S11356D0AF900895DF92EF92FF920F931F93CF93B1
S11356E0DF93EC01162FF42EE22ED02E0E949C2282
S11356F08823E1F02E2D4F2D612FCE010E94E02A48
S11357002D2D4F2D612FCE010E94252B6FEF6E0D95
S1135710610F2D2D4F2DCE010E94252BDA944D2D96
S11357204F0D2E2D612FCE010E94E02ADF91CF91E3
S11357301F910F91FF90EF90DF900895EF92FF92E9
S11357400F931F93CF93DF93EC01E62E142FF22EC9
S11357502F2D412F6E2DCE010E94E02A1F5F015094
S1135760B9F7DF91CF911F910F91FF90EF900895BA
S1135770DF92EF92FF920F931F93CF93DF93EC018D
S1135780162FF42EE22E0E949C22882331F02E2D17
S11357904F2D612FCE010E949E2BDF91CF911F913F
S11357A00F91FF90EF90DF9008957F928F929F92D8
S11357B0AF92BF92CF92DF92EF92FF920F931F931B
S11357C0CF93DF93EC01162FF42ED22EC02E0E941D
S11357D09C22882309F451C0A12EAE0CBF2CBE0C10
S11357E08E2C80948D0C810E9C2C9E1877247A9498
S11357F0790C7F0C02E02E2D4B2D6A2DCE010E94D8
S1135800302201E02E2D4B2D682DCE010E94302236
S113581004E02E2D472D6A2DCE010E94302208E08F
S11358202E2D472D682DCE010E9430228E2D880FFB
S11358308D2C881A8A948A949A949A949E18A39484
S1135840B394282D4F2D6A2DCE010E94E02ACA94CC
S11358504C2D4F0D282D6A2DCE010E94E02A292DB2
S11358604B2D612FCE010E94252BDA946D2D610FF3
S1135870292D4B2DCE010E94252BDF91CF911F9115
S11358800F91FF90EF90DF90CF90BF90AF909F90DB
S11358908F907F9008950895E0E0F8E010A211A29F
S11358A080E898E386A397A387E0808381E08683DA
S11358B08487118208950F931F93CF93DF93CDB7FD
S11358C0DEB72597CDBFDEBF85E0EFE7F0E2DE016E
S11358D0119601900D928A95E1F700E010E00530F1
S11358E011055CF4E1E0F0E0EC0FFD1FE00FF11FA7
S11358F0808190E00E94F90C04C08FEF90E00E9438
S1135900F90C0F5F1F4F0830110549F781E090E053
S11359108093CC259093CD252596CDBFDEBFDF9116
S1135920CF911F910F9108950F931F93CF93DF93FE
S1135930CDB7DEB72597CDBFDEBF85E0E4E8F0E262
S1135940DE01119601900D928A95E1F700E010E0D6
S11359500530110554F4E1E0F0E0EC0FFD1FE00F19
S1135960F11F808190E00E94F90C0F5F1F4F0830F7
S1135970110571F781E090E08093CC259093CD25BB
S11359802596CDBFDEBFDF91CF911F910F91089572
S11359900F931F93CF93DF93CDB7DEB72597CDBF7A
S11359A0DEBF85E0E9E8F0E2DE01119601900D9298
S11359B08A95E1F700E010E00530110554F4E1E0C8
S11359C0F0E0EC0FFD1FE00FF11F808190E00E94DA
S11359D0F90C0F5F1F4F0830110571F781E090E05B
S11359E08093CC259093CD252596CDBFDEBFDF9146
S11359F0CF911F910F910895AF92BF92CF92DF92F2
S1135A00EF92FF920F931F93CF93DF935C01DB011F
S1135A10EB01BB230CF42196D595C7951C161D06E6
S1135A200CF042C0F50195012C0F3D1F60E070E0C1
S1135A30CB01AB01BC01440F551F661F771F6A01E0
S1135A407B01CC0CDD1CEE1CFF1CCC0CDD1CEE1C05
S1135A50FF1C4C0D5D1D6E1D7F1D1191F12EF694E2
S1135A60F694F694F6944F0D511D611D711D440F6B
S1135A70551F661F771F6A017B01CC0CDD1CEE1CD1
S1135A80FF1CCC0CDD1CEE1CFF1C4C0D5D1D6E1DA3
S1135A907F1D1F70CB01BA01610F711D811D911D06
S1135AA0E217F30731F603C060E070E0CB01A0FF1A
S1135AB021C0AB01BC01440F551F661F771F6A014B
S1135AC07B01CC0CDD1CEE1CFF1CCC0CDD1CEE1C85
S1135AD0FF1C4C0D5D1D6E1D7F1DCA0DDB1D8881D5
S1135AE082958F708A019B01080F111D211D311DA4
S1135AF0C901B801DF91CF911F910F91FF90EF90F1
S1135B00DF90CF90BF90AF9008951F920F920FB681
S1135B100F92112408B60F9218BE09B60F9219BE3F
S1135B200BB60F921BBE2F933F934F935F936F93CC
S1135B307F938F939F93AF93BF93CF93EF93FF93F1
S1135B40C091A0098091C8259091C925FC01E75B0B
S1135B50F84DC0830196853091052CF48093C825B7
S1135B609093C92523C01092C8251092C92510927C
S1135B70C2251092C3258091C4259091C525019713
S1135B80A9F468E070E089E497E20E94FC2C609339
S1135B908C2670938D2680938E2690938F268091E9
S1135BA04D2790E08093902690939126C093A0086F
S1135BB0FF91EF91CF91BF91AF919F918F917F9181
S1135BC06F915F914F913F912F910F900BBE0F906A
S1135BD009BE0F9008BE0F900FBE0F901F9018952E
S1135BE01F920F920FB60F92112408B60F9218BE8F
S1135BF00BB60F921BBE2F938F939F93EF93FF933C
S1135C002091A0088091C6259091C725FC01E25BF4
S1135C10F84D20830196853091052CF48093C62598
S1135C209093C72523C01092C6251092C725809152
S1135C30C2259091C325892BC9F481E090E080931B
S1135C40C2259093C32580915227833059F481E073
S1135C5090E08093C4259093C5251092C825109296
S1135C60C92504C01092C4251092C5252093A0090B
S1135C708091D2259091D32501968093D22590933B
S1135C80D325FF91EF919F918F912F910F900BBE90
S1135C900F9008BE0F900FBE0F901F9018951F9283
S1135CA00F920FB60F92112408B60F9218BE09B6C0
S1135CB00F9219BE0BB60F921BBE2F933F934F93B7
S1135CC05F936F937F938F939F93AF93BF93EF9360
S1135CD0FF932091CE253091CF258091D2259091AC
S1135CE0D3252817390709F054C01092C8251092FB
