S0180000726F746F7220636F6E74726F6C6C65722E7372656372
S11300000C94BF050C94E3050C94E3050C94E305F0
S11300100C94E3050C94E3050C94E3050C94E305BC
S11300200C94E3050C94E3050C94E3050C94E305AC
S11300300C94E3050C94E3050C94E9370C94E30564
S11300400C94E3050C94E3050C94E3050C94E3058C
S11300500C9431140C94E3050C94E3050C94E3051F
S11300600C94E3050C9429370C94E3050C94E305F4
S11300700C94E3050C94E3050C94E3050C94E3055C
S11300800C94E3050C94E3050C94E3050C94E3054C
S11300900C94E3050C94E3050C94E3050C94E3053C
S11300A00C94E3050C94E3050C94E3050C94E3052C
S11300B00C94E3050C94E3050C94E3050C94E3051C
S11300C00C94E3050C94E3050C94E3050C94E3050C
S11300D00C94E3050C94E3050C94E3050C94E305FC
S11300E00C94E3050C94E3050C94E3050C94E305EC
S11300F00C94E3050C94E3050C94E3050C94E305DC
S11301000C9464130C94E3050C947D130C94E30594
S11301100C94E3050C94E3050C94E3050C94E305BB
S11301200C94E3050C94E3050C94E3050C94E305AB
S11301300C94E3050C94E3050C94E3050C94E3059B
S11301400C94E3050C94E3050C94E3050C94E3058B
S11301500C94E3050C94E3050C94E3050C94E3057B
S11301600C94BE360C94E3050C94E3050C94E3055F
S11301700C94E3050C94E3050C94E3050C94E3055B
S11301800C941B130C9455130C94E3050C94E30585
S11301900C94E3050C94E3050C94E3050C94E3053B
S11301A00C94E3050C94E3050C94E3050C94E3052B
S11301B00C94E3050C94E3050C94E3050C94E3051B
S11301C00C94E3050C94E3050C94E3050C94E3050B
S11301D00C94E3050C94E3050C94E3050C94CF1202
S11301E00C94E3050C94E3050C94E3050C94E305EB
S11301F00C94E30583251126C6251526F9257D25AE
S11302008025452C4D2C672C572C672C672C672C8C
S1130210672C672C672C672C672C672C672C672C42
S1130220672C672C672C672C672C672C672C672C32
S1130230672C672C672C672C672C672C672C3F2C4A
S1130240672C672C672C672C672C672C672C672C12
S1130250332C672C672C672C672C672C672C672C36
S1130260672C672C672C5D2C622C873081308D3095
S11302708D308D308D308D308D308D308D308D3092
S11302808D308D308D308D308D308D308D308D3082
S11302908D308D308D308D308D308D308D308D3072
S11302A08D308D308D308D308D308D308D308D3062
S11302B08D308D308D308D308D308D308D3083305C
S11302C0853089308B308D3071308F30733075309C
S11302D0773079307B307D307F3005A84CCDB2D477
S11302E04EB93836A9020C50B9918688083CA6AAA2
S11302F0AA2ABE000000803F04062406040724073F
S1130300840600062006000720078006FFD0FFE0D1
S1130310FFC1FFD13FC0FF14FFD23FC0FF14FFD085
S1130320FFFE01060A00FE070136026820FFFE08F0
S1130330FE07FE0A006022176780808080800080AC
S1130340163363A0A0A00257675050F850F85050DD
S11303500257672070A07028702002576748A85081
S11303602050A89002576740A0A040A89068261388
S1130370638080801237672040808080402012375D
S113038067804020202040800355658850F85088BD
S11303900355652020F82020113363604080055107
S11303A061F811336340E0400257670808102040A9
S11303B08080025767205088888850200257672021
S11303C060A0202020F8025767708808304080F829
S11303D0025767F8081030088870025767103050C9
S11303E090F81010025767F880B0C8088870025758
S11303F067304080B0C88870025767F80810102032
S11304004040025767708888708888700257677008
S113041088986808106011376740E0400040E04069
S113042011376740E0400060408012476710204069
S113043080402010045363F800F81247678040207E
S11304401020408002576770881020200020025737
S113045067708898A8B0807002576720508888F821
S11304608888025767F04848704848F00257677018
S1130470888080808870025767F04848484848F070
S1130480025767F88080F08080F8025767F8808010
S1130490F080808002576770888080988870025747
S11304A067888888F8888888123767E04040404029
S11304B040E00257673810101010906002576788A8
S11304C090A0C0A09088025767808080808080F8C8
S11304D00257678888D8A88888880257678888C898
S11304E0A898888802576770888888888870025717
S11304F067F08888F08080800158687088888888D0
S1130500A87008025767F08888F0A090880257679F
S113051070888070088870025767F8202020202097
S11305202002576788888888888870025767888877
S11305308850505020025767888888A8A8D8880215
S113054057678888502050888802576788885020C9
S1130550202020025767F80810204080F8123767DF
S1130560E08080808080E00257678080402010080F
S113057008123767E02020202020E0065363205033
S113058088015161F828226280400255657008781C
S113059088780257678080B0C888C8B002556570F3
S11305A08880887002576708086898889868025598
S11305B0657088F88070025767304840F0404040CA
S11305C0005767788888780888700257678080B0F9
S11305D0C88888881237674000C0404040E010490E
S11305E06910003010101090906002576780808866
S11305F090E09088123767C04040404040E0025588
S113060065D0A8A8A888025565B0C888888802550E
S1130610657088888870005767B0C888C8B08080C3
S113062000576768988898680808025565B0C880BC
S1130630808002556570807008F00257674040F072
S11306404040483002556588888898680255658816
S1130650885050200255658888A8A850025565889E
S11306605020508800576788889868088870025519
S113067065F8102040F8124767304020C020403011
S113068022176780808080808080124767C0204066
S1130690304020C006536348A890FFFFFFFFFFFFD0
S11306A0FFFFFFFFFFFFFFFFFFFFFFFFFFFFFFFF56
S11306B0FFFFFFFFFFFFFFFFFFFFFF0A006022179E
S11306C067800080808080800157672078A0A0A088
S11306D07820025767304840E04048B002556588AA
S11306E07050708801586888885020F82020202293
S11306F01767808080008080800158687080E09057
S113070048380870193161A00257677088A8C8A8D2
S113071088701346667090B05000F00265652448F6
S1130720904824144262F010154161F0025767703A
S113073088E8C8C88870095161F816336340A0403E
S11307400256662020F82020F81545656090204068
S1130750F0154565E0106010E028226240800156E3
S113076066888888C8B08002576778E8E8682828CF
S11307702825116180202262408015356540C040E3
S113078040E01346666090906000F0026565904812
S113079024489001696940C04040E40C143C0401C1
S11307A0696940C04040E81404081C015969C0202C
S11307B04020C81828780802576720002020408865
S11307C0700258684020708888F888880258681039
S11307D020708888F888880258682050708888F8C3
S11307E0888802586848B0708888F88888025868F1
S11307F05000708888F8888802586820507088886B
S1130800F888880267673C50909CF0909C00596976
S113081070888080808870204002586840F880800A
S1130820F08080F802586810F88080F08080F80228
S1130830586820F88080F08080F802586850F8806A
S113084080F08080F81238688040E040404040E00A
S11308501238682040E040404040E012386840A030
S1130860E040404040E0123868A000E04040404092
S1130870E0025767F04848E84848F00258682850B2
S113088088C8A89888880258684020708888888812
S11308907002586810207088888888700258682010
S11308A050708888888870025868285070888888B2
S11308B0887002586850007088888888700255656E
S11308C08850205088025767709898A8C8C870024A
S11308D05868402088888888887002586810208862
S11308E088888888700258682050008888888870B2
S11308F002586850008888888888700258681020D8
S113090088885020202002576780F088F0808080FB
S1130910025767708890A09088B002586840200001
S113092070087888780258681020007008788878F1
S11309300258682050007008788878025868285057
S113094000700878887802576750007008788878B3
S113095002586820502070087888780265657814F9
S11309607C907C00576770888088702040025868AB
S11309704020007088F88070025868102000708849
S1130980F880700258682050007088F88070025710
S11309906750007088F88070123868804000C0404A
S11309A04040E0123868408000C0404040E01238C7
S11309B06840A000C0404040E0123767A000C0403B
S11309C04040E0025767C0307088888870025868D9
S11309D0285000B0C8888888025868402000708871
S11309E088887002586810200070888888700258BF
S11309F068205000708888887002586828500070F9
S1130A0088888870025767500070888888700355FA
S1130A10652000F800200255657898A8C8F00258AF
S1130A2068402000888888986802586810200088E8
S1130A3088889868025868205000888888986802D6
S1130A4057675000888888986800596910208888FA
S1130A50986808887000586880F0888888F08080DA
S1130A600059695000888898680888700102040851
S1130A7001020408A0A0A0A0A8A8A8A86E616E0006
S1130A80696E660000407A10F35A00A0724E18098D
S1130A900010A5D4E80000E87648170000E40B54E1
S1130AA0020000CA9A3B000000E1F50500008096B0
S1130AB09800000040420F000000A08601000000E2
S1130AC0102700000000E80300000000640000009C
S1130AD000000A00000000000100000000002C7665
S1130AE0D888DC674F0823DFC1DFAE59E1B1B79680
S1130AF0E5E3E453C63AE651997696E8E6C28426DD
S1130B00EB898C9B62ED407C6FFCEFBC9C9F40F2B8
S1130B10BAA56FA5F490055A2AF75C936B6CF96734
S1130B206DC11BFCE0E40D47FEF520E6B500D0EDF9
S1130B30902E0300943577050080841E0800002061
S1130B404E0A000000C80C333333330F986E1283FF
S1130B501141EF8D2114893BE65516CFFEE6DB18D3
S1130B60D1844B381BF77C1D901DA4BBE424203298
S1130B7084725E228100C9F124ECA1E53D27112491
S1130B801FBECFEFCDBFDFE2DEBF18BE19BE1ABE57
S1130B901BBE13E2A0E0B0E2E4E7F4E800E00BBF20
S1130BA002C007900D92A434B107D9F71BBE29E205
S1130BB0A4E4B3E201C01D92A139B207E1F70E9497
S1130BC0F5100C9438420C940000CF93DF936838EE
S1130BD023E172078105910509F458C0603127E2C9
S1130BE072078105910509F455C060322EE472073D
S1130BF08105910509F452C0613329E77207810523
S1130C00910509F44FC060342CE972078105910500
S1130C1009F44CC0603523EC72078105910509F491
S1130C2049C0603828E3720721E08207910509F47E
S1130C3045C0603A26E8720721E08207910509F46D
S1130C4041C0683428EE720721E082079105F1F172
S1130C5060342DE0720723E082079105D9F16039F1
S1130C6020ED720723E082079105C1F1603221EA89
S1130C70720727E082079105A9F1603472448F401E
S1130C809105A1F1C0E0D0E060E033C0C7E8DFEF38
S1130C906FE32FC0C7E8DFEF6FE12BC0C7E8DFEFDA
S1130CA06FE027C0C5E8D1EF6FE023C0C7E8DFEFEE
S1130CB067E01FC0C7E8DAEF67E01BC0C7E8DFEFF3
S1130CC063E017C0C7E8DAEF63E013C0C6E8D0EF0B
S1130CD063E00FC0C7E8DAEF61E00BC0C5E8D1EF0D
S1130CE061E407C0C6E8D0EF60E003C0C2E8D0ED1D
S1130CF060E04FEF8AE20E940D084FEF6D2F89E20A
S1130D000E940D084FEF6C2F88E20E940D08DF91BE
S1130D10CF9108950E9442080E94A4070E9476077A
S1130D2060E970ED83E090E00E94E50543E063E054
S1130D308BE20E940D084FEF60E680E60E940D08EA
S1130D4040EE60E08FE00E940D088AE290E00E948D
S1130D505D071F928F9384EB90E29F938F930E9481
S1130D60724189E290E00E945D071F928F9387ECA5
S1130D7090E29F938F930E94724188E290E00E94D8
S1130D805D071F928F9385ED90E29F938F930E944E
S1130D9072411092CF268DB79EB70C968DBF9EBF21
S1130DA008951F93CF93DF93EC0161E388810E9440
S1130DB03F074FE0698185E30E940D0889818823FC
S1130DC069F010E066E3610FFE01E10FF11D82811D
S1130DD00E943F071F5F89811817A0F381E80E94D2
S1130DE0E607DF91CF911F9108951F93CF93DF936F
S1130DF0EC01FC01329688E011928150E9F781E61A
S1130E000E942607888384E60E9426079881911110
S1130E1001C0888385E60E9426078983882369F0B8
S1130E2010E086E6810F0E942607FE01E10FF11D06
S1130E3082831F5F89811817A0F341E060E08CE290
S1130E400E940D08DF91CF911F9108950F931F9376
S1130E50CF93DF93082FC0E6D6E010E11E8383E032
S1130E6090E00E94B313802F90E00E94B3130E947D
S1130E70BE131D83DF91CF911F910F910895FF92AF
S1130E800F931F93CF93DF93082FF62EC0E6D6E07F
S1130E9010E11E8382E090E00E94B3138F2D90E056
S1130EA00E94B313802F90E00E94B3131D83DF913F
S1130EB0CF911F910F91FF9008950F931F93CF939C
S1130EC0DF93082FC0E6D6E010E11E8383E090E0B4
S1130ED00E94B313802F90E00E94B3130E94BE13AC
S1130EE01D83DF91CF911F910F910895CF9380E1DE
S1130EF0E0E6F6E0868382E090E00E94B31381E6A8
S1130F0090E00E94B313CDE080E090E00E94B31320
S1130F10C150D1F7E0E6F6E080E18583868382E084
S1130F2090E00E94B31381E790E00E94B313CDE0F8
S1130F3080E090E00E94B313C150D1F780E1E0E675
S1130F40F6E08583CF910895CF9380E1E0E6F6E063
S1130F50868382E090E00E94B31381E390E00E94D4
S1130F60B313CDE080E090E00E94B313C150D1F7F9
S1130F70E0E6F6E080E18583868382E090E00E94EB
S1130F80B31381E490E00E94B313CDE080E090E0DD
S1130F900E94B313C150D1F7E0E6F6E080E1858307
S1130FA0868382E090E00E94B31381E590E00E9482
S1130FB0B313CDE080E090E00E94B313C150D1F7A9
S1130FC080E1E0E6F6E08583CF91089590E1E0E6E4
S1130FD0F6E09683823871F018F4813831F018C045
S1130FE0843869F0873881F013C081E890E00E946A
S1130FF0B3130EC082E890E00E94B31309C084E8E2
S113100090E00E94B31304C087E890E00E94B313F9
S113101080E1E0E6F6E085830895EF92FF920F9376
S11310201F93CF93DF93E82E062FF42EC0E6D6E06D
S113103010E11E8385E090E00E94B3138E2D90E0B2
S11310400E94B3138F2D90E00E94B313802F90E081
S11310500E94B3131D83DF91CF911F910F91FF90D5
S1131060EF9008951F93CF93DF93C0E6D6E010E18D
S11310701E8380EC90E00E94B3131D83DF91CF9117
S11310801F9108950E94A9130E94320880E00895D8
S11310900F931F93CF93DF93CDB7DEB72A97CDBFBE
S11310A0DEBF09831A832B833C834D835E836F8366
S11310B0788789879A878CE090E00E94003F2AE035
S11310C0FE013196DC0101900D922A95E1F7FC01B5
S11310D0128613862091462330914723232B79F4DB
S11310E02091442330914523232B49F480934423B6
S11310F09093452380934623909347230AC0E0911D
S11311004423F091452382879387809344239093CB
S113111045232A96CDBFDEBFDF91CF911F910F915A
S1131120089580914623909147230097C9F0209118
S11311304423309145238217930749F410924423A2
S113114010924523109246231092472307C0FC01B6
S11311502285338520934623309347230E94983F6A
S11311600895E0914623F0914723309721F42FEF1F
S1131170FC01208308952AE0DC0101900D922A9558
S1131180E1F7089581E090E02091462330914723D0
S1131190232B11F080E090E00895E0EEF6E08085E6
S11311A0992787FD909580959095892F881F88278A
S11311B0881F90E00895E0EEF6E088E1848B94E0E7
S11311C09283848B98E09283848B90E19283848BC6
S11311D090E29283848B90E49283848B80E8828370
S11311E0089580E8E0E2F7E08583089580E8E0E28E
S11311F0F7E0868308950F931F93CF93DF938C01B9
S113120018161906F4F4C0E0D0E061E070E080E064
S113121090E00E9478328FE39FE10197F1F700C0DC
S1131220000060E070E080E090E00E9478328FE39C
S11312309FE10197F1F700C000002196C017D10784
S113124021F7DF91CF911F910F910895CF93C82F6C
S11312508A3019F48DE00E942609E1EAFAE09081CF
S113126095FFFDCFC093A00A80E090E0CF91089550
S1131270CF93BC01E1EAFAE080818823ECF7C091C6
S1131280A00ACD3009F4CAE08C2F0E9426098C2FC5
S113129090E0CF910895809150239091512301962D
S11312A080935023909351239F938F938BEC90E2E0
S11312B09F938F930E9472410F900F900F900F9005
S11312C00895E0E5F0E08BEC828380818860808380
S11312D0818183FFFDCFE0E5F0E082EC85838081AE
S11312E080618083818184FFFDCF88ED84BF84E0A9
S11312F0809340000895FF920F931F93CF93DF9341
S1131300CDB7DEB72A97CDBFDEBF80914C27909131
S11313104D27A0914E27B0914F27492F5A2F6B2F5D
S11313207727F0905027F0915427E091582708EC44
S113133017E02CEF382F5F2D6F2F7E2F80915627CB
S11313409A850E9448082A96CDBFDEBFDF91CF91CF
S11313501F910F91FF9008958F929F92AF92BF9229
S1131360CF92DF92EF92FF920F931F93CF93DF936D
S1131370CDB7DEB72A97CDBFDEBFECE5F7E230810B
S1131380832F9181A281B381892E9A2EAB2EBB2407
S11313906D01EE24FF246B2F77278827992708EC0B
S11313A015E02DEF482D5C2D788589859A850E945E
S11313B048082A96CDBFDEBFDF91CF911F910F91D0
S11313C0FF90EF90DF90CF90BF90AF909F908F9061
S11313D008950E947B090E94AC090895CF93DF937E
S11313E0CDB7DEB76497CDBFDEBFCE010B960E94AA
S11313F0B1088AE0FE013B96DE01119601900D9240
S11314008A95E1F7CE0101960E94D1060E949108C7
S11314108FE39CE90197F1F700C000006496CDBF0B
S1131420DEBFDF91CF9108950E94C208892B39F461
S113143002C00E94EE090E94C208892BD1F30E94C7
S1131440C208019731F480913427909135270E9486
S1131450F50608950E9402310E94140A8091D02654
S1131460813321F488E290E00E94FB0808952F92D2
S11314703F924F925F926F927F928F929F92AF9220
S1131480BF92CF92DF92EF92FF920F931F93CF936D
S1131490DF93CDB7DEB76497CDBFDEBF81ED96E2B3
S11314A00E94FE2AC0904427D090452720914027CF
S11314B03091412704E6029FC001039F900D11243F
S11314C0B6010E94F33D882777FD8095982F0E94EE
S11314D0BF382AE939E949E95FE30E94843920E009
S11314E030E040E050E40E9425380E948C38162FEA
S11314F02091422730914327029FC001039F900D02
S11315001124B6010E94F33D882777FD8095982F1A
S11315100E94BF382AE939E949E95FE30E94843926
S113152020E030E040E050E40E9425380E948C38EE
S1131530F62E0F2EF0E44F2EF7E25F2EF02D0F2E35
S1131540F4EE8F2EF0E29F2EF02DCE0101966C0169
S11315500F2EF2E46F2EF7E27F2EF02D0F2EF4EF14
S11315602F2EF0E23F2EF02D0F2EFCE4AF2EF7E2EB
S1131570BF2EF02D62E273E081ED96E20E944E29C7
S11315806894EE24E1F80FE02EE741E061E081ED9C
S113159096E20E94662D29ED30E241E161E081EDA1
S11315A096E20E94BB28D20111968C9111978F93D9
S11315B08C918F939F928F92DF92CF920E94B14130
S11315C0960141E163E481ED96E20E94BB282EE797
S11315D04CE161E081ED96E20E94662DF301818188
S11315E08F9380818F939F928F92DF92CF920E94EC
S11315F0B14129EE30E24DE261E081ED96E20E94D4
S1131600BB2896014DE263E481ED96E20E94BB287B
S11316100BE0212F43E063E081ED96E20E94492D27
S11316202F2D4EE163E081ED96E20E94492D1F9239
S11316301F921F921F923F922F92DF92CF920E948D
S1131640B141960146E361E081ED96E20E94BB2838
S1131650CDBFDEBFA0E5B7E28D919C910197D9F48F
S1131660F50183818F9382818F9381818F93808110
S11316708F93A3E0B1E2BF93AF93DF92CF920E9426
S1131680B141960146E36EE681ED96E20E94BB28E5
S1131690CDBFDEBF20C0D50113968C9113978F93D5
S11316A012968C9112978F9311968C9111978F9318
S11316B08C918F93A7E0B1E2BF93AF93DF92CF9267
S11316C00E94B141960146E36EE681ED96E20E94E6
S11316D0BB28CDBFDEBF81ED96E20E94042B8111B1
S11316E049CF6496CDBFDEBFDF91CF911F910F919B
S11316F0FF90EF90DF90CF90BF90AF909F908F902E
S11317007F906F905F904F903F902F900895EF924D
S11317100F9381ED96E20E94FE2A62E273E081ED6E
S113172096E20E944E296894EE24E1F80EE32EE737
S113173041E061E081ED96E20E94662D2CE031E209
S11317404AE065E081ED96E20E94BB282FE131E298
S113175044E165E081ED96E20E94BB2829E231E292
S113176042E365E081ED96E20E94BB2881ED96E2BA
S11317700E94042B8111D1CF0F91EF900895CF9245
S1131780DF92EF92FF92CF93DF93EB01865A9F4F44
S1131790BC0180E090E00E94BD3822E73AE84EE8C0
S11317A05CE30E9484390E9489386B017C01BE018C
S11317B080E090E00E94BD38A70196010E94843920
S11317C00E948C3820E230E0C901861B970BDF9120
S11317D0CF91FF90EF90DF90CF900895CF92DF925A
S11317E0EF92FF92CF93DF93EB01845A9F4FBC019A
S11317F080E090E00E94BD3822E73AE84EE85CE3DE
S11318000E9484390E94E7396B017C01BE0180E0AB
S113181090E00E94BD38A70196010E9484390E947D
S11318208C3820E230E0C901861B970BDF91CF9101
S1131830FF90EF90DF90CF900895CF92DF92EF92D8
S1131840FF920F931F93CF93DF9300D000D0CDB7B7
S1131850DEB7D82E192F7B0161307105D1F10FE06D
S11318602BE14EE16EE181ED96E20E94062468E1EF
S113187070E08D2D912F0E94BF0BC82E68E170E09F
S11318808D2D912F0E94EE0B00E220E2482F6C2D4B
S113189081ED96E20E946229EF28C1F51F93DF9241
S11318A086E391E29F938F938E010F5F1F4F1F93E7
S11318B00F930E94B141980141E061E081ED96E20D
S11318C00E94BB280F900F900F900F900F900F90D5
S11318D01DC00FE02DE04EE16EE181ED96E20E9425
S11318E006246AE070E08D2D912F0E94BF0BF82E24
S11318F06AE070E08D2D912F0E94EE0B00E220E251
S1131900482F6F2D81ED96E20E9462292496CDBF67
S1131910DEBFDF91CF911F910F91FF90EF90DF9089
S1131920CF9008953F924F925F926F927F928F92E1
S11319309F92AF92BF92CF92DF92EF92FF920F935A
S11319401F93CF93DF93CDB7DEB7CA5AD109CDBF6A
S1131950DEBF81ED96E20E94FE2ADE0111968CE83C
S1131960FD0111928A95E9F786E0E3E4F0E2019043
S11319700D928A95E1F72EE0FE013796DF01322FB2
S11319801D923A95E9F786E0E7E5F0E2DE01559627
S113199001900D928A95E1F7FE017B96DF01322FCB
S11319A01D923A95E9F785E0EBE6F0E2DE019996BF
S11319B001900D928A95E1F7FE01BE968FE0DF015A
S11319C01D928A95E9F783E491E4AEE4B0E02196B0
S11319D08CAF9DAFAEAFBFAF2197739680E1DF01AF
S11319E01D928A95E9F786E0EFE7F0E2DE01AF5A4F
S11319F0BF4F01900D928A95E1F7E1E5F0E0EC0F1D
S1131A00FD1F3696DF011D922A95E9F70F2EF9EE98
S1131A108F2EF6E29F2EF02D0F2EFAEE4F2EF6E2C9
S1131A205F2EF02D3E01B5E96B0E711C5E01EDE8F1
S1131A30AE0EB11C93012A5F3F4FC156DF4F28837E
S1131A403983CF59D040C3010396CF55DF4F8883E4
S1131A509983C15AD040D3011596CD55DF4FA88341
S1131A60B983C35AD040F3013296CB55DF4FE88394
S1131A70F983C55AD04022503109C955DF4F288314
S1131A803983C75AD0400297C755DF4F888399835B
S1131A90C95AD04062E273E081ED96E20E944E2979
S1131AA000E42AE340E066E481ED96E20E94FB2C28
S1131AB081ED96E20E943D2981ED96E20E9448293B
S1131AC0D4019C91F2018081392E381A80914E23E1
S1131AD090914F2399232CF410924E2310924F236C
S1131AE0A4C105970CF4A1C124E030E020934E2357
S1131AF030934F239AC181ED96E20E943B2B809153
S1131B004E2390914F238E159F0579F4389E402DD6
S1131B1011244F5F0BE029E367E481ED96E20E9414
S1131B20492D81ED96E20E944C2B9601412F68E4E9
S1131B3081ED96E20E94BB2880914E2390914F2321
S1131B40049721F481ED96E20E943B2B3FEFE31AC8
S1131B50F30A165F84E1C80ED11C123361F680913A
S1131B604E2390914F23009709F046C060E070E047
S1131B7080915823909159230E941D0C80915027E5
S1131B80909151270197E1F4ECE4F7E281818F937E
S1131B9080818F9383E091E29F938F93BF92AF9262
S1131BA00E94B141950144E362E081ED96E20E9416
S1131BB0BB280F900F900F900F900F900F902EC195
S1131BC0ECE4F7E281818F9380818F9387E091E247
S1131BD09F938F93BF92AF920E94B141950144E3CA
S1131BE062E081ED96E20E94BB280F900F900F9067
S1131BF00F900F900F9012C1019709F00FC162E28C
S1131C0073E081ED96E20E944E2980915F278F93C5
S1131C1080915E278F9380915D278F93ACE5B7E227
S1131C208C918F938AE391E29F938F937F926F922B
S1131C300E94B14180914C2790914D27A0914E274D
S1131C40B0914F27CDBFDEBF8F319105A105B105FE
S1131C5060F120915027309151272130310529F529
S1131C60C855DF4FF881C85AD040FF93C955DF4F9C
S1131C702881C75AD0402F93C655DF4F3881CA5A9E
S1131C80D0403F93C755DF4F8881C95AD0408F93C6
S1131C907F926F928EE391E29F938F93BF92AF9264
S1131CA00E94B141CDBFDEBF53C00497A105B10569
S1131CB058F18091502790915127019729F5CC55DF
S1131CC0DF4FB881C45AD040BF93CD55DF4FE88170
S1131CD0C35AD040EF93CA55DF4FF881C65AD0405B
S1131CE0FF93CB55DF4F2881C55AD0402F937F9265
S1131CF06F928DE491E29F938F93BF92AF920E9473
S1131D00B141CDBFDEBF24C0C056DF4F9881C05A59
S1131D10D0409F93C156DF4FA881CF59D040AF9395
S1131D20CE55DF4FB881C25AD040BF93CF55DF4F55
S1131D30E881C15AD040EF937F926F928CE591E293
S1131D409F938F93BF92AF920E94B141CDBFDEBFEC
S1131D502BE631E242E062E081ED96E20E94BB288C
S1131D6095014CE062E081ED96E20E94BB2826E7F3
S1131D7031E246E162E081ED96E20E94BB28809167
S1131D805027909151270197E1F4ECE4F7E2818127
S1131D908F9380818F9383E091E29F938F93BF927F
S1131DA0AF920E94B141950146E168E281ED96E26D
S1131DB00E94BB280F900F900F900F900F900F90E0
S1131DC01BC0ECE4F7E281818F9380818F9387E0DD
S1131DD091E29F938F93BF92AF920E94B14195017C
S1131DE046E168E281ED96E20E94BB280F900F90D5
S1131DF00F900F900F900F902CE731E240E262E0D9
S1131E0081ED96E20E94BB282091622730916327DE
S1131E1040E268E281ED96E20E94BB2881ED96E201
S1131E200E94042B811136CE07C0CE0101966C01AD
S1131E3010E0E12CF12C5FCEC655DF4FCDBFDEBFE5
S1131E40DF91CF911F910F91FF90EF90DF90CF9092
S1131E50BF90AF909F908F907F906F905F904F90C6
S1131E603F9008958091542790915527019741F010
S1131E700E94CD08019721F08091D0268A32B1F5D5
S1131E808091522390915323892B61F482E090E056
S1131E900E946A230E94DC2281E090E08093522316
S1131EA090935323E0913427F09135278381873031
S1131EB0A1F4848190E0982F88272581822B809338
S1131EC0402790934127868190E0982F8827278187
S1131ED0822B80934227909343278AEF90E080934C
S1131EE04427909345270E94370A089580915223EE
S1131EF090915323019731F40E944B231092522363
S1131F00109253230E94920C089598E090938506B2
S1131F109093810684E080938606809382061092D3
S1131F20A70A4FEC4093A60A33E03093A50A28E1B0
S1131F302093A40AE3EAFAE050815061508390931D
S1131F40A5069093A1068093A6068093A2061092FC
S1131F50A70B4093A60B3093A50B2093A40BE3EAA5
S1131F60FBE0808180618083089598E0909345062A
S1131F709093410684E08093460680934206409104
S1131F8048274093A708E6E4F7E220812093A608B7
S1131F903BE03093A50828E12093A408A3EAB8E025
S1131FA05C9150635C939093650690936106809373
S1131FB06606809362064093A70980818093A609F0
S1131FC03093A5092093A409E3EAF9E080818063B2
S1131FD0808308957F928F929F92AF92BF92CF9207
S1131FE0DF92EF92FF920F931F93CF93DF930E94A0
S1131FF061098FEFE0E2F7E08183E0E0F7E08183BD
S113200080EBE0E8F6E08183C0EED6E084E08A83EA
S113201088E18A8B98E09A838B8B90E19A838C8BEE
S113202020E22A838D8B9A8300E016E0D80155962E
S11320309C930E94DB08E0E6F6E082E0828318824B
S113204099E1988B998B9F8B91E09A878B879AE083
S11320509093E90690E8D8011A969C938093090618
S113206086839AE1918B828780936906148687E040
S1132070E0EAF0E08283789462E083E00E9438260C
S1132080782E63E083E00E943826982E64E083E093
S11320900E943826B82E61E083E00E943826D82EAC
S11320A060E083E00E943826F82E65E083E00E9419
S11320B03826182F66E083E00E943826D82F66E081
S11320C082E00E943826882E65E082E00E9438264D
S11320D0A82E64E082E00E943826C82E63E082E0E5
S11320E00E943826E82E62E082E00E943826082FFB
S11320F061E082E00E943826C82F60E082E00E94FE
S113210038267F929F92BF92DF92FF921F93DF93B4
S11321102C2F482F64E170E281ED96E20E94C02AE0
S113212086E090E280938B2990938C2980938D296B
S113213090938E290E948A060E9485350E94B50FCD
S11321400E94850FEDB7FEB73796EDBFFEBFDF9156
S1132150CF911F910F91FF90EF90DF90CF90BF90A0
S1132160AF909F908F907F90089582E891E20E94B3
S113217084410E94F10883E991E20E9484410E9413
S1132180EA0F8DE891E20E94844180EA91E20E9484
S113219084410E945D1E0E9414220E94870B8DE8D8
S11321A091E20E9484412FEF8BE49DE12150804015
S11321B09040E1F700C0000081EB91E20E9484416D
S11321C078942FEF83ED90E3215080409040E1F725
S11321D000C0000088EC91E20E9484410E94F6084D
S11321E00E94B50F0E943230089510925227109227
S11321F0532710924827109249278EEC90E0809341
S113220046279093472787ED91E280934A2790933E
S11322104B2782E090E080935827909359270E949F
S1132220B5100E9480148CE390E00E94FB0842E009
S113223050E06AE27AE082E00E94DA1342E050E081
S113224062E37FE083E00E94DA1342E050E068E852
S113225077E384E00E94DA1344E050E069EE79E029
S113226085E00E94DA134AE050E06BE479E081E013
S11322700E94DA1382E090E00E94003F80933427AA
S1132280909335270E94FA13FDCFE1EAF9E090819B
S113229095FFFDCF8093A0090895E1EAFBE09081CA
S11322A095FFFDCF8093A00B0895CF93DF93EC01AE
S11322B08881882331F021960E944D1189918111E2
S11322C0FBCFDF91CF9108950F931F93CF93DF93AB
S11322D0CDB7DEB72F97CDBFDEBF8C01FC01808167
S11322E0813409F07DC081818A3509F079C0848107
S11322F08E32E9F162818381248170E06053710937
S113230094E6969FA001979F500D112490E0C097EA
S1132310BC01660F771F880F991F880F991F880FBC
S1132320991F860F971F840F951F30E020533109A2
S1132330820F931F80934C2390934D238285238592
S113234090E0C097AC01440F551F880F991F880F68
S1132350991F880F991F840F951F30E0205331096E
S1132360820F931F80934A2390934B2331C0F8012B
S11323708281238190E0C097AC01440F551F880FE0
S1132380991F880F991F880F991F840F951F30E09C
S113239020533109820F931F80934C2390934D2334
S11323A08185228590E0C097AC01440F551F880FAA
S11323B0991F880F991F880F991F840F951F30E06C
S11323C020533109820F931F80934A2390934B2308
S11323D080914C2390914D238093562390935723BF
S11323E0F8018081873509F042C0618122814381EF
S11323F070E06053710934E6369FC001379F900D39
S1132400112430E020533109B901660F771F220FE0
S1132410331F220F331F220F331F260F371F820F44
S1132420931F50E040535109840F951F80934C2310
S113243090934D232681478130E020533109B9011F
S1132440660F771F220F331F220F331F220F331FF4
S1132450260F371F50E040535109240F351F209396
S11324604A2330934B238093562390935723F801A8
S113247080818334B9F581818233A1F58091582319
S11324809091592384369105ACF420914B232F93DA
S113249020914A232F939F938F9381E092E29F93FD
S11324A08F93CE0101969F938F930E94B141CDBF2C
S11324B0DEBF14C020914B232F9320914A232F93E6
S11324C09F938F9380E192E29F938F93CE01019625
S11324D09F938F930E94B141CDBFDEBFCE01019681
S11324E00E945511F8018081833499F581818233EA
S11324F081F18091582390915923843691059CF45D
S11325009F938F938EE192E29F938F93CE010196D6
S11325109F938F930E94B1410F900F900F900F9053
S11325200F900F9012C09F938F9386E292E29F9335
S11325308F93CE0101969F938F930E94B1410F9088
S11325400F900F900F900F900F90CE0101960E9464
S11325505511F80180818234D1F480914B238F93FB
S113256080914A238F9388E092E29F938F938E0108
S11325700F5F1F4F1F930F930E94B141C8010E9428
S113258055110F900F900F900F900F900F902F9662
S1132590CDBFDEBFDF91CF911F910F9108951F92A0
S11325A00F920FB60F92112408B60F9218BE09B6F7
S11325B00F9219BE0BB60F921BBE2F933F934F93EE
S11325C05F936F937F938F939F93AF93BF93EF9397
S11325D0FF9380914823909149232091A00BFC0103
S11325E0E05EF84D208320812D3049F41092482379
S11325F01092492380E297E20E94641105C001967B
S11326008093482390934923FF91EF91BF91AF9119
S11326109F918F917F916F915F914F913F912F91F6
S11326200F900BBE0F9009BE0F9008BE0F900FBE07
S11326300F901F9018951F920F920FB60F921124AE
S113264008B60F9218BE0BB60F921BBE8F939F93C2
S1132650EF93FF93E0EEF6E0808581FD0AC0809160
S11326604E2390914F23019780934E2390934F23B1
S113267009C080914E2390914F23019680934E235D
S113268090934F238FE193E00197F1F700C000008E
S1132690FF91EF919F918F910F900BBE0F9008BE09
S11326A00F900FBE0F901F9018951F920F920FB6A8
S11326B00F92112408B60F9218BE0F9008BE0F9007
S11326C00FBE0F901F9018951F920F920FB60F9286
S11326D0112408B60F9218BE8F939F9381E090E067
S11326E080935423909355239F918F910F9008BE0C
S11326F00F900FBE0F901F9018951F920F920FB658
S11327000F92112408B60F9218BE0BB60F921BBE7F
S11327108F939F93EF93FF93E0E0F6E08085882307
S11327203CF081E090E0809354279093552704C0B7
S11327301092542710925527FF91EF919F918F91FA
S11327400F900BBE0F9008BE0F900FBE0F901F90FE
S11327501895E0E6F6E080EB818380E1858382E5ED
S11327608093C0090895E0ECF9E083838281882393
S1132770ECF78AE68A95F1F700C008958FEF0E947E
S1132780B313E0ECF9E083810895E6E6F7E2ADE601
S1132790B7E286EB97E222E0108211821282138262
S11327A01482158216822C9338961896E817F90726
S11327B099F70895EDE6F7E220E030E09081923059
S11327C091F4F901EE0FFF1FEE0FFF1FEE0FFF1F35
S11327D0EA59F84D8083618372834383548345832C
S11327E05683178208952F5F3F4F38962A3031055C
S11327F029F70895BF92CF92DF92EF92FF920F9341
S11328001F93CF93DF930DE617E2C7E6D7E20F2EAF
S1132810FDEBCF2EF7E2DF2EF02DBB24B3948A819B
S11328209B81892B71F4D8018C9181110AC0BC92CF
S1132830E881F98109958C819D818A839B83F801C4
S11328401082085F1F4F28960C151D0541F7DF9174
S1132850CF911F910F91FF90EF90DF90CF90BF9099
S113286008951F920F920FB60F92112408B60F927B
S113287018BE09B60F9219BE0BB60F921BBE2F934A
S11328803F938F939F93AF93BF93EF93FF93809165
S11328905A2390915B230196883821E0920729F00E
S11328A080935A2390935B2318C010925A2310925A
S11328B05B23ADE6B7E2E9E6F7E289EB97E22C9118
S11328C0211106C0208131812150310920833183B7
S11328D018963896E817F90791F7FF91EF91BF9191
S11328E0AF919F918F913F912F910F900BBE0F90BD
S11328F009BE0F9008BE0F900FBE0F901F90189541
S1132900E0E4F8E010A211A288E090E086A397A387
S113291087E0808381E08683848711820E94C513C7
S1132920789408958F929F92AF92BF92CF92DF9244
S1132930EF92FF920F931F93CF93DF9300D000D0B9
S1132940CDB7DEB7FC01009709F484C042305105CD
S11329506105710508F483C0A081B18118968C913A
S113296018978B3009F040C04A015B01242F392DA0
S11329704A2D5B2D60E070E080E090E002E00E9470
S1132980A23EA284B384C484D584E684F7840089F7
S113299011890E94D93EED91FC916894EE24E2F8ED
S11329A0F12C8E010F5F1F4F09958823C1F04981D7
S11329B05A816B817C81411551056105710579F05E
S11329C0DB01CA01805F9F4FAF4FBF404097A10515
S11329D0B10528F0342F252F862F972F44C030E0DF
S11329E020E080E090E03FC04A015B01242F392DB4
S11329F04A2D5B2D60E070E080E090E001E00E94F1
S1132A00A23EA284B384C484D584E684F784008976
S1132A1011890E94D93EED91FC916894EE24E1F86D
S1132A20F12C8E010F5F1F4F0995882371F0898166
S1132A309A81AC0160E070E001978F3E9F4F28F4CB
S1132A40342F252F862F972F0EC030E020E080E012
S1132A5090E009C030E020E080E090E004C030E085
S1132A6020E080E090E0632F722F2496CDBFDEBF7C
S1132A70DF91CF911F910F91FF90EF90DF90CF9056
S1132A80BF90AF909F908F9008952F923F924F9256
S1132A905F926F927F928F929F92AF92BF92CF92EA
S1132AA0DF92EF92FF920F931F93CF93DF93EC018A
S1132AB0009751F1423051056105710570F14250A2
S1132AC05109610971091A012B01088D198DA02E74
S1132AD0B12EC12CD12CE12CF12C00E010E0222DE0
S1132AE0332D442D552D60E070E080E090E00E948D
S1132AF0493EAA8CBB8CCC8CDD8CEE8CFF8C08A15F
S1132B0019A10E94D93E11C020E030E040E050E01D
S1132B1060E070E080E090E008C020E030E040E059
S1132B2050E060E070E080E090E0DF91CF911F9191
S1132B300F91FF90EF90DF90CF90BF90AF909F9058
S1132B408F907F906F905F904F903F902F9008955B
S1132B50FC0181919AE080FB879587F92191820F8E
S1132B609150C9F708952F923F924F925F926F92BE
S1132B707F928F929F92AF92BF92CF92DF92EF9209
S1132B80FF920F931F93CF93DF93CDB7DEB72D97AB
S1132B90CDBFDEBF6C01422E532E642E752E362E11
S1132BA0272ED701AD90BC90119712968D919C91D0
S1132BB01397809612968D939C931397F6018081B8
S1132BC0853E11F0811105C0D70114961C9281E055
S1132BD034C14501F60183858F3009F055C0D70112
S1132BE014968C91882319F09585891711F181E346
S1132BF0F50111928A95E9F7D6011D968C91F7019A
S1132C008483D50199960C9399979A961C939A97D5
S1132C109B964C929B979C965C929C979D966C92EB
S1132C209D979E967C929E979F963C929F97D09656
S1132C302C92F60120812F7330E0215031094DE0B0
S1132C40429FC001439F900D11242DE0E3E9F0E27F
S1132C50DE01119601900D922A95E1F78F319105CD
S1132C6008F4D3C00FC08191B601680F711DDB0158
S1132C708C91D5018D935D01E417F50719F0E217E6
S1132C80F30789F781E0D9C0F5018081882349F0F1
S1132C90C6010E94A815D70114969C91981709F4AF
S1132CA085C081E3F50111928A95E9F7D5019996DA
S1132CB00C9399979A961C939A979B964C929B97F0
S1132CC09C965C929C979D966C929D979E967C9206
S1132CD09E979F963C929F97D0962C92F601608186
S1132CE0603239F13196960181E090E0A0E0B0E0E5
S1132CF009C09F016191AC014F5F5F4F6032D1F019
S1132D00DC01CA018D01080D191DD8016C93D6018F
S1132D101C964C9143FF08C0D9012C9121542A31AF
S1132D2018F4605ED8016C93782F8830910509F708
S1132D3001C070E0F5018081853011F485EE808357
S1132D40D60118968C911897803259F121E0270FFB
S1132D508EE2F501E70FF11D8083C60108961896EF
S1132D603C913032F9F0F60139967C5F04C0CF0112
S1132D7031913032B9F08401020F111DD8013C9316
S1132D80D6011C964C9144FF08C0DC018C918154FF
S1132D908A3118F4305ED8013C932F5F2713E7CFB4
S1132DA001C0272FF501E20FF11D1082F601838582
S1132DB0D50190968C93828D938DA0E0B0E0F501BF
S1132DC081A392A3A3A3B4A3F6014489558960E027
S1132DD070E0BA0155274427842B952BA62BB72BDB
S1132DE0F50181A392A3A3A3B4A3F601848D958DC9
S1132DF0A68DB78DF50185A396A3A7A3B0A781E0FF
S1132E00D70115968C9380E018C02981F601E20F52
S1132E10F11D2081F501E80FF91F2083FE01329690
S1132E20DC011196AA0EBB1E9E01205E3F4F281B9B
S1132E30390BAE01425F5F4F22CF2D96CDBFDEBF6F
S1132E40DF91CF911F910F91FF90EF90DF90CF9082
S1132E50BF90AF909F908F907F906F905F904F90B6
S1132E603F902F9008952F923F924F925F926F92CE
S1132E707F928F929F92AF92BF92CF92DF92EF9206
S1132E80FF920F931F93CF93DF93CDB7DEB7CD544B
S1132E90D109CDBFDEBF1C01009709F425C2DC01B6
S1132EA014968D919C911597892B09F420C216963E
S1132EB08D919C911797892B09F41CC28091CE2384
S1132EC09091CF23892B09F418C280E090E050C27E
S1132ED0E981FA81ECABFDABEC80FD80EEAAFFAAA0
S1132EE0FB802796FFAE27970E8128960FAF289771
S1132EF02F8138852A962EAF3FAF2A9789859A85E8
S1132F004C855D8526964EAF5FAF2697CE88DF88C9
S1132F10E88CF98C0A8D1B8D2C8D3D8D24960CAF7D
S1132F201DAF2EAF3FAF24972AA13BA14CA15DA1B9
S1132F302E962CAF3DAF4EAF5FAF2E97C114D10488
S1132F40E104F10431F4009709F409C26C01E12CA5
S1132F50F12C26964EAD5FAD26974115510551F0E3
S1132F60BA0180E090E024966CAF7DAF8EAF9FAF46
S1132F7024970BC024960CAD1DAD2EAD3FAD249708
S1132F80012B022B032B09F4EAC128961FAD2897C5
S1132F90A12FB0E024962CAD3DAD4EAD5FAD24978E
S1132FA00E943E3E260137012EA93FA9421A530A28
S1132FB061087108461A570A680A790A2A968EAD7A
S1132FC09FAD2A97880F991F82959295907F982795
S1132FD0807F98272CA93DA921503109820F931F86
S1132FE06CA97DA90E94DF3D93018201061B170B8A
S1132FF021093109C901B80127964FAD2797042F3C
S113300010E020E030E0A90198010E94073E290168
S11330103A0155EF45165FE055066104710408F462
S11330209EC165EF46166FEF56066104710428F4DD
S113303086E0D10118968C9303C08BE0F101808760
S11330408CE2A0EDB3E21D928A95E9F72CA93DA983
S1133050890120E030E040E050E0BA010EA31FA354
S113306028A739A74AA75BA76CA77DA7B701A60124
S113307080E090E0DC01C8AE59AF6AAF7BAF8CAFA3
S11330809DAFAEAFBFAFA02EB12EC12CD12CE12C81
S1133090F12C00E010E0242F352F462F572F60E04D
S11330A070E080E090E00E94493EA0EDB3E22C93F2
S11330B03093D1234093D2235093D3236093D423CA
S11330C07093D5238093D6239093D723EEA9FFA999
S11330D0AF012E2F352F40E050E060E070E080E03B
S11330E090E00E94493EA92CB82CCEA4DFA4E8A805
S11330F0F9A80AA91BA90E94D93E2EA73FA748AB4D
S113310059AB6AAB7BAB8EAB98AFE8EDF3E22083AF
S11331103183428353836483758386839783C30196
S1133120B2016E5F7F4F8F4F9F4FD10118962C9144
S1133130263029F422E030E040E050E004C024E0EE
S113314030E040E050E00E94CF3D6093E023709374
S1133150E1238093E2239093E323ECA9FDA9E09378
S1133160E423F093E5232796EFAC2797EE9EC00166
S1133170EF9E900D11248093E6239093E723D101D1
S113318018968C91863009F066C0AEA0BFA0C12C01
S1133190D12CE12CF12C00E010E028962FAD2897DB
S11331A030E040E050E060E070E080E090E00E94B9
S11331B0493E2696EEADFFAD26971F01AE2EB32CE9
S11331C00E94493EAEA4BFA4C8A8D9A8EAA8FBA8F7
S11331D00EA918AD0E94D93E422E532E642E752E90
S11331E0B62FA72F282E392EE0EFF3E22083318368
S11331F04283538364837583868397832A960EADB3
S11332001FAD2A974801202F392D40E050E060E09F
S113321070E080E090E005E00E94A23EA22EB32E72
S1133220C42ED52EE62EF72E082F192F242D352D3A
S1133230462D572D6B2F7A2F822D932D0E94D93E28
S1133240E8EEF3E2208331834283538364837583FE
S1133250868397838BC0AEA0BFA0C12CD12CE12C58
S1133260F12C00E010E028962FAD289730E040E0E4
S113327050E060E070E080E090E00E94493E2496D7
S1133280ECACFDAC0EAD1FAD249717012801AE2C9C
S1133290B32CC42CD52CE12CF12C00E010E00E94BE
S11332A0493EAEA4BFA4C8A8D9A8EAA8FBA80EA901
S11332B018AD0E94D93EE8EEF3E2208331834283C5
S11332C0538364837583868397832E960CAD1DADDB
S11332D02EAD3FAD2E970093F8231093F92320933E
S11332E0FA233093FB2342C080E090E041C080E0A9
S11332F090E03EC080E090E03BC0EEECF3E282E37D
S1133300DF011D928A95E9F720823182F1018184DF
S11333109284A384B484282D392D4A2D5B2D60E03A
S113332070E080E090E009E00E94A23E922E832E9D
S11333304EA75FA768AB79AB8AAB9BABABE00E94AF
S1133340E23E0190F081E02D0F2EF5E2EF2EF12CFC
S1133350F02D8E010F5F1F4F09958111B9CD109289
S1133360CE231092CF2380E090E002C08EEC93E253
S1133370C35BDF4FCDBFDEBFDF91CF911F910F91B4
S1133380FF90EF90DF90CF90BF90AF909F908F9081
S11333907F906F905F904F903F902F900895CF93C0
S11333A0DF930097B1F061157105B1F0FB0120A125
S11333B024FF15C020915C2330915D23232B91F0D1
S11333C02091952330919623232B79F080E090E08F
S11333D025C080E090E022C080E090E01FC080E043
S11333E090E01CC0CCE5D3E202C0C5E9D3E2DE0123
S11333F0129621E3FB0101900D922A95E1F788834F
S11334009983FB0181A192A1A3A1B4A18BAB9CAB35
S1133410ADABBEAB1FAA18AE8C2F9D2FDF91CF9101
S11334200895009719F0FC01108211820895FC019F
S1133430009761F043A154A165A176A143AB54ABBD
S113344065AB76AB17AA10AE81E0089580E00895CD
S11334502F923F924F925F926F927F928F929F92A0
S1133460AF92BF92CF92DF92EF92FF920F931F938E
S1133470CF93DF93CDB7DEB7E897CDBFDEBF8DAB7B
S11334809EAB009709F4FBC06115710509F4F9C0FE
S1133490DC010D90BC91A02DAFABB8AF5896ED9167
S11334A0FC915997EFA7F8ABDC01D3964D905D9052
S11334B06D907C90D697D7962D903C90D8972E16E9
S11334C03F0620F00E94171A80E0DEC0FE0131960C
S11334D086E0DF011D928A95E9F781E3FB011192F1
S11334E08A95E9F769837A8341145104610471046C
S11334F009F0A9C0AFA9B8ADED91FC9111978085F1
S11335008B3039F49A964D905D906D907C909D9798
S11335109AC0EFA9F8AD228D338D82A193A1A901A0
S1133520481B590B4FA758AB8EC06FA478A86218DC
S11335307308910140E050E060E070E0CB012FA2FD
S113354038A749A75AA76BA77CA78DA79EA749A907
S11335505AA96BA97CA9452B462B472B09F540E0BA
S113356050E060E070E080E090E0D2019296AC9090
S113357092979396BC9093979496CC9094979596A3
S1133580DC9095979696EC9096979796FC909797E3
S113359098960C91989799961C910E94D93E11C0C7
S11335A049A95AA96BA97CA9C2010E944515AFA0DB
S11335B0B8A4C12CD12CE12CF12C00E010E00E9425
S11335C0D93E1B821C82D201ED91FC910280F381D1
S11335D0E02DDE0111964D010F2EF3EBAF2EF5E138
S11335E0BF2EF02D63016894EE24E5F8F12C8E01D2
S11335F0095F1F4F0995882309F445C08B819C817D
S1133600280E391EEFA5F8A92E163F0610F149A879
S11336105AA86BA87CA8B301A2018FA998AD0E94F7
S113362092142B013C01611571058105910549F442
S11336308E81811116C08DA99EA90E94171A80E05F
S113364023C0212C312C49AA5AAA6BAA7CAA4FA8C0
S113365058AC8E81882309F468CF49A85AA86BA86E
S11336607CA8ADA9BEA9D3964D925D926D927C9231
S1133670D697D7962D923C92D8978E8105C080E03C
S113368003C080E001C080E0E896CDBFDEBFDF91DB
S1133690CF911F910F91FF90EF90DF90CF90BF904B
S11336A0AF909F908F907F906F905F904F903F90DE
S11336B02F9008956F927F928F929F92AF92BF92B4
S11336C0CF92DF92EF92FF920F931F93CF93DF93EA
S11336D05C016B01EA01009709F472C06115710580
S11336E009F470C0FB018081882309F46DC0209720
S11336F009F46CC08F3219F4FFEFCF1ADF0A81E3AB
S1133700FE0111928A95E9F780E188A3F601808190
S1133710882309F45DC0BE01C5010E94CF198C0144
S1133720009709F457C06FE270E0C6010E941C4183
S1133730009741F0E82EEC184C01FFEF8F1A9F0A16
S1133740F12C2CC0F60101900020E9F73197EC1917
S1133750FD09EE2E46018E0E911CF2CFFE01019062
S11337600020E9F731973F016C1A7D0A6E147F043B
S1133770A9F4A301BE01C6010E942741892B71F45B
S1133780C8010E94111AF601E60DF71D80818823F5
S113379019F188A184FD09C080E021C0BE01C801DF
S11337A00E94281A8111DACF03C0640100E010E0FE
S11337B0C8010E94111AF60180818111ACCF0EC09C
S11337C080E00DC080E00BC080E009C080E007C04D
S11337D081E005C080E003C081E001C081E0DF91A9
S11337E0CF911F910F91FF90EF90DF90CF90BF90FA
S11337F0AF909F908F907F906F9008955F926F929B
S11338007F928F929F92AF92BF92CF92DF92EF926C
S1133810FF920F931F93CF93DF93CDB7DEB76097DB
S1133820CDBFDEBF6C015B013A014901502E009708
S113383009F453C06115710509F452C083E080177F
S11338400CF451C00023F4F090E10902F0011124BA
S1133850E254FE4F9F2F990F990B6894EE24E4F8DD
S1133860F12C8E010F5F1F4F2E2F3F2F492F592F01
S1133870692F792F892FF60109958823B9F18D8154
S11338808823B9F1809108248823B1F180E090E085
S11338904CC08D818093082489859A85AB85BC852D
S11338A08093092490930A24A0930B24B0930C24AE
S11338B08D859E85AF85B88980930D2490930E24C1
S11338C0A0930F24B093102480E094E22EC08FEFD5
S11338D08093082480E094E228C080E090E025C032
S11338E080E090E022C080E090E01FC080E090E0A3
S11338F01CC080E090E019C0E0E0F4E281E1DF0167
S11339001D928A95E9F7C082D182A0920224B092D6
S113391003246092042470920524809206249092D9
S1133920072455200CF0B5CFD2CF6096CDBFDEBFB3
S1133930DF91CF911F910F91FF90EF90DF90CF9087
S1133940BF90AF909F908F907F906F905F900895FD
S1133950E0ECFAE0838382818823ECF708958FEF0B
S1133960E0ECFAE0838382818823ECF7E0ECFAE070
S113397083810895FF920F931F93CF93DF93C82FF2
S1133980D42F152F062FF72E0E94AF1C8C2F806486
S11339900E94A81C8F2D0E94A81C802F0E94A81C86
S11339A0812F0E94A81C8D2F0E94A81CCC2319F0E3
S11339B0C83029F008C085E90E94A81C0FC087E818
S11339C00E94A81C0BC08FEF0E94A81C07C00E9475
S11339D0AF1C8F3F29F4C150D1F702C0CAE0F7CF22
S11339E0DF91CF911F910F91FF900895EF92FF9275
S11339F00F931F938091122481111EC020911324D0
S1133A003091142440911524509116246091172468
S1133A1070911824E12C6894FF24F1F80BE114E26E
S1133A208091192490911A240E940D20882331F04A
S1133A3081E08093122403C081E001C080E01F91E3
S1133A400F91FF90EF9008952F923F924F925F92C3
S1133A506F927F928F929F92AF92BF92CF92DF929A
S1133A60EF92FF920F931F93CF93DF93CDB7DEB7FF
S1133A706897CDBFDEBF29833A834B835C836D8314
S1133A807E838F8398871701E114F10409F4FAC047
S1133A900F2EFBE18F2EF6E29F2EF02D0F8B188F49
S1133AA069807A8021E07222930140E050E060E076
S1133AB070E0CB0169863A874B875C876D877E8788
S1133AC08F87988B29813A814B815C816D817E81BE
S1133AD08F819885A984BA84C12CD12CE12CF12C36
S1133AE000E010E00E94EE3E522E432E498B5A8B8A
S1133AF06B8B7C8B8D8B9E8B40E052E04619570973
S1133B0049875A872416350610F429863A86A090E8
S1133B101324B0901424C0901524D0901624E0905F
S1133B201724F09018240091192410911A24252D9B
S1133B30342D49895A896B897C898D899E890E9493
S1133B40F73E09F46AC00E94F61C882309F49CC05D
S1133B5050E1509386068091112482FF10C0252DD8
S1133B60342D49895A896B897C898D899E8909E01C
S1133B700E94BD3E642F752F422F532F04C0452D44
S1133B80542D69897A8981E10E94BA1C882331F015
S1133B9080E1E0E8F6E0858380E079C00E94AF1C14
S1133BA08E3FE1F70BE114E20E94AF1CF801819310
S1133BB08F01E815F905C1F750921324409214249B
S1133BC0F989F09315242A89209316243B8930938C
S1133BD017244C89409318245D89509319246E89C5
S1133BE060931A24B301655E7B4D49855A858F899C
S1133BF0988D0E9413418F89988DE985FA858E0FDF
S1133C009F1F8F8B988F0E94AF1C0E94AF1CF0E106
S1133C10F09385060E94AF1C11C0B301655E7B4D15
S1133C2049855A858F89988D0E9413412F89388D33
S1133C3049855A85240F351F2F8B388F69857A85DE
S1133C40261A370A5B01262F3B2D40E050E060E046
S1133C5070E080E090E0A980BA80CB80DC80ED80C9
S1133C60FE800F8118850E94D93E29833A834B83B5
S1133C705C836D837E838F8398872114310409F0DC
S1133C800FCF04C081E003C080E001C081E06896EA
S1133C90CDBFDEBFDF91CF911F910F91FF90EF90C9
S1133CA0DF90CF90BF90AF909F908F907F906F9058
S1133CB05F904F903F902F9008959F92AF92BF9244
S1133CC0CF92DF92EF92FF920F931F93CF93DF93E4
S1133CD0E0E8F6E080E2818380E8818380E181830B
S1133CE090E49283858381E58093C00A1092112425
S1133CF01AE00E94AF1C1150E1F780E1E0E8F6E021
S1133D008683C0E0D2E040E050E0BA0180E00E9447
S1133D10BA1C813049F021972097A9F780E1E0E8A7
S1133D20F6E08583012FC2C04AEA51E060E070E00A
S1133D3088E00E94BA1C082F047082FD19C00E94FA
S1133D40AF1C0E94AF1C0E94AF1C80FFAFC00E943A
S1133D50AF1C8A3A09F0AAC082E080931124C0E023
S1133D60D0E8912CA12CB12C6894CC24C6F812C0B4
S1133D7040E050E0BA0187E30E94BA1C40E050E002
S1133D80BA0189E20E94BA1C82FDE9CF81E08093E6
S1133D901124E5CF80911124982F9370C9F081FDEF
S1133DA005C0D12CE12CF12C00E004C0D92CEA2C64
S1133DB0FB2C0C2D40E050E0BA0187E30E94BA1CB2
S1133DC04D2D5E2D6F2D702F89E20E94BA1C06C006
S1133DD040E050E0BA0181E00E94BA1C082F017053
S1133DE080FF09C021972097A9F680E1E0E8F6E07A
S1133DF08583012F5BC0C0911124C1FF1AC040E02C
S1133E0050E0BA018AE30E94BA1C882329F080E1B9
S1133E10E0E8F6E085834AC00E94AF1C86FF03C039
S1133E20C460C09311240E94AF1C0E94AF1C0E9466
S1133E30AF1C40E052E060E070E080E10E94BA1CF8
S1133E40882329F080E1E0E8F6E085832FC080E153
S1133E50E0E8F6E0858380ED8093C0098FEF8093DE
S1133E601324809314248093152480931624809320
S1133E701724809318248093192480931A2481E0B2
S1133E8080931224E12C6894FF24F1F80BE114E2EE
S1133E9020E030E040E050E060E070E080E090E05E
S1133EA00E94241D01E0811101C000E0802FDF91F8
S1133EB0CF911F910F91FF90EF90DF90CF90BF9023
S1133EC0AF909F9008952F923F924F925F926F927E
S1133ED07F928F929F92AF92BF92CF92DF92EF9296
S1133EE0FF920F931F93CF93DF93CDB7DEB7629703
S1133EF0CDBFDEBF2F87388B498B5A8B562E472E6A
S1133F00382E292E09831A833601AB86BC86012BF1
S1133F1009F460C0E114F10409F45EC0CE14DF04B6
S1133F2008F45CC0AB2809F45BC0970140E050E0A2
S1133F3060E070E0CB01EB823C834D835E836F8352
S1133F40788789879A878D869E864701DF84C8880B
S1133F50B988AA88740109811A812D2D3C2D4B2D15
S1133F605A2D652D742D832D922D0E94241D882396
S1133F70C9F1ED84FE840D2D1C2D2B2D3A2D452DDC
S1133F80542D632D722D89819A81EB85FC850995C9
S1133F90882351F12D2D3C2D4B2D5A2D652D742D3B
S1133FA0832D922DAB80BC80C12CD12CE12CF12C23
S1133FB000E010E00E94D93ED22EC32EB42EA52ECE
S1133FC0562E472E382E292E68187908681479043D
S1133FD008F60CC080E00BC080E009C080E007C098
S1133FE080E005C080E003C081E001C081E062960A
S1133FF0CDBFDEBFDF91CF911F910F91FF90EF9066
S1134000DF90CF90BF90AF909F908F907F906F90F4
S11340105F904F903F902F9008952F923F924F9230
S11340205F926F927F928F929F92AF92BF92CF9244
S1134030DF92EF92FF920F931F93CF93DF93CDB74D
S1134040DEB76997CDBFDEBF29833A834B835C8398
S11340506D837E838F839887E114F10409F40FC183
S11340600F2EFBE18F2EF6E29F2EF02D1701280173
S113407029813A813170288F398F40E050E060E027
S113408070E0CB0129873A874B875C876D877E87F1
S11340908F87988B29813A814B815C816D817E81E8
S11340A08F819885A984BA84C12CD12CE12CF12C60
S11340B000E010E00E94EE3E2987398B4A8B5B8B2F
S11340C06C8B7D8B8E8B9F8B612C6894772471F81D
S11340D0688D798D661A770A2614370408F431013D
S11340E0A0901324B0901424C0901524D0901624CA
S11340F0E0901724F09018240091192410911A24A8
S1134100298539894A895B896C897D898E899F894A
S11341100E94F73EC1F10E94F61C882309F4B1C045
S1134120888D998D892B21F4611492E0790698F495
S1134130E12C6894FF24F1F80BE114E22985398914
S11341404A895B896C897D898E899F890E94241D97
S1134150882309F498C0E985E0931324F989F0933E
S113416014242A89209315243B89309316244C89DE
S1134170409317245D89509318246E896093192401
S11341807F8970931A248BE1481684E2580671F0F3
S1134190A301B201888D998D855E9B4D0E941341C8
S11341A0109212242614370409F46FC090E19093FE
S11341B086068091112482FF10C0298539894A8995
S11341C05B896C897D898E899F8909E00E94BD3E47
S11341D0642F752F422F532F04C0498559896A894A
S11341E07B8988E10E94BA1C882331F080E1E0E8F1
S11341F0F6E0858380E04CC08EEF0E94A81C0BE1A2
S113420014E2F80181918F010E94A81C0815190578
S1134210C1F78FEF0E94A81C8FEF0E94A81C0E9478
S1134220AF1C8F3FE1F70E94AF1CF0E1F0938506CD
S1134230460C571C5301262D3B2D40E050E060E016
S113424070E080E090E0A980BA80CB80DC80ED80D3
S1134250FE800F8118850E94D93E29833A834B83BF
S11342605C836D837E838F8398872618370821E0CB
S1134270209312242114310409F0FACE08C081E0FD
S113428007C080E005C080E003C081E001C081E098
S11342906996CDBFDEBFDF91CF911F910F91FF9043
S11342A0EF90DF90CF90BF90AF909F908F907F90D2
S11342B06F905F904F903F902F9008952F923F9270
S11342C04F925F926F927F928F929F92AF92BF9222
S11342D0CF92DF92EF92FF920F931F93CF93DF93CE
S11342E0CDB7DEB72997CDBFDEBF28873D83562ED5
S11342F0472E09831A83CB82DC82AE82BF82012BD4
S113430009F446C0CD2809F445C04701A22EB32EB6
S1134310C42ED52E782E692E170132C028853985F2
S113432082169306C8F1E884F98409811A812A2D3A
S11343303B2D4C2D5D2D652D742D872D962D0E94C2
S11343400D20882359F1E884F984A7012E2D352FF7
S113435040E050E060E070E080E090E0E52CF42C78
S1134360072D162D0E94D93EA22EB32EC42ED52E73
S1134370562E472E782E692E88859985881A990A93
S11343802114310431F18114910471F481E036C0B7
S113439080E034C080E032C080E030C080E02EC0D5
S11343A081E02CC081E02AC0EE80FF800A2D1B2D05
S11343B02C2D3D2D452D542D672D762D89819A81E7
S11343C0EB81FC81099588879987892B09F0A6CF11
S11343D0E7CFEE80FF800A2D1B2D2C2D3D2D452D82
S11343E0542D672D762D89819A81EB81FC81099565
S11343F088879987892B09F096CFD4CF2996CDBF8A
S1134400DEBFDF91CF911F910F91FF90EF90DF906E
S1134410CF90BF90AF909F908F907F906F905F9060
S11344204F903F902F9008950F9380911B268130D9
S113443009F454C00E945D1E811109C085E592E211
S11344409F938F930E9472410F900F9047C081E019
S113445080931B2600E02EE531E24DE050E263E656
S11344607FE184E29DE10E94FE1B80931C289093CF
S11344701D28892B79F40FEF2EE531E24DE050E24F
S113448063E67FE184E29DE10E94FE1B80931C2889
S113449090931D2880911C2890911D280E94331709
S11344A08093B6279093B72749EE57E264E772E208
S11344B00E945A1B69EE77E28091B6279091B72744
S11344C00E94CF1980931E2890931F2886E792E2BA
S11344D09F938F930E9472410F900F900F910895B4
S11344E0E7E5F8E281818F9380818F9388EA92E2F5
S11344F09F938F930E94724110925F2810926028BC
S11345000F900F900F900F900895E7E5F8E28181E6
S11345108F9380818F9382EC92E29F938F930E947A
S1134520724181E090E080935F28909360280F901F
S11345300F900F900F9008950F931F93CF93DF93D5
S1134540CDB7DEB72A97CDBFDEBF07E518E2F80185
S113455081818F9380818F938BED92E29F938F93D0
S11345600E94724181E090E080935F2890936028DC
S1134570898392E09A83F80120812B838C8301E064
S113458012E031E04D815E816F81788589859A855D
S11345900E9448088FE39CE90197F1F700C00000EE
S11345A00F900F900F900F902A96CDBFDEBFDF9132
S11345B0CF911F910F91089580915B2890915C2871
S11345C0181619064CF40E94852280915F28909158
S11345D06028892BF1F404C010925F28109260289F
S11345E080915728909158281816190644F40E946F
S11345F09C2280915F2890916028892B51F48091AE
S11346005D2890915E28892B21F480E1E0EEF6E0AC
S1134610868308950F931F93CF93DF93CDB7DEB7AF
S11346202A97CDBFDEBF07E518E2F80181818F9399
S113463080818F9382EF92E29F938F930E947241C5
S113464081E0898382E08A83F80120812B838C8333
S113465001E012E032E04D815E816F8178858985C9
S11346609A850E9448088FE39CE90197F1F700C0FE
S1134670000081E090E080935D2890935E280F9085
S11346800F900F900F902A96CDBFDEBFDF91CF9190
S11346901F910F91089580915728909158281816CA
S11346A0190614F40E940A2380915F2890916028CF
S11346B0892B79F480915D2890915E28892B49F4A7
S11346C080915728909158281816190614F40E94BE
S11346D07022089580935728909358280895DF9264
S11346E0EF92FF920F931F93CF93DF93EC01D62E9B
S11346F0142FF22EE0FE0DC0402F411B622F6D0DD2
S11347000E94142B402F4D19612F6F0DCE010E9472
S1134710142BE1FE0EC0402F411B6F2D6D19CE01ED
S11347200E94142B402F4D196F2D611BCE010E9446
S1134730142BE3FE0EC0402F410F6F2D6D0DCE01E3
S11347400E94142B402F4D0D612F6F0DCE010E943E
S1134750142BE2FE0EC0402F410F6F2D6D19CE01B8
S11347600E94142B402F4D0D6F2D611BCE010E9412
S1134770142BDF91CF911F910F91FF90EF90DF9059
S113478008958F929F92AF92BF92CF92DF92EF9251
S1134790FF920F931F93CF93DF93EC01A62E942ED9
S11347A0D22E802E11E0121BB22EB194BB0CE02E3F
S11347B0042F262F4D2D60E00E946F23DD20C9F0C9
S11347C00F2EF3E0CF2EF02DF12C112324F0DA94E8
S11347D0B394B3941B0DF3941C0DE82C092D2A2DCE
S11347E04D2D6F2DCE010E946F23C394C394FD14ED
S11347F060F3DF91CF911F910F91FF90EF90DF90C5
S1134800CF90BF90AF909F908F900895DF92EF92DA
S1134810FF920F931F93CF93DF93EC01162FF42E87
S1134820E22ED02E81E0820F282F220F481B681B16
S1134830022FCE010E942D24882339F00D2D2E2D18
S11348404F2D612FCE010E94C123DF91CF911F9183
S11348500F91FF90EF90DF9008950F93FC010150AA
S1134860040F84A996A9941738F0081768F481E016
S1134870041740F080E006C00817D0F081E0041768
S113488008F080E08823C9F02150260F83A995A958
S1134890961738F0281770F481E0261770F080E03E
S11348A00CC0281748F081E0261738F080E005C0D6
S11348B080E003C081E001C080E00F910895DB0136
S11348C01496ED91FC91159720E030E061E0099594
S11348D00895DB011496ED91FC91159720E030E0EA
S11348E063E009950895DB011496ED91FC91159709
S11348F020E030E040E064E009950895DB0114967F
S1134900ED91FC91159720E030E041E064E00995D9
S11349100895DB011496ED91FC91159720E030E0A9
S113492062E009950895DB011496ED91FC911597C9
S113493020E030E065E009950895DB011496ED91DF
S1134940FC91159766E009950895AF92BF92CF92B6
S1134950DF92EF92FF921F93CF93DF937C015B0171
S1134960EA01D12CFE011491D1100BC01F3F09F4B0
S11349704FC0412FB501C7010E94932481114EC03D
S11349804FC01F3F51F44FEFB501C7010E9493245C
S1134990882309F447C0D12C41C01E3F09F444C008
S11349A0103FC8F5103E40F0412F4F70B501C701CC
S11349B00E948924D12C32C0103D40F0412F4F7009
S11349C0B501C7010E946924D12C28C0103CC0F055
S11349D0B501C7010E947324C12ECC0CCC0CCC0CA5
S11349E0CC0CC394C394D12CC6010E949B26B50160
S11349F0C7010E947E24C6010E949B26D12C0EC0B2
S1134A0011235CF0812F90E00E949B26D12C06C0DC
S1134A10DD24D39403C0D12C01C0D12C2196A2CF84
S1134A2080E003C080E001C081E0DF91CF911F915D
S1134A30FF90EF90DF90CF90BF90AF9008951F93B9
S1134A40CF93DF93EC01162F462F417065E00E944F
S1134A5091261695412F417066E0CE010E94912661
S1134A601695412F417067E0CE010E94912616955C
S1134A70412F417068E0CE010E9491261695412F86
S1134A80417069E0CE010E9491261695412F417034
S1134A906AE0CE010E9491261695412F41706BE089
S1134AA0CE010E949126412F46956CE0CE010E94D2
S1134AB0912641E064E0CE010E94912640E064E04A
S1134AC0CE010E949126DF91CF911F910895DF922C
S1134AD0EF92FF920F931F93CF93DF93EC01D42EA9
S1134AE07901062F10E0F8013197E730F10508F05D
S1134AF09FC0E650FF4F0C94293E41117EC098C0E0
S1134B00411184C095C06DE00E94882640E06DE0AC
S1134B10CE010E94912665E0CE010E94882666E0BF
S1134B20CE010E94882667E0CE010E94882668E0B4
S1134B30CE010E94882669E0CE010E9488266AE0A0
S1134B40CE010E9488266BE0CE010E9488266CE08C
S1134B50CE010E94882664E0CE010E94882662E08D
S1134B60CE010E94882663E0CE010E94882661E07F
S1134B70CE010E94882641E062E0CE010E94912687
S1134B8041E063E0CE010E94912652C041110AC067
S1134B9041E062E00E94912641E063E0CE010E9480
S1134BA0912646C081E048130BC040E062E0CE018C
S1134BB00E94912641E063E0CE010E94912638C014
S1134BC0E2E04E130BC041E062E0CE010E94912668
S1134BD040E063E0CE010E9491262AC040E062E0FA
S1134BE0CE010E94912640E063E0CE010E9491260E
S1134BF01FC0642F0E941F251BC0F70161917F0114
S1134C00CE010E941F25DA94C1F712C0F701649106
S1134C10CE010E941F25FFEFEF1AFF0ADA94B1F7C5
S1134C2007C061E00E94912603C060E00E949126C3
S1134C3081E0DF91CF911F910F91FF90EF90DF9072
S1134C400895CF93DF9300D0CDB7DEB770E0660F41
S1134C50771F680F791F42E050E0CE0101960E9451
S1134C60FF4089819A810F900F90DF91CF91089531
S1134C70880F880F880F860F0895CF93C82F682F49
S1134C8066956695669582E093E00E942126FC0174
S1134C904081C77021E030E0C90102C0880F991F2C
S1134CA0CA95E2F7842B8083CF910895CF93DF9345
S1134CB0C82FD62F682F66956695669588EF92E083
S1134CC00E942126FC01D11111C04FB7F8945081E4
S1134CD0C77021E030E0C90102C0880F991FCA954E
S1134CE0E2F78095852380834FBF0FC04FB7F894B8
S1134CF05081C77021E030E0C90102C0880F991FBC
S1134D00CA95E2F7852B80834FBFDF91CF91089539
S1134D10860F911DFC0183A18F3F11F00E943D2657
S1134D200895860F911DFC0183A18F3F19F0642F14
S1134D300E9456260895009741F02EE33FE1F901C1
S1134D403197F1F701970097D1F70895BF92CF9269
S1134D50DF92EF92FF920F931F93CF93DF938C0117
S1134D60EB01B42E79018AE0481721F095E1491747
S1134D70C1F06AC04FEFC8010E945F24EFE1F3E085
S1134D803197F1F700C000004CE053E0BE01C801C8
S1134D900E94A5248FE193E00197F1F700C0000081
S1134DA053C0CA80DB8040E0C8010E94892442E0ED
S1134DB0BE01C8010E946924F6014481486BBE010A
S1134DC0C8010E94932440E4BE01C8010E949324B8
S1134DD041E0BE01C8010E948924F6012681378181
S1134DE040E4BE01C8010E949D2440E0BE01C80108
S1134DF00E94692440E0BE01C8010E94892441E068
S1134E00BE01C8010E946924F6014481486BBE01B9
S1134E10C8010E94932440E4BE01C8010E94932467
S1134E2041E0BE01C8010E948924F6012681378130
S1134E30205C3F4F40E4BE01C8010E949D2440E035
S1134E40BE01C8010E94692497014B2DBE01C8010F
S1134E500E94212CDF91CF911F910F91FF90EF9031
S1134E60DF90CF90BF900895FC01E60FF11D84916F
S1134E7090E0982F88273196E4918E0F911D089524
S1134E80FC01849108950E944027882311F0823008
S1134E9011F486E0089583E0089580E00895FC010C
S1134EA0808D8F5F089566E00E943427089568E03E
S1134EB00E94342708950A96FC01849108950B9664
S1134EC0FC0184910895AF92BF92CF92DF92EF924A
S1134ED0FF920F931F93CF93DF937C01B62EDC01D7
S1134EE01496CD91DC911597CE010E944027182F7E
S1134EF0F701848195810E944327082F113019F00E
S1134F00AA24AA9404C00F2EFFE0AF2EF02DD701DF
S1134F1014968D919C9115970E945B27D82EF701CA
S1134F20848195810E945F27C82ED70114968D91A4
S1134F309C9115970E945727B0E6BB1548F400973B
S1134F4039F0C80FD91F0F2EF1E6DF2EF02D12C055
S1134F50F701848195810E945327F0E4FB1548F4FE
S1134F60009739F0C80FD91F0F2EF1E4DF2EF02D72
S1134F7001C06196CB1490F4D70150961C925097BF
S1134F8053961C92539754961C92549751961C9284
S1134F90519752961C9280E090E073C0CD1408F4AF
S1134FA068C0202F30E08E01FE0184918F3F11F400
S1134FB021965BC0DB1051C06E01D70114968D9110
S1134FC09C9115970E944027882311F0823001F5A7
S1134FD0F8010491D70153960C93F6013196E491AC
S1134FE0D7015496EC93F6013396E491D701509689
S1134FF0EC93F6013496E491D7015196EC93F601C3
S11350003596E491D7015296EC938C2F9D2F39C09D
S1135010FE010491802F8F708250D70152968C9399
S1135020529702950F7051960C93FE013196E491BC
S11350308E2F8F70D70154968C935497E295EF700E
S11350405396EC93FE013296E491E295EF70D7010A
S11350505096EC938C2F9D2F14C0FE013296E49150
S1135060EA21CE0FD11DC20FD31FDC1411F0D3944B
S11350709ACFF701108A138A148A118A128A80E05F
S113508090E0DF91CF911F910F91FF90EF90DF900F
S1135090CF90BF90AF9008956F927F928F929F921E
S11350A0AF92BF92CF92DF92EF92FF920F931F9332
S11350B0CF93DF936C01162F742E622F0E94632707
S11350C07C01009709F447C0F601848195810E9410
S11350D04327B82EF601D389C4896188610E928969
S11350E0791A972C9C1A0C2F2D2F492D662DC60149
S11350F00E942D24811103C0F60180892DC0D95F3F
S11351008D2E869486948694CC2311F1EB0CF11C9D
S1135110AA24AA94A80CB12CFFEFAF1ABF0A13C09B
S1135120FE01049120E0492D612FC6010E941D2B30
S11351302196185F8C2F8E19881590F3EA0CFB1CAE
S11351409394971429F08820D9F3162DE701E8CF1A
S1135150F601808901C080E0DF91CF911F910F910A
S1135160FF90EF90DF90CF90BF90AF909F908F9083
S11351707F906F900895DF92EF92FF920F931F93A9
S1135180CF93DF938C01F62ED42EE901DC015596E2
S1135190ED91FC9156970995D80E2881222369F048
S11351A02196E12C4D2D6F2DC8010E944C28F80E3C
S11351B0E80E29912111F6CF01C0E12C8E2DDF914B
S11351C0CF911F910F91FF90EF90DF900895DC0134
S11351D014968D919C911597009709F44DC057969C
S11351E02C91579721110DC0FC013596E4915896E6
S11351F0EC935897FC013C96849159968C9359975B
S11352001BC0213069F4FC013F96E4915896EC935D
S11352105897FC017096849159968C9359970CC0B9
S1135220FC013D96E4915896EC935897FC013E9608
S1135230849159968C93599758968C91589799279D
S113524087FD909559962C915997821B910927FDBA
S113525093955A962C915A97203461F0829FC001FD
S113526011240024880F991F001C880F991F001C0B
S1135270892F902D5B968C930895FC01178A0E94C8
S1135280E72808952DE437E2FC01258B368B089539
S11352902FE437E2FC01258B368B0895CF93DF93FF
S11352A0EC018C819D818617970749F06C837D837F
S11352B0CE010E94E7288DE497E28D8B9E8BDF91CF
S11352C0CF910895AF92BF92CF92DF92EF92FF9267
S11352D00F931F93CF93DF93EC01162FE42ED22E5E
S11352E0261718F4C62EC21A02C0C22EC61A0E15EC
S11352F018F4AE2CA01A02C0A02EAE18CA1428F0BE
S11353008A2DAC2CC82EB12C08C08D2DD02E082F80
S1135310812F1E2DE82EBB24B394D11630F48E2D8C
S1135320E02E082F812F1D2DD82EFA2CF694E0168E
S113533010F401E001C00FEFD116A0F0B11006C0C7
S11353404E2D612FCE010E94142B05C0412F6E2DCE
S1135350CE010E94142BFC1812F4E00EFA0C1F5F0D
S1135360D11660F7DF91CF911F910F91FF90EF90CD
S1135370DF90CF90BF90AF9008951F93CF93DF93AA
S1135380EC011C821D821E821F82198681E088879F
S113539082E28A871E861F86FE01B39680E09FEF15
S11353A091938F5F8E30E1F711E018A3CE010E9434
S11353B042291F8B188E198E80E48A8F1B8E8CEDE8
S11353C09DE289AB9AABDF91CF911F910895DB01E8
S11353D0ED91FC91099508950F931F93CF93DF935B
S11353E0EC018B01E9A9FAA982E0099520E030E0FB
S11353F04AE0B801CE010E94E729182FE9A9FAA9C9
S113540083E00995E9A9FAA980E00995812FDF9144
S1135410CF911F910F9108950F931F93CF93DF9313
S1135420EC018B01E9A9FAA982E00995E9A9FAA995
S113543081E0099520E030E044E1B801CE010E940A
S1135440E7299E012D5C3F4F47E1B801CE010E9440
S1135450E729E9A9FAA980E00995DF91CF911F9185
S11354600F910895FF920F931F93CF93DF93EC0155
S11354708B01E9A9FAA982E00995E9A9FAA981E0D1
S1135480099520E030E045E1B801CE010E94E7290A
S1135490F82E882341F09E012D5C3F4F47E1B8016F
S11354A0CE010E94E729E9A9FAA980E009958F2D88
S11354B0DF91CF911F910F91FF900895FC01448FCC
S11354C0258F9C01245E3F4F42E30E94E729089503
S11354D0CF93DF931F92CDB7DEB79E012F5F3F4F6F
S11354E046E40E94E72989810F90DF91CF910895C6
S11354F0CF93DF931F92CDB7DEB79E012F5F3F4F4F
S113550047E40E94E72989810F90DF91CF910895A4
S113551020E030E048E40E94E7290895CF93DF9328
S1135520EC016A817B810E94682A88836A817B817D
S1135530CE010E94782A89836A817B81CE010E94F0
S1135540882A8B879E012D5C3F4F6A817B8147E1CE
S1135550CE010E94E729DF91CF910895CF93DF9385
S1135560EC016A817B810E94EC29882329F0CE0119
S11355700E948E2A81E001C080E0DF91CF910895DE
S11355804F925F926F927F928F92AF92CF92EF92EF
S1135590FF920F931F93CF93DF93CDB7DEB73C01F8
S11355A02B01F42E122F0E94BD29F3014282538253
S11355B0F0A611A702A7E3A6C4A6A5A686A6888975
S11355C087A7898987A38A8985A38B8986A38C89E0
S11355D084A38D8980AB8E8983A3C3010E94AE2AE4
S11355E0DF91CF911F910F91FF90EF90CF90AF90EB
S11355F08F907F906F905F904F900895FC0162812F
S113560073810E940C2A0895CF93DF93EC01EE85F9
S1135610FF85309709F009956A817B81CE010E944C
S1135620322ADF91CF910895362F242FFC01628115
S11356307381432F0E945E2A08950F93FC01828197
S11356409381648F458F278F068F9F01245E3F4F80
S11356504BE3BC01CF010E94E7290F910895FC019F
S11356608385883221F0823021F483E008958FEF1E
S1135670089581E00895CF93DF93EC018B85803307
S113568021F48FEF88A389A304C0CE010E942F2B9D
S113569088A3DF91CF910895FC0110A20895FC0125
S11356A0128280818150838314820895FC012081B9
S11356B08281820F82839181891760F484818F5F54
S11356C084838381280F291710F02FEF290F238358
S11356D081E0089580E00895DC011696ED91FC9137
S11356E0179715968C919F01280F311DC9011192AE
S11356F0E817F907E1F70895FC0191E08381861723
S113570008F490E021E0461708F020E0322F392B0E
S113571081E05281451708F480E083239223892B8A
S11357200895DC01FB01108212968C9112978183FB
S113573015968C9115978150828313968C9183834F
S11357400895FB0161812381213019F0233021F078
S113575006C048E0460F04C0462F685001C0462FDB
S11357600E947C2B0895DC011696ED91FC9117970D
S113577012968C91481B477081E090E0DC0102C0D6
S1135780AA0FBB1F4A95E2F7AD01E60FF11D2223D4
S113579021F08081482B40830895409580814823DF
S11357A040830895FB014181FC012281421770F07E
S11357B02381241758F0FB013081FC012581321725
S11357C028F4FB012481632F0E94B32B0895DF92F8
S11357D0EF92FF920F931F93CF93DF938C01EB0112
S11357E0FA808B81813041F098F0823049F0833027
S11357F059F0D12CE12C0FC0DD24D394E12C0BC043
S1135800D12CEE24EA9407C0DD24DA94E12C03C001
S1135810D12CEE24E394FF2024F4BE01C8010E949D
S1135820D22B88818E0D888389818D0D8983FF0C0D
S113583091F7DF91CF911F910F91FF90EF90DF903F
S113584008950F931F93CF93DF93E901FB01028126
S1135850138150E0FA017497E433F105C0F5EF5F6A
S1135860FE4F0C94293EB901C8010E94A12B882344
S113587081F1BE01C8010E94E72B81E02DC0B9016E
S1135880C8010E94D22B81E027C0C8010E946C2B62
S1135890C8010E944F2B81E01FC0C8010E94562BF3
S11358A08823C9F0C8010E946C2B81E015C0B9019E
S11358B0C8010E94912B81E00FC0F8018581888383
S11358C081E00AC0F8018181888381E005C081E01C
S11358D003C081E001C080E0DF91CF911F910F915F
S11358E00895AF92BF92CF92DF92EF920F931F93DE
S11358F0CF935C01C62EE42ED22E27E02D15B8F4EA
S1135900CD2D162F0FEF20E04E2D612FC5010E94E3
S11359101D2BC850185FC830A8F78D2D877028E05C
S11359202C0D98EF9D0D987FC22EC90E01C08D2DB0
S1135930882399F007E008270F5F07708FEF90E046
S11359409C0102C0220F331F0A95E2F7890120E06F
S11359504E2D6C2DC5010E941D2BCF911F910F91CF
S1135960EF90DF90CF90BF90AF900895AF92BF9229
S1135970CF92DF92EF920F931F93CF935C01E62EA9
S1135980C42ED22E27E02D15B8F4CD2D142F0FEFF1
S113599021E0412F6E2DC5010E941D2BC850185FB8
S11359A0C830A8F78D2D877028E02C0D98EF9D0D39
S11359B0987FC22EC90E01C08D2D882399F007E06F
S11359C008270F5F07708FEF90E09C0102C0220F41
S11359D0331F0A95E2F7890121E04C2D6E2DC50194
S11359E00E941D2BCF911F910F91EF90DF90CF90CC
S11359F0BF90AF900895DF92EF92FF920F931F93A1
S1135A00CF93DF93EC01162FF42EE22ED02E0E94BA
S1135A102D248823E1F02E2D4F2D612FCE010E94DD
S1135A20712C2D2D4F2D612FCE010E94B62C6FEFBE
S1135A306E0D610F2D2D4F2DCE010E94B62CDA94E0
S1135A404D2D4F0D2E2D612FCE010E94712CDF9113
S1135A50CF911F910F91FF90EF90DF900895EF92F7
S1135A60FF920F931F93CF93DF93EC01E62E142F35
S1135A70F22E2F2D412F6E2DCE010E94712C1F5F0F
S1135A800150B9F7DF91CF911F910F91FF90EF90E3
S1135A900895DF92EF92FF920F931F93CF93DF93BA
S1135AA0EC01162FF42EE22E0E942D24882331F0CF
S1135AB02E2D4F2D612FCE010E942F2DDF91CF91DE
S1135AC01F910F91FF90EF90DF9008957F928F9236
S1135AD09F92AF92BF92CF92DF92EF92FF920F9379
S1135AE01F93CF93DF93EC01162FF42ED22EC02EEA
S1135AF00E942D24882309F451C0A12EAE0CBF2C82
S1135B00BE0C8E2C80948D0C810E9C2C9E187724B8
S1135B107A94790C7F0C02E02E2D4B2D6A2DCE0148
S1135B200E94C12301E02E2D4B2D682DCE010E9431
S1135B30C12304E02E2D472D6A2DCE010E94C123DE
S1135B4008E02E2D472D682DCE010E94C1238E2DF5
S1135B50880F8D2C881A8A948A949A949A949E1801
S1135B60A394B394282D4F2D6A2DCE010E94712C3D
S1135B70CA944C2D4F0D282D6A2DCE010E94712CF4
S1135B80292D4B2D612FCE010E94B62CDA946D2D58
S1135B90610F292D4B2DCE010E94B62CDF91CF91A0
S1135BA01F910F91FF90EF90DF90CF90BF90AF9037
S1135BB09F908F907F900895089580E48093A82605
S1135BC080E18093A92608952F923F924F925F928D
S1135BD06F927F928F929F92AF92BF92CF92DF92F9
S1135BE0EF92FF920F931F93CF93DF93782E0F2E94
S1135BF0F1E68F2EF8E29F2EF02D0F2EF9E0AF2E56
S1135C00B12CF02DC12CD12C6894EE24E1F800E0E5
S1135C1026E040E860E00E94F2328111BBC040906F
S1135C2063285090642821E04216520618F0412C53
S1135C30552453940F2EF1E68F2EF8E29F2EF02D6B
S1135C405201C12CD12C6894EE24E1F800E026E046
S1135C5040E860E0872D0E94F23281119DC060907F
S1135C606628E40182010F59174D872D90E07C01CD
S1135C70EE0CFF1C8E0D9F1DDC01AE59B64D7D014F
S1135C805D01B2E0AB0EB11C0F2EFCE98F2EF6E2E3
S1135C909F2EF02D0F2EFEE94F2EF6E25F2EF02DF3
S1135CA00F2EFBEA2F2EF6E23F2EF02D6DC08981D8
S1135CB0843021F08881C80FD11D66C08D81833066
S1135CC009F06CC08E81813009F06AC08F81823006
S1135CD009F068C022E0F5012083D701ED91FC9121
S1135CE0C280D3800E94DD2DF70180829182DD2461
